{"contracts/AAVE/AAVEProtocol/AaveClosePosition.sol":{"AaveClosePosition":{"abi":[{"inputs":[],"name":"NonContractCall","type":"error"},{"inputs":[],"name":"ReturnIndexValueError","type":"error"},{"inputs":[],"name":"SenderNotAdmin","type":"error"},{"inputs":[],"name":"SenderNotOwner","type":"error"},{"inputs":[],"name":"SubIndexValueError","type":"error"},{"anonymous":false,"inputs":[{"indexed":true,"internalType":"string","name":"logName","type":"string"},{"indexed":false,"internalType":"bytes","name":"data","type":"bytes"}],"name":"ActionEvent","type":"event"},{"inputs":[],"name":"AAVE_REFERRAL_CODE","outputs":[{"internalType":"uint16","name":"","type":"uint16"}],"stateMutability":"view","type":"function"},{"inputs":[],"name":"NO_PARAM_MAPPING","outputs":[{"internalType":"uint8","name":"","type":"uint8"}],"stateMutability":"view","type":"function"},{"inputs":[],"name":"RETURN_MAX_INDEX_VALUE","outputs":[{"internalType":"uint8","name":"","type":"uint8"}],"stateMutability":"view","type":"function"},{"inputs":[],"name":"RETURN_MIN_INDEX_VALUE","outputs":[{"internalType":"uint8","name":"","type":"uint8"}],"stateMutability":"view","type":"function"},{"inputs":[],"name":"SUB_MAX_INDEX_VALUE","outputs":[{"internalType":"uint8","name":"","type":"uint8"}],"stateMutability":"view","type":"function"},{"inputs":[],"name":"SUB_MIN_INDEX_VALUE","outputs":[{"internalType":"uint8","name":"","type":"uint8"}],"stateMutability":"view","type":"function"},{"inputs":[],"name":"actionType","outputs":[{"internalType":"uint8","name":"","type":"uint8"}],"stateMutability":"pure","type":"function"},{"inputs":[],"name":"adminData","outputs":[{"internalType":"contract AdminData","name":"","type":"address"}],"stateMutability":"view","type":"function"},{"inputs":[{"internalType":"uint256","name":"totalCollateral","type":"uint256"},{"internalType":"uint256","name":"totalDebt","type":"uint256"},{"internalType":"uint256","name":"liquidationThreshold","type":"uint256"}],"name":"calculateSafeWithdrawAmount","outputs":[{"internalType":"uint256","name":"withdrawAmount","type":"uint256"}],"stateMutability":"view","type":"function"},{"inputs":[{"internalType":"bytes","name":"_callData","type":"bytes"},{"internalType":"bytes32[]","name":"_subdata","type":"bytes32[]"},{"internalType":"uint8[]","name":"_paramMapping","type":"uint8[]"},{"internalType":"bytes32[]","name":"_returnValues","type":"bytes32[]"}],"name":"executeAction","outputs":[{"internalType":"bytes32","name":"","type":"bytes32"}],"stateMutability":"payable","type":"function"},{"inputs":[{"internalType":"bytes","name":"_callData","type":"bytes"}],"name":"executeActionDirect","outputs":[],"stateMutability":"payable","type":"function"},{"inputs":[{"internalType":"address","name":"_proxy","type":"address"}],"name":"isDSProxy","outputs":[{"internalType":"bool","name":"","type":"bool"}],"stateMutability":"view","type":"function"},{"inputs":[],"name":"kill","outputs":[],"stateMutability":"nonpayable","type":"function"},{"inputs":[],"name":"logger","outputs":[{"internalType":"contract DefisaverLogger","name":"","type":"address"}],"stateMutability":"view","type":"function"},{"inputs":[],"name":"registry","outputs":[{"internalType":"contract DFSRegistry","name":"","type":"address"}],"stateMutability":"view","type":"function"},{"inputs":[{"internalType":"address","name":"_token","type":"address"},{"internalType":"address","name":"_receiver","type":"address"},{"internalType":"uint256","name":"_amount","type":"uint256"}],"name":"withdrawStuckFunds","outputs":[],"stateMutability":"nonpayable","type":"function"}],"evm":{"bytecode":{"linkReferences":{},"object":"608060405234801561001057600080fd5b506130a0806100206000396000f3fe6080604052600436106100f35760003560e01c80637b1039991161008a5780639864dcdd116100595780639864dcdd14610302578063c579d4901461032d578063d3c2e7ed14610356578063f24ccbfe14610381576100f3565b80637b1039991461023f5780638bcb62161461026a5780638df50f74146102955780638ebb7a77146102c5576100f3565b8063247492f8116100c6578063247492f8146101b65780632fa13cb8146101e1578063389f87ff1461020c57806341c0e1b514610228576100f3565b806305a363de146100f857806306d2ae8e146101235780630f2eee421461014e5780631c451ceb14610179575b600080fd5b34801561010457600080fd5b5061010d6103ac565b60405161011a9190611ccf565b60405180910390f35b34801561012f57600080fd5b506101386103b1565b6040516101459190611d69565b60405180910390f35b34801561015a57600080fd5b506101636103c9565b6040516101709190611da0565b60405180910390f35b34801561018557600080fd5b506101a0600480360381019061019b9190611e0d565b6103ce565b6040516101ad9190611e55565b60405180910390f35b3480156101c257600080fd5b506101cb610465565b6040516101d89190611da0565b60405180910390f35b3480156101ed57600080fd5b506101f6610480565b6040516102039190611da0565b60405180910390f35b61022660048036038101906102219190611fb6565b610485565b005b34801561023457600080fd5b5061023d6106d0565b005b34801561024b57600080fd5b506102546107d0565b6040516102619190612020565b60405180910390f35b34801561027657600080fd5b5061027f6107e8565b60405161028c9190611da0565b60405180910390f35b6102af60048036038101906102aa9190612228565b6107ed565b6040516102bc919061230e565b60405180910390f35b3480156102d157600080fd5b506102ec60048036038101906102e7919061235f565b610805565b6040516102f991906123c1565b60405180910390f35b34801561030e57600080fd5b50610317610961565b6040516103249190611da0565b60405180910390f35b34801561033957600080fd5b50610354600480360381019061034f91906123dc565b610966565b005b34801561036257600080fd5b5061036b610b11565b6040516103789190611da0565b60405180910390f35b34801561038d57600080fd5b50610396610b16565b6040516103a39190612450565b60405180910390f35b604081565b73d47d8d97cad12a866900eec6cde1962529f2535181565b608081565b6000735a15566417e6c1c9546523066500bddbc53f88c773ffffffffffffffffffffffffffffffffffffffff166329710388836040518263ffffffff1660e01b815260040161041d919061247a565b602060405180830381865afa15801561043a573d6000803e3d6000fd5b505050506040513d601f19601f8201168201806040525081019061045e91906124c1565b9050919050565b60006001600481111561047b5761047a6124ee565b5b905090565b600081565b61048d610b2e565b7382af49447d8a07e3bd95bd0d56f35241523fbab173ffffffffffffffffffffffffffffffffffffffff1663a9059cbb337382af49447d8a07e3bd95bd0d56f35241523fbab173ffffffffffffffffffffffffffffffffffffffff166370a08231306040518263ffffffff1660e01b815260040161050b919061247a565b602060405180830381865afa158015610528573d6000803e3d6000fd5b505050506040513d601f19601f8201168201806040525081019061054c9190612532565b6040518363ffffffff1660e01b815260040161056992919061255f565b6020604051808303816000875af1158015610588573d6000803e3d6000fd5b505050506040513d601f19601f820116820180604052508101906105ac91906124c1565b5073da10009cbd5d07dd0cecc66161fc93d7c9000da173ffffffffffffffffffffffffffffffffffffffff1663a9059cbb3373da10009cbd5d07dd0cecc66161fc93d7c9000da173ffffffffffffffffffffffffffffffffffffffff166370a08231306040518263ffffffff1660e01b815260040161062b919061247a565b602060405180830381865afa158015610648573d6000803e3d6000fd5b505050506040513d601f19601f8201168201806040525081019061066c9190612532565b6040518363ffffffff1660e01b815260040161068992919061255f565b6020604051808303816000875af11580156106a8573d6000803e3d6000fd5b505050506040513d601f19601f820116820180604052508101906106cc91906124c1565b5050565b3373ffffffffffffffffffffffffffffffffffffffff1673d47d8d97cad12a866900eec6cde1962529f2535173ffffffffffffffffffffffffffffffffffffffff1663f851a4406040518163ffffffff1660e01b8152600401602060405180830381865afa158015610746573d6000803e3d6000fd5b505050506040513d601f19601f8201168201806040525081019061076a919061259d565b73ffffffffffffffffffffffffffffffffffffffff16146107b7576040517fa6c827a900000000000000000000000000000000000000000000000000000000815260040160405180910390fd5b3373ffffffffffffffffffffffffffffffffffffffff16ff5b73bf1cac12db60819bfa71a328282ecbc1d40443aa81565b600181565b60006107f7610b2e565b6000801b9050949350505050565b60008073639fe6ab55c921f74e7fac1ee960c0b6293ba61273ffffffffffffffffffffffffffffffffffffffff1663feaf968c6040518163ffffffff1660e01b815260040160a060405180830381865afa158015610867573d6000803e3d6000fd5b505050506040513d601f19601f8201168201806040525081019061088b9190612642565b505050915050600081136108d4576040517f08c379a00000000000000000000000000000000000000000000000000000000081526004016108cb9061271a565b60405180910390fd5b60006012600a6108e4919061289c565b846004600a6108f3919061289c565b87670e92596fd629000061090791906128e7565b61091191906128e7565b61091b9190612958565b6109259190612958565b866109309190612989565b90506000610952827382af49447d8a07e3bd95bd0d56f35241523fbab1610d96565b90508093505050509392505050565b607f81565b3373ffffffffffffffffffffffffffffffffffffffff1673d47d8d97cad12a866900eec6cde1962529f2535173ffffffffffffffffffffffffffffffffffffffff16638da5cb5b6040518163ffffffff1660e01b8152600401602060405180830381865afa1580156109dc573d6000803e3d6000fd5b505050506040513d601f19601f82011682018060405250810190610a00919061259d565b73ffffffffffffffffffffffffffffffffffffffff1614610a4d576040517f19494c8a00000000000000000000000000000000000000000000000000000000815260040160405180910390fd5b73eeeeeeeeeeeeeeeeeeeeeeeeeeeeeeeeeeeeeeee73ffffffffffffffffffffffffffffffffffffffff168373ffffffffffffffffffffffffffffffffffffffff1603610ae0578173ffffffffffffffffffffffffffffffffffffffff166108fc829081150290604051600060405180830381858888f19350505050158015610ada573d6000803e3d6000fd5b50610b0c565b610b0b82828573ffffffffffffffffffffffffffffffffffffffff16610f149092919063ffffffff16565b5b505050565b60ff81565b73e6f9a5c850dbcd12bc64f40d692f537250adec3881565b600030905060005b600760ff168160ff161015610d9157600080600080610b6873a97684ead0e402dc232d5a977953df7ecbab3cdb610f9a565b73ffffffffffffffffffffffffffffffffffffffff1663bf92857c876040518263ffffffff1660e01b8152600401610ba0919061247a565b60c060405180830381865afa158015610bbd573d6000803e3d6000fd5b505050506040513d601f19601f82011682018060405250810190610be191906129bd565b9550509450509350935060008403610bfe57505050505050610d94565b670e92596fd6290000811015610c49576040517f08c379a0000000000000000000000000000000000000000000000000000000008152600401610c4090612a96565b60405180910390fd5b60008303610caa576000841115610c9f57610c9c73a97684ead0e402dc232d5a977953df7ecbab3cdb7fffffffffffffffffffffffffffffffffffffffffffffffffffffffffffffffff8860048a611012565b50505b505050505050610d94565b6000610cb7858585610805565b905060008111610cfc576040517f08c379a0000000000000000000000000000000000000000000000000000000008152600401610cf390612b28565b60405180910390fd5b610d1e73a97684ead0e402dc232d5a977953df7ecbab3cdb828960048b611012565b50506000610d5682897382af49447d8a07e3bd95bd0d56f35241523fbab173da10009cbd5d07dd0cecc66161fc93d7c9000da161115f565b9050610d7c73a97684ead0e402dc232d5a977953df7ecbab3cdb828a600060028d61133b565b50505050505050508080600101915050610b36565b50505b565b60008073639fe6ab55c921f74e7fac1ee960c0b6293ba61273ffffffffffffffffffffffffffffffffffffffff1663feaf968c6040518163ffffffff1660e01b815260040160a060405180830381865afa158015610df8573d6000803e3d6000fd5b505050506040513d601f19601f82011682018060405250810190610e1c9190612642565b50505091505060008113610e65576040517f08c379a0000000000000000000000000000000000000000000000000000000008152600401610e5c9061271a565b60405180910390fd5b60008373ffffffffffffffffffffffffffffffffffffffff1663313ce5676040518163ffffffff1660e01b8152600401602060405180830381865afa158015610eb2573d6000803e3d6000fd5b505050506040513d601f19601f82011682018060405250810190610ed69190612b5d565b60ff1690506000829050600082600a610eef9190612b8a565b87610efa91906128e7565b90508181610f089190612958565b94505050505092915050565b610f958363a9059cbb60e01b8484604051602401610f3392919061255f565b604051602081830303815290604052907bffffffffffffffffffffffffffffffffffffffffffffffffffffffff19166020820180517bffffffffffffffffffffffffffffffffffffffffffffffffffffffff83818316178352505050506114e4565b505050565b60008173ffffffffffffffffffffffffffffffffffffffff1663026b1d5f6040518163ffffffff1660e01b8152600401602060405180830381865afa158015610fe7573d6000803e3d6000fd5b505050506040513d601f19601f8201168201806040525081019061100b919061259d565b9050919050565b60006060600061102188610f9a565b905060008173ffffffffffffffffffffffffffffffffffffffff166352751797876040518263ffffffff1660e01b815260040161105e9190611ccf565b602060405180830381865afa15801561107b573d6000803e3d6000fd5b505050506040513d601f19601f8201168201806040525081019061109f919061259d565b90508173ffffffffffffffffffffffffffffffffffffffff166369328dec828a8a6040518463ffffffff1660e01b81526004016110de93929190612bd5565b6020604051808303816000875af11580156110fd573d6000803e3d6000fd5b505050506040513d601f19601f820116820180604052508101906111219190612532565b50600089828a8a60405160200161113b9493929190612c0c565b60405160208183030381529060405290508881945094505050509550959350505050565b60008273ffffffffffffffffffffffffffffffffffffffff1663095ea7b373e592427a0aece92de3edee1f18e0157c05861564876040518363ffffffff1660e01b81526004016111b092919061255f565b6020604051808303816000875af11580156111cf573d6000803e3d6000fd5b505050506040513d601f19601f820116820180604052508101906111f391906124c1565b5060006040518061010001604052808573ffffffffffffffffffffffffffffffffffffffff1681526020018473ffffffffffffffffffffffffffffffffffffffff1681526020016101f462ffffff1681526020018673ffffffffffffffffffffffffffffffffffffffff16815260200161012c426112719190612c51565b815260200187815260200160008152602001600073ffffffffffffffffffffffffffffffffffffffff16815250905073e592427a0aece92de3edee1f18e0157c0586156473ffffffffffffffffffffffffffffffffffffffff1663414bf389826040518263ffffffff1660e01b81526004016112ed9190612d72565b6020604051808303816000875af115801561130c573d6000803e3d6000fd5b505050506040513d601f19601f820116820180604052508101906113309190612532565b915050949350505050565b60006060600061134a89610f9a565b905060008173ffffffffffffffffffffffffffffffffffffffff166352751797886040518263ffffffff1660e01b81526004016113879190611ccf565b602060405180830381865afa1580156113a4573d6000803e3d6000fd5b505050506040513d601f19601f820116820180604052508101906113c8919061259d565b90506113f5888a8373ffffffffffffffffffffffffffffffffffffffff166115ac9092919063ffffffff16565b50611421828a8373ffffffffffffffffffffffffffffffffffffffff166116e19092919063ffffffff16565b8173ffffffffffffffffffffffffffffffffffffffff1663573ade81828b89896040518563ffffffff1660e01b81526004016114609493929190612d8e565b6020604051808303816000875af115801561147f573d6000803e3d6000fd5b505050506040513d601f19601f820116820180604052508101906114a39190612532565b5060008a828b89896040516020016114bf959493929190612dd3565b6040516020818303038152906040529050898194509450505050965096945050505050565b6000611546826040518060400160405280602081526020017f5361666545524332303a206c6f772d6c6576656c2063616c6c206661696c65648152508573ffffffffffffffffffffffffffffffffffffffff166117de9092919063ffffffff16565b905060008151148061156857508080602001905181019061156791906124c1565b5b6115a7576040517f08c379a000000000000000000000000000000000000000000000000000000000815260040161159e90612e98565b60405180910390fd5b505050565b60007fffffffffffffffffffffffffffffffffffffffffffffffffffffffffffffffff82036115e2576115df84846117f6565b91505b600073ffffffffffffffffffffffffffffffffffffffff168373ffffffffffffffffffffffffffffffffffffffff161415801561164b57503073ffffffffffffffffffffffffffffffffffffffff168373ffffffffffffffffffffffffffffffffffffffff1614155b8015611697575073eeeeeeeeeeeeeeeeeeeeeeeeeeeeeeeeeeeeeeee73ffffffffffffffffffffffffffffffffffffffff168473ffffffffffffffffffffffffffffffffffffffff1614155b80156116a4575060008214155b156116d7576116d68330848773ffffffffffffffffffffffffffffffffffffffff166118e1909392919063ffffffff16565b5b8190509392505050565b73eeeeeeeeeeeeeeeeeeeeeeeeeeeeeeeeeeeeeeee73ffffffffffffffffffffffffffffffffffffffff168373ffffffffffffffffffffffffffffffffffffffff1603156117d957808373ffffffffffffffffffffffffffffffffffffffff1663dd62ed3e30856040518363ffffffff1660e01b8152600401611765929190612eb8565b602060405180830381865afa158015611782573d6000803e3d6000fd5b505050506040513d601f19601f820116820180604052508101906117a69190612532565b10156117d8576117d782828573ffffffffffffffffffffffffffffffffffffffff1661196a9092919063ffffffff16565b5b5b505050565b60606117ed8484600085611a87565b90509392505050565b600073eeeeeeeeeeeeeeeeeeeeeeeeeeeeeeeeeeeeeeee73ffffffffffffffffffffffffffffffffffffffff168373ffffffffffffffffffffffffffffffffffffffff160361185e578173ffffffffffffffffffffffffffffffffffffffff163190506118db565b8273ffffffffffffffffffffffffffffffffffffffff166370a08231836040518263ffffffff1660e01b8152600401611897919061247a565b602060405180830381865afa1580156118b4573d6000803e3d6000fd5b505050506040513d601f19601f820116820180604052508101906118d89190612532565b90505b92915050565b611964846323b872dd60e01b85858560405160240161190293929190612ee1565b604051602081830303815290604052907bffffffffffffffffffffffffffffffffffffffffffffffffffffffff19166020820180517bffffffffffffffffffffffffffffffffffffffffffffffffffffffff83818316178352505050506114e4565b50505050565b600063095ea7b360e01b838360405160240161198792919061255f565b604051602081830303815290604052907bffffffffffffffffffffffffffffffffffffffffffffffffffffffff19166020820180517bffffffffffffffffffffffffffffffffffffffffffffffffffffffff838183161783525050505090506119f08482611ba0565b611a8157611a768463095ea7b360e01b856000604051602401611a14929190612f53565b604051602081830303815290604052907bffffffffffffffffffffffffffffffffffffffffffffffffffffffff19166020820180517bffffffffffffffffffffffffffffffffffffffffffffffffffffffff83818316178352505050506114e4565b611a8084826114e4565b5b50505050565b6060611a9285611c67565b611ac8576040517f304619b500000000000000000000000000000000000000000000000000000000815260040160405180910390fd5b6000808673ffffffffffffffffffffffffffffffffffffffff168587604051611af19190612fed565b60006040518083038185875af1925050503d8060008114611b2e576040519150601f19603f3d011682016040523d82523d6000602084013e611b33565b606091505b50915091508115611b48578092505050611b98565b600081511115611b5b5780518082602001fd5b836040517f08c379a0000000000000000000000000000000000000000000000000000000008152600401611b8f9190613048565b60405180910390fd5b949350505050565b60008060008473ffffffffffffffffffffffffffffffffffffffff1684604051611bca9190612fed565b6000604051808303816000865af19150503d8060008114611c07576040519150601f19603f3d011682016040523d82523d6000602084013e611c0c565b606091505b5091509150818015611c3a5750600081511480611c39575080806020019051810190611c3891906124c1565b5b5b8015611c5d575060008573ffffffffffffffffffffffffffffffffffffffff163b115b9250505092915050565b60008060007fc5d2460186f7233c927e7db2dcc703c0e500b653ca82273b7bfad8045d85a47060001b9050833f9150808214158015611ca957506000801b8214155b92505050919050565b600061ffff82169050919050565b611cc981611cb2565b82525050565b6000602082019050611ce46000830184611cc0565b92915050565b600073ffffffffffffffffffffffffffffffffffffffff82169050919050565b6000819050919050565b6000611d2f611d2a611d2584611cea565b611d0a565b611cea565b9050919050565b6000611d4182611d14565b9050919050565b6000611d5382611d36565b9050919050565b611d6381611d48565b82525050565b6000602082019050611d7e6000830184611d5a565b92915050565b600060ff82169050919050565b611d9a81611d84565b82525050565b6000602082019050611db56000830184611d91565b92915050565b6000604051905090565b600080fd5b600080fd5b6000611dda82611cea565b9050919050565b611dea81611dcf565b8114611df557600080fd5b50565b600081359050611e0781611de1565b92915050565b600060208284031215611e2357611e22611dc5565b5b6000611e3184828501611df8565b91505092915050565b60008115159050919050565b611e4f81611e3a565b82525050565b6000602082019050611e6a6000830184611e46565b92915050565b600080fd5b600080fd5b6000601f19601f8301169050919050565b7f4e487b7100000000000000000000000000000000000000000000000000000000600052604160045260246000fd5b611ec382611e7a565b810181811067ffffffffffffffff82111715611ee257611ee1611e8b565b5b80604052505050565b6000611ef5611dbb565b9050611f018282611eba565b919050565b600067ffffffffffffffff821115611f2157611f20611e8b565b5b611f2a82611e7a565b9050602081019050919050565b82818337600083830152505050565b6000611f59611f5484611f06565b611eeb565b905082815260208101848484011115611f7557611f74611e75565b5b611f80848285611f37565b509392505050565b600082601f830112611f9d57611f9c611e70565b5b8135611fad848260208601611f46565b91505092915050565b600060208284031215611fcc57611fcb611dc5565b5b600082013567ffffffffffffffff811115611fea57611fe9611dca565b5b611ff684828501611f88565b91505092915050565b600061200a82611d36565b9050919050565b61201a81611fff565b82525050565b60006020820190506120356000830184612011565b92915050565b600067ffffffffffffffff82111561205657612055611e8b565b5b602082029050602081019050919050565b600080fd5b6000819050919050565b61207f8161206c565b811461208a57600080fd5b50565b60008135905061209c81612076565b92915050565b60006120b56120b08461203b565b611eeb565b905080838252602082019050602084028301858111156120d8576120d7612067565b5b835b8181101561210157806120ed888261208d565b8452602084019350506020810190506120da565b5050509392505050565b600082601f8301126121205761211f611e70565b5b81356121308482602086016120a2565b91505092915050565b600067ffffffffffffffff82111561215457612153611e8b565b5b602082029050602081019050919050565b61216e81611d84565b811461217957600080fd5b50565b60008135905061218b81612165565b92915050565b60006121a461219f84612139565b611eeb565b905080838252602082019050602084028301858111156121c7576121c6612067565b5b835b818110156121f057806121dc888261217c565b8452602084019350506020810190506121c9565b5050509392505050565b600082601f83011261220f5761220e611e70565b5b813561221f848260208601612191565b91505092915050565b6000806000806080858703121561224257612241611dc5565b5b600085013567ffffffffffffffff8111156122605761225f611dca565b5b61226c87828801611f88565b945050602085013567ffffffffffffffff81111561228d5761228c611dca565b5b6122998782880161210b565b935050604085013567ffffffffffffffff8111156122ba576122b9611dca565b5b6122c6878288016121fa565b925050606085013567ffffffffffffffff8111156122e7576122e6611dca565b5b6122f38782880161210b565b91505092959194509250565b6123088161206c565b82525050565b600060208201905061232360008301846122ff565b92915050565b6000819050919050565b61233c81612329565b811461234757600080fd5b50565b60008135905061235981612333565b92915050565b60008060006060848603121561237857612377611dc5565b5b60006123868682870161234a565b93505060206123978682870161234a565b92505060406123a88682870161234a565b9150509250925092565b6123bb81612329565b82525050565b60006020820190506123d660008301846123b2565b92915050565b6000806000606084860312156123f5576123f4611dc5565b5b600061240386828701611df8565b935050602061241486828701611df8565b92505060406124258682870161234a565b9150509250925092565b600061243a82611d36565b9050919050565b61244a8161242f565b82525050565b60006020820190506124656000830184612441565b92915050565b61247481611dcf565b82525050565b600060208201905061248f600083018461246b565b92915050565b61249e81611e3a565b81146124a957600080fd5b50565b6000815190506124bb81612495565b92915050565b6000602082840312156124d7576124d6611dc5565b5b60006124e5848285016124ac565b91505092915050565b7f4e487b7100000000000000000000000000000000000000000000000000000000600052602160045260246000fd5b60008151905061252c81612333565b92915050565b60006020828403121561254857612547611dc5565b5b60006125568482850161251d565b91505092915050565b6000604082019050612574600083018561246b565b61258160208301846123b2565b9392505050565b60008151905061259781611de1565b92915050565b6000602082840312156125b3576125b2611dc5565b5b60006125c184828501612588565b91505092915050565b600069ffffffffffffffffffff82169050919050565b6125e9816125ca565b81146125f457600080fd5b50565b600081519050612606816125e0565b92915050565b6000819050919050565b61261f8161260c565b811461262a57600080fd5b50565b60008151905061263c81612616565b92915050565b600080600080600060a0868803121561265e5761265d611dc5565b5b600061266c888289016125f7565b955050602061267d8882890161262d565b945050604061268e8882890161251d565b935050606061269f8882890161251d565b92505060806126b0888289016125f7565b9150509295509295909350565b600082825260208201905092915050565b7f496e76616c696420455448207072696365000000000000000000000000000000600082015250565b60006127046011836126bd565b915061270f826126ce565b602082019050919050565b60006020820190508181036000830152612733816126f7565b9050919050565b7f4e487b7100000000000000000000000000000000000000000000000000000000600052601160045260246000fd5b60008160011c9050919050565b6000808291508390505b60018511156127c05780860481111561279c5761279b61273a565b5b60018516156127ab5780820291505b80810290506127b985612769565b9450612780565b94509492505050565b6000826127d95760019050612895565b816127e75760009050612895565b81600181146127fd576002811461280757612836565b6001915050612895565b60ff8411156128195761281861273a565b5b8360020a9150848211156128305761282f61273a565b5b50612895565b5060208310610133831016604e8410600b841016171561286b5782820a9050838111156128665761286561273a565b5b612895565b6128788484846001612776565b9250905081840481111561288f5761288e61273a565b5b81810290505b9392505050565b60006128a782612329565b91506128b283611d84565b92506128df7fffffffffffffffffffffffffffffffffffffffffffffffffffffffffffffffff84846127c9565b905092915050565b60006128f282612329565b91506128fd83612329565b925082820261290b81612329565b915082820484148315176129225761292161273a565b5b5092915050565b7f4e487b7100000000000000000000000000000000000000000000000000000000600052601260045260246000fd5b600061296382612329565b915061296e83612329565b92508261297e5761297d612929565b5b828204905092915050565b600061299482612329565b915061299f83612329565b92508282039050818111156129b7576129b661273a565b5b92915050565b60008060008060008060c087890312156129da576129d9611dc5565b5b60006129e889828a0161251d565b96505060206129f989828a0161251d565b9550506040612a0a89828a0161251d565b9450506060612a1b89828a0161251d565b9350506080612a2c89828a0161251d565b92505060a0612a3d89828a0161251d565b9150509295509295509295565b7f4865616c746820666163746f7220746f6f206c6f770000000000000000000000600082015250565b6000612a806015836126bd565b9150612a8b82612a4a565b602082019050919050565b60006020820190508181036000830152612aaf81612a73565b9050919050565b7f43616e6e6f7420736166656c7920776974686472617720636f6c6c617465726160008201527f6c00000000000000000000000000000000000000000000000000000000000000602082015250565b6000612b126021836126bd565b9150612b1d82612ab6565b604082019050919050565b60006020820190508181036000830152612b4181612b05565b9050919050565b600081519050612b5781612165565b92915050565b600060208284031215612b7357612b72611dc5565b5b6000612b8184828501612b48565b91505092915050565b6000612b9582612329565b9150612ba083612329565b9250612bcd7fffffffffffffffffffffffffffffffffffffffffffffffffffffffffffffffff84846127c9565b905092915050565b6000606082019050612bea600083018661246b565b612bf760208301856123b2565b612c04604083018461246b565b949350505050565b6000608082019050612c21600083018761246b565b612c2e602083018661246b565b612c3b60408301856123b2565b612c48606083018461246b565b95945050505050565b6000612c5c82612329565b9150612c6783612329565b9250828201905080821115612c7f57612c7e61273a565b5b92915050565b612c8e81611dcf565b82525050565b600062ffffff82169050919050565b612cac81612c94565b82525050565b612cbb81612329565b82525050565b612cca81611cea565b82525050565b61010082016000820151612ce76000850182612c85565b506020820151612cfa6020850182612c85565b506040820151612d0d6040850182612ca3565b506060820151612d206060850182612c85565b506080820151612d336080850182612cb2565b5060a0820151612d4660a0850182612cb2565b5060c0820151612d5960c0850182612cb2565b5060e0820151612d6c60e0850182612cc1565b50505050565b600061010082019050612d886000830184612cd0565b92915050565b6000608082019050612da3600083018761246b565b612db060208301866123b2565b612dbd60408301856123b2565b612dca606083018461246b565b95945050505050565b600060a082019050612de8600083018861246b565b612df5602083018761246b565b612e0260408301866123b2565b612e0f60608301856123b2565b612e1c608083018461246b565b9695505050505050565b7f5361666545524332303a204552433230206f7065726174696f6e20646964206e60008201527f6f74207375636365656400000000000000000000000000000000000000000000602082015250565b6000612e82602a836126bd565b9150612e8d82612e26565b604082019050919050565b60006020820190508181036000830152612eb181612e75565b9050919050565b6000604082019050612ecd600083018561246b565b612eda602083018461246b565b9392505050565b6000606082019050612ef6600083018661246b565b612f03602083018561246b565b612f1060408301846123b2565b949350505050565b6000819050919050565b6000612f3d612f38612f3384612f18565b611d0a565b611d84565b9050919050565b612f4d81612f22565b82525050565b6000604082019050612f68600083018561246b565b612f756020830184612f44565b9392505050565b600081519050919050565b600081905092915050565b60005b83811015612fb0578082015181840152602081019050612f95565b60008484015250505050565b6000612fc782612f7c565b612fd18185612f87565b9350612fe1818560208601612f92565b80840191505092915050565b6000612ff98284612fbc565b915081905092915050565b600081519050919050565b600061301a82613004565b61302481856126bd565b9350613034818560208601612f92565b61303d81611e7a565b840191505092915050565b60006020820190508181036000830152613062818461300f565b90509291505056fea26469706673582212202d16ceb76ff74246a49d53f9a70a3d131f60dd124c54d8ba449fb9ce44c96b9d64736f6c63430008180033","opcodes":"PUSH1 0x80 PUSH1 0x40 MSTORE CALLVALUE DUP1 ISZERO PUSH2 0x10 JUMPI PUSH1 0x0 DUP1 REVERT JUMPDEST POP PUSH2 0x30A0 DUP1 PUSH2 0x20 PUSH1 0x0 CODECOPY PUSH1 0x0 RETURN INVALID PUSH1 0x80 PUSH1 0x40 MSTORE PUSH1 0x4 CALLDATASIZE LT PUSH2 0xF3 JUMPI PUSH1 0x0 CALLDATALOAD PUSH1 0xE0 SHR DUP1 PUSH4 0x7B103999 GT PUSH2 0x8A JUMPI DUP1 PUSH4 0x9864DCDD GT PUSH2 0x59 JUMPI DUP1 PUSH4 0x9864DCDD EQ PUSH2 0x302 JUMPI DUP1 PUSH4 0xC579D490 EQ PUSH2 0x32D JUMPI DUP1 PUSH4 0xD3C2E7ED EQ PUSH2 0x356 JUMPI DUP1 PUSH4 0xF24CCBFE EQ PUSH2 0x381 JUMPI PUSH2 0xF3 JUMP JUMPDEST DUP1 PUSH4 0x7B103999 EQ PUSH2 0x23F JUMPI DUP1 PUSH4 0x8BCB6216 EQ PUSH2 0x26A JUMPI DUP1 PUSH4 0x8DF50F74 EQ PUSH2 0x295 JUMPI DUP1 PUSH4 0x8EBB7A77 EQ PUSH2 0x2C5 JUMPI PUSH2 0xF3 JUMP JUMPDEST DUP1 PUSH4 0x247492F8 GT PUSH2 0xC6 JUMPI DUP1 PUSH4 0x247492F8 EQ PUSH2 0x1B6 JUMPI DUP1 PUSH4 0x2FA13CB8 EQ PUSH2 0x1E1 JUMPI DUP1 PUSH4 0x389F87FF EQ PUSH2 0x20C JUMPI DUP1 PUSH4 0x41C0E1B5 EQ PUSH2 0x228 JUMPI PUSH2 0xF3 JUMP JUMPDEST DUP1 PUSH4 0x5A363DE EQ PUSH2 0xF8 JUMPI DUP1 PUSH4 0x6D2AE8E EQ PUSH2 0x123 JUMPI DUP1 PUSH4 0xF2EEE42 EQ PUSH2 0x14E JUMPI DUP1 PUSH4 0x1C451CEB EQ PUSH2 0x179 JUMPI JUMPDEST PUSH1 0x0 DUP1 REVERT JUMPDEST CALLVALUE DUP1 ISZERO PUSH2 0x104 JUMPI PUSH1 0x0 DUP1 REVERT JUMPDEST POP PUSH2 0x10D PUSH2 0x3AC JUMP JUMPDEST PUSH1 0x40 MLOAD PUSH2 0x11A SWAP2 SWAP1 PUSH2 0x1CCF JUMP JUMPDEST PUSH1 0x40 MLOAD DUP1 SWAP2 SUB SWAP1 RETURN JUMPDEST CALLVALUE DUP1 ISZERO PUSH2 0x12F JUMPI PUSH1 0x0 DUP1 REVERT JUMPDEST POP PUSH2 0x138 PUSH2 0x3B1 JUMP JUMPDEST PUSH1 0x40 MLOAD PUSH2 0x145 SWAP2 SWAP1 PUSH2 0x1D69 JUMP JUMPDEST PUSH1 0x40 MLOAD DUP1 SWAP2 SUB SWAP1 RETURN JUMPDEST CALLVALUE DUP1 ISZERO PUSH2 0x15A JUMPI PUSH1 0x0 DUP1 REVERT JUMPDEST POP PUSH2 0x163 PUSH2 0x3C9 JUMP JUMPDEST PUSH1 0x40 MLOAD PUSH2 0x170 SWAP2 SWAP1 PUSH2 0x1DA0 JUMP JUMPDEST PUSH1 0x40 MLOAD DUP1 SWAP2 SUB SWAP1 RETURN JUMPDEST CALLVALUE DUP1 ISZERO PUSH2 0x185 JUMPI PUSH1 0x0 DUP1 REVERT JUMPDEST POP PUSH2 0x1A0 PUSH1 0x4 DUP1 CALLDATASIZE SUB DUP2 ADD SWAP1 PUSH2 0x19B SWAP2 SWAP1 PUSH2 0x1E0D JUMP JUMPDEST PUSH2 0x3CE JUMP JUMPDEST PUSH1 0x40 MLOAD PUSH2 0x1AD SWAP2 SWAP1 PUSH2 0x1E55 JUMP JUMPDEST PUSH1 0x40 MLOAD DUP1 SWAP2 SUB SWAP1 RETURN JUMPDEST CALLVALUE DUP1 ISZERO PUSH2 0x1C2 JUMPI PUSH1 0x0 DUP1 REVERT JUMPDEST POP PUSH2 0x1CB PUSH2 0x465 JUMP JUMPDEST PUSH1 0x40 MLOAD PUSH2 0x1D8 SWAP2 SWAP1 PUSH2 0x1DA0 JUMP JUMPDEST PUSH1 0x40 MLOAD DUP1 SWAP2 SUB SWAP1 RETURN JUMPDEST CALLVALUE DUP1 ISZERO PUSH2 0x1ED JUMPI PUSH1 0x0 DUP1 REVERT JUMPDEST POP PUSH2 0x1F6 PUSH2 0x480 JUMP JUMPDEST PUSH1 0x40 MLOAD PUSH2 0x203 SWAP2 SWAP1 PUSH2 0x1DA0 JUMP JUMPDEST PUSH1 0x40 MLOAD DUP1 SWAP2 SUB SWAP1 RETURN JUMPDEST PUSH2 0x226 PUSH1 0x4 DUP1 CALLDATASIZE SUB DUP2 ADD SWAP1 PUSH2 0x221 SWAP2 SWAP1 PUSH2 0x1FB6 JUMP JUMPDEST PUSH2 0x485 JUMP JUMPDEST STOP JUMPDEST CALLVALUE DUP1 ISZERO PUSH2 0x234 JUMPI PUSH1 0x0 DUP1 REVERT JUMPDEST POP PUSH2 0x23D PUSH2 0x6D0 JUMP JUMPDEST STOP JUMPDEST CALLVALUE DUP1 ISZERO PUSH2 0x24B JUMPI PUSH1 0x0 DUP1 REVERT JUMPDEST POP PUSH2 0x254 PUSH2 0x7D0 JUMP JUMPDEST PUSH1 0x40 MLOAD PUSH2 0x261 SWAP2 SWAP1 PUSH2 0x2020 JUMP JUMPDEST PUSH1 0x40 MLOAD DUP1 SWAP2 SUB SWAP1 RETURN JUMPDEST CALLVALUE DUP1 ISZERO PUSH2 0x276 JUMPI PUSH1 0x0 DUP1 REVERT JUMPDEST POP PUSH2 0x27F PUSH2 0x7E8 JUMP JUMPDEST PUSH1 0x40 MLOAD PUSH2 0x28C SWAP2 SWAP1 PUSH2 0x1DA0 JUMP JUMPDEST PUSH1 0x40 MLOAD DUP1 SWAP2 SUB SWAP1 RETURN JUMPDEST PUSH2 0x2AF PUSH1 0x4 DUP1 CALLDATASIZE SUB DUP2 ADD SWAP1 PUSH2 0x2AA SWAP2 SWAP1 PUSH2 0x2228 JUMP JUMPDEST PUSH2 0x7ED JUMP JUMPDEST PUSH1 0x40 MLOAD PUSH2 0x2BC SWAP2 SWAP1 PUSH2 0x230E JUMP JUMPDEST PUSH1 0x40 MLOAD DUP1 SWAP2 SUB SWAP1 RETURN JUMPDEST CALLVALUE DUP1 ISZERO PUSH2 0x2D1 JUMPI PUSH1 0x0 DUP1 REVERT JUMPDEST POP PUSH2 0x2EC PUSH1 0x4 DUP1 CALLDATASIZE SUB DUP2 ADD SWAP1 PUSH2 0x2E7 SWAP2 SWAP1 PUSH2 0x235F JUMP JUMPDEST PUSH2 0x805 JUMP JUMPDEST PUSH1 0x40 MLOAD PUSH2 0x2F9 SWAP2 SWAP1 PUSH2 0x23C1 JUMP JUMPDEST PUSH1 0x40 MLOAD DUP1 SWAP2 SUB SWAP1 RETURN JUMPDEST CALLVALUE DUP1 ISZERO PUSH2 0x30E JUMPI PUSH1 0x0 DUP1 REVERT JUMPDEST POP PUSH2 0x317 PUSH2 0x961 JUMP JUMPDEST PUSH1 0x40 MLOAD PUSH2 0x324 SWAP2 SWAP1 PUSH2 0x1DA0 JUMP JUMPDEST PUSH1 0x40 MLOAD DUP1 SWAP2 SUB SWAP1 RETURN JUMPDEST CALLVALUE DUP1 ISZERO PUSH2 0x339 JUMPI PUSH1 0x0 DUP1 REVERT JUMPDEST POP PUSH2 0x354 PUSH1 0x4 DUP1 CALLDATASIZE SUB DUP2 ADD SWAP1 PUSH2 0x34F SWAP2 SWAP1 PUSH2 0x23DC JUMP JUMPDEST PUSH2 0x966 JUMP JUMPDEST STOP JUMPDEST CALLVALUE DUP1 ISZERO PUSH2 0x362 JUMPI PUSH1 0x0 DUP1 REVERT JUMPDEST POP PUSH2 0x36B PUSH2 0xB11 JUMP JUMPDEST PUSH1 0x40 MLOAD PUSH2 0x378 SWAP2 SWAP1 PUSH2 0x1DA0 JUMP JUMPDEST PUSH1 0x40 MLOAD DUP1 SWAP2 SUB SWAP1 RETURN JUMPDEST CALLVALUE DUP1 ISZERO PUSH2 0x38D JUMPI PUSH1 0x0 DUP1 REVERT JUMPDEST POP PUSH2 0x396 PUSH2 0xB16 JUMP JUMPDEST PUSH1 0x40 MLOAD PUSH2 0x3A3 SWAP2 SWAP1 PUSH2 0x2450 JUMP JUMPDEST PUSH1 0x40 MLOAD DUP1 SWAP2 SUB SWAP1 RETURN JUMPDEST PUSH1 0x40 DUP2 JUMP JUMPDEST PUSH20 0xD47D8D97CAD12A866900EEC6CDE1962529F25351 DUP2 JUMP JUMPDEST PUSH1 0x80 DUP2 JUMP JUMPDEST PUSH1 0x0 PUSH20 0x5A15566417E6C1C9546523066500BDDBC53F88C7 PUSH20 0xFFFFFFFFFFFFFFFFFFFFFFFFFFFFFFFFFFFFFFFF AND PUSH4 0x29710388 DUP4 PUSH1 0x40 MLOAD DUP3 PUSH4 0xFFFFFFFF AND PUSH1 0xE0 SHL DUP2 MSTORE PUSH1 0x4 ADD PUSH2 0x41D SWAP2 SWAP1 PUSH2 0x247A JUMP JUMPDEST PUSH1 0x20 PUSH1 0x40 MLOAD DUP1 DUP4 SUB DUP2 DUP7 GAS STATICCALL ISZERO DUP1 ISZERO PUSH2 0x43A JUMPI RETURNDATASIZE PUSH1 0x0 DUP1 RETURNDATACOPY RETURNDATASIZE PUSH1 0x0 REVERT JUMPDEST POP POP POP POP PUSH1 0x40 MLOAD RETURNDATASIZE PUSH1 0x1F NOT PUSH1 0x1F DUP3 ADD AND DUP3 ADD DUP1 PUSH1 0x40 MSTORE POP DUP2 ADD SWAP1 PUSH2 0x45E SWAP2 SWAP1 PUSH2 0x24C1 JUMP JUMPDEST SWAP1 POP SWAP2 SWAP1 POP JUMP JUMPDEST PUSH1 0x0 PUSH1 0x1 PUSH1 0x4 DUP2 GT ISZERO PUSH2 0x47B JUMPI PUSH2 0x47A PUSH2 0x24EE JUMP JUMPDEST JUMPDEST SWAP1 POP SWAP1 JUMP JUMPDEST PUSH1 0x0 DUP2 JUMP JUMPDEST PUSH2 0x48D PUSH2 0xB2E JUMP JUMPDEST PUSH20 0x82AF49447D8A07E3BD95BD0D56F35241523FBAB1 PUSH20 0xFFFFFFFFFFFFFFFFFFFFFFFFFFFFFFFFFFFFFFFF AND PUSH4 0xA9059CBB CALLER PUSH20 0x82AF49447D8A07E3BD95BD0D56F35241523FBAB1 PUSH20 0xFFFFFFFFFFFFFFFFFFFFFFFFFFFFFFFFFFFFFFFF AND PUSH4 0x70A08231 ADDRESS PUSH1 0x40 MLOAD DUP3 PUSH4 0xFFFFFFFF AND PUSH1 0xE0 SHL DUP2 MSTORE PUSH1 0x4 ADD PUSH2 0x50B SWAP2 SWAP1 PUSH2 0x247A JUMP JUMPDEST PUSH1 0x20 PUSH1 0x40 MLOAD DUP1 DUP4 SUB DUP2 DUP7 GAS STATICCALL ISZERO DUP1 ISZERO PUSH2 0x528 JUMPI RETURNDATASIZE PUSH1 0x0 DUP1 RETURNDATACOPY RETURNDATASIZE PUSH1 0x0 REVERT JUMPDEST POP POP POP POP PUSH1 0x40 MLOAD RETURNDATASIZE PUSH1 0x1F NOT PUSH1 0x1F DUP3 ADD AND DUP3 ADD DUP1 PUSH1 0x40 MSTORE POP DUP2 ADD SWAP1 PUSH2 0x54C SWAP2 SWAP1 PUSH2 0x2532 JUMP JUMPDEST PUSH1 0x40 MLOAD DUP4 PUSH4 0xFFFFFFFF AND PUSH1 0xE0 SHL DUP2 MSTORE PUSH1 0x4 ADD PUSH2 0x569 SWAP3 SWAP2 SWAP1 PUSH2 0x255F JUMP JUMPDEST PUSH1 0x20 PUSH1 0x40 MLOAD DUP1 DUP4 SUB DUP2 PUSH1 0x0 DUP8 GAS CALL ISZERO DUP1 ISZERO PUSH2 0x588 JUMPI RETURNDATASIZE PUSH1 0x0 DUP1 RETURNDATACOPY RETURNDATASIZE PUSH1 0x0 REVERT JUMPDEST POP POP POP POP PUSH1 0x40 MLOAD RETURNDATASIZE PUSH1 0x1F NOT PUSH1 0x1F DUP3 ADD AND DUP3 ADD DUP1 PUSH1 0x40 MSTORE POP DUP2 ADD SWAP1 PUSH2 0x5AC SWAP2 SWAP1 PUSH2 0x24C1 JUMP JUMPDEST POP PUSH20 0xDA10009CBD5D07DD0CECC66161FC93D7C9000DA1 PUSH20 0xFFFFFFFFFFFFFFFFFFFFFFFFFFFFFFFFFFFFFFFF AND PUSH4 0xA9059CBB CALLER PUSH20 0xDA10009CBD5D07DD0CECC66161FC93D7C9000DA1 PUSH20 0xFFFFFFFFFFFFFFFFFFFFFFFFFFFFFFFFFFFFFFFF AND PUSH4 0x70A08231 ADDRESS PUSH1 0x40 MLOAD DUP3 PUSH4 0xFFFFFFFF AND PUSH1 0xE0 SHL DUP2 MSTORE PUSH1 0x4 ADD PUSH2 0x62B SWAP2 SWAP1 PUSH2 0x247A JUMP JUMPDEST PUSH1 0x20 PUSH1 0x40 MLOAD DUP1 DUP4 SUB DUP2 DUP7 GAS STATICCALL ISZERO DUP1 ISZERO PUSH2 0x648 JUMPI RETURNDATASIZE PUSH1 0x0 DUP1 RETURNDATACOPY RETURNDATASIZE PUSH1 0x0 REVERT JUMPDEST POP POP POP POP PUSH1 0x40 MLOAD RETURNDATASIZE PUSH1 0x1F NOT PUSH1 0x1F DUP3 ADD AND DUP3 ADD DUP1 PUSH1 0x40 MSTORE POP DUP2 ADD SWAP1 PUSH2 0x66C SWAP2 SWAP1 PUSH2 0x2532 JUMP JUMPDEST PUSH1 0x40 MLOAD DUP4 PUSH4 0xFFFFFFFF AND PUSH1 0xE0 SHL DUP2 MSTORE PUSH1 0x4 ADD PUSH2 0x689 SWAP3 SWAP2 SWAP1 PUSH2 0x255F JUMP JUMPDEST PUSH1 0x20 PUSH1 0x40 MLOAD DUP1 DUP4 SUB DUP2 PUSH1 0x0 DUP8 GAS CALL ISZERO DUP1 ISZERO PUSH2 0x6A8 JUMPI RETURNDATASIZE PUSH1 0x0 DUP1 RETURNDATACOPY RETURNDATASIZE PUSH1 0x0 REVERT JUMPDEST POP POP POP POP PUSH1 0x40 MLOAD RETURNDATASIZE PUSH1 0x1F NOT PUSH1 0x1F DUP3 ADD AND DUP3 ADD DUP1 PUSH1 0x40 MSTORE POP DUP2 ADD SWAP1 PUSH2 0x6CC SWAP2 SWAP1 PUSH2 0x24C1 JUMP JUMPDEST POP POP JUMP JUMPDEST CALLER PUSH20 0xFFFFFFFFFFFFFFFFFFFFFFFFFFFFFFFFFFFFFFFF AND PUSH20 0xD47D8D97CAD12A866900EEC6CDE1962529F25351 PUSH20 0xFFFFFFFFFFFFFFFFFFFFFFFFFFFFFFFFFFFFFFFF AND PUSH4 0xF851A440 PUSH1 0x40 MLOAD DUP2 PUSH4 0xFFFFFFFF AND PUSH1 0xE0 SHL DUP2 MSTORE PUSH1 0x4 ADD PUSH1 0x20 PUSH1 0x40 MLOAD DUP1 DUP4 SUB DUP2 DUP7 GAS STATICCALL ISZERO DUP1 ISZERO PUSH2 0x746 JUMPI RETURNDATASIZE PUSH1 0x0 DUP1 RETURNDATACOPY RETURNDATASIZE PUSH1 0x0 REVERT JUMPDEST POP POP POP POP PUSH1 0x40 MLOAD RETURNDATASIZE PUSH1 0x1F NOT PUSH1 0x1F DUP3 ADD AND DUP3 ADD DUP1 PUSH1 0x40 MSTORE POP DUP2 ADD SWAP1 PUSH2 0x76A SWAP2 SWAP1 PUSH2 0x259D JUMP JUMPDEST PUSH20 0xFFFFFFFFFFFFFFFFFFFFFFFFFFFFFFFFFFFFFFFF AND EQ PUSH2 0x7B7 JUMPI PUSH1 0x40 MLOAD PUSH32 0xA6C827A900000000000000000000000000000000000000000000000000000000 DUP2 MSTORE PUSH1 0x4 ADD PUSH1 0x40 MLOAD DUP1 SWAP2 SUB SWAP1 REVERT JUMPDEST CALLER PUSH20 0xFFFFFFFFFFFFFFFFFFFFFFFFFFFFFFFFFFFFFFFF AND SELFDESTRUCT JUMPDEST PUSH20 0xBF1CAC12DB60819BFA71A328282ECBC1D40443AA DUP2 JUMP JUMPDEST PUSH1 0x1 DUP2 JUMP JUMPDEST PUSH1 0x0 PUSH2 0x7F7 PUSH2 0xB2E JUMP JUMPDEST PUSH1 0x0 DUP1 SHL SWAP1 POP SWAP5 SWAP4 POP POP POP POP JUMP JUMPDEST PUSH1 0x0 DUP1 PUSH20 0x639FE6AB55C921F74E7FAC1EE960C0B6293BA612 PUSH20 0xFFFFFFFFFFFFFFFFFFFFFFFFFFFFFFFFFFFFFFFF AND PUSH4 0xFEAF968C PUSH1 0x40 MLOAD DUP2 PUSH4 0xFFFFFFFF AND PUSH1 0xE0 SHL DUP2 MSTORE PUSH1 0x4 ADD PUSH1 0xA0 PUSH1 0x40 MLOAD DUP1 DUP4 SUB DUP2 DUP7 GAS STATICCALL ISZERO DUP1 ISZERO PUSH2 0x867 JUMPI RETURNDATASIZE PUSH1 0x0 DUP1 RETURNDATACOPY RETURNDATASIZE PUSH1 0x0 REVERT JUMPDEST POP POP POP POP PUSH1 0x40 MLOAD RETURNDATASIZE PUSH1 0x1F NOT PUSH1 0x1F DUP3 ADD AND DUP3 ADD DUP1 PUSH1 0x40 MSTORE POP DUP2 ADD SWAP1 PUSH2 0x88B SWAP2 SWAP1 PUSH2 0x2642 JUMP JUMPDEST POP POP POP SWAP2 POP POP PUSH1 0x0 DUP2 SGT PUSH2 0x8D4 JUMPI PUSH1 0x40 MLOAD PUSH32 0x8C379A000000000000000000000000000000000000000000000000000000000 DUP2 MSTORE PUSH1 0x4 ADD PUSH2 0x8CB SWAP1 PUSH2 0x271A JUMP JUMPDEST PUSH1 0x40 MLOAD DUP1 SWAP2 SUB SWAP1 REVERT JUMPDEST PUSH1 0x0 PUSH1 0x12 PUSH1 0xA PUSH2 0x8E4 SWAP2 SWAP1 PUSH2 0x289C JUMP JUMPDEST DUP5 PUSH1 0x4 PUSH1 0xA PUSH2 0x8F3 SWAP2 SWAP1 PUSH2 0x289C JUMP JUMPDEST DUP8 PUSH8 0xE92596FD6290000 PUSH2 0x907 SWAP2 SWAP1 PUSH2 0x28E7 JUMP JUMPDEST PUSH2 0x911 SWAP2 SWAP1 PUSH2 0x28E7 JUMP JUMPDEST PUSH2 0x91B SWAP2 SWAP1 PUSH2 0x2958 JUMP JUMPDEST PUSH2 0x925 SWAP2 SWAP1 PUSH2 0x2958 JUMP JUMPDEST DUP7 PUSH2 0x930 SWAP2 SWAP1 PUSH2 0x2989 JUMP JUMPDEST SWAP1 POP PUSH1 0x0 PUSH2 0x952 DUP3 PUSH20 0x82AF49447D8A07E3BD95BD0D56F35241523FBAB1 PUSH2 0xD96 JUMP JUMPDEST SWAP1 POP DUP1 SWAP4 POP POP POP POP SWAP4 SWAP3 POP POP POP JUMP JUMPDEST PUSH1 0x7F DUP2 JUMP JUMPDEST CALLER PUSH20 0xFFFFFFFFFFFFFFFFFFFFFFFFFFFFFFFFFFFFFFFF AND PUSH20 0xD47D8D97CAD12A866900EEC6CDE1962529F25351 PUSH20 0xFFFFFFFFFFFFFFFFFFFFFFFFFFFFFFFFFFFFFFFF AND PUSH4 0x8DA5CB5B PUSH1 0x40 MLOAD DUP2 PUSH4 0xFFFFFFFF AND PUSH1 0xE0 SHL DUP2 MSTORE PUSH1 0x4 ADD PUSH1 0x20 PUSH1 0x40 MLOAD DUP1 DUP4 SUB DUP2 DUP7 GAS STATICCALL ISZERO DUP1 ISZERO PUSH2 0x9DC JUMPI RETURNDATASIZE PUSH1 0x0 DUP1 RETURNDATACOPY RETURNDATASIZE PUSH1 0x0 REVERT JUMPDEST POP POP POP POP PUSH1 0x40 MLOAD RETURNDATASIZE PUSH1 0x1F NOT PUSH1 0x1F DUP3 ADD AND DUP3 ADD DUP1 PUSH1 0x40 MSTORE POP DUP2 ADD SWAP1 PUSH2 0xA00 SWAP2 SWAP1 PUSH2 0x259D JUMP JUMPDEST PUSH20 0xFFFFFFFFFFFFFFFFFFFFFFFFFFFFFFFFFFFFFFFF AND EQ PUSH2 0xA4D JUMPI PUSH1 0x40 MLOAD PUSH32 0x19494C8A00000000000000000000000000000000000000000000000000000000 DUP2 MSTORE PUSH1 0x4 ADD PUSH1 0x40 MLOAD DUP1 SWAP2 SUB SWAP1 REVERT JUMPDEST PUSH20 0xEEEEEEEEEEEEEEEEEEEEEEEEEEEEEEEEEEEEEEEE PUSH20 0xFFFFFFFFFFFFFFFFFFFFFFFFFFFFFFFFFFFFFFFF AND DUP4 PUSH20 0xFFFFFFFFFFFFFFFFFFFFFFFFFFFFFFFFFFFFFFFF AND SUB PUSH2 0xAE0 JUMPI DUP2 PUSH20 0xFFFFFFFFFFFFFFFFFFFFFFFFFFFFFFFFFFFFFFFF AND PUSH2 0x8FC DUP3 SWAP1 DUP2 ISZERO MUL SWAP1 PUSH1 0x40 MLOAD PUSH1 0x0 PUSH1 0x40 MLOAD DUP1 DUP4 SUB DUP2 DUP6 DUP9 DUP9 CALL SWAP4 POP POP POP POP ISZERO DUP1 ISZERO PUSH2 0xADA JUMPI RETURNDATASIZE PUSH1 0x0 DUP1 RETURNDATACOPY RETURNDATASIZE PUSH1 0x0 REVERT JUMPDEST POP PUSH2 0xB0C JUMP JUMPDEST PUSH2 0xB0B DUP3 DUP3 DUP6 PUSH20 0xFFFFFFFFFFFFFFFFFFFFFFFFFFFFFFFFFFFFFFFF AND PUSH2 0xF14 SWAP1 SWAP3 SWAP2 SWAP1 PUSH4 0xFFFFFFFF AND JUMP JUMPDEST JUMPDEST POP POP POP JUMP JUMPDEST PUSH1 0xFF DUP2 JUMP JUMPDEST PUSH20 0xE6F9A5C850DBCD12BC64F40D692F537250ADEC38 DUP2 JUMP JUMPDEST PUSH1 0x0 ADDRESS SWAP1 POP PUSH1 0x0 JUMPDEST PUSH1 0x7 PUSH1 0xFF AND DUP2 PUSH1 0xFF AND LT ISZERO PUSH2 0xD91 JUMPI PUSH1 0x0 DUP1 PUSH1 0x0 DUP1 PUSH2 0xB68 PUSH20 0xA97684EAD0E402DC232D5A977953DF7ECBAB3CDB PUSH2 0xF9A JUMP JUMPDEST PUSH20 0xFFFFFFFFFFFFFFFFFFFFFFFFFFFFFFFFFFFFFFFF AND PUSH4 0xBF92857C DUP8 PUSH1 0x40 MLOAD DUP3 PUSH4 0xFFFFFFFF AND PUSH1 0xE0 SHL DUP2 MSTORE PUSH1 0x4 ADD PUSH2 0xBA0 SWAP2 SWAP1 PUSH2 0x247A JUMP JUMPDEST PUSH1 0xC0 PUSH1 0x40 MLOAD DUP1 DUP4 SUB DUP2 DUP7 GAS STATICCALL ISZERO DUP1 ISZERO PUSH2 0xBBD JUMPI RETURNDATASIZE PUSH1 0x0 DUP1 RETURNDATACOPY RETURNDATASIZE PUSH1 0x0 REVERT JUMPDEST POP POP POP POP PUSH1 0x40 MLOAD RETURNDATASIZE PUSH1 0x1F NOT PUSH1 0x1F DUP3 ADD AND DUP3 ADD DUP1 PUSH1 0x40 MSTORE POP DUP2 ADD SWAP1 PUSH2 0xBE1 SWAP2 SWAP1 PUSH2 0x29BD JUMP JUMPDEST SWAP6 POP POP SWAP5 POP POP SWAP4 POP SWAP4 POP PUSH1 0x0 DUP5 SUB PUSH2 0xBFE JUMPI POP POP POP POP POP POP PUSH2 0xD94 JUMP JUMPDEST PUSH8 0xE92596FD6290000 DUP2 LT ISZERO PUSH2 0xC49 JUMPI PUSH1 0x40 MLOAD PUSH32 0x8C379A000000000000000000000000000000000000000000000000000000000 DUP2 MSTORE PUSH1 0x4 ADD PUSH2 0xC40 SWAP1 PUSH2 0x2A96 JUMP JUMPDEST PUSH1 0x40 MLOAD DUP1 SWAP2 SUB SWAP1 REVERT JUMPDEST PUSH1 0x0 DUP4 SUB PUSH2 0xCAA JUMPI PUSH1 0x0 DUP5 GT ISZERO PUSH2 0xC9F JUMPI PUSH2 0xC9C PUSH20 0xA97684EAD0E402DC232D5A977953DF7ECBAB3CDB PUSH32 0xFFFFFFFFFFFFFFFFFFFFFFFFFFFFFFFFFFFFFFFFFFFFFFFFFFFFFFFFFFFFFFFF DUP9 PUSH1 0x4 DUP11 PUSH2 0x1012 JUMP JUMPDEST POP POP JUMPDEST POP POP POP POP POP POP PUSH2 0xD94 JUMP JUMPDEST PUSH1 0x0 PUSH2 0xCB7 DUP6 DUP6 DUP6 PUSH2 0x805 JUMP JUMPDEST SWAP1 POP PUSH1 0x0 DUP2 GT PUSH2 0xCFC JUMPI PUSH1 0x40 MLOAD PUSH32 0x8C379A000000000000000000000000000000000000000000000000000000000 DUP2 MSTORE PUSH1 0x4 ADD PUSH2 0xCF3 SWAP1 PUSH2 0x2B28 JUMP JUMPDEST PUSH1 0x40 MLOAD DUP1 SWAP2 SUB SWAP1 REVERT JUMPDEST PUSH2 0xD1E PUSH20 0xA97684EAD0E402DC232D5A977953DF7ECBAB3CDB DUP3 DUP10 PUSH1 0x4 DUP12 PUSH2 0x1012 JUMP JUMPDEST POP POP PUSH1 0x0 PUSH2 0xD56 DUP3 DUP10 PUSH20 0x82AF49447D8A07E3BD95BD0D56F35241523FBAB1 PUSH20 0xDA10009CBD5D07DD0CECC66161FC93D7C9000DA1 PUSH2 0x115F JUMP JUMPDEST SWAP1 POP PUSH2 0xD7C PUSH20 0xA97684EAD0E402DC232D5A977953DF7ECBAB3CDB DUP3 DUP11 PUSH1 0x0 PUSH1 0x2 DUP14 PUSH2 0x133B JUMP JUMPDEST POP POP POP POP POP POP POP POP DUP1 DUP1 PUSH1 0x1 ADD SWAP2 POP POP PUSH2 0xB36 JUMP JUMPDEST POP POP JUMPDEST JUMP JUMPDEST PUSH1 0x0 DUP1 PUSH20 0x639FE6AB55C921F74E7FAC1EE960C0B6293BA612 PUSH20 0xFFFFFFFFFFFFFFFFFFFFFFFFFFFFFFFFFFFFFFFF AND PUSH4 0xFEAF968C PUSH1 0x40 MLOAD DUP2 PUSH4 0xFFFFFFFF AND PUSH1 0xE0 SHL DUP2 MSTORE PUSH1 0x4 ADD PUSH1 0xA0 PUSH1 0x40 MLOAD DUP1 DUP4 SUB DUP2 DUP7 GAS STATICCALL ISZERO DUP1 ISZERO PUSH2 0xDF8 JUMPI RETURNDATASIZE PUSH1 0x0 DUP1 RETURNDATACOPY RETURNDATASIZE PUSH1 0x0 REVERT JUMPDEST POP POP POP POP PUSH1 0x40 MLOAD RETURNDATASIZE PUSH1 0x1F NOT PUSH1 0x1F DUP3 ADD AND DUP3 ADD DUP1 PUSH1 0x40 MSTORE POP DUP2 ADD SWAP1 PUSH2 0xE1C SWAP2 SWAP1 PUSH2 0x2642 JUMP JUMPDEST POP POP POP SWAP2 POP POP PUSH1 0x0 DUP2 SGT PUSH2 0xE65 JUMPI PUSH1 0x40 MLOAD PUSH32 0x8C379A000000000000000000000000000000000000000000000000000000000 DUP2 MSTORE PUSH1 0x4 ADD PUSH2 0xE5C SWAP1 PUSH2 0x271A JUMP JUMPDEST PUSH1 0x40 MLOAD DUP1 SWAP2 SUB SWAP1 REVERT JUMPDEST PUSH1 0x0 DUP4 PUSH20 0xFFFFFFFFFFFFFFFFFFFFFFFFFFFFFFFFFFFFFFFF AND PUSH4 0x313CE567 PUSH1 0x40 MLOAD DUP2 PUSH4 0xFFFFFFFF AND PUSH1 0xE0 SHL DUP2 MSTORE PUSH1 0x4 ADD PUSH1 0x20 PUSH1 0x40 MLOAD DUP1 DUP4 SUB DUP2 DUP7 GAS STATICCALL ISZERO DUP1 ISZERO PUSH2 0xEB2 JUMPI RETURNDATASIZE PUSH1 0x0 DUP1 RETURNDATACOPY RETURNDATASIZE PUSH1 0x0 REVERT JUMPDEST POP POP POP POP PUSH1 0x40 MLOAD RETURNDATASIZE PUSH1 0x1F NOT PUSH1 0x1F DUP3 ADD AND DUP3 ADD DUP1 PUSH1 0x40 MSTORE POP DUP2 ADD SWAP1 PUSH2 0xED6 SWAP2 SWAP1 PUSH2 0x2B5D JUMP JUMPDEST PUSH1 0xFF AND SWAP1 POP PUSH1 0x0 DUP3 SWAP1 POP PUSH1 0x0 DUP3 PUSH1 0xA PUSH2 0xEEF SWAP2 SWAP1 PUSH2 0x2B8A JUMP JUMPDEST DUP8 PUSH2 0xEFA SWAP2 SWAP1 PUSH2 0x28E7 JUMP JUMPDEST SWAP1 POP DUP2 DUP2 PUSH2 0xF08 SWAP2 SWAP1 PUSH2 0x2958 JUMP JUMPDEST SWAP5 POP POP POP POP POP SWAP3 SWAP2 POP POP JUMP JUMPDEST PUSH2 0xF95 DUP4 PUSH4 0xA9059CBB PUSH1 0xE0 SHL DUP5 DUP5 PUSH1 0x40 MLOAD PUSH1 0x24 ADD PUSH2 0xF33 SWAP3 SWAP2 SWAP1 PUSH2 0x255F JUMP JUMPDEST PUSH1 0x40 MLOAD PUSH1 0x20 DUP2 DUP4 SUB SUB DUP2 MSTORE SWAP1 PUSH1 0x40 MSTORE SWAP1 PUSH28 0xFFFFFFFFFFFFFFFFFFFFFFFFFFFFFFFFFFFFFFFFFFFFFFFFFFFFFFFF NOT AND PUSH1 0x20 DUP3 ADD DUP1 MLOAD PUSH28 0xFFFFFFFFFFFFFFFFFFFFFFFFFFFFFFFFFFFFFFFFFFFFFFFFFFFFFFFF DUP4 DUP2 DUP4 AND OR DUP4 MSTORE POP POP POP POP PUSH2 0x14E4 JUMP JUMPDEST POP POP POP JUMP JUMPDEST PUSH1 0x0 DUP2 PUSH20 0xFFFFFFFFFFFFFFFFFFFFFFFFFFFFFFFFFFFFFFFF AND PUSH4 0x26B1D5F PUSH1 0x40 MLOAD DUP2 PUSH4 0xFFFFFFFF AND PUSH1 0xE0 SHL DUP2 MSTORE PUSH1 0x4 ADD PUSH1 0x20 PUSH1 0x40 MLOAD DUP1 DUP4 SUB DUP2 DUP7 GAS STATICCALL ISZERO DUP1 ISZERO PUSH2 0xFE7 JUMPI RETURNDATASIZE PUSH1 0x0 DUP1 RETURNDATACOPY RETURNDATASIZE PUSH1 0x0 REVERT JUMPDEST POP POP POP POP PUSH1 0x40 MLOAD RETURNDATASIZE PUSH1 0x1F NOT PUSH1 0x1F DUP3 ADD AND DUP3 ADD DUP1 PUSH1 0x40 MSTORE POP DUP2 ADD SWAP1 PUSH2 0x100B SWAP2 SWAP1 PUSH2 0x259D JUMP JUMPDEST SWAP1 POP SWAP2 SWAP1 POP JUMP JUMPDEST PUSH1 0x0 PUSH1 0x60 PUSH1 0x0 PUSH2 0x1021 DUP9 PUSH2 0xF9A JUMP JUMPDEST SWAP1 POP PUSH1 0x0 DUP2 PUSH20 0xFFFFFFFFFFFFFFFFFFFFFFFFFFFFFFFFFFFFFFFF AND PUSH4 0x52751797 DUP8 PUSH1 0x40 MLOAD DUP3 PUSH4 0xFFFFFFFF AND PUSH1 0xE0 SHL DUP2 MSTORE PUSH1 0x4 ADD PUSH2 0x105E SWAP2 SWAP1 PUSH2 0x1CCF JUMP JUMPDEST PUSH1 0x20 PUSH1 0x40 MLOAD DUP1 DUP4 SUB DUP2 DUP7 GAS STATICCALL ISZERO DUP1 ISZERO PUSH2 0x107B JUMPI RETURNDATASIZE PUSH1 0x0 DUP1 RETURNDATACOPY RETURNDATASIZE PUSH1 0x0 REVERT JUMPDEST POP POP POP POP PUSH1 0x40 MLOAD RETURNDATASIZE PUSH1 0x1F NOT PUSH1 0x1F DUP3 ADD AND DUP3 ADD DUP1 PUSH1 0x40 MSTORE POP DUP2 ADD SWAP1 PUSH2 0x109F SWAP2 SWAP1 PUSH2 0x259D JUMP JUMPDEST SWAP1 POP DUP2 PUSH20 0xFFFFFFFFFFFFFFFFFFFFFFFFFFFFFFFFFFFFFFFF AND PUSH4 0x69328DEC DUP3 DUP11 DUP11 PUSH1 0x40 MLOAD DUP5 PUSH4 0xFFFFFFFF AND PUSH1 0xE0 SHL DUP2 MSTORE PUSH1 0x4 ADD PUSH2 0x10DE SWAP4 SWAP3 SWAP2 SWAP1 PUSH2 0x2BD5 JUMP JUMPDEST PUSH1 0x20 PUSH1 0x40 MLOAD DUP1 DUP4 SUB DUP2 PUSH1 0x0 DUP8 GAS CALL ISZERO DUP1 ISZERO PUSH2 0x10FD JUMPI RETURNDATASIZE PUSH1 0x0 DUP1 RETURNDATACOPY RETURNDATASIZE PUSH1 0x0 REVERT JUMPDEST POP POP POP POP PUSH1 0x40 MLOAD RETURNDATASIZE PUSH1 0x1F NOT PUSH1 0x1F DUP3 ADD AND DUP3 ADD DUP1 PUSH1 0x40 MSTORE POP DUP2 ADD SWAP1 PUSH2 0x1121 SWAP2 SWAP1 PUSH2 0x2532 JUMP JUMPDEST POP PUSH1 0x0 DUP10 DUP3 DUP11 DUP11 PUSH1 0x40 MLOAD PUSH1 0x20 ADD PUSH2 0x113B SWAP5 SWAP4 SWAP3 SWAP2 SWAP1 PUSH2 0x2C0C JUMP JUMPDEST PUSH1 0x40 MLOAD PUSH1 0x20 DUP2 DUP4 SUB SUB DUP2 MSTORE SWAP1 PUSH1 0x40 MSTORE SWAP1 POP DUP9 DUP2 SWAP5 POP SWAP5 POP POP POP POP SWAP6 POP SWAP6 SWAP4 POP POP POP POP JUMP JUMPDEST PUSH1 0x0 DUP3 PUSH20 0xFFFFFFFFFFFFFFFFFFFFFFFFFFFFFFFFFFFFFFFF AND PUSH4 0x95EA7B3 PUSH20 0xE592427A0AECE92DE3EDEE1F18E0157C05861564 DUP8 PUSH1 0x40 MLOAD DUP4 PUSH4 0xFFFFFFFF AND PUSH1 0xE0 SHL DUP2 MSTORE PUSH1 0x4 ADD PUSH2 0x11B0 SWAP3 SWAP2 SWAP1 PUSH2 0x255F JUMP JUMPDEST PUSH1 0x20 PUSH1 0x40 MLOAD DUP1 DUP4 SUB DUP2 PUSH1 0x0 DUP8 GAS CALL ISZERO DUP1 ISZERO PUSH2 0x11CF JUMPI RETURNDATASIZE PUSH1 0x0 DUP1 RETURNDATACOPY RETURNDATASIZE PUSH1 0x0 REVERT JUMPDEST POP POP POP POP PUSH1 0x40 MLOAD RETURNDATASIZE PUSH1 0x1F NOT PUSH1 0x1F DUP3 ADD AND DUP3 ADD DUP1 PUSH1 0x40 MSTORE POP DUP2 ADD SWAP1 PUSH2 0x11F3 SWAP2 SWAP1 PUSH2 0x24C1 JUMP JUMPDEST POP PUSH1 0x0 PUSH1 0x40 MLOAD DUP1 PUSH2 0x100 ADD PUSH1 0x40 MSTORE DUP1 DUP6 PUSH20 0xFFFFFFFFFFFFFFFFFFFFFFFFFFFFFFFFFFFFFFFF AND DUP2 MSTORE PUSH1 0x20 ADD DUP5 PUSH20 0xFFFFFFFFFFFFFFFFFFFFFFFFFFFFFFFFFFFFFFFF AND DUP2 MSTORE PUSH1 0x20 ADD PUSH2 0x1F4 PUSH3 0xFFFFFF AND DUP2 MSTORE PUSH1 0x20 ADD DUP7 PUSH20 0xFFFFFFFFFFFFFFFFFFFFFFFFFFFFFFFFFFFFFFFF AND DUP2 MSTORE PUSH1 0x20 ADD PUSH2 0x12C TIMESTAMP PUSH2 0x1271 SWAP2 SWAP1 PUSH2 0x2C51 JUMP JUMPDEST DUP2 MSTORE PUSH1 0x20 ADD DUP8 DUP2 MSTORE PUSH1 0x20 ADD PUSH1 0x0 DUP2 MSTORE PUSH1 0x20 ADD PUSH1 0x0 PUSH20 0xFFFFFFFFFFFFFFFFFFFFFFFFFFFFFFFFFFFFFFFF AND DUP2 MSTORE POP SWAP1 POP PUSH20 0xE592427A0AECE92DE3EDEE1F18E0157C05861564 PUSH20 0xFFFFFFFFFFFFFFFFFFFFFFFFFFFFFFFFFFFFFFFF AND PUSH4 0x414BF389 DUP3 PUSH1 0x40 MLOAD DUP3 PUSH4 0xFFFFFFFF AND PUSH1 0xE0 SHL DUP2 MSTORE PUSH1 0x4 ADD PUSH2 0x12ED SWAP2 SWAP1 PUSH2 0x2D72 JUMP JUMPDEST PUSH1 0x20 PUSH1 0x40 MLOAD DUP1 DUP4 SUB DUP2 PUSH1 0x0 DUP8 GAS CALL ISZERO DUP1 ISZERO PUSH2 0x130C JUMPI RETURNDATASIZE PUSH1 0x0 DUP1 RETURNDATACOPY RETURNDATASIZE PUSH1 0x0 REVERT JUMPDEST POP POP POP POP PUSH1 0x40 MLOAD RETURNDATASIZE PUSH1 0x1F NOT PUSH1 0x1F DUP3 ADD AND DUP3 ADD DUP1 PUSH1 0x40 MSTORE POP DUP2 ADD SWAP1 PUSH2 0x1330 SWAP2 SWAP1 PUSH2 0x2532 JUMP JUMPDEST SWAP2 POP POP SWAP5 SWAP4 POP POP POP POP JUMP JUMPDEST PUSH1 0x0 PUSH1 0x60 PUSH1 0x0 PUSH2 0x134A DUP10 PUSH2 0xF9A JUMP JUMPDEST SWAP1 POP PUSH1 0x0 DUP2 PUSH20 0xFFFFFFFFFFFFFFFFFFFFFFFFFFFFFFFFFFFFFFFF AND PUSH4 0x52751797 DUP9 PUSH1 0x40 MLOAD DUP3 PUSH4 0xFFFFFFFF AND PUSH1 0xE0 SHL DUP2 MSTORE PUSH1 0x4 ADD PUSH2 0x1387 SWAP2 SWAP1 PUSH2 0x1CCF JUMP JUMPDEST PUSH1 0x20 PUSH1 0x40 MLOAD DUP1 DUP4 SUB DUP2 DUP7 GAS STATICCALL ISZERO DUP1 ISZERO PUSH2 0x13A4 JUMPI RETURNDATASIZE PUSH1 0x0 DUP1 RETURNDATACOPY RETURNDATASIZE PUSH1 0x0 REVERT JUMPDEST POP POP POP POP PUSH1 0x40 MLOAD RETURNDATASIZE PUSH1 0x1F NOT PUSH1 0x1F DUP3 ADD AND DUP3 ADD DUP1 PUSH1 0x40 MSTORE POP DUP2 ADD SWAP1 PUSH2 0x13C8 SWAP2 SWAP1 PUSH2 0x259D JUMP JUMPDEST SWAP1 POP PUSH2 0x13F5 DUP9 DUP11 DUP4 PUSH20 0xFFFFFFFFFFFFFFFFFFFFFFFFFFFFFFFFFFFFFFFF AND PUSH2 0x15AC SWAP1 SWAP3 SWAP2 SWAP1 PUSH4 0xFFFFFFFF AND JUMP JUMPDEST POP PUSH2 0x1421 DUP3 DUP11 DUP4 PUSH20 0xFFFFFFFFFFFFFFFFFFFFFFFFFFFFFFFFFFFFFFFF AND PUSH2 0x16E1 SWAP1 SWAP3 SWAP2 SWAP1 PUSH4 0xFFFFFFFF AND JUMP JUMPDEST DUP2 PUSH20 0xFFFFFFFFFFFFFFFFFFFFFFFFFFFFFFFFFFFFFFFF AND PUSH4 0x573ADE81 DUP3 DUP12 DUP10 DUP10 PUSH1 0x40 MLOAD DUP6 PUSH4 0xFFFFFFFF AND PUSH1 0xE0 SHL DUP2 MSTORE PUSH1 0x4 ADD PUSH2 0x1460 SWAP5 SWAP4 SWAP3 SWAP2 SWAP1 PUSH2 0x2D8E JUMP JUMPDEST PUSH1 0x20 PUSH1 0x40 MLOAD DUP1 DUP4 SUB DUP2 PUSH1 0x0 DUP8 GAS CALL ISZERO DUP1 ISZERO PUSH2 0x147F JUMPI RETURNDATASIZE PUSH1 0x0 DUP1 RETURNDATACOPY RETURNDATASIZE PUSH1 0x0 REVERT JUMPDEST POP POP POP POP PUSH1 0x40 MLOAD RETURNDATASIZE PUSH1 0x1F NOT PUSH1 0x1F DUP3 ADD AND DUP3 ADD DUP1 PUSH1 0x40 MSTORE POP DUP2 ADD SWAP1 PUSH2 0x14A3 SWAP2 SWAP1 PUSH2 0x2532 JUMP JUMPDEST POP PUSH1 0x0 DUP11 DUP3 DUP12 DUP10 DUP10 PUSH1 0x40 MLOAD PUSH1 0x20 ADD PUSH2 0x14BF SWAP6 SWAP5 SWAP4 SWAP3 SWAP2 SWAP1 PUSH2 0x2DD3 JUMP JUMPDEST PUSH1 0x40 MLOAD PUSH1 0x20 DUP2 DUP4 SUB SUB DUP2 MSTORE SWAP1 PUSH1 0x40 MSTORE SWAP1 POP DUP10 DUP2 SWAP5 POP SWAP5 POP POP POP POP SWAP7 POP SWAP7 SWAP5 POP POP POP POP POP JUMP JUMPDEST PUSH1 0x0 PUSH2 0x1546 DUP3 PUSH1 0x40 MLOAD DUP1 PUSH1 0x40 ADD PUSH1 0x40 MSTORE DUP1 PUSH1 0x20 DUP2 MSTORE PUSH1 0x20 ADD PUSH32 0x5361666545524332303A206C6F772D6C6576656C2063616C6C206661696C6564 DUP2 MSTORE POP DUP6 PUSH20 0xFFFFFFFFFFFFFFFFFFFFFFFFFFFFFFFFFFFFFFFF AND PUSH2 0x17DE SWAP1 SWAP3 SWAP2 SWAP1 PUSH4 0xFFFFFFFF AND JUMP JUMPDEST SWAP1 POP PUSH1 0x0 DUP2 MLOAD EQ DUP1 PUSH2 0x1568 JUMPI POP DUP1 DUP1 PUSH1 0x20 ADD SWAP1 MLOAD DUP2 ADD SWAP1 PUSH2 0x1567 SWAP2 SWAP1 PUSH2 0x24C1 JUMP JUMPDEST JUMPDEST PUSH2 0x15A7 JUMPI PUSH1 0x40 MLOAD PUSH32 0x8C379A000000000000000000000000000000000000000000000000000000000 DUP2 MSTORE PUSH1 0x4 ADD PUSH2 0x159E SWAP1 PUSH2 0x2E98 JUMP JUMPDEST PUSH1 0x40 MLOAD DUP1 SWAP2 SUB SWAP1 REVERT JUMPDEST POP POP POP JUMP JUMPDEST PUSH1 0x0 PUSH32 0xFFFFFFFFFFFFFFFFFFFFFFFFFFFFFFFFFFFFFFFFFFFFFFFFFFFFFFFFFFFFFFFF DUP3 SUB PUSH2 0x15E2 JUMPI PUSH2 0x15DF DUP5 DUP5 PUSH2 0x17F6 JUMP JUMPDEST SWAP2 POP JUMPDEST PUSH1 0x0 PUSH20 0xFFFFFFFFFFFFFFFFFFFFFFFFFFFFFFFFFFFFFFFF AND DUP4 PUSH20 0xFFFFFFFFFFFFFFFFFFFFFFFFFFFFFFFFFFFFFFFF AND EQ ISZERO DUP1 ISZERO PUSH2 0x164B JUMPI POP ADDRESS PUSH20 0xFFFFFFFFFFFFFFFFFFFFFFFFFFFFFFFFFFFFFFFF AND DUP4 PUSH20 0xFFFFFFFFFFFFFFFFFFFFFFFFFFFFFFFFFFFFFFFF AND EQ ISZERO JUMPDEST DUP1 ISZERO PUSH2 0x1697 JUMPI POP PUSH20 0xEEEEEEEEEEEEEEEEEEEEEEEEEEEEEEEEEEEEEEEE PUSH20 0xFFFFFFFFFFFFFFFFFFFFFFFFFFFFFFFFFFFFFFFF AND DUP5 PUSH20 0xFFFFFFFFFFFFFFFFFFFFFFFFFFFFFFFFFFFFFFFF AND EQ ISZERO JUMPDEST DUP1 ISZERO PUSH2 0x16A4 JUMPI POP PUSH1 0x0 DUP3 EQ ISZERO JUMPDEST ISZERO PUSH2 0x16D7 JUMPI PUSH2 0x16D6 DUP4 ADDRESS DUP5 DUP8 PUSH20 0xFFFFFFFFFFFFFFFFFFFFFFFFFFFFFFFFFFFFFFFF AND PUSH2 0x18E1 SWAP1 SWAP4 SWAP3 SWAP2 SWAP1 PUSH4 0xFFFFFFFF AND JUMP JUMPDEST JUMPDEST DUP2 SWAP1 POP SWAP4 SWAP3 POP POP POP JUMP JUMPDEST PUSH20 0xEEEEEEEEEEEEEEEEEEEEEEEEEEEEEEEEEEEEEEEE PUSH20 0xFFFFFFFFFFFFFFFFFFFFFFFFFFFFFFFFFFFFFFFF AND DUP4 PUSH20 0xFFFFFFFFFFFFFFFFFFFFFFFFFFFFFFFFFFFFFFFF AND SUB ISZERO PUSH2 0x17D9 JUMPI DUP1 DUP4 PUSH20 0xFFFFFFFFFFFFFFFFFFFFFFFFFFFFFFFFFFFFFFFF AND PUSH4 0xDD62ED3E ADDRESS DUP6 PUSH1 0x40 MLOAD DUP4 PUSH4 0xFFFFFFFF AND PUSH1 0xE0 SHL DUP2 MSTORE PUSH1 0x4 ADD PUSH2 0x1765 SWAP3 SWAP2 SWAP1 PUSH2 0x2EB8 JUMP JUMPDEST PUSH1 0x20 PUSH1 0x40 MLOAD DUP1 DUP4 SUB DUP2 DUP7 GAS STATICCALL ISZERO DUP1 ISZERO PUSH2 0x1782 JUMPI RETURNDATASIZE PUSH1 0x0 DUP1 RETURNDATACOPY RETURNDATASIZE PUSH1 0x0 REVERT JUMPDEST POP POP POP POP PUSH1 0x40 MLOAD RETURNDATASIZE PUSH1 0x1F NOT PUSH1 0x1F DUP3 ADD AND DUP3 ADD DUP1 PUSH1 0x40 MSTORE POP DUP2 ADD SWAP1 PUSH2 0x17A6 SWAP2 SWAP1 PUSH2 0x2532 JUMP JUMPDEST LT ISZERO PUSH2 0x17D8 JUMPI PUSH2 0x17D7 DUP3 DUP3 DUP6 PUSH20 0xFFFFFFFFFFFFFFFFFFFFFFFFFFFFFFFFFFFFFFFF AND PUSH2 0x196A SWAP1 SWAP3 SWAP2 SWAP1 PUSH4 0xFFFFFFFF AND JUMP JUMPDEST JUMPDEST JUMPDEST POP POP POP JUMP JUMPDEST PUSH1 0x60 PUSH2 0x17ED DUP5 DUP5 PUSH1 0x0 DUP6 PUSH2 0x1A87 JUMP JUMPDEST SWAP1 POP SWAP4 SWAP3 POP POP POP JUMP JUMPDEST PUSH1 0x0 PUSH20 0xEEEEEEEEEEEEEEEEEEEEEEEEEEEEEEEEEEEEEEEE PUSH20 0xFFFFFFFFFFFFFFFFFFFFFFFFFFFFFFFFFFFFFFFF AND DUP4 PUSH20 0xFFFFFFFFFFFFFFFFFFFFFFFFFFFFFFFFFFFFFFFF AND SUB PUSH2 0x185E JUMPI DUP2 PUSH20 0xFFFFFFFFFFFFFFFFFFFFFFFFFFFFFFFFFFFFFFFF AND BALANCE SWAP1 POP PUSH2 0x18DB JUMP JUMPDEST DUP3 PUSH20 0xFFFFFFFFFFFFFFFFFFFFFFFFFFFFFFFFFFFFFFFF AND PUSH4 0x70A08231 DUP4 PUSH1 0x40 MLOAD DUP3 PUSH4 0xFFFFFFFF AND PUSH1 0xE0 SHL DUP2 MSTORE PUSH1 0x4 ADD PUSH2 0x1897 SWAP2 SWAP1 PUSH2 0x247A JUMP JUMPDEST PUSH1 0x20 PUSH1 0x40 MLOAD DUP1 DUP4 SUB DUP2 DUP7 GAS STATICCALL ISZERO DUP1 ISZERO PUSH2 0x18B4 JUMPI RETURNDATASIZE PUSH1 0x0 DUP1 RETURNDATACOPY RETURNDATASIZE PUSH1 0x0 REVERT JUMPDEST POP POP POP POP PUSH1 0x40 MLOAD RETURNDATASIZE PUSH1 0x1F NOT PUSH1 0x1F DUP3 ADD AND DUP3 ADD DUP1 PUSH1 0x40 MSTORE POP DUP2 ADD SWAP1 PUSH2 0x18D8 SWAP2 SWAP1 PUSH2 0x2532 JUMP JUMPDEST SWAP1 POP JUMPDEST SWAP3 SWAP2 POP POP JUMP JUMPDEST PUSH2 0x1964 DUP5 PUSH4 0x23B872DD PUSH1 0xE0 SHL DUP6 DUP6 DUP6 PUSH1 0x40 MLOAD PUSH1 0x24 ADD PUSH2 0x1902 SWAP4 SWAP3 SWAP2 SWAP1 PUSH2 0x2EE1 JUMP JUMPDEST PUSH1 0x40 MLOAD PUSH1 0x20 DUP2 DUP4 SUB SUB DUP2 MSTORE SWAP1 PUSH1 0x40 MSTORE SWAP1 PUSH28 0xFFFFFFFFFFFFFFFFFFFFFFFFFFFFFFFFFFFFFFFFFFFFFFFFFFFFFFFF NOT AND PUSH1 0x20 DUP3 ADD DUP1 MLOAD PUSH28 0xFFFFFFFFFFFFFFFFFFFFFFFFFFFFFFFFFFFFFFFFFFFFFFFFFFFFFFFF DUP4 DUP2 DUP4 AND OR DUP4 MSTORE POP POP POP POP PUSH2 0x14E4 JUMP JUMPDEST POP POP POP POP JUMP JUMPDEST PUSH1 0x0 PUSH4 0x95EA7B3 PUSH1 0xE0 SHL DUP4 DUP4 PUSH1 0x40 MLOAD PUSH1 0x24 ADD PUSH2 0x1987 SWAP3 SWAP2 SWAP1 PUSH2 0x255F JUMP JUMPDEST PUSH1 0x40 MLOAD PUSH1 0x20 DUP2 DUP4 SUB SUB DUP2 MSTORE SWAP1 PUSH1 0x40 MSTORE SWAP1 PUSH28 0xFFFFFFFFFFFFFFFFFFFFFFFFFFFFFFFFFFFFFFFFFFFFFFFFFFFFFFFF NOT AND PUSH1 0x20 DUP3 ADD DUP1 MLOAD PUSH28 0xFFFFFFFFFFFFFFFFFFFFFFFFFFFFFFFFFFFFFFFFFFFFFFFFFFFFFFFF DUP4 DUP2 DUP4 AND OR DUP4 MSTORE POP POP POP POP SWAP1 POP PUSH2 0x19F0 DUP5 DUP3 PUSH2 0x1BA0 JUMP JUMPDEST PUSH2 0x1A81 JUMPI PUSH2 0x1A76 DUP5 PUSH4 0x95EA7B3 PUSH1 0xE0 SHL DUP6 PUSH1 0x0 PUSH1 0x40 MLOAD PUSH1 0x24 ADD PUSH2 0x1A14 SWAP3 SWAP2 SWAP1 PUSH2 0x2F53 JUMP JUMPDEST PUSH1 0x40 MLOAD PUSH1 0x20 DUP2 DUP4 SUB SUB DUP2 MSTORE SWAP1 PUSH1 0x40 MSTORE SWAP1 PUSH28 0xFFFFFFFFFFFFFFFFFFFFFFFFFFFFFFFFFFFFFFFFFFFFFFFFFFFFFFFF NOT AND PUSH1 0x20 DUP3 ADD DUP1 MLOAD PUSH28 0xFFFFFFFFFFFFFFFFFFFFFFFFFFFFFFFFFFFFFFFFFFFFFFFFFFFFFFFF DUP4 DUP2 DUP4 AND OR DUP4 MSTORE POP POP POP POP PUSH2 0x14E4 JUMP JUMPDEST PUSH2 0x1A80 DUP5 DUP3 PUSH2 0x14E4 JUMP JUMPDEST JUMPDEST POP POP POP POP JUMP JUMPDEST PUSH1 0x60 PUSH2 0x1A92 DUP6 PUSH2 0x1C67 JUMP JUMPDEST PUSH2 0x1AC8 JUMPI PUSH1 0x40 MLOAD PUSH32 0x304619B500000000000000000000000000000000000000000000000000000000 DUP2 MSTORE PUSH1 0x4 ADD PUSH1 0x40 MLOAD DUP1 SWAP2 SUB SWAP1 REVERT JUMPDEST PUSH1 0x0 DUP1 DUP7 PUSH20 0xFFFFFFFFFFFFFFFFFFFFFFFFFFFFFFFFFFFFFFFF AND DUP6 DUP8 PUSH1 0x40 MLOAD PUSH2 0x1AF1 SWAP2 SWAP1 PUSH2 0x2FED JUMP JUMPDEST PUSH1 0x0 PUSH1 0x40 MLOAD DUP1 DUP4 SUB DUP2 DUP6 DUP8 GAS CALL SWAP3 POP POP POP RETURNDATASIZE DUP1 PUSH1 0x0 DUP2 EQ PUSH2 0x1B2E JUMPI PUSH1 0x40 MLOAD SWAP2 POP PUSH1 0x1F NOT PUSH1 0x3F RETURNDATASIZE ADD AND DUP3 ADD PUSH1 0x40 MSTORE RETURNDATASIZE DUP3 MSTORE RETURNDATASIZE PUSH1 0x0 PUSH1 0x20 DUP5 ADD RETURNDATACOPY PUSH2 0x1B33 JUMP JUMPDEST PUSH1 0x60 SWAP2 POP JUMPDEST POP SWAP2 POP SWAP2 POP DUP2 ISZERO PUSH2 0x1B48 JUMPI DUP1 SWAP3 POP POP POP PUSH2 0x1B98 JUMP JUMPDEST PUSH1 0x0 DUP2 MLOAD GT ISZERO PUSH2 0x1B5B JUMPI DUP1 MLOAD DUP1 DUP3 PUSH1 0x20 ADD REVERT JUMPDEST DUP4 PUSH1 0x40 MLOAD PUSH32 0x8C379A000000000000000000000000000000000000000000000000000000000 DUP2 MSTORE PUSH1 0x4 ADD PUSH2 0x1B8F SWAP2 SWAP1 PUSH2 0x3048 JUMP JUMPDEST PUSH1 0x40 MLOAD DUP1 SWAP2 SUB SWAP1 REVERT JUMPDEST SWAP5 SWAP4 POP POP POP POP JUMP JUMPDEST PUSH1 0x0 DUP1 PUSH1 0x0 DUP5 PUSH20 0xFFFFFFFFFFFFFFFFFFFFFFFFFFFFFFFFFFFFFFFF AND DUP5 PUSH1 0x40 MLOAD PUSH2 0x1BCA SWAP2 SWAP1 PUSH2 0x2FED JUMP JUMPDEST PUSH1 0x0 PUSH1 0x40 MLOAD DUP1 DUP4 SUB DUP2 PUSH1 0x0 DUP7 GAS CALL SWAP2 POP POP RETURNDATASIZE DUP1 PUSH1 0x0 DUP2 EQ PUSH2 0x1C07 JUMPI PUSH1 0x40 MLOAD SWAP2 POP PUSH1 0x1F NOT PUSH1 0x3F RETURNDATASIZE ADD AND DUP3 ADD PUSH1 0x40 MSTORE RETURNDATASIZE DUP3 MSTORE RETURNDATASIZE PUSH1 0x0 PUSH1 0x20 DUP5 ADD RETURNDATACOPY PUSH2 0x1C0C JUMP JUMPDEST PUSH1 0x60 SWAP2 POP JUMPDEST POP SWAP2 POP SWAP2 POP DUP2 DUP1 ISZERO PUSH2 0x1C3A JUMPI POP PUSH1 0x0 DUP2 MLOAD EQ DUP1 PUSH2 0x1C39 JUMPI POP DUP1 DUP1 PUSH1 0x20 ADD SWAP1 MLOAD DUP2 ADD SWAP1 PUSH2 0x1C38 SWAP2 SWAP1 PUSH2 0x24C1 JUMP JUMPDEST JUMPDEST JUMPDEST DUP1 ISZERO PUSH2 0x1C5D JUMPI POP PUSH1 0x0 DUP6 PUSH20 0xFFFFFFFFFFFFFFFFFFFFFFFFFFFFFFFFFFFFFFFF AND EXTCODESIZE GT JUMPDEST SWAP3 POP POP POP SWAP3 SWAP2 POP POP JUMP JUMPDEST PUSH1 0x0 DUP1 PUSH1 0x0 PUSH32 0xC5D2460186F7233C927E7DB2DCC703C0E500B653CA82273B7BFAD8045D85A470 PUSH1 0x0 SHL SWAP1 POP DUP4 EXTCODEHASH SWAP2 POP DUP1 DUP3 EQ ISZERO DUP1 ISZERO PUSH2 0x1CA9 JUMPI POP PUSH1 0x0 DUP1 SHL DUP3 EQ ISZERO JUMPDEST SWAP3 POP POP POP SWAP2 SWAP1 POP JUMP JUMPDEST PUSH1 0x0 PUSH2 0xFFFF DUP3 AND SWAP1 POP SWAP2 SWAP1 POP JUMP JUMPDEST PUSH2 0x1CC9 DUP2 PUSH2 0x1CB2 JUMP JUMPDEST DUP3 MSTORE POP POP JUMP JUMPDEST PUSH1 0x0 PUSH1 0x20 DUP3 ADD SWAP1 POP PUSH2 0x1CE4 PUSH1 0x0 DUP4 ADD DUP5 PUSH2 0x1CC0 JUMP JUMPDEST SWAP3 SWAP2 POP POP JUMP JUMPDEST PUSH1 0x0 PUSH20 0xFFFFFFFFFFFFFFFFFFFFFFFFFFFFFFFFFFFFFFFF DUP3 AND SWAP1 POP SWAP2 SWAP1 POP JUMP JUMPDEST PUSH1 0x0 DUP2 SWAP1 POP SWAP2 SWAP1 POP JUMP JUMPDEST PUSH1 0x0 PUSH2 0x1D2F PUSH2 0x1D2A PUSH2 0x1D25 DUP5 PUSH2 0x1CEA JUMP JUMPDEST PUSH2 0x1D0A JUMP JUMPDEST PUSH2 0x1CEA JUMP JUMPDEST SWAP1 POP SWAP2 SWAP1 POP JUMP JUMPDEST PUSH1 0x0 PUSH2 0x1D41 DUP3 PUSH2 0x1D14 JUMP JUMPDEST SWAP1 POP SWAP2 SWAP1 POP JUMP JUMPDEST PUSH1 0x0 PUSH2 0x1D53 DUP3 PUSH2 0x1D36 JUMP JUMPDEST SWAP1 POP SWAP2 SWAP1 POP JUMP JUMPDEST PUSH2 0x1D63 DUP2 PUSH2 0x1D48 JUMP JUMPDEST DUP3 MSTORE POP POP JUMP JUMPDEST PUSH1 0x0 PUSH1 0x20 DUP3 ADD SWAP1 POP PUSH2 0x1D7E PUSH1 0x0 DUP4 ADD DUP5 PUSH2 0x1D5A JUMP JUMPDEST SWAP3 SWAP2 POP POP JUMP JUMPDEST PUSH1 0x0 PUSH1 0xFF DUP3 AND SWAP1 POP SWAP2 SWAP1 POP JUMP JUMPDEST PUSH2 0x1D9A DUP2 PUSH2 0x1D84 JUMP JUMPDEST DUP3 MSTORE POP POP JUMP JUMPDEST PUSH1 0x0 PUSH1 0x20 DUP3 ADD SWAP1 POP PUSH2 0x1DB5 PUSH1 0x0 DUP4 ADD DUP5 PUSH2 0x1D91 JUMP JUMPDEST SWAP3 SWAP2 POP POP JUMP JUMPDEST PUSH1 0x0 PUSH1 0x40 MLOAD SWAP1 POP SWAP1 JUMP JUMPDEST PUSH1 0x0 DUP1 REVERT JUMPDEST PUSH1 0x0 DUP1 REVERT JUMPDEST PUSH1 0x0 PUSH2 0x1DDA DUP3 PUSH2 0x1CEA JUMP JUMPDEST SWAP1 POP SWAP2 SWAP1 POP JUMP JUMPDEST PUSH2 0x1DEA DUP2 PUSH2 0x1DCF JUMP JUMPDEST DUP2 EQ PUSH2 0x1DF5 JUMPI PUSH1 0x0 DUP1 REVERT JUMPDEST POP JUMP JUMPDEST PUSH1 0x0 DUP2 CALLDATALOAD SWAP1 POP PUSH2 0x1E07 DUP2 PUSH2 0x1DE1 JUMP JUMPDEST SWAP3 SWAP2 POP POP JUMP JUMPDEST PUSH1 0x0 PUSH1 0x20 DUP3 DUP5 SUB SLT ISZERO PUSH2 0x1E23 JUMPI PUSH2 0x1E22 PUSH2 0x1DC5 JUMP JUMPDEST JUMPDEST PUSH1 0x0 PUSH2 0x1E31 DUP5 DUP3 DUP6 ADD PUSH2 0x1DF8 JUMP JUMPDEST SWAP2 POP POP SWAP3 SWAP2 POP POP JUMP JUMPDEST PUSH1 0x0 DUP2 ISZERO ISZERO SWAP1 POP SWAP2 SWAP1 POP JUMP JUMPDEST PUSH2 0x1E4F DUP2 PUSH2 0x1E3A JUMP JUMPDEST DUP3 MSTORE POP POP JUMP JUMPDEST PUSH1 0x0 PUSH1 0x20 DUP3 ADD SWAP1 POP PUSH2 0x1E6A PUSH1 0x0 DUP4 ADD DUP5 PUSH2 0x1E46 JUMP JUMPDEST SWAP3 SWAP2 POP POP JUMP JUMPDEST PUSH1 0x0 DUP1 REVERT JUMPDEST PUSH1 0x0 DUP1 REVERT JUMPDEST PUSH1 0x0 PUSH1 0x1F NOT PUSH1 0x1F DUP4 ADD AND SWAP1 POP SWAP2 SWAP1 POP JUMP JUMPDEST PUSH32 0x4E487B7100000000000000000000000000000000000000000000000000000000 PUSH1 0x0 MSTORE PUSH1 0x41 PUSH1 0x4 MSTORE PUSH1 0x24 PUSH1 0x0 REVERT JUMPDEST PUSH2 0x1EC3 DUP3 PUSH2 0x1E7A JUMP JUMPDEST DUP2 ADD DUP2 DUP2 LT PUSH8 0xFFFFFFFFFFFFFFFF DUP3 GT OR ISZERO PUSH2 0x1EE2 JUMPI PUSH2 0x1EE1 PUSH2 0x1E8B JUMP JUMPDEST JUMPDEST DUP1 PUSH1 0x40 MSTORE POP POP POP JUMP JUMPDEST PUSH1 0x0 PUSH2 0x1EF5 PUSH2 0x1DBB JUMP JUMPDEST SWAP1 POP PUSH2 0x1F01 DUP3 DUP3 PUSH2 0x1EBA JUMP JUMPDEST SWAP2 SWAP1 POP JUMP JUMPDEST PUSH1 0x0 PUSH8 0xFFFFFFFFFFFFFFFF DUP3 GT ISZERO PUSH2 0x1F21 JUMPI PUSH2 0x1F20 PUSH2 0x1E8B JUMP JUMPDEST JUMPDEST PUSH2 0x1F2A DUP3 PUSH2 0x1E7A JUMP JUMPDEST SWAP1 POP PUSH1 0x20 DUP2 ADD SWAP1 POP SWAP2 SWAP1 POP JUMP JUMPDEST DUP3 DUP2 DUP4 CALLDATACOPY PUSH1 0x0 DUP4 DUP4 ADD MSTORE POP POP POP JUMP JUMPDEST PUSH1 0x0 PUSH2 0x1F59 PUSH2 0x1F54 DUP5 PUSH2 0x1F06 JUMP JUMPDEST PUSH2 0x1EEB JUMP JUMPDEST SWAP1 POP DUP3 DUP2 MSTORE PUSH1 0x20 DUP2 ADD DUP5 DUP5 DUP5 ADD GT ISZERO PUSH2 0x1F75 JUMPI PUSH2 0x1F74 PUSH2 0x1E75 JUMP JUMPDEST JUMPDEST PUSH2 0x1F80 DUP5 DUP3 DUP6 PUSH2 0x1F37 JUMP JUMPDEST POP SWAP4 SWAP3 POP POP POP JUMP JUMPDEST PUSH1 0x0 DUP3 PUSH1 0x1F DUP4 ADD SLT PUSH2 0x1F9D JUMPI PUSH2 0x1F9C PUSH2 0x1E70 JUMP JUMPDEST JUMPDEST DUP2 CALLDATALOAD PUSH2 0x1FAD DUP5 DUP3 PUSH1 0x20 DUP7 ADD PUSH2 0x1F46 JUMP JUMPDEST SWAP2 POP POP SWAP3 SWAP2 POP POP JUMP JUMPDEST PUSH1 0x0 PUSH1 0x20 DUP3 DUP5 SUB SLT ISZERO PUSH2 0x1FCC JUMPI PUSH2 0x1FCB PUSH2 0x1DC5 JUMP JUMPDEST JUMPDEST PUSH1 0x0 DUP3 ADD CALLDATALOAD PUSH8 0xFFFFFFFFFFFFFFFF DUP2 GT ISZERO PUSH2 0x1FEA JUMPI PUSH2 0x1FE9 PUSH2 0x1DCA JUMP JUMPDEST JUMPDEST PUSH2 0x1FF6 DUP5 DUP3 DUP6 ADD PUSH2 0x1F88 JUMP JUMPDEST SWAP2 POP POP SWAP3 SWAP2 POP POP JUMP JUMPDEST PUSH1 0x0 PUSH2 0x200A DUP3 PUSH2 0x1D36 JUMP JUMPDEST SWAP1 POP SWAP2 SWAP1 POP JUMP JUMPDEST PUSH2 0x201A DUP2 PUSH2 0x1FFF JUMP JUMPDEST DUP3 MSTORE POP POP JUMP JUMPDEST PUSH1 0x0 PUSH1 0x20 DUP3 ADD SWAP1 POP PUSH2 0x2035 PUSH1 0x0 DUP4 ADD DUP5 PUSH2 0x2011 JUMP JUMPDEST SWAP3 SWAP2 POP POP JUMP JUMPDEST PUSH1 0x0 PUSH8 0xFFFFFFFFFFFFFFFF DUP3 GT ISZERO PUSH2 0x2056 JUMPI PUSH2 0x2055 PUSH2 0x1E8B JUMP JUMPDEST JUMPDEST PUSH1 0x20 DUP3 MUL SWAP1 POP PUSH1 0x20 DUP2 ADD SWAP1 POP SWAP2 SWAP1 POP JUMP JUMPDEST PUSH1 0x0 DUP1 REVERT JUMPDEST PUSH1 0x0 DUP2 SWAP1 POP SWAP2 SWAP1 POP JUMP JUMPDEST PUSH2 0x207F DUP2 PUSH2 0x206C JUMP JUMPDEST DUP2 EQ PUSH2 0x208A JUMPI PUSH1 0x0 DUP1 REVERT JUMPDEST POP JUMP JUMPDEST PUSH1 0x0 DUP2 CALLDATALOAD SWAP1 POP PUSH2 0x209C DUP2 PUSH2 0x2076 JUMP JUMPDEST SWAP3 SWAP2 POP POP JUMP JUMPDEST PUSH1 0x0 PUSH2 0x20B5 PUSH2 0x20B0 DUP5 PUSH2 0x203B JUMP JUMPDEST PUSH2 0x1EEB JUMP JUMPDEST SWAP1 POP DUP1 DUP4 DUP3 MSTORE PUSH1 0x20 DUP3 ADD SWAP1 POP PUSH1 0x20 DUP5 MUL DUP4 ADD DUP6 DUP2 GT ISZERO PUSH2 0x20D8 JUMPI PUSH2 0x20D7 PUSH2 0x2067 JUMP JUMPDEST JUMPDEST DUP4 JUMPDEST DUP2 DUP2 LT ISZERO PUSH2 0x2101 JUMPI DUP1 PUSH2 0x20ED DUP9 DUP3 PUSH2 0x208D JUMP JUMPDEST DUP5 MSTORE PUSH1 0x20 DUP5 ADD SWAP4 POP POP PUSH1 0x20 DUP2 ADD SWAP1 POP PUSH2 0x20DA JUMP JUMPDEST POP POP POP SWAP4 SWAP3 POP POP POP JUMP JUMPDEST PUSH1 0x0 DUP3 PUSH1 0x1F DUP4 ADD SLT PUSH2 0x2120 JUMPI PUSH2 0x211F PUSH2 0x1E70 JUMP JUMPDEST JUMPDEST DUP2 CALLDATALOAD PUSH2 0x2130 DUP5 DUP3 PUSH1 0x20 DUP7 ADD PUSH2 0x20A2 JUMP JUMPDEST SWAP2 POP POP SWAP3 SWAP2 POP POP JUMP JUMPDEST PUSH1 0x0 PUSH8 0xFFFFFFFFFFFFFFFF DUP3 GT ISZERO PUSH2 0x2154 JUMPI PUSH2 0x2153 PUSH2 0x1E8B JUMP JUMPDEST JUMPDEST PUSH1 0x20 DUP3 MUL SWAP1 POP PUSH1 0x20 DUP2 ADD SWAP1 POP SWAP2 SWAP1 POP JUMP JUMPDEST PUSH2 0x216E DUP2 PUSH2 0x1D84 JUMP JUMPDEST DUP2 EQ PUSH2 0x2179 JUMPI PUSH1 0x0 DUP1 REVERT JUMPDEST POP JUMP JUMPDEST PUSH1 0x0 DUP2 CALLDATALOAD SWAP1 POP PUSH2 0x218B DUP2 PUSH2 0x2165 JUMP JUMPDEST SWAP3 SWAP2 POP POP JUMP JUMPDEST PUSH1 0x0 PUSH2 0x21A4 PUSH2 0x219F DUP5 PUSH2 0x2139 JUMP JUMPDEST PUSH2 0x1EEB JUMP JUMPDEST SWAP1 POP DUP1 DUP4 DUP3 MSTORE PUSH1 0x20 DUP3 ADD SWAP1 POP PUSH1 0x20 DUP5 MUL DUP4 ADD DUP6 DUP2 GT ISZERO PUSH2 0x21C7 JUMPI PUSH2 0x21C6 PUSH2 0x2067 JUMP JUMPDEST JUMPDEST DUP4 JUMPDEST DUP2 DUP2 LT ISZERO PUSH2 0x21F0 JUMPI DUP1 PUSH2 0x21DC DUP9 DUP3 PUSH2 0x217C JUMP JUMPDEST DUP5 MSTORE PUSH1 0x20 DUP5 ADD SWAP4 POP POP PUSH1 0x20 DUP2 ADD SWAP1 POP PUSH2 0x21C9 JUMP JUMPDEST POP POP POP SWAP4 SWAP3 POP POP POP JUMP JUMPDEST PUSH1 0x0 DUP3 PUSH1 0x1F DUP4 ADD SLT PUSH2 0x220F JUMPI PUSH2 0x220E PUSH2 0x1E70 JUMP JUMPDEST JUMPDEST DUP2 CALLDATALOAD PUSH2 0x221F DUP5 DUP3 PUSH1 0x20 DUP7 ADD PUSH2 0x2191 JUMP JUMPDEST SWAP2 POP POP SWAP3 SWAP2 POP POP JUMP JUMPDEST PUSH1 0x0 DUP1 PUSH1 0x0 DUP1 PUSH1 0x80 DUP6 DUP8 SUB SLT ISZERO PUSH2 0x2242 JUMPI PUSH2 0x2241 PUSH2 0x1DC5 JUMP JUMPDEST JUMPDEST PUSH1 0x0 DUP6 ADD CALLDATALOAD PUSH8 0xFFFFFFFFFFFFFFFF DUP2 GT ISZERO PUSH2 0x2260 JUMPI PUSH2 0x225F PUSH2 0x1DCA JUMP JUMPDEST JUMPDEST PUSH2 0x226C DUP8 DUP3 DUP9 ADD PUSH2 0x1F88 JUMP JUMPDEST SWAP5 POP POP PUSH1 0x20 DUP6 ADD CALLDATALOAD PUSH8 0xFFFFFFFFFFFFFFFF DUP2 GT ISZERO PUSH2 0x228D JUMPI PUSH2 0x228C PUSH2 0x1DCA JUMP JUMPDEST JUMPDEST PUSH2 0x2299 DUP8 DUP3 DUP9 ADD PUSH2 0x210B JUMP JUMPDEST SWAP4 POP POP PUSH1 0x40 DUP6 ADD CALLDATALOAD PUSH8 0xFFFFFFFFFFFFFFFF DUP2 GT ISZERO PUSH2 0x22BA JUMPI PUSH2 0x22B9 PUSH2 0x1DCA JUMP JUMPDEST JUMPDEST PUSH2 0x22C6 DUP8 DUP3 DUP9 ADD PUSH2 0x21FA JUMP JUMPDEST SWAP3 POP POP PUSH1 0x60 DUP6 ADD CALLDATALOAD PUSH8 0xFFFFFFFFFFFFFFFF DUP2 GT ISZERO PUSH2 0x22E7 JUMPI PUSH2 0x22E6 PUSH2 0x1DCA JUMP JUMPDEST JUMPDEST PUSH2 0x22F3 DUP8 DUP3 DUP9 ADD PUSH2 0x210B JUMP JUMPDEST SWAP2 POP POP SWAP3 SWAP6 SWAP2 SWAP5 POP SWAP3 POP JUMP JUMPDEST PUSH2 0x2308 DUP2 PUSH2 0x206C JUMP JUMPDEST DUP3 MSTORE POP POP JUMP JUMPDEST PUSH1 0x0 PUSH1 0x20 DUP3 ADD SWAP1 POP PUSH2 0x2323 PUSH1 0x0 DUP4 ADD DUP5 PUSH2 0x22FF JUMP JUMPDEST SWAP3 SWAP2 POP POP JUMP JUMPDEST PUSH1 0x0 DUP2 SWAP1 POP SWAP2 SWAP1 POP JUMP JUMPDEST PUSH2 0x233C DUP2 PUSH2 0x2329 JUMP JUMPDEST DUP2 EQ PUSH2 0x2347 JUMPI PUSH1 0x0 DUP1 REVERT JUMPDEST POP JUMP JUMPDEST PUSH1 0x0 DUP2 CALLDATALOAD SWAP1 POP PUSH2 0x2359 DUP2 PUSH2 0x2333 JUMP JUMPDEST SWAP3 SWAP2 POP POP JUMP JUMPDEST PUSH1 0x0 DUP1 PUSH1 0x0 PUSH1 0x60 DUP5 DUP7 SUB SLT ISZERO PUSH2 0x2378 JUMPI PUSH2 0x2377 PUSH2 0x1DC5 JUMP JUMPDEST JUMPDEST PUSH1 0x0 PUSH2 0x2386 DUP7 DUP3 DUP8 ADD PUSH2 0x234A JUMP JUMPDEST SWAP4 POP POP PUSH1 0x20 PUSH2 0x2397 DUP7 DUP3 DUP8 ADD PUSH2 0x234A JUMP JUMPDEST SWAP3 POP POP PUSH1 0x40 PUSH2 0x23A8 DUP7 DUP3 DUP8 ADD PUSH2 0x234A JUMP JUMPDEST SWAP2 POP POP SWAP3 POP SWAP3 POP SWAP3 JUMP JUMPDEST PUSH2 0x23BB DUP2 PUSH2 0x2329 JUMP JUMPDEST DUP3 MSTORE POP POP JUMP JUMPDEST PUSH1 0x0 PUSH1 0x20 DUP3 ADD SWAP1 POP PUSH2 0x23D6 PUSH1 0x0 DUP4 ADD DUP5 PUSH2 0x23B2 JUMP JUMPDEST SWAP3 SWAP2 POP POP JUMP JUMPDEST PUSH1 0x0 DUP1 PUSH1 0x0 PUSH1 0x60 DUP5 DUP7 SUB SLT ISZERO PUSH2 0x23F5 JUMPI PUSH2 0x23F4 PUSH2 0x1DC5 JUMP JUMPDEST JUMPDEST PUSH1 0x0 PUSH2 0x2403 DUP7 DUP3 DUP8 ADD PUSH2 0x1DF8 JUMP JUMPDEST SWAP4 POP POP PUSH1 0x20 PUSH2 0x2414 DUP7 DUP3 DUP8 ADD PUSH2 0x1DF8 JUMP JUMPDEST SWAP3 POP POP PUSH1 0x40 PUSH2 0x2425 DUP7 DUP3 DUP8 ADD PUSH2 0x234A JUMP JUMPDEST SWAP2 POP POP SWAP3 POP SWAP3 POP SWAP3 JUMP JUMPDEST PUSH1 0x0 PUSH2 0x243A DUP3 PUSH2 0x1D36 JUMP JUMPDEST SWAP1 POP SWAP2 SWAP1 POP JUMP JUMPDEST PUSH2 0x244A DUP2 PUSH2 0x242F JUMP JUMPDEST DUP3 MSTORE POP POP JUMP JUMPDEST PUSH1 0x0 PUSH1 0x20 DUP3 ADD SWAP1 POP PUSH2 0x2465 PUSH1 0x0 DUP4 ADD DUP5 PUSH2 0x2441 JUMP JUMPDEST SWAP3 SWAP2 POP POP JUMP JUMPDEST PUSH2 0x2474 DUP2 PUSH2 0x1DCF JUMP JUMPDEST DUP3 MSTORE POP POP JUMP JUMPDEST PUSH1 0x0 PUSH1 0x20 DUP3 ADD SWAP1 POP PUSH2 0x248F PUSH1 0x0 DUP4 ADD DUP5 PUSH2 0x246B JUMP JUMPDEST SWAP3 SWAP2 POP POP JUMP JUMPDEST PUSH2 0x249E DUP2 PUSH2 0x1E3A JUMP JUMPDEST DUP2 EQ PUSH2 0x24A9 JUMPI PUSH1 0x0 DUP1 REVERT JUMPDEST POP JUMP JUMPDEST PUSH1 0x0 DUP2 MLOAD SWAP1 POP PUSH2 0x24BB DUP2 PUSH2 0x2495 JUMP JUMPDEST SWAP3 SWAP2 POP POP JUMP JUMPDEST PUSH1 0x0 PUSH1 0x20 DUP3 DUP5 SUB SLT ISZERO PUSH2 0x24D7 JUMPI PUSH2 0x24D6 PUSH2 0x1DC5 JUMP JUMPDEST JUMPDEST PUSH1 0x0 PUSH2 0x24E5 DUP5 DUP3 DUP6 ADD PUSH2 0x24AC JUMP JUMPDEST SWAP2 POP POP SWAP3 SWAP2 POP POP JUMP JUMPDEST PUSH32 0x4E487B7100000000000000000000000000000000000000000000000000000000 PUSH1 0x0 MSTORE PUSH1 0x21 PUSH1 0x4 MSTORE PUSH1 0x24 PUSH1 0x0 REVERT JUMPDEST PUSH1 0x0 DUP2 MLOAD SWAP1 POP PUSH2 0x252C DUP2 PUSH2 0x2333 JUMP JUMPDEST SWAP3 SWAP2 POP POP JUMP JUMPDEST PUSH1 0x0 PUSH1 0x20 DUP3 DUP5 SUB SLT ISZERO PUSH2 0x2548 JUMPI PUSH2 0x2547 PUSH2 0x1DC5 JUMP JUMPDEST JUMPDEST PUSH1 0x0 PUSH2 0x2556 DUP5 DUP3 DUP6 ADD PUSH2 0x251D JUMP JUMPDEST SWAP2 POP POP SWAP3 SWAP2 POP POP JUMP JUMPDEST PUSH1 0x0 PUSH1 0x40 DUP3 ADD SWAP1 POP PUSH2 0x2574 PUSH1 0x0 DUP4 ADD DUP6 PUSH2 0x246B JUMP JUMPDEST PUSH2 0x2581 PUSH1 0x20 DUP4 ADD DUP5 PUSH2 0x23B2 JUMP JUMPDEST SWAP4 SWAP3 POP POP POP JUMP JUMPDEST PUSH1 0x0 DUP2 MLOAD SWAP1 POP PUSH2 0x2597 DUP2 PUSH2 0x1DE1 JUMP JUMPDEST SWAP3 SWAP2 POP POP JUMP JUMPDEST PUSH1 0x0 PUSH1 0x20 DUP3 DUP5 SUB SLT ISZERO PUSH2 0x25B3 JUMPI PUSH2 0x25B2 PUSH2 0x1DC5 JUMP JUMPDEST JUMPDEST PUSH1 0x0 PUSH2 0x25C1 DUP5 DUP3 DUP6 ADD PUSH2 0x2588 JUMP JUMPDEST SWAP2 POP POP SWAP3 SWAP2 POP POP JUMP JUMPDEST PUSH1 0x0 PUSH10 0xFFFFFFFFFFFFFFFFFFFF DUP3 AND SWAP1 POP SWAP2 SWAP1 POP JUMP JUMPDEST PUSH2 0x25E9 DUP2 PUSH2 0x25CA JUMP JUMPDEST DUP2 EQ PUSH2 0x25F4 JUMPI PUSH1 0x0 DUP1 REVERT JUMPDEST POP JUMP JUMPDEST PUSH1 0x0 DUP2 MLOAD SWAP1 POP PUSH2 0x2606 DUP2 PUSH2 0x25E0 JUMP JUMPDEST SWAP3 SWAP2 POP POP JUMP JUMPDEST PUSH1 0x0 DUP2 SWAP1 POP SWAP2 SWAP1 POP JUMP JUMPDEST PUSH2 0x261F DUP2 PUSH2 0x260C JUMP JUMPDEST DUP2 EQ PUSH2 0x262A JUMPI PUSH1 0x0 DUP1 REVERT JUMPDEST POP JUMP JUMPDEST PUSH1 0x0 DUP2 MLOAD SWAP1 POP PUSH2 0x263C DUP2 PUSH2 0x2616 JUMP JUMPDEST SWAP3 SWAP2 POP POP JUMP JUMPDEST PUSH1 0x0 DUP1 PUSH1 0x0 DUP1 PUSH1 0x0 PUSH1 0xA0 DUP7 DUP9 SUB SLT ISZERO PUSH2 0x265E JUMPI PUSH2 0x265D PUSH2 0x1DC5 JUMP JUMPDEST JUMPDEST PUSH1 0x0 PUSH2 0x266C DUP9 DUP3 DUP10 ADD PUSH2 0x25F7 JUMP JUMPDEST SWAP6 POP POP PUSH1 0x20 PUSH2 0x267D DUP9 DUP3 DUP10 ADD PUSH2 0x262D JUMP JUMPDEST SWAP5 POP POP PUSH1 0x40 PUSH2 0x268E DUP9 DUP3 DUP10 ADD PUSH2 0x251D JUMP JUMPDEST SWAP4 POP POP PUSH1 0x60 PUSH2 0x269F DUP9 DUP3 DUP10 ADD PUSH2 0x251D JUMP JUMPDEST SWAP3 POP POP PUSH1 0x80 PUSH2 0x26B0 DUP9 DUP3 DUP10 ADD PUSH2 0x25F7 JUMP JUMPDEST SWAP2 POP POP SWAP3 SWAP6 POP SWAP3 SWAP6 SWAP1 SWAP4 POP JUMP JUMPDEST PUSH1 0x0 DUP3 DUP3 MSTORE PUSH1 0x20 DUP3 ADD SWAP1 POP SWAP3 SWAP2 POP POP JUMP JUMPDEST PUSH32 0x496E76616C696420455448207072696365000000000000000000000000000000 PUSH1 0x0 DUP3 ADD MSTORE POP JUMP JUMPDEST PUSH1 0x0 PUSH2 0x2704 PUSH1 0x11 DUP4 PUSH2 0x26BD JUMP JUMPDEST SWAP2 POP PUSH2 0x270F DUP3 PUSH2 0x26CE JUMP JUMPDEST PUSH1 0x20 DUP3 ADD SWAP1 POP SWAP2 SWAP1 POP JUMP JUMPDEST PUSH1 0x0 PUSH1 0x20 DUP3 ADD SWAP1 POP DUP2 DUP2 SUB PUSH1 0x0 DUP4 ADD MSTORE PUSH2 0x2733 DUP2 PUSH2 0x26F7 JUMP JUMPDEST SWAP1 POP SWAP2 SWAP1 POP JUMP JUMPDEST PUSH32 0x4E487B7100000000000000000000000000000000000000000000000000000000 PUSH1 0x0 MSTORE PUSH1 0x11 PUSH1 0x4 MSTORE PUSH1 0x24 PUSH1 0x0 REVERT JUMPDEST PUSH1 0x0 DUP2 PUSH1 0x1 SHR SWAP1 POP SWAP2 SWAP1 POP JUMP JUMPDEST PUSH1 0x0 DUP1 DUP3 SWAP2 POP DUP4 SWAP1 POP JUMPDEST PUSH1 0x1 DUP6 GT ISZERO PUSH2 0x27C0 JUMPI DUP1 DUP7 DIV DUP2 GT ISZERO PUSH2 0x279C JUMPI PUSH2 0x279B PUSH2 0x273A JUMP JUMPDEST JUMPDEST PUSH1 0x1 DUP6 AND ISZERO PUSH2 0x27AB JUMPI DUP1 DUP3 MUL SWAP2 POP JUMPDEST DUP1 DUP2 MUL SWAP1 POP PUSH2 0x27B9 DUP6 PUSH2 0x2769 JUMP JUMPDEST SWAP5 POP PUSH2 0x2780 JUMP JUMPDEST SWAP5 POP SWAP5 SWAP3 POP POP POP JUMP JUMPDEST PUSH1 0x0 DUP3 PUSH2 0x27D9 JUMPI PUSH1 0x1 SWAP1 POP PUSH2 0x2895 JUMP JUMPDEST DUP2 PUSH2 0x27E7 JUMPI PUSH1 0x0 SWAP1 POP PUSH2 0x2895 JUMP JUMPDEST DUP2 PUSH1 0x1 DUP2 EQ PUSH2 0x27FD JUMPI PUSH1 0x2 DUP2 EQ PUSH2 0x2807 JUMPI PUSH2 0x2836 JUMP JUMPDEST PUSH1 0x1 SWAP2 POP POP PUSH2 0x2895 JUMP JUMPDEST PUSH1 0xFF DUP5 GT ISZERO PUSH2 0x2819 JUMPI PUSH2 0x2818 PUSH2 0x273A JUMP JUMPDEST JUMPDEST DUP4 PUSH1 0x2 EXP SWAP2 POP DUP5 DUP3 GT ISZERO PUSH2 0x2830 JUMPI PUSH2 0x282F PUSH2 0x273A JUMP JUMPDEST JUMPDEST POP PUSH2 0x2895 JUMP JUMPDEST POP PUSH1 0x20 DUP4 LT PUSH2 0x133 DUP4 LT AND PUSH1 0x4E DUP5 LT PUSH1 0xB DUP5 LT AND OR ISZERO PUSH2 0x286B JUMPI DUP3 DUP3 EXP SWAP1 POP DUP4 DUP2 GT ISZERO PUSH2 0x2866 JUMPI PUSH2 0x2865 PUSH2 0x273A JUMP JUMPDEST JUMPDEST PUSH2 0x2895 JUMP JUMPDEST PUSH2 0x2878 DUP5 DUP5 DUP5 PUSH1 0x1 PUSH2 0x2776 JUMP JUMPDEST SWAP3 POP SWAP1 POP DUP2 DUP5 DIV DUP2 GT ISZERO PUSH2 0x288F JUMPI PUSH2 0x288E PUSH2 0x273A JUMP JUMPDEST JUMPDEST DUP2 DUP2 MUL SWAP1 POP JUMPDEST SWAP4 SWAP3 POP POP POP JUMP JUMPDEST PUSH1 0x0 PUSH2 0x28A7 DUP3 PUSH2 0x2329 JUMP JUMPDEST SWAP2 POP PUSH2 0x28B2 DUP4 PUSH2 0x1D84 JUMP JUMPDEST SWAP3 POP PUSH2 0x28DF PUSH32 0xFFFFFFFFFFFFFFFFFFFFFFFFFFFFFFFFFFFFFFFFFFFFFFFFFFFFFFFFFFFFFFFF DUP5 DUP5 PUSH2 0x27C9 JUMP JUMPDEST SWAP1 POP SWAP3 SWAP2 POP POP JUMP JUMPDEST PUSH1 0x0 PUSH2 0x28F2 DUP3 PUSH2 0x2329 JUMP JUMPDEST SWAP2 POP PUSH2 0x28FD DUP4 PUSH2 0x2329 JUMP JUMPDEST SWAP3 POP DUP3 DUP3 MUL PUSH2 0x290B DUP2 PUSH2 0x2329 JUMP JUMPDEST SWAP2 POP DUP3 DUP3 DIV DUP5 EQ DUP4 ISZERO OR PUSH2 0x2922 JUMPI PUSH2 0x2921 PUSH2 0x273A JUMP JUMPDEST JUMPDEST POP SWAP3 SWAP2 POP POP JUMP JUMPDEST PUSH32 0x4E487B7100000000000000000000000000000000000000000000000000000000 PUSH1 0x0 MSTORE PUSH1 0x12 PUSH1 0x4 MSTORE PUSH1 0x24 PUSH1 0x0 REVERT JUMPDEST PUSH1 0x0 PUSH2 0x2963 DUP3 PUSH2 0x2329 JUMP JUMPDEST SWAP2 POP PUSH2 0x296E DUP4 PUSH2 0x2329 JUMP JUMPDEST SWAP3 POP DUP3 PUSH2 0x297E JUMPI PUSH2 0x297D PUSH2 0x2929 JUMP JUMPDEST JUMPDEST DUP3 DUP3 DIV SWAP1 POP SWAP3 SWAP2 POP POP JUMP JUMPDEST PUSH1 0x0 PUSH2 0x2994 DUP3 PUSH2 0x2329 JUMP JUMPDEST SWAP2 POP PUSH2 0x299F DUP4 PUSH2 0x2329 JUMP JUMPDEST SWAP3 POP DUP3 DUP3 SUB SWAP1 POP DUP2 DUP2 GT ISZERO PUSH2 0x29B7 JUMPI PUSH2 0x29B6 PUSH2 0x273A JUMP JUMPDEST JUMPDEST SWAP3 SWAP2 POP POP JUMP JUMPDEST PUSH1 0x0 DUP1 PUSH1 0x0 DUP1 PUSH1 0x0 DUP1 PUSH1 0xC0 DUP8 DUP10 SUB SLT ISZERO PUSH2 0x29DA JUMPI PUSH2 0x29D9 PUSH2 0x1DC5 JUMP JUMPDEST JUMPDEST PUSH1 0x0 PUSH2 0x29E8 DUP10 DUP3 DUP11 ADD PUSH2 0x251D JUMP JUMPDEST SWAP7 POP POP PUSH1 0x20 PUSH2 0x29F9 DUP10 DUP3 DUP11 ADD PUSH2 0x251D JUMP JUMPDEST SWAP6 POP POP PUSH1 0x40 PUSH2 0x2A0A DUP10 DUP3 DUP11 ADD PUSH2 0x251D JUMP JUMPDEST SWAP5 POP POP PUSH1 0x60 PUSH2 0x2A1B DUP10 DUP3 DUP11 ADD PUSH2 0x251D JUMP JUMPDEST SWAP4 POP POP PUSH1 0x80 PUSH2 0x2A2C DUP10 DUP3 DUP11 ADD PUSH2 0x251D JUMP JUMPDEST SWAP3 POP POP PUSH1 0xA0 PUSH2 0x2A3D DUP10 DUP3 DUP11 ADD PUSH2 0x251D JUMP JUMPDEST SWAP2 POP POP SWAP3 SWAP6 POP SWAP3 SWAP6 POP SWAP3 SWAP6 JUMP JUMPDEST PUSH32 0x4865616C746820666163746F7220746F6F206C6F770000000000000000000000 PUSH1 0x0 DUP3 ADD MSTORE POP JUMP JUMPDEST PUSH1 0x0 PUSH2 0x2A80 PUSH1 0x15 DUP4 PUSH2 0x26BD JUMP JUMPDEST SWAP2 POP PUSH2 0x2A8B DUP3 PUSH2 0x2A4A JUMP JUMPDEST PUSH1 0x20 DUP3 ADD SWAP1 POP SWAP2 SWAP1 POP JUMP JUMPDEST PUSH1 0x0 PUSH1 0x20 DUP3 ADD SWAP1 POP DUP2 DUP2 SUB PUSH1 0x0 DUP4 ADD MSTORE PUSH2 0x2AAF DUP2 PUSH2 0x2A73 JUMP JUMPDEST SWAP1 POP SWAP2 SWAP1 POP JUMP JUMPDEST PUSH32 0x43616E6E6F7420736166656C7920776974686472617720636F6C6C6174657261 PUSH1 0x0 DUP3 ADD MSTORE PUSH32 0x6C00000000000000000000000000000000000000000000000000000000000000 PUSH1 0x20 DUP3 ADD MSTORE POP JUMP JUMPDEST PUSH1 0x0 PUSH2 0x2B12 PUSH1 0x21 DUP4 PUSH2 0x26BD JUMP JUMPDEST SWAP2 POP PUSH2 0x2B1D DUP3 PUSH2 0x2AB6 JUMP JUMPDEST PUSH1 0x40 DUP3 ADD SWAP1 POP SWAP2 SWAP1 POP JUMP JUMPDEST PUSH1 0x0 PUSH1 0x20 DUP3 ADD SWAP1 POP DUP2 DUP2 SUB PUSH1 0x0 DUP4 ADD MSTORE PUSH2 0x2B41 DUP2 PUSH2 0x2B05 JUMP JUMPDEST SWAP1 POP SWAP2 SWAP1 POP JUMP JUMPDEST PUSH1 0x0 DUP2 MLOAD SWAP1 POP PUSH2 0x2B57 DUP2 PUSH2 0x2165 JUMP JUMPDEST SWAP3 SWAP2 POP POP JUMP JUMPDEST PUSH1 0x0 PUSH1 0x20 DUP3 DUP5 SUB SLT ISZERO PUSH2 0x2B73 JUMPI PUSH2 0x2B72 PUSH2 0x1DC5 JUMP JUMPDEST JUMPDEST PUSH1 0x0 PUSH2 0x2B81 DUP5 DUP3 DUP6 ADD PUSH2 0x2B48 JUMP JUMPDEST SWAP2 POP POP SWAP3 SWAP2 POP POP JUMP JUMPDEST PUSH1 0x0 PUSH2 0x2B95 DUP3 PUSH2 0x2329 JUMP JUMPDEST SWAP2 POP PUSH2 0x2BA0 DUP4 PUSH2 0x2329 JUMP JUMPDEST SWAP3 POP PUSH2 0x2BCD PUSH32 0xFFFFFFFFFFFFFFFFFFFFFFFFFFFFFFFFFFFFFFFFFFFFFFFFFFFFFFFFFFFFFFFF DUP5 DUP5 PUSH2 0x27C9 JUMP JUMPDEST SWAP1 POP SWAP3 SWAP2 POP POP JUMP JUMPDEST PUSH1 0x0 PUSH1 0x60 DUP3 ADD SWAP1 POP PUSH2 0x2BEA PUSH1 0x0 DUP4 ADD DUP7 PUSH2 0x246B JUMP JUMPDEST PUSH2 0x2BF7 PUSH1 0x20 DUP4 ADD DUP6 PUSH2 0x23B2 JUMP JUMPDEST PUSH2 0x2C04 PUSH1 0x40 DUP4 ADD DUP5 PUSH2 0x246B JUMP JUMPDEST SWAP5 SWAP4 POP POP POP POP JUMP JUMPDEST PUSH1 0x0 PUSH1 0x80 DUP3 ADD SWAP1 POP PUSH2 0x2C21 PUSH1 0x0 DUP4 ADD DUP8 PUSH2 0x246B JUMP JUMPDEST PUSH2 0x2C2E PUSH1 0x20 DUP4 ADD DUP7 PUSH2 0x246B JUMP JUMPDEST PUSH2 0x2C3B PUSH1 0x40 DUP4 ADD DUP6 PUSH2 0x23B2 JUMP JUMPDEST PUSH2 0x2C48 PUSH1 0x60 DUP4 ADD DUP5 PUSH2 0x246B JUMP JUMPDEST SWAP6 SWAP5 POP POP POP POP POP JUMP JUMPDEST PUSH1 0x0 PUSH2 0x2C5C DUP3 PUSH2 0x2329 JUMP JUMPDEST SWAP2 POP PUSH2 0x2C67 DUP4 PUSH2 0x2329 JUMP JUMPDEST SWAP3 POP DUP3 DUP3 ADD SWAP1 POP DUP1 DUP3 GT ISZERO PUSH2 0x2C7F JUMPI PUSH2 0x2C7E PUSH2 0x273A JUMP JUMPDEST JUMPDEST SWAP3 SWAP2 POP POP JUMP JUMPDEST PUSH2 0x2C8E DUP2 PUSH2 0x1DCF JUMP JUMPDEST DUP3 MSTORE POP POP JUMP JUMPDEST PUSH1 0x0 PUSH3 0xFFFFFF DUP3 AND SWAP1 POP SWAP2 SWAP1 POP JUMP JUMPDEST PUSH2 0x2CAC DUP2 PUSH2 0x2C94 JUMP JUMPDEST DUP3 MSTORE POP POP JUMP JUMPDEST PUSH2 0x2CBB DUP2 PUSH2 0x2329 JUMP JUMPDEST DUP3 MSTORE POP POP JUMP JUMPDEST PUSH2 0x2CCA DUP2 PUSH2 0x1CEA JUMP JUMPDEST DUP3 MSTORE POP POP JUMP JUMPDEST PUSH2 0x100 DUP3 ADD PUSH1 0x0 DUP3 ADD MLOAD PUSH2 0x2CE7 PUSH1 0x0 DUP6 ADD DUP3 PUSH2 0x2C85 JUMP JUMPDEST POP PUSH1 0x20 DUP3 ADD MLOAD PUSH2 0x2CFA PUSH1 0x20 DUP6 ADD DUP3 PUSH2 0x2C85 JUMP JUMPDEST POP PUSH1 0x40 DUP3 ADD MLOAD PUSH2 0x2D0D PUSH1 0x40 DUP6 ADD DUP3 PUSH2 0x2CA3 JUMP JUMPDEST POP PUSH1 0x60 DUP3 ADD MLOAD PUSH2 0x2D20 PUSH1 0x60 DUP6 ADD DUP3 PUSH2 0x2C85 JUMP JUMPDEST POP PUSH1 0x80 DUP3 ADD MLOAD PUSH2 0x2D33 PUSH1 0x80 DUP6 ADD DUP3 PUSH2 0x2CB2 JUMP JUMPDEST POP PUSH1 0xA0 DUP3 ADD MLOAD PUSH2 0x2D46 PUSH1 0xA0 DUP6 ADD DUP3 PUSH2 0x2CB2 JUMP JUMPDEST POP PUSH1 0xC0 DUP3 ADD MLOAD PUSH2 0x2D59 PUSH1 0xC0 DUP6 ADD DUP3 PUSH2 0x2CB2 JUMP JUMPDEST POP PUSH1 0xE0 DUP3 ADD MLOAD PUSH2 0x2D6C PUSH1 0xE0 DUP6 ADD DUP3 PUSH2 0x2CC1 JUMP JUMPDEST POP POP POP POP JUMP JUMPDEST PUSH1 0x0 PUSH2 0x100 DUP3 ADD SWAP1 POP PUSH2 0x2D88 PUSH1 0x0 DUP4 ADD DUP5 PUSH2 0x2CD0 JUMP JUMPDEST SWAP3 SWAP2 POP POP JUMP JUMPDEST PUSH1 0x0 PUSH1 0x80 DUP3 ADD SWAP1 POP PUSH2 0x2DA3 PUSH1 0x0 DUP4 ADD DUP8 PUSH2 0x246B JUMP JUMPDEST PUSH2 0x2DB0 PUSH1 0x20 DUP4 ADD DUP7 PUSH2 0x23B2 JUMP JUMPDEST PUSH2 0x2DBD PUSH1 0x40 DUP4 ADD DUP6 PUSH2 0x23B2 JUMP JUMPDEST PUSH2 0x2DCA PUSH1 0x60 DUP4 ADD DUP5 PUSH2 0x246B JUMP JUMPDEST SWAP6 SWAP5 POP POP POP POP POP JUMP JUMPDEST PUSH1 0x0 PUSH1 0xA0 DUP3 ADD SWAP1 POP PUSH2 0x2DE8 PUSH1 0x0 DUP4 ADD DUP9 PUSH2 0x246B JUMP JUMPDEST PUSH2 0x2DF5 PUSH1 0x20 DUP4 ADD DUP8 PUSH2 0x246B JUMP JUMPDEST PUSH2 0x2E02 PUSH1 0x40 DUP4 ADD DUP7 PUSH2 0x23B2 JUMP JUMPDEST PUSH2 0x2E0F PUSH1 0x60 DUP4 ADD DUP6 PUSH2 0x23B2 JUMP JUMPDEST PUSH2 0x2E1C PUSH1 0x80 DUP4 ADD DUP5 PUSH2 0x246B JUMP JUMPDEST SWAP7 SWAP6 POP POP POP POP POP POP JUMP JUMPDEST PUSH32 0x5361666545524332303A204552433230206F7065726174696F6E20646964206E PUSH1 0x0 DUP3 ADD MSTORE PUSH32 0x6F74207375636365656400000000000000000000000000000000000000000000 PUSH1 0x20 DUP3 ADD MSTORE POP JUMP JUMPDEST PUSH1 0x0 PUSH2 0x2E82 PUSH1 0x2A DUP4 PUSH2 0x26BD JUMP JUMPDEST SWAP2 POP PUSH2 0x2E8D DUP3 PUSH2 0x2E26 JUMP JUMPDEST PUSH1 0x40 DUP3 ADD SWAP1 POP SWAP2 SWAP1 POP JUMP JUMPDEST PUSH1 0x0 PUSH1 0x20 DUP3 ADD SWAP1 POP DUP2 DUP2 SUB PUSH1 0x0 DUP4 ADD MSTORE PUSH2 0x2EB1 DUP2 PUSH2 0x2E75 JUMP JUMPDEST SWAP1 POP SWAP2 SWAP1 POP JUMP JUMPDEST PUSH1 0x0 PUSH1 0x40 DUP3 ADD SWAP1 POP PUSH2 0x2ECD PUSH1 0x0 DUP4 ADD DUP6 PUSH2 0x246B JUMP JUMPDEST PUSH2 0x2EDA PUSH1 0x20 DUP4 ADD DUP5 PUSH2 0x246B JUMP JUMPDEST SWAP4 SWAP3 POP POP POP JUMP JUMPDEST PUSH1 0x0 PUSH1 0x60 DUP3 ADD SWAP1 POP PUSH2 0x2EF6 PUSH1 0x0 DUP4 ADD DUP7 PUSH2 0x246B JUMP JUMPDEST PUSH2 0x2F03 PUSH1 0x20 DUP4 ADD DUP6 PUSH2 0x246B JUMP JUMPDEST PUSH2 0x2F10 PUSH1 0x40 DUP4 ADD DUP5 PUSH2 0x23B2 JUMP JUMPDEST SWAP5 SWAP4 POP POP POP POP JUMP JUMPDEST PUSH1 0x0 DUP2 SWAP1 POP SWAP2 SWAP1 POP JUMP JUMPDEST PUSH1 0x0 PUSH2 0x2F3D PUSH2 0x2F38 PUSH2 0x2F33 DUP5 PUSH2 0x2F18 JUMP JUMPDEST PUSH2 0x1D0A JUMP JUMPDEST PUSH2 0x1D84 JUMP JUMPDEST SWAP1 POP SWAP2 SWAP1 POP JUMP JUMPDEST PUSH2 0x2F4D DUP2 PUSH2 0x2F22 JUMP JUMPDEST DUP3 MSTORE POP POP JUMP JUMPDEST PUSH1 0x0 PUSH1 0x40 DUP3 ADD SWAP1 POP PUSH2 0x2F68 PUSH1 0x0 DUP4 ADD DUP6 PUSH2 0x246B JUMP JUMPDEST PUSH2 0x2F75 PUSH1 0x20 DUP4 ADD DUP5 PUSH2 0x2F44 JUMP JUMPDEST SWAP4 SWAP3 POP POP POP JUMP JUMPDEST PUSH1 0x0 DUP2 MLOAD SWAP1 POP SWAP2 SWAP1 POP JUMP JUMPDEST PUSH1 0x0 DUP2 SWAP1 POP SWAP3 SWAP2 POP POP JUMP JUMPDEST PUSH1 0x0 JUMPDEST DUP4 DUP2 LT ISZERO PUSH2 0x2FB0 JUMPI DUP1 DUP3 ADD MLOAD DUP2 DUP5 ADD MSTORE PUSH1 0x20 DUP2 ADD SWAP1 POP PUSH2 0x2F95 JUMP JUMPDEST PUSH1 0x0 DUP5 DUP5 ADD MSTORE POP POP POP POP JUMP JUMPDEST PUSH1 0x0 PUSH2 0x2FC7 DUP3 PUSH2 0x2F7C JUMP JUMPDEST PUSH2 0x2FD1 DUP2 DUP6 PUSH2 0x2F87 JUMP JUMPDEST SWAP4 POP PUSH2 0x2FE1 DUP2 DUP6 PUSH1 0x20 DUP7 ADD PUSH2 0x2F92 JUMP JUMPDEST DUP1 DUP5 ADD SWAP2 POP POP SWAP3 SWAP2 POP POP JUMP JUMPDEST PUSH1 0x0 PUSH2 0x2FF9 DUP3 DUP5 PUSH2 0x2FBC JUMP JUMPDEST SWAP2 POP DUP2 SWAP1 POP SWAP3 SWAP2 POP POP JUMP JUMPDEST PUSH1 0x0 DUP2 MLOAD SWAP1 POP SWAP2 SWAP1 POP JUMP JUMPDEST PUSH1 0x0 PUSH2 0x301A DUP3 PUSH2 0x3004 JUMP JUMPDEST PUSH2 0x3024 DUP2 DUP6 PUSH2 0x26BD JUMP JUMPDEST SWAP4 POP PUSH2 0x3034 DUP2 DUP6 PUSH1 0x20 DUP7 ADD PUSH2 0x2F92 JUMP JUMPDEST PUSH2 0x303D DUP2 PUSH2 0x1E7A JUMP JUMPDEST DUP5 ADD SWAP2 POP POP SWAP3 SWAP2 POP POP JUMP JUMPDEST PUSH1 0x0 PUSH1 0x20 DUP3 ADD SWAP1 POP DUP2 DUP2 SUB PUSH1 0x0 DUP4 ADD MSTORE PUSH2 0x3062 DUP2 DUP5 PUSH2 0x300F JUMP JUMPDEST SWAP1 POP SWAP3 SWAP2 POP POP JUMP INVALID LOG2 PUSH5 0x6970667358 0x22 SLT KECCAK256 0x2D AND 0xCE 0xB7 PUSH16 0xF74246A49D53F9A70A3D131F60DD124C SLOAD 0xD8 0xBA PREVRANDAO SWAP16 0xB9 0xCE PREVRANDAO 0xC9 PUSH12 0x9D64736F6C63430008180033 "},"methodIdentifiers":{"AAVE_REFERRAL_CODE()":"05a363de","NO_PARAM_MAPPING()":"2fa13cb8","RETURN_MAX_INDEX_VALUE()":"9864dcdd","RETURN_MIN_INDEX_VALUE()":"8bcb6216","SUB_MAX_INDEX_VALUE()":"d3c2e7ed","SUB_MIN_INDEX_VALUE()":"0f2eee42","actionType()":"247492f8","adminData()":"06d2ae8e","calculateSafeWithdrawAmount(uint256,uint256,uint256)":"8ebb7a77","executeAction(bytes,bytes32[],uint8[],bytes32[])":"8df50f74","executeActionDirect(bytes)":"389f87ff","isDSProxy(address)":"1c451ceb","kill()":"41c0e1b5","logger()":"f24ccbfe","registry()":"7b103999","withdrawStuckFunds(address,address,uint256)":"c579d490"}}}}}