{"contracts/AAVE/AAVEProtocol/AaveOpenPositin.sol":{"AaveOpenPosition":{"abi":[{"inputs":[],"name":"NonContractCall","type":"error"},{"inputs":[],"name":"ReturnIndexValueError","type":"error"},{"inputs":[],"name":"SenderNotAdmin","type":"error"},{"inputs":[],"name":"SenderNotOwner","type":"error"},{"inputs":[],"name":"SubIndexValueError","type":"error"},{"anonymous":false,"inputs":[{"indexed":true,"internalType":"string","name":"logName","type":"string"},{"indexed":false,"internalType":"bytes","name":"data","type":"bytes"}],"name":"ActionEvent","type":"event"},{"inputs":[],"name":"AAVE_REFERRAL_CODE","outputs":[{"internalType":"uint16","name":"","type":"uint16"}],"stateMutability":"view","type":"function"},{"inputs":[],"name":"NO_PARAM_MAPPING","outputs":[{"internalType":"uint8","name":"","type":"uint8"}],"stateMutability":"view","type":"function"},{"inputs":[],"name":"RETURN_MAX_INDEX_VALUE","outputs":[{"internalType":"uint8","name":"","type":"uint8"}],"stateMutability":"view","type":"function"},{"inputs":[],"name":"RETURN_MIN_INDEX_VALUE","outputs":[{"internalType":"uint8","name":"","type":"uint8"}],"stateMutability":"view","type":"function"},{"inputs":[],"name":"SUB_MAX_INDEX_VALUE","outputs":[{"internalType":"uint8","name":"","type":"uint8"}],"stateMutability":"view","type":"function"},{"inputs":[],"name":"SUB_MIN_INDEX_VALUE","outputs":[{"internalType":"uint8","name":"","type":"uint8"}],"stateMutability":"view","type":"function"},{"inputs":[],"name":"actionType","outputs":[{"internalType":"uint8","name":"","type":"uint8"}],"stateMutability":"pure","type":"function"},{"inputs":[],"name":"adminData","outputs":[{"internalType":"contract AdminData","name":"","type":"address"}],"stateMutability":"view","type":"function"},{"inputs":[{"internalType":"bytes","name":"_callData","type":"bytes"},{"internalType":"bytes32[]","name":"_subdata","type":"bytes32[]"},{"internalType":"uint8[]","name":"_paramMapping","type":"uint8[]"},{"internalType":"bytes32[]","name":"_returnValues","type":"bytes32[]"}],"name":"executeAction","outputs":[{"internalType":"bytes32","name":"","type":"bytes32"}],"stateMutability":"payable","type":"function"},{"inputs":[{"internalType":"bytes","name":"_callData","type":"bytes"}],"name":"executeActionDirect","outputs":[],"stateMutability":"payable","type":"function"},{"inputs":[{"internalType":"address","name":"_proxy","type":"address"}],"name":"isDSProxy","outputs":[{"internalType":"bool","name":"","type":"bool"}],"stateMutability":"view","type":"function"},{"inputs":[],"name":"kill","outputs":[],"stateMutability":"nonpayable","type":"function"},{"inputs":[],"name":"logger","outputs":[{"internalType":"contract DefisaverLogger","name":"","type":"address"}],"stateMutability":"view","type":"function"},{"inputs":[],"name":"registry","outputs":[{"internalType":"contract DFSRegistry","name":"","type":"address"}],"stateMutability":"view","type":"function"},{"inputs":[{"internalType":"address","name":"_token","type":"address"},{"internalType":"address","name":"_receiver","type":"address"},{"internalType":"uint256","name":"_amount","type":"uint256"}],"name":"withdrawStuckFunds","outputs":[],"stateMutability":"nonpayable","type":"function"}],"evm":{"bytecode":{"linkReferences":{},"object":"608060405234801561001057600080fd5b506129d3806100206000396000f3fe6080604052600436106100e85760003560e01c806341c0e1b51161008a5780639864dcdd116100595780639864dcdd146102ba578063c579d490146102e5578063d3c2e7ed1461030e578063f24ccbfe14610339576100e8565b806341c0e1b51461021d5780637b103999146102345780638bcb62161461025f5780638df50f741461028a576100e8565b80631c451ceb116100c65780631c451ceb1461016e578063247492f8146101ab5780632fa13cb8146101d6578063389f87ff14610201576100e8565b806305a363de146100ed57806306d2ae8e146101185780630f2eee4214610143575b600080fd5b3480156100f957600080fd5b50610102610364565b60405161010f9190611941565b60405180910390f35b34801561012457600080fd5b5061012d610369565b60405161013a91906119db565b60405180910390f35b34801561014f57600080fd5b50610158610381565b6040516101659190611a12565b60405180910390f35b34801561017a57600080fd5b5061019560048036038101906101909190611a7f565b610386565b6040516101a29190611ac7565b60405180910390f35b3480156101b757600080fd5b506101c061041d565b6040516101cd9190611a12565b60405180910390f35b3480156101e257600080fd5b506101eb610438565b6040516101f89190611a12565b60405180910390f35b61021b60048036038101906102169190611c28565b61043d565b005b34801561022957600080fd5b50610232610462565b005b34801561024057600080fd5b50610249610562565b6040516102569190611c92565b60405180910390f35b34801561026b57600080fd5b5061027461057a565b6040516102819190611a12565b60405180910390f35b6102a4600480360381019061029f9190611e9a565b61057f565b6040516102b19190611f80565b60405180910390f35b3480156102c657600080fd5b506102cf6105b0565b6040516102dc9190611a12565b60405180910390f35b3480156102f157600080fd5b5061030c60048036038101906103079190611fd1565b6105b5565b005b34801561031a57600080fd5b50610323610760565b6040516103309190611a12565b60405180910390f35b34801561034557600080fd5b5061034e610765565b60405161035b9190612045565b60405180910390f35b604081565b73d47d8d97cad12a866900eec6cde1962529f2535181565b608081565b6000735a15566417e6c1c9546523066500bddbc53f88c773ffffffffffffffffffffffffffffffffffffffff166329710388836040518263ffffffff1660e01b81526004016103d5919061206f565b602060405180830381865afa1580156103f2573d6000803e3d6000fd5b505050506040513d601f19601f8201168201806040525081019061041691906120b6565b9050919050565b600060016004811115610433576104326120e3565b5b905090565b600081565b60008180602001905181019061045391906121a5565b905061045e8161077d565b5050565b3373ffffffffffffffffffffffffffffffffffffffff1673d47d8d97cad12a866900eec6cde1962529f2535173ffffffffffffffffffffffffffffffffffffffff1663f851a4406040518163ffffffff1660e01b8152600401602060405180830381865afa1580156104d8573d6000803e3d6000fd5b505050506040513d601f19601f820116820180604052508101906104fc91906121e7565b73ffffffffffffffffffffffffffffffffffffffff1614610549576040517fa6c827a900000000000000000000000000000000000000000000000000000000815260040160405180910390fd5b3373ffffffffffffffffffffffffffffffffffffffff16ff5b73bf1cac12db60819bfa71a328282ecbc1d40443aa81565b600181565b6000808580602001905181019061059691906121a5565b90506105a18161077d565b6000801b915050949350505050565b607f81565b3373ffffffffffffffffffffffffffffffffffffffff1673d47d8d97cad12a866900eec6cde1962529f2535173ffffffffffffffffffffffffffffffffffffffff16638da5cb5b6040518163ffffffff1660e01b8152600401602060405180830381865afa15801561062b573d6000803e3d6000fd5b505050506040513d601f19601f8201168201806040525081019061064f91906121e7565b73ffffffffffffffffffffffffffffffffffffffff161461069c576040517f19494c8a00000000000000000000000000000000000000000000000000000000815260040160405180910390fd5b73eeeeeeeeeeeeeeeeeeeeeeeeeeeeeeeeeeeeeeee73ffffffffffffffffffffffffffffffffffffffff168373ffffffffffffffffffffffffffffffffffffffff160361072f578173ffffffffffffffffffffffffffffffffffffffff166108fc829081150290604051600060405180830381858888f19350505050158015610729573d6000803e3d6000fd5b5061075b565b61075a82828573ffffffffffffffffffffffffffffffffffffffff16610adf9092919063ffffffff16565b5b505050565b60ff81565b73e6f9a5c850dbcd12bc64f40d692f537250adec3881565b6064816020015111156107c5576040517f08c379a00000000000000000000000000000000000000000000000000000000081526004016107bc90612271565b60405180910390fd5b6000816040015160ff161161080f576040517f08c379a0000000000000000000000000000000000000000000000000000000008152600401610806906122dd565b60405180910390fd5b6000816000015111610856576040517f08c379a000000000000000000000000000000000000000000000000000000000815260040161084d90612349565b60405180910390fd5b6000309050600033905073af88d065e77c8cc2239327c5edb3a432268e583173ffffffffffffffffffffffffffffffffffffffff166323b872dd823086600001516040518463ffffffff1660e01b81526004016108b593929190612378565b6020604051808303816000875af11580156108d4573d6000803e3d6000fd5b505050506040513d601f19601f820116820180604052508101906108f891906120b6565b5060006109bb73af88d065e77c8cc2239327c5edb3a432268e583173ffffffffffffffffffffffffffffffffffffffff166370a08231306040518263ffffffff1660e01b815260040161094b919061206f565b602060405180830381865afa158015610968573d6000803e3d6000fd5b505050506040513d601f19601f8201168201806040525081019061098c91906123af565b73af88d065e77c8cc2239327c5edb3a432268e58317382af49447d8a07e3bd95bd0d56f35241523fbab1610b65565b90506109df73a97684ead0e402dc232d5a977953df7ecbab3cdb8285600487610d40565b505060006064856020015164e8d4a5100087600001516109ff919061240b565b610a09919061240b565b610a13919061247c565b905060005b856040015160ff168160ff161015610ad757610a4e73a97684ead0e402dc232d5a977953df7ecbab3cdb6000846002898a610f61565b50506000610a858373da10009cbd5d07dd0cecc66161fc93d7c9000da17382af49447d8a07e3bd95bd0d56f35241523fbab1610b65565b9050610aa973a97684ead0e402dc232d5a977953df7ecbab3cdb828860048a610d40565b50506064876020015184610abd919061240b565b610ac7919061247c565b9250508080600101915050610a18565b505050505050565b610b608363a9059cbb60e01b8484604051602401610afe9291906124ad565b604051602081830303815290604052907bffffffffffffffffffffffffffffffffffffffffffffffffffffffff19166020820180517bffffffffffffffffffffffffffffffffffffffffffffffffffffffff83818316178352505050506110de565b505050565b60008273ffffffffffffffffffffffffffffffffffffffff1663095ea7b373e592427a0aece92de3edee1f18e0157c05861564866040518363ffffffff1660e01b8152600401610bb69291906124ad565b6020604051808303816000875af1158015610bd5573d6000803e3d6000fd5b505050506040513d601f19601f82011682018060405250810190610bf991906120b6565b5060006040518061010001604052808573ffffffffffffffffffffffffffffffffffffffff1681526020018473ffffffffffffffffffffffffffffffffffffffff1681526020016101f462ffffff1681526020013073ffffffffffffffffffffffffffffffffffffffff16815260200161012c42610c7791906124d6565b815260200186815260200160008152602001600073ffffffffffffffffffffffffffffffffffffffff16815250905073e592427a0aece92de3edee1f18e0157c0586156473ffffffffffffffffffffffffffffffffffffffff1663414bf389826040518263ffffffff1660e01b8152600401610cf391906125f7565b6020604051808303816000875af1158015610d12573d6000803e3d6000fd5b505050506040513d601f19601f82011682018060405250810190610d3691906123af565b9150509392505050565b600060606000610d4f886111a6565b905060008173ffffffffffffffffffffffffffffffffffffffff166352751797876040518263ffffffff1660e01b8152600401610d8c9190611941565b602060405180830381865afa158015610da9573d6000803e3d6000fd5b505050506040513d601f19601f82011682018060405250810190610dcd91906121e7565b90507fffffffffffffffffffffffffffffffffffffffffffffffffffffffffffffffff8803610e2257610e1f878273ffffffffffffffffffffffffffffffffffffffff1661121e90919063ffffffff16565b97505b600073ffffffffffffffffffffffffffffffffffffffff168573ffffffffffffffffffffffffffffffffffffffff1603610e5a573094505b610e8587898373ffffffffffffffffffffffffffffffffffffffff166113099092919063ffffffff16565b50610eb182898373ffffffffffffffffffffffffffffffffffffffff1661143e9092919063ffffffff16565b8173ffffffffffffffffffffffffffffffffffffffff1663617ba037828a88604080518563ffffffff1660e01b8152600401610ef09493929190612613565b600060405180830381600087803b158015610f0a57600080fd5b505af1158015610f1e573d6000803e3d6000fd5b50505050600089828a8a89604051602001610f3d959493929190612658565b60405160208183030381529060405290508881945094505050509550959350505050565b600060606000610f70896111a6565b905060008173ffffffffffffffffffffffffffffffffffffffff1663527517978a6040518263ffffffff1660e01b8152600401610fad9190611941565b602060405180830381865afa158015610fca573d6000803e3d6000fd5b505050506040513d601f19601f82011682018060405250810190610fee91906121e7565b9050600073ffffffffffffffffffffffffffffffffffffffff168573ffffffffffffffffffffffffffffffffffffffff1603611028573094505b8173ffffffffffffffffffffffffffffffffffffffff1663a415bcad828a8a60008a6040518663ffffffff1660e01b815260040161106a9594939291906126e6565b600060405180830381600087803b15801561108457600080fd5b505af1158015611098573d6000803e3d6000fd5b5050505060008a828a8a8a8a6040516020016110b996959493929190612739565b6040516020818303038152906040529050888194509450505050965096945050505050565b6000611140826040518060400160405280602081526020017f5361666545524332303a206c6f772d6c6576656c2063616c6c206661696c65648152508573ffffffffffffffffffffffffffffffffffffffff1661153b9092919063ffffffff16565b905060008151148061116257508080602001905181019061116191906120b6565b5b6111a1576040517f08c379a00000000000000000000000000000000000000000000000000000000081526004016111989061280c565b60405180910390fd5b505050565b60008173ffffffffffffffffffffffffffffffffffffffff1663026b1d5f6040518163ffffffff1660e01b8152600401602060405180830381865afa1580156111f3573d6000803e3d6000fd5b505050506040513d601f19601f8201168201806040525081019061121791906121e7565b9050919050565b600073eeeeeeeeeeeeeeeeeeeeeeeeeeeeeeeeeeeeeeee73ffffffffffffffffffffffffffffffffffffffff168373ffffffffffffffffffffffffffffffffffffffff1603611286578173ffffffffffffffffffffffffffffffffffffffff16319050611303565b8273ffffffffffffffffffffffffffffffffffffffff166370a08231836040518263ffffffff1660e01b81526004016112bf919061206f565b602060405180830381865afa1580156112dc573d6000803e3d6000fd5b505050506040513d601f19601f8201168201806040525081019061130091906123af565b90505b92915050565b60007fffffffffffffffffffffffffffffffffffffffffffffffffffffffffffffffff820361133f5761133c848461121e565b91505b600073ffffffffffffffffffffffffffffffffffffffff168373ffffffffffffffffffffffffffffffffffffffff16141580156113a857503073ffffffffffffffffffffffffffffffffffffffff168373ffffffffffffffffffffffffffffffffffffffff1614155b80156113f4575073eeeeeeeeeeeeeeeeeeeeeeeeeeeeeeeeeeeeeeee73ffffffffffffffffffffffffffffffffffffffff168473ffffffffffffffffffffffffffffffffffffffff1614155b8015611401575060008214155b15611434576114338330848773ffffffffffffffffffffffffffffffffffffffff16611553909392919063ffffffff16565b5b8190509392505050565b73eeeeeeeeeeeeeeeeeeeeeeeeeeeeeeeeeeeeeeee73ffffffffffffffffffffffffffffffffffffffff168373ffffffffffffffffffffffffffffffffffffffff16031561153657808373ffffffffffffffffffffffffffffffffffffffff1663dd62ed3e30856040518363ffffffff1660e01b81526004016114c292919061282c565b602060405180830381865afa1580156114df573d6000803e3d6000fd5b505050506040513d601f19601f8201168201806040525081019061150391906123af565b10156115355761153482828573ffffffffffffffffffffffffffffffffffffffff166115dc9092919063ffffffff16565b5b5b505050565b606061154a84846000856116f9565b90509392505050565b6115d6846323b872dd60e01b85858560405160240161157493929190612378565b604051602081830303815290604052907bffffffffffffffffffffffffffffffffffffffffffffffffffffffff19166020820180517bffffffffffffffffffffffffffffffffffffffffffffffffffffffff83818316178352505050506110de565b50505050565b600063095ea7b360e01b83836040516024016115f99291906124ad565b604051602081830303815290604052907bffffffffffffffffffffffffffffffffffffffffffffffffffffffff19166020820180517bffffffffffffffffffffffffffffffffffffffffffffffffffffffff838183161783525050505090506116628482611812565b6116f3576116e88463095ea7b360e01b856000604051602401611686929190612886565b604051602081830303815290604052907bffffffffffffffffffffffffffffffffffffffffffffffffffffffff19166020820180517bffffffffffffffffffffffffffffffffffffffffffffffffffffffff83818316178352505050506110de565b6116f284826110de565b5b50505050565b6060611704856118d9565b61173a576040517f304619b500000000000000000000000000000000000000000000000000000000815260040160405180910390fd5b6000808673ffffffffffffffffffffffffffffffffffffffff1685876040516117639190612920565b60006040518083038185875af1925050503d80600081146117a0576040519150601f19603f3d011682016040523d82523d6000602084013e6117a5565b606091505b509150915081156117ba57809250505061180a565b6000815111156117cd5780518082602001fd5b836040517f08c379a0000000000000000000000000000000000000000000000000000000008152600401611801919061297b565b60405180910390fd5b949350505050565b60008060008473ffffffffffffffffffffffffffffffffffffffff168460405161183c9190612920565b6000604051808303816000865af19150503d8060008114611879576040519150601f19603f3d011682016040523d82523d6000602084013e61187e565b606091505b50915091508180156118ac57506000815114806118ab5750808060200190518101906118aa91906120b6565b5b5b80156118cf575060008573ffffffffffffffffffffffffffffffffffffffff163b115b9250505092915050565b60008060007fc5d2460186f7233c927e7db2dcc703c0e500b653ca82273b7bfad8045d85a47060001b9050833f915080821415801561191b57506000801b8214155b92505050919050565b600061ffff82169050919050565b61193b81611924565b82525050565b60006020820190506119566000830184611932565b92915050565b600073ffffffffffffffffffffffffffffffffffffffff82169050919050565b6000819050919050565b60006119a161199c6119978461195c565b61197c565b61195c565b9050919050565b60006119b382611986565b9050919050565b60006119c5826119a8565b9050919050565b6119d5816119ba565b82525050565b60006020820190506119f060008301846119cc565b92915050565b600060ff82169050919050565b611a0c816119f6565b82525050565b6000602082019050611a276000830184611a03565b92915050565b6000604051905090565b600080fd5b600080fd5b6000611a4c8261195c565b9050919050565b611a5c81611a41565b8114611a6757600080fd5b50565b600081359050611a7981611a53565b92915050565b600060208284031215611a9557611a94611a37565b5b6000611aa384828501611a6a565b91505092915050565b60008115159050919050565b611ac181611aac565b82525050565b6000602082019050611adc6000830184611ab8565b92915050565b600080fd5b600080fd5b6000601f19601f8301169050919050565b7f4e487b7100000000000000000000000000000000000000000000000000000000600052604160045260246000fd5b611b3582611aec565b810181811067ffffffffffffffff82111715611b5457611b53611afd565b5b80604052505050565b6000611b67611a2d565b9050611b738282611b2c565b919050565b600067ffffffffffffffff821115611b9357611b92611afd565b5b611b9c82611aec565b9050602081019050919050565b82818337600083830152505050565b6000611bcb611bc684611b78565b611b5d565b905082815260208101848484011115611be757611be6611ae7565b5b611bf2848285611ba9565b509392505050565b600082601f830112611c0f57611c0e611ae2565b5b8135611c1f848260208601611bb8565b91505092915050565b600060208284031215611c3e57611c3d611a37565b5b600082013567ffffffffffffffff811115611c5c57611c5b611a3c565b5b611c6884828501611bfa565b91505092915050565b6000611c7c826119a8565b9050919050565b611c8c81611c71565b82525050565b6000602082019050611ca76000830184611c83565b92915050565b600067ffffffffffffffff821115611cc857611cc7611afd565b5b602082029050602081019050919050565b600080fd5b6000819050919050565b611cf181611cde565b8114611cfc57600080fd5b50565b600081359050611d0e81611ce8565b92915050565b6000611d27611d2284611cad565b611b5d565b90508083825260208201905060208402830185811115611d4a57611d49611cd9565b5b835b81811015611d735780611d5f8882611cff565b845260208401935050602081019050611d4c565b5050509392505050565b600082601f830112611d9257611d91611ae2565b5b8135611da2848260208601611d14565b91505092915050565b600067ffffffffffffffff821115611dc657611dc5611afd565b5b602082029050602081019050919050565b611de0816119f6565b8114611deb57600080fd5b50565b600081359050611dfd81611dd7565b92915050565b6000611e16611e1184611dab565b611b5d565b90508083825260208201905060208402830185811115611e3957611e38611cd9565b5b835b81811015611e625780611e4e8882611dee565b845260208401935050602081019050611e3b565b5050509392505050565b600082601f830112611e8157611e80611ae2565b5b8135611e91848260208601611e03565b91505092915050565b60008060008060808587031215611eb457611eb3611a37565b5b600085013567ffffffffffffffff811115611ed257611ed1611a3c565b5b611ede87828801611bfa565b945050602085013567ffffffffffffffff811115611eff57611efe611a3c565b5b611f0b87828801611d7d565b935050604085013567ffffffffffffffff811115611f2c57611f2b611a3c565b5b611f3887828801611e6c565b925050606085013567ffffffffffffffff811115611f5957611f58611a3c565b5b611f6587828801611d7d565b91505092959194509250565b611f7a81611cde565b82525050565b6000602082019050611f956000830184611f71565b92915050565b6000819050919050565b611fae81611f9b565b8114611fb957600080fd5b50565b600081359050611fcb81611fa5565b92915050565b600080600060608486031215611fea57611fe9611a37565b5b6000611ff886828701611a6a565b935050602061200986828701611a6a565b925050604061201a86828701611fbc565b9150509250925092565b600061202f826119a8565b9050919050565b61203f81612024565b82525050565b600060208201905061205a6000830184612036565b92915050565b61206981611a41565b82525050565b60006020820190506120846000830184612060565b92915050565b61209381611aac565b811461209e57600080fd5b50565b6000815190506120b08161208a565b92915050565b6000602082840312156120cc576120cb611a37565b5b60006120da848285016120a1565b91505092915050565b7f4e487b7100000000000000000000000000000000000000000000000000000000600052602160045260246000fd5b600080fd5b60008151905061212681611fa5565b92915050565b60008151905061213b81611dd7565b92915050565b60006060828403121561215757612156612112565b5b6121616060611b5d565b9050600061217184828501612117565b600083015250602061218584828501612117565b60208301525060406121998482850161212c565b60408301525092915050565b6000606082840312156121bb576121ba611a37565b5b60006121c984828501612141565b91505092915050565b6000815190506121e181611a53565b92915050565b6000602082840312156121fd576121fc611a37565b5b600061220b848285016121d2565b91505092915050565b600082825260208201905092915050565b7f426f72726f772070657263656e74206d757374206265203c3d20313030000000600082015250565b600061225b601d83612214565b915061226682612225565b602082019050919050565b6000602082019050818103600083015261228a8161224e565b9050919050565b7f4379636c6573206d757374206265203e20300000000000000000000000000000600082015250565b60006122c7601283612214565b91506122d282612291565b602082019050919050565b600060208201905081810360008301526122f6816122ba565b9050919050565b7f537570706c7920616d6f756e74206d757374206265203e203000000000000000600082015250565b6000612333601983612214565b915061233e826122fd565b602082019050919050565b6000602082019050818103600083015261236281612326565b9050919050565b61237281611f9b565b82525050565b600060608201905061238d6000830186612060565b61239a6020830185612060565b6123a76040830184612369565b949350505050565b6000602082840312156123c5576123c4611a37565b5b60006123d384828501612117565b91505092915050565b7f4e487b7100000000000000000000000000000000000000000000000000000000600052601160045260246000fd5b600061241682611f9b565b915061242183611f9b565b925082820261242f81611f9b565b91508282048414831517612446576124456123dc565b5b5092915050565b7f4e487b7100000000000000000000000000000000000000000000000000000000600052601260045260246000fd5b600061248782611f9b565b915061249283611f9b565b9250826124a2576124a161244d565b5b828204905092915050565b60006040820190506124c26000830185612060565b6124cf6020830184612369565b9392505050565b60006124e182611f9b565b91506124ec83611f9b565b9250828201905080821115612504576125036123dc565b5b92915050565b61251381611a41565b82525050565b600062ffffff82169050919050565b61253181612519565b82525050565b61254081611f9b565b82525050565b61254f8161195c565b82525050565b6101008201600082015161256c600085018261250a565b50602082015161257f602085018261250a565b5060408201516125926040850182612528565b5060608201516125a5606085018261250a565b5060808201516125b86080850182612537565b5060a08201516125cb60a0850182612537565b5060c08201516125de60c0850182612537565b5060e08201516125f160e0850182612546565b50505050565b60006101008201905061260d6000830184612555565b92915050565b60006080820190506126286000830187612060565b6126356020830186612369565b6126426040830185612060565b61264f6060830184611932565b95945050505050565b600060a08201905061266d6000830188612060565b61267a6020830187612060565b6126876040830186612369565b6126946060830185612060565b6126a16080830184612060565b9695505050505050565b6000819050919050565b60006126d06126cb6126c6846126ab565b61197c565b611924565b9050919050565b6126e0816126b5565b82525050565b600060a0820190506126fb6000830188612060565b6127086020830187612369565b6127156040830186612369565b61272260608301856126d7565b61272f6080830184612060565b9695505050505050565b600060c08201905061274e6000830189612060565b61275b6020830188612060565b6127686040830187612369565b6127756060830186612369565b6127826080830185612060565b61278f60a0830184612060565b979650505050505050565b7f5361666545524332303a204552433230206f7065726174696f6e20646964206e60008201527f6f74207375636365656400000000000000000000000000000000000000000000602082015250565b60006127f6602a83612214565b91506128018261279a565b604082019050919050565b60006020820190508181036000830152612825816127e9565b9050919050565b60006040820190506128416000830185612060565b61284e6020830184612060565b9392505050565b600061287061286b612866846126ab565b61197c565b6119f6565b9050919050565b61288081612855565b82525050565b600060408201905061289b6000830185612060565b6128a86020830184612877565b9392505050565b600081519050919050565b600081905092915050565b60005b838110156128e35780820151818401526020810190506128c8565b60008484015250505050565b60006128fa826128af565b61290481856128ba565b93506129148185602086016128c5565b80840191505092915050565b600061292c82846128ef565b915081905092915050565b600081519050919050565b600061294d82612937565b6129578185612214565b93506129678185602086016128c5565b61297081611aec565b840191505092915050565b600060208201905081810360008301526129958184612942565b90509291505056fea26469706673582212202080af6f24bcf69ca1ffdf7f6cc4943ac29dfb28ce1df631789a6b409b534a1564736f6c63430008180033","opcodes":"PUSH1 0x80 PUSH1 0x40 MSTORE CALLVALUE DUP1 ISZERO PUSH2 0x10 JUMPI PUSH1 0x0 DUP1 REVERT JUMPDEST POP PUSH2 0x29D3 DUP1 PUSH2 0x20 PUSH1 0x0 CODECOPY PUSH1 0x0 RETURN INVALID PUSH1 0x80 PUSH1 0x40 MSTORE PUSH1 0x4 CALLDATASIZE LT PUSH2 0xE8 JUMPI PUSH1 0x0 CALLDATALOAD PUSH1 0xE0 SHR DUP1 PUSH4 0x41C0E1B5 GT PUSH2 0x8A JUMPI DUP1 PUSH4 0x9864DCDD GT PUSH2 0x59 JUMPI DUP1 PUSH4 0x9864DCDD EQ PUSH2 0x2BA JUMPI DUP1 PUSH4 0xC579D490 EQ PUSH2 0x2E5 JUMPI DUP1 PUSH4 0xD3C2E7ED EQ PUSH2 0x30E JUMPI DUP1 PUSH4 0xF24CCBFE EQ PUSH2 0x339 JUMPI PUSH2 0xE8 JUMP JUMPDEST DUP1 PUSH4 0x41C0E1B5 EQ PUSH2 0x21D JUMPI DUP1 PUSH4 0x7B103999 EQ PUSH2 0x234 JUMPI DUP1 PUSH4 0x8BCB6216 EQ PUSH2 0x25F JUMPI DUP1 PUSH4 0x8DF50F74 EQ PUSH2 0x28A JUMPI PUSH2 0xE8 JUMP JUMPDEST DUP1 PUSH4 0x1C451CEB GT PUSH2 0xC6 JUMPI DUP1 PUSH4 0x1C451CEB EQ PUSH2 0x16E JUMPI DUP1 PUSH4 0x247492F8 EQ PUSH2 0x1AB JUMPI DUP1 PUSH4 0x2FA13CB8 EQ PUSH2 0x1D6 JUMPI DUP1 PUSH4 0x389F87FF EQ PUSH2 0x201 JUMPI PUSH2 0xE8 JUMP JUMPDEST DUP1 PUSH4 0x5A363DE EQ PUSH2 0xED JUMPI DUP1 PUSH4 0x6D2AE8E EQ PUSH2 0x118 JUMPI DUP1 PUSH4 0xF2EEE42 EQ PUSH2 0x143 JUMPI JUMPDEST PUSH1 0x0 DUP1 REVERT JUMPDEST CALLVALUE DUP1 ISZERO PUSH2 0xF9 JUMPI PUSH1 0x0 DUP1 REVERT JUMPDEST POP PUSH2 0x102 PUSH2 0x364 JUMP JUMPDEST PUSH1 0x40 MLOAD PUSH2 0x10F SWAP2 SWAP1 PUSH2 0x1941 JUMP JUMPDEST PUSH1 0x40 MLOAD DUP1 SWAP2 SUB SWAP1 RETURN JUMPDEST CALLVALUE DUP1 ISZERO PUSH2 0x124 JUMPI PUSH1 0x0 DUP1 REVERT JUMPDEST POP PUSH2 0x12D PUSH2 0x369 JUMP JUMPDEST PUSH1 0x40 MLOAD PUSH2 0x13A SWAP2 SWAP1 PUSH2 0x19DB JUMP JUMPDEST PUSH1 0x40 MLOAD DUP1 SWAP2 SUB SWAP1 RETURN JUMPDEST CALLVALUE DUP1 ISZERO PUSH2 0x14F JUMPI PUSH1 0x0 DUP1 REVERT JUMPDEST POP PUSH2 0x158 PUSH2 0x381 JUMP JUMPDEST PUSH1 0x40 MLOAD PUSH2 0x165 SWAP2 SWAP1 PUSH2 0x1A12 JUMP JUMPDEST PUSH1 0x40 MLOAD DUP1 SWAP2 SUB SWAP1 RETURN JUMPDEST CALLVALUE DUP1 ISZERO PUSH2 0x17A JUMPI PUSH1 0x0 DUP1 REVERT JUMPDEST POP PUSH2 0x195 PUSH1 0x4 DUP1 CALLDATASIZE SUB DUP2 ADD SWAP1 PUSH2 0x190 SWAP2 SWAP1 PUSH2 0x1A7F JUMP JUMPDEST PUSH2 0x386 JUMP JUMPDEST PUSH1 0x40 MLOAD PUSH2 0x1A2 SWAP2 SWAP1 PUSH2 0x1AC7 JUMP JUMPDEST PUSH1 0x40 MLOAD DUP1 SWAP2 SUB SWAP1 RETURN JUMPDEST CALLVALUE DUP1 ISZERO PUSH2 0x1B7 JUMPI PUSH1 0x0 DUP1 REVERT JUMPDEST POP PUSH2 0x1C0 PUSH2 0x41D JUMP JUMPDEST PUSH1 0x40 MLOAD PUSH2 0x1CD SWAP2 SWAP1 PUSH2 0x1A12 JUMP JUMPDEST PUSH1 0x40 MLOAD DUP1 SWAP2 SUB SWAP1 RETURN JUMPDEST CALLVALUE DUP1 ISZERO PUSH2 0x1E2 JUMPI PUSH1 0x0 DUP1 REVERT JUMPDEST POP PUSH2 0x1EB PUSH2 0x438 JUMP JUMPDEST PUSH1 0x40 MLOAD PUSH2 0x1F8 SWAP2 SWAP1 PUSH2 0x1A12 JUMP JUMPDEST PUSH1 0x40 MLOAD DUP1 SWAP2 SUB SWAP1 RETURN JUMPDEST PUSH2 0x21B PUSH1 0x4 DUP1 CALLDATASIZE SUB DUP2 ADD SWAP1 PUSH2 0x216 SWAP2 SWAP1 PUSH2 0x1C28 JUMP JUMPDEST PUSH2 0x43D JUMP JUMPDEST STOP JUMPDEST CALLVALUE DUP1 ISZERO PUSH2 0x229 JUMPI PUSH1 0x0 DUP1 REVERT JUMPDEST POP PUSH2 0x232 PUSH2 0x462 JUMP JUMPDEST STOP JUMPDEST CALLVALUE DUP1 ISZERO PUSH2 0x240 JUMPI PUSH1 0x0 DUP1 REVERT JUMPDEST POP PUSH2 0x249 PUSH2 0x562 JUMP JUMPDEST PUSH1 0x40 MLOAD PUSH2 0x256 SWAP2 SWAP1 PUSH2 0x1C92 JUMP JUMPDEST PUSH1 0x40 MLOAD DUP1 SWAP2 SUB SWAP1 RETURN JUMPDEST CALLVALUE DUP1 ISZERO PUSH2 0x26B JUMPI PUSH1 0x0 DUP1 REVERT JUMPDEST POP PUSH2 0x274 PUSH2 0x57A JUMP JUMPDEST PUSH1 0x40 MLOAD PUSH2 0x281 SWAP2 SWAP1 PUSH2 0x1A12 JUMP JUMPDEST PUSH1 0x40 MLOAD DUP1 SWAP2 SUB SWAP1 RETURN JUMPDEST PUSH2 0x2A4 PUSH1 0x4 DUP1 CALLDATASIZE SUB DUP2 ADD SWAP1 PUSH2 0x29F SWAP2 SWAP1 PUSH2 0x1E9A JUMP JUMPDEST PUSH2 0x57F JUMP JUMPDEST PUSH1 0x40 MLOAD PUSH2 0x2B1 SWAP2 SWAP1 PUSH2 0x1F80 JUMP JUMPDEST PUSH1 0x40 MLOAD DUP1 SWAP2 SUB SWAP1 RETURN JUMPDEST CALLVALUE DUP1 ISZERO PUSH2 0x2C6 JUMPI PUSH1 0x0 DUP1 REVERT JUMPDEST POP PUSH2 0x2CF PUSH2 0x5B0 JUMP JUMPDEST PUSH1 0x40 MLOAD PUSH2 0x2DC SWAP2 SWAP1 PUSH2 0x1A12 JUMP JUMPDEST PUSH1 0x40 MLOAD DUP1 SWAP2 SUB SWAP1 RETURN JUMPDEST CALLVALUE DUP1 ISZERO PUSH2 0x2F1 JUMPI PUSH1 0x0 DUP1 REVERT JUMPDEST POP PUSH2 0x30C PUSH1 0x4 DUP1 CALLDATASIZE SUB DUP2 ADD SWAP1 PUSH2 0x307 SWAP2 SWAP1 PUSH2 0x1FD1 JUMP JUMPDEST PUSH2 0x5B5 JUMP JUMPDEST STOP JUMPDEST CALLVALUE DUP1 ISZERO PUSH2 0x31A JUMPI PUSH1 0x0 DUP1 REVERT JUMPDEST POP PUSH2 0x323 PUSH2 0x760 JUMP JUMPDEST PUSH1 0x40 MLOAD PUSH2 0x330 SWAP2 SWAP1 PUSH2 0x1A12 JUMP JUMPDEST PUSH1 0x40 MLOAD DUP1 SWAP2 SUB SWAP1 RETURN JUMPDEST CALLVALUE DUP1 ISZERO PUSH2 0x345 JUMPI PUSH1 0x0 DUP1 REVERT JUMPDEST POP PUSH2 0x34E PUSH2 0x765 JUMP JUMPDEST PUSH1 0x40 MLOAD PUSH2 0x35B SWAP2 SWAP1 PUSH2 0x2045 JUMP JUMPDEST PUSH1 0x40 MLOAD DUP1 SWAP2 SUB SWAP1 RETURN JUMPDEST PUSH1 0x40 DUP2 JUMP JUMPDEST PUSH20 0xD47D8D97CAD12A866900EEC6CDE1962529F25351 DUP2 JUMP JUMPDEST PUSH1 0x80 DUP2 JUMP JUMPDEST PUSH1 0x0 PUSH20 0x5A15566417E6C1C9546523066500BDDBC53F88C7 PUSH20 0xFFFFFFFFFFFFFFFFFFFFFFFFFFFFFFFFFFFFFFFF AND PUSH4 0x29710388 DUP4 PUSH1 0x40 MLOAD DUP3 PUSH4 0xFFFFFFFF AND PUSH1 0xE0 SHL DUP2 MSTORE PUSH1 0x4 ADD PUSH2 0x3D5 SWAP2 SWAP1 PUSH2 0x206F JUMP JUMPDEST PUSH1 0x20 PUSH1 0x40 MLOAD DUP1 DUP4 SUB DUP2 DUP7 GAS STATICCALL ISZERO DUP1 ISZERO PUSH2 0x3F2 JUMPI RETURNDATASIZE PUSH1 0x0 DUP1 RETURNDATACOPY RETURNDATASIZE PUSH1 0x0 REVERT JUMPDEST POP POP POP POP PUSH1 0x40 MLOAD RETURNDATASIZE PUSH1 0x1F NOT PUSH1 0x1F DUP3 ADD AND DUP3 ADD DUP1 PUSH1 0x40 MSTORE POP DUP2 ADD SWAP1 PUSH2 0x416 SWAP2 SWAP1 PUSH2 0x20B6 JUMP JUMPDEST SWAP1 POP SWAP2 SWAP1 POP JUMP JUMPDEST PUSH1 0x0 PUSH1 0x1 PUSH1 0x4 DUP2 GT ISZERO PUSH2 0x433 JUMPI PUSH2 0x432 PUSH2 0x20E3 JUMP JUMPDEST JUMPDEST SWAP1 POP SWAP1 JUMP JUMPDEST PUSH1 0x0 DUP2 JUMP JUMPDEST PUSH1 0x0 DUP2 DUP1 PUSH1 0x20 ADD SWAP1 MLOAD DUP2 ADD SWAP1 PUSH2 0x453 SWAP2 SWAP1 PUSH2 0x21A5 JUMP JUMPDEST SWAP1 POP PUSH2 0x45E DUP2 PUSH2 0x77D JUMP JUMPDEST POP POP JUMP JUMPDEST CALLER PUSH20 0xFFFFFFFFFFFFFFFFFFFFFFFFFFFFFFFFFFFFFFFF AND PUSH20 0xD47D8D97CAD12A866900EEC6CDE1962529F25351 PUSH20 0xFFFFFFFFFFFFFFFFFFFFFFFFFFFFFFFFFFFFFFFF AND PUSH4 0xF851A440 PUSH1 0x40 MLOAD DUP2 PUSH4 0xFFFFFFFF AND PUSH1 0xE0 SHL DUP2 MSTORE PUSH1 0x4 ADD PUSH1 0x20 PUSH1 0x40 MLOAD DUP1 DUP4 SUB DUP2 DUP7 GAS STATICCALL ISZERO DUP1 ISZERO PUSH2 0x4D8 JUMPI RETURNDATASIZE PUSH1 0x0 DUP1 RETURNDATACOPY RETURNDATASIZE PUSH1 0x0 REVERT JUMPDEST POP POP POP POP PUSH1 0x40 MLOAD RETURNDATASIZE PUSH1 0x1F NOT PUSH1 0x1F DUP3 ADD AND DUP3 ADD DUP1 PUSH1 0x40 MSTORE POP DUP2 ADD SWAP1 PUSH2 0x4FC SWAP2 SWAP1 PUSH2 0x21E7 JUMP JUMPDEST PUSH20 0xFFFFFFFFFFFFFFFFFFFFFFFFFFFFFFFFFFFFFFFF AND EQ PUSH2 0x549 JUMPI PUSH1 0x40 MLOAD PUSH32 0xA6C827A900000000000000000000000000000000000000000000000000000000 DUP2 MSTORE PUSH1 0x4 ADD PUSH1 0x40 MLOAD DUP1 SWAP2 SUB SWAP1 REVERT JUMPDEST CALLER PUSH20 0xFFFFFFFFFFFFFFFFFFFFFFFFFFFFFFFFFFFFFFFF AND SELFDESTRUCT JUMPDEST PUSH20 0xBF1CAC12DB60819BFA71A328282ECBC1D40443AA DUP2 JUMP JUMPDEST PUSH1 0x1 DUP2 JUMP JUMPDEST PUSH1 0x0 DUP1 DUP6 DUP1 PUSH1 0x20 ADD SWAP1 MLOAD DUP2 ADD SWAP1 PUSH2 0x596 SWAP2 SWAP1 PUSH2 0x21A5 JUMP JUMPDEST SWAP1 POP PUSH2 0x5A1 DUP2 PUSH2 0x77D JUMP JUMPDEST PUSH1 0x0 DUP1 SHL SWAP2 POP POP SWAP5 SWAP4 POP POP POP POP JUMP JUMPDEST PUSH1 0x7F DUP2 JUMP JUMPDEST CALLER PUSH20 0xFFFFFFFFFFFFFFFFFFFFFFFFFFFFFFFFFFFFFFFF AND PUSH20 0xD47D8D97CAD12A866900EEC6CDE1962529F25351 PUSH20 0xFFFFFFFFFFFFFFFFFFFFFFFFFFFFFFFFFFFFFFFF AND PUSH4 0x8DA5CB5B PUSH1 0x40 MLOAD DUP2 PUSH4 0xFFFFFFFF AND PUSH1 0xE0 SHL DUP2 MSTORE PUSH1 0x4 ADD PUSH1 0x20 PUSH1 0x40 MLOAD DUP1 DUP4 SUB DUP2 DUP7 GAS STATICCALL ISZERO DUP1 ISZERO PUSH2 0x62B JUMPI RETURNDATASIZE PUSH1 0x0 DUP1 RETURNDATACOPY RETURNDATASIZE PUSH1 0x0 REVERT JUMPDEST POP POP POP POP PUSH1 0x40 MLOAD RETURNDATASIZE PUSH1 0x1F NOT PUSH1 0x1F DUP3 ADD AND DUP3 ADD DUP1 PUSH1 0x40 MSTORE POP DUP2 ADD SWAP1 PUSH2 0x64F SWAP2 SWAP1 PUSH2 0x21E7 JUMP JUMPDEST PUSH20 0xFFFFFFFFFFFFFFFFFFFFFFFFFFFFFFFFFFFFFFFF AND EQ PUSH2 0x69C JUMPI PUSH1 0x40 MLOAD PUSH32 0x19494C8A00000000000000000000000000000000000000000000000000000000 DUP2 MSTORE PUSH1 0x4 ADD PUSH1 0x40 MLOAD DUP1 SWAP2 SUB SWAP1 REVERT JUMPDEST PUSH20 0xEEEEEEEEEEEEEEEEEEEEEEEEEEEEEEEEEEEEEEEE PUSH20 0xFFFFFFFFFFFFFFFFFFFFFFFFFFFFFFFFFFFFFFFF AND DUP4 PUSH20 0xFFFFFFFFFFFFFFFFFFFFFFFFFFFFFFFFFFFFFFFF AND SUB PUSH2 0x72F JUMPI DUP2 PUSH20 0xFFFFFFFFFFFFFFFFFFFFFFFFFFFFFFFFFFFFFFFF AND PUSH2 0x8FC DUP3 SWAP1 DUP2 ISZERO MUL SWAP1 PUSH1 0x40 MLOAD PUSH1 0x0 PUSH1 0x40 MLOAD DUP1 DUP4 SUB DUP2 DUP6 DUP9 DUP9 CALL SWAP4 POP POP POP POP ISZERO DUP1 ISZERO PUSH2 0x729 JUMPI RETURNDATASIZE PUSH1 0x0 DUP1 RETURNDATACOPY RETURNDATASIZE PUSH1 0x0 REVERT JUMPDEST POP PUSH2 0x75B JUMP JUMPDEST PUSH2 0x75A DUP3 DUP3 DUP6 PUSH20 0xFFFFFFFFFFFFFFFFFFFFFFFFFFFFFFFFFFFFFFFF AND PUSH2 0xADF SWAP1 SWAP3 SWAP2 SWAP1 PUSH4 0xFFFFFFFF AND JUMP JUMPDEST JUMPDEST POP POP POP JUMP JUMPDEST PUSH1 0xFF DUP2 JUMP JUMPDEST PUSH20 0xE6F9A5C850DBCD12BC64F40D692F537250ADEC38 DUP2 JUMP JUMPDEST PUSH1 0x64 DUP2 PUSH1 0x20 ADD MLOAD GT ISZERO PUSH2 0x7C5 JUMPI PUSH1 0x40 MLOAD PUSH32 0x8C379A000000000000000000000000000000000000000000000000000000000 DUP2 MSTORE PUSH1 0x4 ADD PUSH2 0x7BC SWAP1 PUSH2 0x2271 JUMP JUMPDEST PUSH1 0x40 MLOAD DUP1 SWAP2 SUB SWAP1 REVERT JUMPDEST PUSH1 0x0 DUP2 PUSH1 0x40 ADD MLOAD PUSH1 0xFF AND GT PUSH2 0x80F JUMPI PUSH1 0x40 MLOAD PUSH32 0x8C379A000000000000000000000000000000000000000000000000000000000 DUP2 MSTORE PUSH1 0x4 ADD PUSH2 0x806 SWAP1 PUSH2 0x22DD JUMP JUMPDEST PUSH1 0x40 MLOAD DUP1 SWAP2 SUB SWAP1 REVERT JUMPDEST PUSH1 0x0 DUP2 PUSH1 0x0 ADD MLOAD GT PUSH2 0x856 JUMPI PUSH1 0x40 MLOAD PUSH32 0x8C379A000000000000000000000000000000000000000000000000000000000 DUP2 MSTORE PUSH1 0x4 ADD PUSH2 0x84D SWAP1 PUSH2 0x2349 JUMP JUMPDEST PUSH1 0x40 MLOAD DUP1 SWAP2 SUB SWAP1 REVERT JUMPDEST PUSH1 0x0 ADDRESS SWAP1 POP PUSH1 0x0 CALLER SWAP1 POP PUSH20 0xAF88D065E77C8CC2239327C5EDB3A432268E5831 PUSH20 0xFFFFFFFFFFFFFFFFFFFFFFFFFFFFFFFFFFFFFFFF AND PUSH4 0x23B872DD DUP3 ADDRESS DUP7 PUSH1 0x0 ADD MLOAD PUSH1 0x40 MLOAD DUP5 PUSH4 0xFFFFFFFF AND PUSH1 0xE0 SHL DUP2 MSTORE PUSH1 0x4 ADD PUSH2 0x8B5 SWAP4 SWAP3 SWAP2 SWAP1 PUSH2 0x2378 JUMP JUMPDEST PUSH1 0x20 PUSH1 0x40 MLOAD DUP1 DUP4 SUB DUP2 PUSH1 0x0 DUP8 GAS CALL ISZERO DUP1 ISZERO PUSH2 0x8D4 JUMPI RETURNDATASIZE PUSH1 0x0 DUP1 RETURNDATACOPY RETURNDATASIZE PUSH1 0x0 REVERT JUMPDEST POP POP POP POP PUSH1 0x40 MLOAD RETURNDATASIZE PUSH1 0x1F NOT PUSH1 0x1F DUP3 ADD AND DUP3 ADD DUP1 PUSH1 0x40 MSTORE POP DUP2 ADD SWAP1 PUSH2 0x8F8 SWAP2 SWAP1 PUSH2 0x20B6 JUMP JUMPDEST POP PUSH1 0x0 PUSH2 0x9BB PUSH20 0xAF88D065E77C8CC2239327C5EDB3A432268E5831 PUSH20 0xFFFFFFFFFFFFFFFFFFFFFFFFFFFFFFFFFFFFFFFF AND PUSH4 0x70A08231 ADDRESS PUSH1 0x40 MLOAD DUP3 PUSH4 0xFFFFFFFF AND PUSH1 0xE0 SHL DUP2 MSTORE PUSH1 0x4 ADD PUSH2 0x94B SWAP2 SWAP1 PUSH2 0x206F JUMP JUMPDEST PUSH1 0x20 PUSH1 0x40 MLOAD DUP1 DUP4 SUB DUP2 DUP7 GAS STATICCALL ISZERO DUP1 ISZERO PUSH2 0x968 JUMPI RETURNDATASIZE PUSH1 0x0 DUP1 RETURNDATACOPY RETURNDATASIZE PUSH1 0x0 REVERT JUMPDEST POP POP POP POP PUSH1 0x40 MLOAD RETURNDATASIZE PUSH1 0x1F NOT PUSH1 0x1F DUP3 ADD AND DUP3 ADD DUP1 PUSH1 0x40 MSTORE POP DUP2 ADD SWAP1 PUSH2 0x98C SWAP2 SWAP1 PUSH2 0x23AF JUMP JUMPDEST PUSH20 0xAF88D065E77C8CC2239327C5EDB3A432268E5831 PUSH20 0x82AF49447D8A07E3BD95BD0D56F35241523FBAB1 PUSH2 0xB65 JUMP JUMPDEST SWAP1 POP PUSH2 0x9DF PUSH20 0xA97684EAD0E402DC232D5A977953DF7ECBAB3CDB DUP3 DUP6 PUSH1 0x4 DUP8 PUSH2 0xD40 JUMP JUMPDEST POP POP PUSH1 0x0 PUSH1 0x64 DUP6 PUSH1 0x20 ADD MLOAD PUSH5 0xE8D4A51000 DUP8 PUSH1 0x0 ADD MLOAD PUSH2 0x9FF SWAP2 SWAP1 PUSH2 0x240B JUMP JUMPDEST PUSH2 0xA09 SWAP2 SWAP1 PUSH2 0x240B JUMP JUMPDEST PUSH2 0xA13 SWAP2 SWAP1 PUSH2 0x247C JUMP JUMPDEST SWAP1 POP PUSH1 0x0 JUMPDEST DUP6 PUSH1 0x40 ADD MLOAD PUSH1 0xFF AND DUP2 PUSH1 0xFF AND LT ISZERO PUSH2 0xAD7 JUMPI PUSH2 0xA4E PUSH20 0xA97684EAD0E402DC232D5A977953DF7ECBAB3CDB PUSH1 0x0 DUP5 PUSH1 0x2 DUP10 DUP11 PUSH2 0xF61 JUMP JUMPDEST POP POP PUSH1 0x0 PUSH2 0xA85 DUP4 PUSH20 0xDA10009CBD5D07DD0CECC66161FC93D7C9000DA1 PUSH20 0x82AF49447D8A07E3BD95BD0D56F35241523FBAB1 PUSH2 0xB65 JUMP JUMPDEST SWAP1 POP PUSH2 0xAA9 PUSH20 0xA97684EAD0E402DC232D5A977953DF7ECBAB3CDB DUP3 DUP9 PUSH1 0x4 DUP11 PUSH2 0xD40 JUMP JUMPDEST POP POP PUSH1 0x64 DUP8 PUSH1 0x20 ADD MLOAD DUP5 PUSH2 0xABD SWAP2 SWAP1 PUSH2 0x240B JUMP JUMPDEST PUSH2 0xAC7 SWAP2 SWAP1 PUSH2 0x247C JUMP JUMPDEST SWAP3 POP POP DUP1 DUP1 PUSH1 0x1 ADD SWAP2 POP POP PUSH2 0xA18 JUMP JUMPDEST POP POP POP POP POP POP JUMP JUMPDEST PUSH2 0xB60 DUP4 PUSH4 0xA9059CBB PUSH1 0xE0 SHL DUP5 DUP5 PUSH1 0x40 MLOAD PUSH1 0x24 ADD PUSH2 0xAFE SWAP3 SWAP2 SWAP1 PUSH2 0x24AD JUMP JUMPDEST PUSH1 0x40 MLOAD PUSH1 0x20 DUP2 DUP4 SUB SUB DUP2 MSTORE SWAP1 PUSH1 0x40 MSTORE SWAP1 PUSH28 0xFFFFFFFFFFFFFFFFFFFFFFFFFFFFFFFFFFFFFFFFFFFFFFFFFFFFFFFF NOT AND PUSH1 0x20 DUP3 ADD DUP1 MLOAD PUSH28 0xFFFFFFFFFFFFFFFFFFFFFFFFFFFFFFFFFFFFFFFFFFFFFFFFFFFFFFFF DUP4 DUP2 DUP4 AND OR DUP4 MSTORE POP POP POP POP PUSH2 0x10DE JUMP JUMPDEST POP POP POP JUMP JUMPDEST PUSH1 0x0 DUP3 PUSH20 0xFFFFFFFFFFFFFFFFFFFFFFFFFFFFFFFFFFFFFFFF AND PUSH4 0x95EA7B3 PUSH20 0xE592427A0AECE92DE3EDEE1F18E0157C05861564 DUP7 PUSH1 0x40 MLOAD DUP4 PUSH4 0xFFFFFFFF AND PUSH1 0xE0 SHL DUP2 MSTORE PUSH1 0x4 ADD PUSH2 0xBB6 SWAP3 SWAP2 SWAP1 PUSH2 0x24AD JUMP JUMPDEST PUSH1 0x20 PUSH1 0x40 MLOAD DUP1 DUP4 SUB DUP2 PUSH1 0x0 DUP8 GAS CALL ISZERO DUP1 ISZERO PUSH2 0xBD5 JUMPI RETURNDATASIZE PUSH1 0x0 DUP1 RETURNDATACOPY RETURNDATASIZE PUSH1 0x0 REVERT JUMPDEST POP POP POP POP PUSH1 0x40 MLOAD RETURNDATASIZE PUSH1 0x1F NOT PUSH1 0x1F DUP3 ADD AND DUP3 ADD DUP1 PUSH1 0x40 MSTORE POP DUP2 ADD SWAP1 PUSH2 0xBF9 SWAP2 SWAP1 PUSH2 0x20B6 JUMP JUMPDEST POP PUSH1 0x0 PUSH1 0x40 MLOAD DUP1 PUSH2 0x100 ADD PUSH1 0x40 MSTORE DUP1 DUP6 PUSH20 0xFFFFFFFFFFFFFFFFFFFFFFFFFFFFFFFFFFFFFFFF AND DUP2 MSTORE PUSH1 0x20 ADD DUP5 PUSH20 0xFFFFFFFFFFFFFFFFFFFFFFFFFFFFFFFFFFFFFFFF AND DUP2 MSTORE PUSH1 0x20 ADD PUSH2 0x1F4 PUSH3 0xFFFFFF AND DUP2 MSTORE PUSH1 0x20 ADD ADDRESS PUSH20 0xFFFFFFFFFFFFFFFFFFFFFFFFFFFFFFFFFFFFFFFF AND DUP2 MSTORE PUSH1 0x20 ADD PUSH2 0x12C TIMESTAMP PUSH2 0xC77 SWAP2 SWAP1 PUSH2 0x24D6 JUMP JUMPDEST DUP2 MSTORE PUSH1 0x20 ADD DUP7 DUP2 MSTORE PUSH1 0x20 ADD PUSH1 0x0 DUP2 MSTORE PUSH1 0x20 ADD PUSH1 0x0 PUSH20 0xFFFFFFFFFFFFFFFFFFFFFFFFFFFFFFFFFFFFFFFF AND DUP2 MSTORE POP SWAP1 POP PUSH20 0xE592427A0AECE92DE3EDEE1F18E0157C05861564 PUSH20 0xFFFFFFFFFFFFFFFFFFFFFFFFFFFFFFFFFFFFFFFF AND PUSH4 0x414BF389 DUP3 PUSH1 0x40 MLOAD DUP3 PUSH4 0xFFFFFFFF AND PUSH1 0xE0 SHL DUP2 MSTORE PUSH1 0x4 ADD PUSH2 0xCF3 SWAP2 SWAP1 PUSH2 0x25F7 JUMP JUMPDEST PUSH1 0x20 PUSH1 0x40 MLOAD DUP1 DUP4 SUB DUP2 PUSH1 0x0 DUP8 GAS CALL ISZERO DUP1 ISZERO PUSH2 0xD12 JUMPI RETURNDATASIZE PUSH1 0x0 DUP1 RETURNDATACOPY RETURNDATASIZE PUSH1 0x0 REVERT JUMPDEST POP POP POP POP PUSH1 0x40 MLOAD RETURNDATASIZE PUSH1 0x1F NOT PUSH1 0x1F DUP3 ADD AND DUP3 ADD DUP1 PUSH1 0x40 MSTORE POP DUP2 ADD SWAP1 PUSH2 0xD36 SWAP2 SWAP1 PUSH2 0x23AF JUMP JUMPDEST SWAP2 POP POP SWAP4 SWAP3 POP POP POP JUMP JUMPDEST PUSH1 0x0 PUSH1 0x60 PUSH1 0x0 PUSH2 0xD4F DUP9 PUSH2 0x11A6 JUMP JUMPDEST SWAP1 POP PUSH1 0x0 DUP2 PUSH20 0xFFFFFFFFFFFFFFFFFFFFFFFFFFFFFFFFFFFFFFFF AND PUSH4 0x52751797 DUP8 PUSH1 0x40 MLOAD DUP3 PUSH4 0xFFFFFFFF AND PUSH1 0xE0 SHL DUP2 MSTORE PUSH1 0x4 ADD PUSH2 0xD8C SWAP2 SWAP1 PUSH2 0x1941 JUMP JUMPDEST PUSH1 0x20 PUSH1 0x40 MLOAD DUP1 DUP4 SUB DUP2 DUP7 GAS STATICCALL ISZERO DUP1 ISZERO PUSH2 0xDA9 JUMPI RETURNDATASIZE PUSH1 0x0 DUP1 RETURNDATACOPY RETURNDATASIZE PUSH1 0x0 REVERT JUMPDEST POP POP POP POP PUSH1 0x40 MLOAD RETURNDATASIZE PUSH1 0x1F NOT PUSH1 0x1F DUP3 ADD AND DUP3 ADD DUP1 PUSH1 0x40 MSTORE POP DUP2 ADD SWAP1 PUSH2 0xDCD SWAP2 SWAP1 PUSH2 0x21E7 JUMP JUMPDEST SWAP1 POP PUSH32 0xFFFFFFFFFFFFFFFFFFFFFFFFFFFFFFFFFFFFFFFFFFFFFFFFFFFFFFFFFFFFFFFF DUP9 SUB PUSH2 0xE22 JUMPI PUSH2 0xE1F DUP8 DUP3 PUSH20 0xFFFFFFFFFFFFFFFFFFFFFFFFFFFFFFFFFFFFFFFF AND PUSH2 0x121E SWAP1 SWAP2 SWAP1 PUSH4 0xFFFFFFFF AND JUMP JUMPDEST SWAP8 POP JUMPDEST PUSH1 0x0 PUSH20 0xFFFFFFFFFFFFFFFFFFFFFFFFFFFFFFFFFFFFFFFF AND DUP6 PUSH20 0xFFFFFFFFFFFFFFFFFFFFFFFFFFFFFFFFFFFFFFFF AND SUB PUSH2 0xE5A JUMPI ADDRESS SWAP5 POP JUMPDEST PUSH2 0xE85 DUP8 DUP10 DUP4 PUSH20 0xFFFFFFFFFFFFFFFFFFFFFFFFFFFFFFFFFFFFFFFF AND PUSH2 0x1309 SWAP1 SWAP3 SWAP2 SWAP1 PUSH4 0xFFFFFFFF AND JUMP JUMPDEST POP PUSH2 0xEB1 DUP3 DUP10 DUP4 PUSH20 0xFFFFFFFFFFFFFFFFFFFFFFFFFFFFFFFFFFFFFFFF AND PUSH2 0x143E SWAP1 SWAP3 SWAP2 SWAP1 PUSH4 0xFFFFFFFF AND JUMP JUMPDEST DUP2 PUSH20 0xFFFFFFFFFFFFFFFFFFFFFFFFFFFFFFFFFFFFFFFF AND PUSH4 0x617BA037 DUP3 DUP11 DUP9 PUSH1 0x40 DUP1 MLOAD DUP6 PUSH4 0xFFFFFFFF AND PUSH1 0xE0 SHL DUP2 MSTORE PUSH1 0x4 ADD PUSH2 0xEF0 SWAP5 SWAP4 SWAP3 SWAP2 SWAP1 PUSH2 0x2613 JUMP JUMPDEST PUSH1 0x0 PUSH1 0x40 MLOAD DUP1 DUP4 SUB DUP2 PUSH1 0x0 DUP8 DUP1 EXTCODESIZE ISZERO DUP1 ISZERO PUSH2 0xF0A JUMPI PUSH1 0x0 DUP1 REVERT JUMPDEST POP GAS CALL ISZERO DUP1 ISZERO PUSH2 0xF1E JUMPI RETURNDATASIZE PUSH1 0x0 DUP1 RETURNDATACOPY RETURNDATASIZE PUSH1 0x0 REVERT JUMPDEST POP POP POP POP PUSH1 0x0 DUP10 DUP3 DUP11 DUP11 DUP10 PUSH1 0x40 MLOAD PUSH1 0x20 ADD PUSH2 0xF3D SWAP6 SWAP5 SWAP4 SWAP3 SWAP2 SWAP1 PUSH2 0x2658 JUMP JUMPDEST PUSH1 0x40 MLOAD PUSH1 0x20 DUP2 DUP4 SUB SUB DUP2 MSTORE SWAP1 PUSH1 0x40 MSTORE SWAP1 POP DUP9 DUP2 SWAP5 POP SWAP5 POP POP POP POP SWAP6 POP SWAP6 SWAP4 POP POP POP POP JUMP JUMPDEST PUSH1 0x0 PUSH1 0x60 PUSH1 0x0 PUSH2 0xF70 DUP10 PUSH2 0x11A6 JUMP JUMPDEST SWAP1 POP PUSH1 0x0 DUP2 PUSH20 0xFFFFFFFFFFFFFFFFFFFFFFFFFFFFFFFFFFFFFFFF AND PUSH4 0x52751797 DUP11 PUSH1 0x40 MLOAD DUP3 PUSH4 0xFFFFFFFF AND PUSH1 0xE0 SHL DUP2 MSTORE PUSH1 0x4 ADD PUSH2 0xFAD SWAP2 SWAP1 PUSH2 0x1941 JUMP JUMPDEST PUSH1 0x20 PUSH1 0x40 MLOAD DUP1 DUP4 SUB DUP2 DUP7 GAS STATICCALL ISZERO DUP1 ISZERO PUSH2 0xFCA JUMPI RETURNDATASIZE PUSH1 0x0 DUP1 RETURNDATACOPY RETURNDATASIZE PUSH1 0x0 REVERT JUMPDEST POP POP POP POP PUSH1 0x40 MLOAD RETURNDATASIZE PUSH1 0x1F NOT PUSH1 0x1F DUP3 ADD AND DUP3 ADD DUP1 PUSH1 0x40 MSTORE POP DUP2 ADD SWAP1 PUSH2 0xFEE SWAP2 SWAP1 PUSH2 0x21E7 JUMP JUMPDEST SWAP1 POP PUSH1 0x0 PUSH20 0xFFFFFFFFFFFFFFFFFFFFFFFFFFFFFFFFFFFFFFFF AND DUP6 PUSH20 0xFFFFFFFFFFFFFFFFFFFFFFFFFFFFFFFFFFFFFFFF AND SUB PUSH2 0x1028 JUMPI ADDRESS SWAP5 POP JUMPDEST DUP2 PUSH20 0xFFFFFFFFFFFFFFFFFFFFFFFFFFFFFFFFFFFFFFFF AND PUSH4 0xA415BCAD DUP3 DUP11 DUP11 PUSH1 0x0 DUP11 PUSH1 0x40 MLOAD DUP7 PUSH4 0xFFFFFFFF AND PUSH1 0xE0 SHL DUP2 MSTORE PUSH1 0x4 ADD PUSH2 0x106A SWAP6 SWAP5 SWAP4 SWAP3 SWAP2 SWAP1 PUSH2 0x26E6 JUMP JUMPDEST PUSH1 0x0 PUSH1 0x40 MLOAD DUP1 DUP4 SUB DUP2 PUSH1 0x0 DUP8 DUP1 EXTCODESIZE ISZERO DUP1 ISZERO PUSH2 0x1084 JUMPI PUSH1 0x0 DUP1 REVERT JUMPDEST POP GAS CALL ISZERO DUP1 ISZERO PUSH2 0x1098 JUMPI RETURNDATASIZE PUSH1 0x0 DUP1 RETURNDATACOPY RETURNDATASIZE PUSH1 0x0 REVERT JUMPDEST POP POP POP POP PUSH1 0x0 DUP11 DUP3 DUP11 DUP11 DUP11 DUP11 PUSH1 0x40 MLOAD PUSH1 0x20 ADD PUSH2 0x10B9 SWAP7 SWAP6 SWAP5 SWAP4 SWAP3 SWAP2 SWAP1 PUSH2 0x2739 JUMP JUMPDEST PUSH1 0x40 MLOAD PUSH1 0x20 DUP2 DUP4 SUB SUB DUP2 MSTORE SWAP1 PUSH1 0x40 MSTORE SWAP1 POP DUP9 DUP2 SWAP5 POP SWAP5 POP POP POP POP SWAP7 POP SWAP7 SWAP5 POP POP POP POP POP JUMP JUMPDEST PUSH1 0x0 PUSH2 0x1140 DUP3 PUSH1 0x40 MLOAD DUP1 PUSH1 0x40 ADD PUSH1 0x40 MSTORE DUP1 PUSH1 0x20 DUP2 MSTORE PUSH1 0x20 ADD PUSH32 0x5361666545524332303A206C6F772D6C6576656C2063616C6C206661696C6564 DUP2 MSTORE POP DUP6 PUSH20 0xFFFFFFFFFFFFFFFFFFFFFFFFFFFFFFFFFFFFFFFF AND PUSH2 0x153B SWAP1 SWAP3 SWAP2 SWAP1 PUSH4 0xFFFFFFFF AND JUMP JUMPDEST SWAP1 POP PUSH1 0x0 DUP2 MLOAD EQ DUP1 PUSH2 0x1162 JUMPI POP DUP1 DUP1 PUSH1 0x20 ADD SWAP1 MLOAD DUP2 ADD SWAP1 PUSH2 0x1161 SWAP2 SWAP1 PUSH2 0x20B6 JUMP JUMPDEST JUMPDEST PUSH2 0x11A1 JUMPI PUSH1 0x40 MLOAD PUSH32 0x8C379A000000000000000000000000000000000000000000000000000000000 DUP2 MSTORE PUSH1 0x4 ADD PUSH2 0x1198 SWAP1 PUSH2 0x280C JUMP JUMPDEST PUSH1 0x40 MLOAD DUP1 SWAP2 SUB SWAP1 REVERT JUMPDEST POP POP POP JUMP JUMPDEST PUSH1 0x0 DUP2 PUSH20 0xFFFFFFFFFFFFFFFFFFFFFFFFFFFFFFFFFFFFFFFF AND PUSH4 0x26B1D5F PUSH1 0x40 MLOAD DUP2 PUSH4 0xFFFFFFFF AND PUSH1 0xE0 SHL DUP2 MSTORE PUSH1 0x4 ADD PUSH1 0x20 PUSH1 0x40 MLOAD DUP1 DUP4 SUB DUP2 DUP7 GAS STATICCALL ISZERO DUP1 ISZERO PUSH2 0x11F3 JUMPI RETURNDATASIZE PUSH1 0x0 DUP1 RETURNDATACOPY RETURNDATASIZE PUSH1 0x0 REVERT JUMPDEST POP POP POP POP PUSH1 0x40 MLOAD RETURNDATASIZE PUSH1 0x1F NOT PUSH1 0x1F DUP3 ADD AND DUP3 ADD DUP1 PUSH1 0x40 MSTORE POP DUP2 ADD SWAP1 PUSH2 0x1217 SWAP2 SWAP1 PUSH2 0x21E7 JUMP JUMPDEST SWAP1 POP SWAP2 SWAP1 POP JUMP JUMPDEST PUSH1 0x0 PUSH20 0xEEEEEEEEEEEEEEEEEEEEEEEEEEEEEEEEEEEEEEEE PUSH20 0xFFFFFFFFFFFFFFFFFFFFFFFFFFFFFFFFFFFFFFFF AND DUP4 PUSH20 0xFFFFFFFFFFFFFFFFFFFFFFFFFFFFFFFFFFFFFFFF AND SUB PUSH2 0x1286 JUMPI DUP2 PUSH20 0xFFFFFFFFFFFFFFFFFFFFFFFFFFFFFFFFFFFFFFFF AND BALANCE SWAP1 POP PUSH2 0x1303 JUMP JUMPDEST DUP3 PUSH20 0xFFFFFFFFFFFFFFFFFFFFFFFFFFFFFFFFFFFFFFFF AND PUSH4 0x70A08231 DUP4 PUSH1 0x40 MLOAD DUP3 PUSH4 0xFFFFFFFF AND PUSH1 0xE0 SHL DUP2 MSTORE PUSH1 0x4 ADD PUSH2 0x12BF SWAP2 SWAP1 PUSH2 0x206F JUMP JUMPDEST PUSH1 0x20 PUSH1 0x40 MLOAD DUP1 DUP4 SUB DUP2 DUP7 GAS STATICCALL ISZERO DUP1 ISZERO PUSH2 0x12DC JUMPI RETURNDATASIZE PUSH1 0x0 DUP1 RETURNDATACOPY RETURNDATASIZE PUSH1 0x0 REVERT JUMPDEST POP POP POP POP PUSH1 0x40 MLOAD RETURNDATASIZE PUSH1 0x1F NOT PUSH1 0x1F DUP3 ADD AND DUP3 ADD DUP1 PUSH1 0x40 MSTORE POP DUP2 ADD SWAP1 PUSH2 0x1300 SWAP2 SWAP1 PUSH2 0x23AF JUMP JUMPDEST SWAP1 POP JUMPDEST SWAP3 SWAP2 POP POP JUMP JUMPDEST PUSH1 0x0 PUSH32 0xFFFFFFFFFFFFFFFFFFFFFFFFFFFFFFFFFFFFFFFFFFFFFFFFFFFFFFFFFFFFFFFF DUP3 SUB PUSH2 0x133F JUMPI PUSH2 0x133C DUP5 DUP5 PUSH2 0x121E JUMP JUMPDEST SWAP2 POP JUMPDEST PUSH1 0x0 PUSH20 0xFFFFFFFFFFFFFFFFFFFFFFFFFFFFFFFFFFFFFFFF AND DUP4 PUSH20 0xFFFFFFFFFFFFFFFFFFFFFFFFFFFFFFFFFFFFFFFF AND EQ ISZERO DUP1 ISZERO PUSH2 0x13A8 JUMPI POP ADDRESS PUSH20 0xFFFFFFFFFFFFFFFFFFFFFFFFFFFFFFFFFFFFFFFF AND DUP4 PUSH20 0xFFFFFFFFFFFFFFFFFFFFFFFFFFFFFFFFFFFFFFFF AND EQ ISZERO JUMPDEST DUP1 ISZERO PUSH2 0x13F4 JUMPI POP PUSH20 0xEEEEEEEEEEEEEEEEEEEEEEEEEEEEEEEEEEEEEEEE PUSH20 0xFFFFFFFFFFFFFFFFFFFFFFFFFFFFFFFFFFFFFFFF AND DUP5 PUSH20 0xFFFFFFFFFFFFFFFFFFFFFFFFFFFFFFFFFFFFFFFF AND EQ ISZERO JUMPDEST DUP1 ISZERO PUSH2 0x1401 JUMPI POP PUSH1 0x0 DUP3 EQ ISZERO JUMPDEST ISZERO PUSH2 0x1434 JUMPI PUSH2 0x1433 DUP4 ADDRESS DUP5 DUP8 PUSH20 0xFFFFFFFFFFFFFFFFFFFFFFFFFFFFFFFFFFFFFFFF AND PUSH2 0x1553 SWAP1 SWAP4 SWAP3 SWAP2 SWAP1 PUSH4 0xFFFFFFFF AND JUMP JUMPDEST JUMPDEST DUP2 SWAP1 POP SWAP4 SWAP3 POP POP POP JUMP JUMPDEST PUSH20 0xEEEEEEEEEEEEEEEEEEEEEEEEEEEEEEEEEEEEEEEE PUSH20 0xFFFFFFFFFFFFFFFFFFFFFFFFFFFFFFFFFFFFFFFF AND DUP4 PUSH20 0xFFFFFFFFFFFFFFFFFFFFFFFFFFFFFFFFFFFFFFFF AND SUB ISZERO PUSH2 0x1536 JUMPI DUP1 DUP4 PUSH20 0xFFFFFFFFFFFFFFFFFFFFFFFFFFFFFFFFFFFFFFFF AND PUSH4 0xDD62ED3E ADDRESS DUP6 PUSH1 0x40 MLOAD DUP4 PUSH4 0xFFFFFFFF AND PUSH1 0xE0 SHL DUP2 MSTORE PUSH1 0x4 ADD PUSH2 0x14C2 SWAP3 SWAP2 SWAP1 PUSH2 0x282C JUMP JUMPDEST PUSH1 0x20 PUSH1 0x40 MLOAD DUP1 DUP4 SUB DUP2 DUP7 GAS STATICCALL ISZERO DUP1 ISZERO PUSH2 0x14DF JUMPI RETURNDATASIZE PUSH1 0x0 DUP1 RETURNDATACOPY RETURNDATASIZE PUSH1 0x0 REVERT JUMPDEST POP POP POP POP PUSH1 0x40 MLOAD RETURNDATASIZE PUSH1 0x1F NOT PUSH1 0x1F DUP3 ADD AND DUP3 ADD DUP1 PUSH1 0x40 MSTORE POP DUP2 ADD SWAP1 PUSH2 0x1503 SWAP2 SWAP1 PUSH2 0x23AF JUMP JUMPDEST LT ISZERO PUSH2 0x1535 JUMPI PUSH2 0x1534 DUP3 DUP3 DUP6 PUSH20 0xFFFFFFFFFFFFFFFFFFFFFFFFFFFFFFFFFFFFFFFF AND PUSH2 0x15DC SWAP1 SWAP3 SWAP2 SWAP1 PUSH4 0xFFFFFFFF AND JUMP JUMPDEST JUMPDEST JUMPDEST POP POP POP JUMP JUMPDEST PUSH1 0x60 PUSH2 0x154A DUP5 DUP5 PUSH1 0x0 DUP6 PUSH2 0x16F9 JUMP JUMPDEST SWAP1 POP SWAP4 SWAP3 POP POP POP JUMP JUMPDEST PUSH2 0x15D6 DUP5 PUSH4 0x23B872DD PUSH1 0xE0 SHL DUP6 DUP6 DUP6 PUSH1 0x40 MLOAD PUSH1 0x24 ADD PUSH2 0x1574 SWAP4 SWAP3 SWAP2 SWAP1 PUSH2 0x2378 JUMP JUMPDEST PUSH1 0x40 MLOAD PUSH1 0x20 DUP2 DUP4 SUB SUB DUP2 MSTORE SWAP1 PUSH1 0x40 MSTORE SWAP1 PUSH28 0xFFFFFFFFFFFFFFFFFFFFFFFFFFFFFFFFFFFFFFFFFFFFFFFFFFFFFFFF NOT AND PUSH1 0x20 DUP3 ADD DUP1 MLOAD PUSH28 0xFFFFFFFFFFFFFFFFFFFFFFFFFFFFFFFFFFFFFFFFFFFFFFFFFFFFFFFF DUP4 DUP2 DUP4 AND OR DUP4 MSTORE POP POP POP POP PUSH2 0x10DE JUMP JUMPDEST POP POP POP POP JUMP JUMPDEST PUSH1 0x0 PUSH4 0x95EA7B3 PUSH1 0xE0 SHL DUP4 DUP4 PUSH1 0x40 MLOAD PUSH1 0x24 ADD PUSH2 0x15F9 SWAP3 SWAP2 SWAP1 PUSH2 0x24AD JUMP JUMPDEST PUSH1 0x40 MLOAD PUSH1 0x20 DUP2 DUP4 SUB SUB DUP2 MSTORE SWAP1 PUSH1 0x40 MSTORE SWAP1 PUSH28 0xFFFFFFFFFFFFFFFFFFFFFFFFFFFFFFFFFFFFFFFFFFFFFFFFFFFFFFFF NOT AND PUSH1 0x20 DUP3 ADD DUP1 MLOAD PUSH28 0xFFFFFFFFFFFFFFFFFFFFFFFFFFFFFFFFFFFFFFFFFFFFFFFFFFFFFFFF DUP4 DUP2 DUP4 AND OR DUP4 MSTORE POP POP POP POP SWAP1 POP PUSH2 0x1662 DUP5 DUP3 PUSH2 0x1812 JUMP JUMPDEST PUSH2 0x16F3 JUMPI PUSH2 0x16E8 DUP5 PUSH4 0x95EA7B3 PUSH1 0xE0 SHL DUP6 PUSH1 0x0 PUSH1 0x40 MLOAD PUSH1 0x24 ADD PUSH2 0x1686 SWAP3 SWAP2 SWAP1 PUSH2 0x2886 JUMP JUMPDEST PUSH1 0x40 MLOAD PUSH1 0x20 DUP2 DUP4 SUB SUB DUP2 MSTORE SWAP1 PUSH1 0x40 MSTORE SWAP1 PUSH28 0xFFFFFFFFFFFFFFFFFFFFFFFFFFFFFFFFFFFFFFFFFFFFFFFFFFFFFFFF NOT AND PUSH1 0x20 DUP3 ADD DUP1 MLOAD PUSH28 0xFFFFFFFFFFFFFFFFFFFFFFFFFFFFFFFFFFFFFFFFFFFFFFFFFFFFFFFF DUP4 DUP2 DUP4 AND OR DUP4 MSTORE POP POP POP POP PUSH2 0x10DE JUMP JUMPDEST PUSH2 0x16F2 DUP5 DUP3 PUSH2 0x10DE JUMP JUMPDEST JUMPDEST POP POP POP POP JUMP JUMPDEST PUSH1 0x60 PUSH2 0x1704 DUP6 PUSH2 0x18D9 JUMP JUMPDEST PUSH2 0x173A JUMPI PUSH1 0x40 MLOAD PUSH32 0x304619B500000000000000000000000000000000000000000000000000000000 DUP2 MSTORE PUSH1 0x4 ADD PUSH1 0x40 MLOAD DUP1 SWAP2 SUB SWAP1 REVERT JUMPDEST PUSH1 0x0 DUP1 DUP7 PUSH20 0xFFFFFFFFFFFFFFFFFFFFFFFFFFFFFFFFFFFFFFFF AND DUP6 DUP8 PUSH1 0x40 MLOAD PUSH2 0x1763 SWAP2 SWAP1 PUSH2 0x2920 JUMP JUMPDEST PUSH1 0x0 PUSH1 0x40 MLOAD DUP1 DUP4 SUB DUP2 DUP6 DUP8 GAS CALL SWAP3 POP POP POP RETURNDATASIZE DUP1 PUSH1 0x0 DUP2 EQ PUSH2 0x17A0 JUMPI PUSH1 0x40 MLOAD SWAP2 POP PUSH1 0x1F NOT PUSH1 0x3F RETURNDATASIZE ADD AND DUP3 ADD PUSH1 0x40 MSTORE RETURNDATASIZE DUP3 MSTORE RETURNDATASIZE PUSH1 0x0 PUSH1 0x20 DUP5 ADD RETURNDATACOPY PUSH2 0x17A5 JUMP JUMPDEST PUSH1 0x60 SWAP2 POP JUMPDEST POP SWAP2 POP SWAP2 POP DUP2 ISZERO PUSH2 0x17BA JUMPI DUP1 SWAP3 POP POP POP PUSH2 0x180A JUMP JUMPDEST PUSH1 0x0 DUP2 MLOAD GT ISZERO PUSH2 0x17CD JUMPI DUP1 MLOAD DUP1 DUP3 PUSH1 0x20 ADD REVERT JUMPDEST DUP4 PUSH1 0x40 MLOAD PUSH32 0x8C379A000000000000000000000000000000000000000000000000000000000 DUP2 MSTORE PUSH1 0x4 ADD PUSH2 0x1801 SWAP2 SWAP1 PUSH2 0x297B JUMP JUMPDEST PUSH1 0x40 MLOAD DUP1 SWAP2 SUB SWAP1 REVERT JUMPDEST SWAP5 SWAP4 POP POP POP POP JUMP JUMPDEST PUSH1 0x0 DUP1 PUSH1 0x0 DUP5 PUSH20 0xFFFFFFFFFFFFFFFFFFFFFFFFFFFFFFFFFFFFFFFF AND DUP5 PUSH1 0x40 MLOAD PUSH2 0x183C SWAP2 SWAP1 PUSH2 0x2920 JUMP JUMPDEST PUSH1 0x0 PUSH1 0x40 MLOAD DUP1 DUP4 SUB DUP2 PUSH1 0x0 DUP7 GAS CALL SWAP2 POP POP RETURNDATASIZE DUP1 PUSH1 0x0 DUP2 EQ PUSH2 0x1879 JUMPI PUSH1 0x40 MLOAD SWAP2 POP PUSH1 0x1F NOT PUSH1 0x3F RETURNDATASIZE ADD AND DUP3 ADD PUSH1 0x40 MSTORE RETURNDATASIZE DUP3 MSTORE RETURNDATASIZE PUSH1 0x0 PUSH1 0x20 DUP5 ADD RETURNDATACOPY PUSH2 0x187E JUMP JUMPDEST PUSH1 0x60 SWAP2 POP JUMPDEST POP SWAP2 POP SWAP2 POP DUP2 DUP1 ISZERO PUSH2 0x18AC JUMPI POP PUSH1 0x0 DUP2 MLOAD EQ DUP1 PUSH2 0x18AB JUMPI POP DUP1 DUP1 PUSH1 0x20 ADD SWAP1 MLOAD DUP2 ADD SWAP1 PUSH2 0x18AA SWAP2 SWAP1 PUSH2 0x20B6 JUMP JUMPDEST JUMPDEST JUMPDEST DUP1 ISZERO PUSH2 0x18CF JUMPI POP PUSH1 0x0 DUP6 PUSH20 0xFFFFFFFFFFFFFFFFFFFFFFFFFFFFFFFFFFFFFFFF AND EXTCODESIZE GT JUMPDEST SWAP3 POP POP POP SWAP3 SWAP2 POP POP JUMP JUMPDEST PUSH1 0x0 DUP1 PUSH1 0x0 PUSH32 0xC5D2460186F7233C927E7DB2DCC703C0E500B653CA82273B7BFAD8045D85A470 PUSH1 0x0 SHL SWAP1 POP DUP4 EXTCODEHASH SWAP2 POP DUP1 DUP3 EQ ISZERO DUP1 ISZERO PUSH2 0x191B JUMPI POP PUSH1 0x0 DUP1 SHL DUP3 EQ ISZERO JUMPDEST SWAP3 POP POP POP SWAP2 SWAP1 POP JUMP JUMPDEST PUSH1 0x0 PUSH2 0xFFFF DUP3 AND SWAP1 POP SWAP2 SWAP1 POP JUMP JUMPDEST PUSH2 0x193B DUP2 PUSH2 0x1924 JUMP JUMPDEST DUP3 MSTORE POP POP JUMP JUMPDEST PUSH1 0x0 PUSH1 0x20 DUP3 ADD SWAP1 POP PUSH2 0x1956 PUSH1 0x0 DUP4 ADD DUP5 PUSH2 0x1932 JUMP JUMPDEST SWAP3 SWAP2 POP POP JUMP JUMPDEST PUSH1 0x0 PUSH20 0xFFFFFFFFFFFFFFFFFFFFFFFFFFFFFFFFFFFFFFFF DUP3 AND SWAP1 POP SWAP2 SWAP1 POP JUMP JUMPDEST PUSH1 0x0 DUP2 SWAP1 POP SWAP2 SWAP1 POP JUMP JUMPDEST PUSH1 0x0 PUSH2 0x19A1 PUSH2 0x199C PUSH2 0x1997 DUP5 PUSH2 0x195C JUMP JUMPDEST PUSH2 0x197C JUMP JUMPDEST PUSH2 0x195C JUMP JUMPDEST SWAP1 POP SWAP2 SWAP1 POP JUMP JUMPDEST PUSH1 0x0 PUSH2 0x19B3 DUP3 PUSH2 0x1986 JUMP JUMPDEST SWAP1 POP SWAP2 SWAP1 POP JUMP JUMPDEST PUSH1 0x0 PUSH2 0x19C5 DUP3 PUSH2 0x19A8 JUMP JUMPDEST SWAP1 POP SWAP2 SWAP1 POP JUMP JUMPDEST PUSH2 0x19D5 DUP2 PUSH2 0x19BA JUMP JUMPDEST DUP3 MSTORE POP POP JUMP JUMPDEST PUSH1 0x0 PUSH1 0x20 DUP3 ADD SWAP1 POP PUSH2 0x19F0 PUSH1 0x0 DUP4 ADD DUP5 PUSH2 0x19CC JUMP JUMPDEST SWAP3 SWAP2 POP POP JUMP JUMPDEST PUSH1 0x0 PUSH1 0xFF DUP3 AND SWAP1 POP SWAP2 SWAP1 POP JUMP JUMPDEST PUSH2 0x1A0C DUP2 PUSH2 0x19F6 JUMP JUMPDEST DUP3 MSTORE POP POP JUMP JUMPDEST PUSH1 0x0 PUSH1 0x20 DUP3 ADD SWAP1 POP PUSH2 0x1A27 PUSH1 0x0 DUP4 ADD DUP5 PUSH2 0x1A03 JUMP JUMPDEST SWAP3 SWAP2 POP POP JUMP JUMPDEST PUSH1 0x0 PUSH1 0x40 MLOAD SWAP1 POP SWAP1 JUMP JUMPDEST PUSH1 0x0 DUP1 REVERT JUMPDEST PUSH1 0x0 DUP1 REVERT JUMPDEST PUSH1 0x0 PUSH2 0x1A4C DUP3 PUSH2 0x195C JUMP JUMPDEST SWAP1 POP SWAP2 SWAP1 POP JUMP JUMPDEST PUSH2 0x1A5C DUP2 PUSH2 0x1A41 JUMP JUMPDEST DUP2 EQ PUSH2 0x1A67 JUMPI PUSH1 0x0 DUP1 REVERT JUMPDEST POP JUMP JUMPDEST PUSH1 0x0 DUP2 CALLDATALOAD SWAP1 POP PUSH2 0x1A79 DUP2 PUSH2 0x1A53 JUMP JUMPDEST SWAP3 SWAP2 POP POP JUMP JUMPDEST PUSH1 0x0 PUSH1 0x20 DUP3 DUP5 SUB SLT ISZERO PUSH2 0x1A95 JUMPI PUSH2 0x1A94 PUSH2 0x1A37 JUMP JUMPDEST JUMPDEST PUSH1 0x0 PUSH2 0x1AA3 DUP5 DUP3 DUP6 ADD PUSH2 0x1A6A JUMP JUMPDEST SWAP2 POP POP SWAP3 SWAP2 POP POP JUMP JUMPDEST PUSH1 0x0 DUP2 ISZERO ISZERO SWAP1 POP SWAP2 SWAP1 POP JUMP JUMPDEST PUSH2 0x1AC1 DUP2 PUSH2 0x1AAC JUMP JUMPDEST DUP3 MSTORE POP POP JUMP JUMPDEST PUSH1 0x0 PUSH1 0x20 DUP3 ADD SWAP1 POP PUSH2 0x1ADC PUSH1 0x0 DUP4 ADD DUP5 PUSH2 0x1AB8 JUMP JUMPDEST SWAP3 SWAP2 POP POP JUMP JUMPDEST PUSH1 0x0 DUP1 REVERT JUMPDEST PUSH1 0x0 DUP1 REVERT JUMPDEST PUSH1 0x0 PUSH1 0x1F NOT PUSH1 0x1F DUP4 ADD AND SWAP1 POP SWAP2 SWAP1 POP JUMP JUMPDEST PUSH32 0x4E487B7100000000000000000000000000000000000000000000000000000000 PUSH1 0x0 MSTORE PUSH1 0x41 PUSH1 0x4 MSTORE PUSH1 0x24 PUSH1 0x0 REVERT JUMPDEST PUSH2 0x1B35 DUP3 PUSH2 0x1AEC JUMP JUMPDEST DUP2 ADD DUP2 DUP2 LT PUSH8 0xFFFFFFFFFFFFFFFF DUP3 GT OR ISZERO PUSH2 0x1B54 JUMPI PUSH2 0x1B53 PUSH2 0x1AFD JUMP JUMPDEST JUMPDEST DUP1 PUSH1 0x40 MSTORE POP POP POP JUMP JUMPDEST PUSH1 0x0 PUSH2 0x1B67 PUSH2 0x1A2D JUMP JUMPDEST SWAP1 POP PUSH2 0x1B73 DUP3 DUP3 PUSH2 0x1B2C JUMP JUMPDEST SWAP2 SWAP1 POP JUMP JUMPDEST PUSH1 0x0 PUSH8 0xFFFFFFFFFFFFFFFF DUP3 GT ISZERO PUSH2 0x1B93 JUMPI PUSH2 0x1B92 PUSH2 0x1AFD JUMP JUMPDEST JUMPDEST PUSH2 0x1B9C DUP3 PUSH2 0x1AEC JUMP JUMPDEST SWAP1 POP PUSH1 0x20 DUP2 ADD SWAP1 POP SWAP2 SWAP1 POP JUMP JUMPDEST DUP3 DUP2 DUP4 CALLDATACOPY PUSH1 0x0 DUP4 DUP4 ADD MSTORE POP POP POP JUMP JUMPDEST PUSH1 0x0 PUSH2 0x1BCB PUSH2 0x1BC6 DUP5 PUSH2 0x1B78 JUMP JUMPDEST PUSH2 0x1B5D JUMP JUMPDEST SWAP1 POP DUP3 DUP2 MSTORE PUSH1 0x20 DUP2 ADD DUP5 DUP5 DUP5 ADD GT ISZERO PUSH2 0x1BE7 JUMPI PUSH2 0x1BE6 PUSH2 0x1AE7 JUMP JUMPDEST JUMPDEST PUSH2 0x1BF2 DUP5 DUP3 DUP6 PUSH2 0x1BA9 JUMP JUMPDEST POP SWAP4 SWAP3 POP POP POP JUMP JUMPDEST PUSH1 0x0 DUP3 PUSH1 0x1F DUP4 ADD SLT PUSH2 0x1C0F JUMPI PUSH2 0x1C0E PUSH2 0x1AE2 JUMP JUMPDEST JUMPDEST DUP2 CALLDATALOAD PUSH2 0x1C1F DUP5 DUP3 PUSH1 0x20 DUP7 ADD PUSH2 0x1BB8 JUMP JUMPDEST SWAP2 POP POP SWAP3 SWAP2 POP POP JUMP JUMPDEST PUSH1 0x0 PUSH1 0x20 DUP3 DUP5 SUB SLT ISZERO PUSH2 0x1C3E JUMPI PUSH2 0x1C3D PUSH2 0x1A37 JUMP JUMPDEST JUMPDEST PUSH1 0x0 DUP3 ADD CALLDATALOAD PUSH8 0xFFFFFFFFFFFFFFFF DUP2 GT ISZERO PUSH2 0x1C5C JUMPI PUSH2 0x1C5B PUSH2 0x1A3C JUMP JUMPDEST JUMPDEST PUSH2 0x1C68 DUP5 DUP3 DUP6 ADD PUSH2 0x1BFA JUMP JUMPDEST SWAP2 POP POP SWAP3 SWAP2 POP POP JUMP JUMPDEST PUSH1 0x0 PUSH2 0x1C7C DUP3 PUSH2 0x19A8 JUMP JUMPDEST SWAP1 POP SWAP2 SWAP1 POP JUMP JUMPDEST PUSH2 0x1C8C DUP2 PUSH2 0x1C71 JUMP JUMPDEST DUP3 MSTORE POP POP JUMP JUMPDEST PUSH1 0x0 PUSH1 0x20 DUP3 ADD SWAP1 POP PUSH2 0x1CA7 PUSH1 0x0 DUP4 ADD DUP5 PUSH2 0x1C83 JUMP JUMPDEST SWAP3 SWAP2 POP POP JUMP JUMPDEST PUSH1 0x0 PUSH8 0xFFFFFFFFFFFFFFFF DUP3 GT ISZERO PUSH2 0x1CC8 JUMPI PUSH2 0x1CC7 PUSH2 0x1AFD JUMP JUMPDEST JUMPDEST PUSH1 0x20 DUP3 MUL SWAP1 POP PUSH1 0x20 DUP2 ADD SWAP1 POP SWAP2 SWAP1 POP JUMP JUMPDEST PUSH1 0x0 DUP1 REVERT JUMPDEST PUSH1 0x0 DUP2 SWAP1 POP SWAP2 SWAP1 POP JUMP JUMPDEST PUSH2 0x1CF1 DUP2 PUSH2 0x1CDE JUMP JUMPDEST DUP2 EQ PUSH2 0x1CFC JUMPI PUSH1 0x0 DUP1 REVERT JUMPDEST POP JUMP JUMPDEST PUSH1 0x0 DUP2 CALLDATALOAD SWAP1 POP PUSH2 0x1D0E DUP2 PUSH2 0x1CE8 JUMP JUMPDEST SWAP3 SWAP2 POP POP JUMP JUMPDEST PUSH1 0x0 PUSH2 0x1D27 PUSH2 0x1D22 DUP5 PUSH2 0x1CAD JUMP JUMPDEST PUSH2 0x1B5D JUMP JUMPDEST SWAP1 POP DUP1 DUP4 DUP3 MSTORE PUSH1 0x20 DUP3 ADD SWAP1 POP PUSH1 0x20 DUP5 MUL DUP4 ADD DUP6 DUP2 GT ISZERO PUSH2 0x1D4A JUMPI PUSH2 0x1D49 PUSH2 0x1CD9 JUMP JUMPDEST JUMPDEST DUP4 JUMPDEST DUP2 DUP2 LT ISZERO PUSH2 0x1D73 JUMPI DUP1 PUSH2 0x1D5F DUP9 DUP3 PUSH2 0x1CFF JUMP JUMPDEST DUP5 MSTORE PUSH1 0x20 DUP5 ADD SWAP4 POP POP PUSH1 0x20 DUP2 ADD SWAP1 POP PUSH2 0x1D4C JUMP JUMPDEST POP POP POP SWAP4 SWAP3 POP POP POP JUMP JUMPDEST PUSH1 0x0 DUP3 PUSH1 0x1F DUP4 ADD SLT PUSH2 0x1D92 JUMPI PUSH2 0x1D91 PUSH2 0x1AE2 JUMP JUMPDEST JUMPDEST DUP2 CALLDATALOAD PUSH2 0x1DA2 DUP5 DUP3 PUSH1 0x20 DUP7 ADD PUSH2 0x1D14 JUMP JUMPDEST SWAP2 POP POP SWAP3 SWAP2 POP POP JUMP JUMPDEST PUSH1 0x0 PUSH8 0xFFFFFFFFFFFFFFFF DUP3 GT ISZERO PUSH2 0x1DC6 JUMPI PUSH2 0x1DC5 PUSH2 0x1AFD JUMP JUMPDEST JUMPDEST PUSH1 0x20 DUP3 MUL SWAP1 POP PUSH1 0x20 DUP2 ADD SWAP1 POP SWAP2 SWAP1 POP JUMP JUMPDEST PUSH2 0x1DE0 DUP2 PUSH2 0x19F6 JUMP JUMPDEST DUP2 EQ PUSH2 0x1DEB JUMPI PUSH1 0x0 DUP1 REVERT JUMPDEST POP JUMP JUMPDEST PUSH1 0x0 DUP2 CALLDATALOAD SWAP1 POP PUSH2 0x1DFD DUP2 PUSH2 0x1DD7 JUMP JUMPDEST SWAP3 SWAP2 POP POP JUMP JUMPDEST PUSH1 0x0 PUSH2 0x1E16 PUSH2 0x1E11 DUP5 PUSH2 0x1DAB JUMP JUMPDEST PUSH2 0x1B5D JUMP JUMPDEST SWAP1 POP DUP1 DUP4 DUP3 MSTORE PUSH1 0x20 DUP3 ADD SWAP1 POP PUSH1 0x20 DUP5 MUL DUP4 ADD DUP6 DUP2 GT ISZERO PUSH2 0x1E39 JUMPI PUSH2 0x1E38 PUSH2 0x1CD9 JUMP JUMPDEST JUMPDEST DUP4 JUMPDEST DUP2 DUP2 LT ISZERO PUSH2 0x1E62 JUMPI DUP1 PUSH2 0x1E4E DUP9 DUP3 PUSH2 0x1DEE JUMP JUMPDEST DUP5 MSTORE PUSH1 0x20 DUP5 ADD SWAP4 POP POP PUSH1 0x20 DUP2 ADD SWAP1 POP PUSH2 0x1E3B JUMP JUMPDEST POP POP POP SWAP4 SWAP3 POP POP POP JUMP JUMPDEST PUSH1 0x0 DUP3 PUSH1 0x1F DUP4 ADD SLT PUSH2 0x1E81 JUMPI PUSH2 0x1E80 PUSH2 0x1AE2 JUMP JUMPDEST JUMPDEST DUP2 CALLDATALOAD PUSH2 0x1E91 DUP5 DUP3 PUSH1 0x20 DUP7 ADD PUSH2 0x1E03 JUMP JUMPDEST SWAP2 POP POP SWAP3 SWAP2 POP POP JUMP JUMPDEST PUSH1 0x0 DUP1 PUSH1 0x0 DUP1 PUSH1 0x80 DUP6 DUP8 SUB SLT ISZERO PUSH2 0x1EB4 JUMPI PUSH2 0x1EB3 PUSH2 0x1A37 JUMP JUMPDEST JUMPDEST PUSH1 0x0 DUP6 ADD CALLDATALOAD PUSH8 0xFFFFFFFFFFFFFFFF DUP2 GT ISZERO PUSH2 0x1ED2 JUMPI PUSH2 0x1ED1 PUSH2 0x1A3C JUMP JUMPDEST JUMPDEST PUSH2 0x1EDE DUP8 DUP3 DUP9 ADD PUSH2 0x1BFA JUMP JUMPDEST SWAP5 POP POP PUSH1 0x20 DUP6 ADD CALLDATALOAD PUSH8 0xFFFFFFFFFFFFFFFF DUP2 GT ISZERO PUSH2 0x1EFF JUMPI PUSH2 0x1EFE PUSH2 0x1A3C JUMP JUMPDEST JUMPDEST PUSH2 0x1F0B DUP8 DUP3 DUP9 ADD PUSH2 0x1D7D JUMP JUMPDEST SWAP4 POP POP PUSH1 0x40 DUP6 ADD CALLDATALOAD PUSH8 0xFFFFFFFFFFFFFFFF DUP2 GT ISZERO PUSH2 0x1F2C JUMPI PUSH2 0x1F2B PUSH2 0x1A3C JUMP JUMPDEST JUMPDEST PUSH2 0x1F38 DUP8 DUP3 DUP9 ADD PUSH2 0x1E6C JUMP JUMPDEST SWAP3 POP POP PUSH1 0x60 DUP6 ADD CALLDATALOAD PUSH8 0xFFFFFFFFFFFFFFFF DUP2 GT ISZERO PUSH2 0x1F59 JUMPI PUSH2 0x1F58 PUSH2 0x1A3C JUMP JUMPDEST JUMPDEST PUSH2 0x1F65 DUP8 DUP3 DUP9 ADD PUSH2 0x1D7D JUMP JUMPDEST SWAP2 POP POP SWAP3 SWAP6 SWAP2 SWAP5 POP SWAP3 POP JUMP JUMPDEST PUSH2 0x1F7A DUP2 PUSH2 0x1CDE JUMP JUMPDEST DUP3 MSTORE POP POP JUMP JUMPDEST PUSH1 0x0 PUSH1 0x20 DUP3 ADD SWAP1 POP PUSH2 0x1F95 PUSH1 0x0 DUP4 ADD DUP5 PUSH2 0x1F71 JUMP JUMPDEST SWAP3 SWAP2 POP POP JUMP JUMPDEST PUSH1 0x0 DUP2 SWAP1 POP SWAP2 SWAP1 POP JUMP JUMPDEST PUSH2 0x1FAE DUP2 PUSH2 0x1F9B JUMP JUMPDEST DUP2 EQ PUSH2 0x1FB9 JUMPI PUSH1 0x0 DUP1 REVERT JUMPDEST POP JUMP JUMPDEST PUSH1 0x0 DUP2 CALLDATALOAD SWAP1 POP PUSH2 0x1FCB DUP2 PUSH2 0x1FA5 JUMP JUMPDEST SWAP3 SWAP2 POP POP JUMP JUMPDEST PUSH1 0x0 DUP1 PUSH1 0x0 PUSH1 0x60 DUP5 DUP7 SUB SLT ISZERO PUSH2 0x1FEA JUMPI PUSH2 0x1FE9 PUSH2 0x1A37 JUMP JUMPDEST JUMPDEST PUSH1 0x0 PUSH2 0x1FF8 DUP7 DUP3 DUP8 ADD PUSH2 0x1A6A JUMP JUMPDEST SWAP4 POP POP PUSH1 0x20 PUSH2 0x2009 DUP7 DUP3 DUP8 ADD PUSH2 0x1A6A JUMP JUMPDEST SWAP3 POP POP PUSH1 0x40 PUSH2 0x201A DUP7 DUP3 DUP8 ADD PUSH2 0x1FBC JUMP JUMPDEST SWAP2 POP POP SWAP3 POP SWAP3 POP SWAP3 JUMP JUMPDEST PUSH1 0x0 PUSH2 0x202F DUP3 PUSH2 0x19A8 JUMP JUMPDEST SWAP1 POP SWAP2 SWAP1 POP JUMP JUMPDEST PUSH2 0x203F DUP2 PUSH2 0x2024 JUMP JUMPDEST DUP3 MSTORE POP POP JUMP JUMPDEST PUSH1 0x0 PUSH1 0x20 DUP3 ADD SWAP1 POP PUSH2 0x205A PUSH1 0x0 DUP4 ADD DUP5 PUSH2 0x2036 JUMP JUMPDEST SWAP3 SWAP2 POP POP JUMP JUMPDEST PUSH2 0x2069 DUP2 PUSH2 0x1A41 JUMP JUMPDEST DUP3 MSTORE POP POP JUMP JUMPDEST PUSH1 0x0 PUSH1 0x20 DUP3 ADD SWAP1 POP PUSH2 0x2084 PUSH1 0x0 DUP4 ADD DUP5 PUSH2 0x2060 JUMP JUMPDEST SWAP3 SWAP2 POP POP JUMP JUMPDEST PUSH2 0x2093 DUP2 PUSH2 0x1AAC JUMP JUMPDEST DUP2 EQ PUSH2 0x209E JUMPI PUSH1 0x0 DUP1 REVERT JUMPDEST POP JUMP JUMPDEST PUSH1 0x0 DUP2 MLOAD SWAP1 POP PUSH2 0x20B0 DUP2 PUSH2 0x208A JUMP JUMPDEST SWAP3 SWAP2 POP POP JUMP JUMPDEST PUSH1 0x0 PUSH1 0x20 DUP3 DUP5 SUB SLT ISZERO PUSH2 0x20CC JUMPI PUSH2 0x20CB PUSH2 0x1A37 JUMP JUMPDEST JUMPDEST PUSH1 0x0 PUSH2 0x20DA DUP5 DUP3 DUP6 ADD PUSH2 0x20A1 JUMP JUMPDEST SWAP2 POP POP SWAP3 SWAP2 POP POP JUMP JUMPDEST PUSH32 0x4E487B7100000000000000000000000000000000000000000000000000000000 PUSH1 0x0 MSTORE PUSH1 0x21 PUSH1 0x4 MSTORE PUSH1 0x24 PUSH1 0x0 REVERT JUMPDEST PUSH1 0x0 DUP1 REVERT JUMPDEST PUSH1 0x0 DUP2 MLOAD SWAP1 POP PUSH2 0x2126 DUP2 PUSH2 0x1FA5 JUMP JUMPDEST SWAP3 SWAP2 POP POP JUMP JUMPDEST PUSH1 0x0 DUP2 MLOAD SWAP1 POP PUSH2 0x213B DUP2 PUSH2 0x1DD7 JUMP JUMPDEST SWAP3 SWAP2 POP POP JUMP JUMPDEST PUSH1 0x0 PUSH1 0x60 DUP3 DUP5 SUB SLT ISZERO PUSH2 0x2157 JUMPI PUSH2 0x2156 PUSH2 0x2112 JUMP JUMPDEST JUMPDEST PUSH2 0x2161 PUSH1 0x60 PUSH2 0x1B5D JUMP JUMPDEST SWAP1 POP PUSH1 0x0 PUSH2 0x2171 DUP5 DUP3 DUP6 ADD PUSH2 0x2117 JUMP JUMPDEST PUSH1 0x0 DUP4 ADD MSTORE POP PUSH1 0x20 PUSH2 0x2185 DUP5 DUP3 DUP6 ADD PUSH2 0x2117 JUMP JUMPDEST PUSH1 0x20 DUP4 ADD MSTORE POP PUSH1 0x40 PUSH2 0x2199 DUP5 DUP3 DUP6 ADD PUSH2 0x212C JUMP JUMPDEST PUSH1 0x40 DUP4 ADD MSTORE POP SWAP3 SWAP2 POP POP JUMP JUMPDEST PUSH1 0x0 PUSH1 0x60 DUP3 DUP5 SUB SLT ISZERO PUSH2 0x21BB JUMPI PUSH2 0x21BA PUSH2 0x1A37 JUMP JUMPDEST JUMPDEST PUSH1 0x0 PUSH2 0x21C9 DUP5 DUP3 DUP6 ADD PUSH2 0x2141 JUMP JUMPDEST SWAP2 POP POP SWAP3 SWAP2 POP POP JUMP JUMPDEST PUSH1 0x0 DUP2 MLOAD SWAP1 POP PUSH2 0x21E1 DUP2 PUSH2 0x1A53 JUMP JUMPDEST SWAP3 SWAP2 POP POP JUMP JUMPDEST PUSH1 0x0 PUSH1 0x20 DUP3 DUP5 SUB SLT ISZERO PUSH2 0x21FD JUMPI PUSH2 0x21FC PUSH2 0x1A37 JUMP JUMPDEST JUMPDEST PUSH1 0x0 PUSH2 0x220B DUP5 DUP3 DUP6 ADD PUSH2 0x21D2 JUMP JUMPDEST SWAP2 POP POP SWAP3 SWAP2 POP POP JUMP JUMPDEST PUSH1 0x0 DUP3 DUP3 MSTORE PUSH1 0x20 DUP3 ADD SWAP1 POP SWAP3 SWAP2 POP POP JUMP JUMPDEST PUSH32 0x426F72726F772070657263656E74206D757374206265203C3D20313030000000 PUSH1 0x0 DUP3 ADD MSTORE POP JUMP JUMPDEST PUSH1 0x0 PUSH2 0x225B PUSH1 0x1D DUP4 PUSH2 0x2214 JUMP JUMPDEST SWAP2 POP PUSH2 0x2266 DUP3 PUSH2 0x2225 JUMP JUMPDEST PUSH1 0x20 DUP3 ADD SWAP1 POP SWAP2 SWAP1 POP JUMP JUMPDEST PUSH1 0x0 PUSH1 0x20 DUP3 ADD SWAP1 POP DUP2 DUP2 SUB PUSH1 0x0 DUP4 ADD MSTORE PUSH2 0x228A DUP2 PUSH2 0x224E JUMP JUMPDEST SWAP1 POP SWAP2 SWAP1 POP JUMP JUMPDEST PUSH32 0x4379636C6573206D757374206265203E20300000000000000000000000000000 PUSH1 0x0 DUP3 ADD MSTORE POP JUMP JUMPDEST PUSH1 0x0 PUSH2 0x22C7 PUSH1 0x12 DUP4 PUSH2 0x2214 JUMP JUMPDEST SWAP2 POP PUSH2 0x22D2 DUP3 PUSH2 0x2291 JUMP JUMPDEST PUSH1 0x20 DUP3 ADD SWAP1 POP SWAP2 SWAP1 POP JUMP JUMPDEST PUSH1 0x0 PUSH1 0x20 DUP3 ADD SWAP1 POP DUP2 DUP2 SUB PUSH1 0x0 DUP4 ADD MSTORE PUSH2 0x22F6 DUP2 PUSH2 0x22BA JUMP JUMPDEST SWAP1 POP SWAP2 SWAP1 POP JUMP JUMPDEST PUSH32 0x537570706C7920616D6F756E74206D757374206265203E203000000000000000 PUSH1 0x0 DUP3 ADD MSTORE POP JUMP JUMPDEST PUSH1 0x0 PUSH2 0x2333 PUSH1 0x19 DUP4 PUSH2 0x2214 JUMP JUMPDEST SWAP2 POP PUSH2 0x233E DUP3 PUSH2 0x22FD JUMP JUMPDEST PUSH1 0x20 DUP3 ADD SWAP1 POP SWAP2 SWAP1 POP JUMP JUMPDEST PUSH1 0x0 PUSH1 0x20 DUP3 ADD SWAP1 POP DUP2 DUP2 SUB PUSH1 0x0 DUP4 ADD MSTORE PUSH2 0x2362 DUP2 PUSH2 0x2326 JUMP JUMPDEST SWAP1 POP SWAP2 SWAP1 POP JUMP JUMPDEST PUSH2 0x2372 DUP2 PUSH2 0x1F9B JUMP JUMPDEST DUP3 MSTORE POP POP JUMP JUMPDEST PUSH1 0x0 PUSH1 0x60 DUP3 ADD SWAP1 POP PUSH2 0x238D PUSH1 0x0 DUP4 ADD DUP7 PUSH2 0x2060 JUMP JUMPDEST PUSH2 0x239A PUSH1 0x20 DUP4 ADD DUP6 PUSH2 0x2060 JUMP JUMPDEST PUSH2 0x23A7 PUSH1 0x40 DUP4 ADD DUP5 PUSH2 0x2369 JUMP JUMPDEST SWAP5 SWAP4 POP POP POP POP JUMP JUMPDEST PUSH1 0x0 PUSH1 0x20 DUP3 DUP5 SUB SLT ISZERO PUSH2 0x23C5 JUMPI PUSH2 0x23C4 PUSH2 0x1A37 JUMP JUMPDEST JUMPDEST PUSH1 0x0 PUSH2 0x23D3 DUP5 DUP3 DUP6 ADD PUSH2 0x2117 JUMP JUMPDEST SWAP2 POP POP SWAP3 SWAP2 POP POP JUMP JUMPDEST PUSH32 0x4E487B7100000000000000000000000000000000000000000000000000000000 PUSH1 0x0 MSTORE PUSH1 0x11 PUSH1 0x4 MSTORE PUSH1 0x24 PUSH1 0x0 REVERT JUMPDEST PUSH1 0x0 PUSH2 0x2416 DUP3 PUSH2 0x1F9B JUMP JUMPDEST SWAP2 POP PUSH2 0x2421 DUP4 PUSH2 0x1F9B JUMP JUMPDEST SWAP3 POP DUP3 DUP3 MUL PUSH2 0x242F DUP2 PUSH2 0x1F9B JUMP JUMPDEST SWAP2 POP DUP3 DUP3 DIV DUP5 EQ DUP4 ISZERO OR PUSH2 0x2446 JUMPI PUSH2 0x2445 PUSH2 0x23DC JUMP JUMPDEST JUMPDEST POP SWAP3 SWAP2 POP POP JUMP JUMPDEST PUSH32 0x4E487B7100000000000000000000000000000000000000000000000000000000 PUSH1 0x0 MSTORE PUSH1 0x12 PUSH1 0x4 MSTORE PUSH1 0x24 PUSH1 0x0 REVERT JUMPDEST PUSH1 0x0 PUSH2 0x2487 DUP3 PUSH2 0x1F9B JUMP JUMPDEST SWAP2 POP PUSH2 0x2492 DUP4 PUSH2 0x1F9B JUMP JUMPDEST SWAP3 POP DUP3 PUSH2 0x24A2 JUMPI PUSH2 0x24A1 PUSH2 0x244D JUMP JUMPDEST JUMPDEST DUP3 DUP3 DIV SWAP1 POP SWAP3 SWAP2 POP POP JUMP JUMPDEST PUSH1 0x0 PUSH1 0x40 DUP3 ADD SWAP1 POP PUSH2 0x24C2 PUSH1 0x0 DUP4 ADD DUP6 PUSH2 0x2060 JUMP JUMPDEST PUSH2 0x24CF PUSH1 0x20 DUP4 ADD DUP5 PUSH2 0x2369 JUMP JUMPDEST SWAP4 SWAP3 POP POP POP JUMP JUMPDEST PUSH1 0x0 PUSH2 0x24E1 DUP3 PUSH2 0x1F9B JUMP JUMPDEST SWAP2 POP PUSH2 0x24EC DUP4 PUSH2 0x1F9B JUMP JUMPDEST SWAP3 POP DUP3 DUP3 ADD SWAP1 POP DUP1 DUP3 GT ISZERO PUSH2 0x2504 JUMPI PUSH2 0x2503 PUSH2 0x23DC JUMP JUMPDEST JUMPDEST SWAP3 SWAP2 POP POP JUMP JUMPDEST PUSH2 0x2513 DUP2 PUSH2 0x1A41 JUMP JUMPDEST DUP3 MSTORE POP POP JUMP JUMPDEST PUSH1 0x0 PUSH3 0xFFFFFF DUP3 AND SWAP1 POP SWAP2 SWAP1 POP JUMP JUMPDEST PUSH2 0x2531 DUP2 PUSH2 0x2519 JUMP JUMPDEST DUP3 MSTORE POP POP JUMP JUMPDEST PUSH2 0x2540 DUP2 PUSH2 0x1F9B JUMP JUMPDEST DUP3 MSTORE POP POP JUMP JUMPDEST PUSH2 0x254F DUP2 PUSH2 0x195C JUMP JUMPDEST DUP3 MSTORE POP POP JUMP JUMPDEST PUSH2 0x100 DUP3 ADD PUSH1 0x0 DUP3 ADD MLOAD PUSH2 0x256C PUSH1 0x0 DUP6 ADD DUP3 PUSH2 0x250A JUMP JUMPDEST POP PUSH1 0x20 DUP3 ADD MLOAD PUSH2 0x257F PUSH1 0x20 DUP6 ADD DUP3 PUSH2 0x250A JUMP JUMPDEST POP PUSH1 0x40 DUP3 ADD MLOAD PUSH2 0x2592 PUSH1 0x40 DUP6 ADD DUP3 PUSH2 0x2528 JUMP JUMPDEST POP PUSH1 0x60 DUP3 ADD MLOAD PUSH2 0x25A5 PUSH1 0x60 DUP6 ADD DUP3 PUSH2 0x250A JUMP JUMPDEST POP PUSH1 0x80 DUP3 ADD MLOAD PUSH2 0x25B8 PUSH1 0x80 DUP6 ADD DUP3 PUSH2 0x2537 JUMP JUMPDEST POP PUSH1 0xA0 DUP3 ADD MLOAD PUSH2 0x25CB PUSH1 0xA0 DUP6 ADD DUP3 PUSH2 0x2537 JUMP JUMPDEST POP PUSH1 0xC0 DUP3 ADD MLOAD PUSH2 0x25DE PUSH1 0xC0 DUP6 ADD DUP3 PUSH2 0x2537 JUMP JUMPDEST POP PUSH1 0xE0 DUP3 ADD MLOAD PUSH2 0x25F1 PUSH1 0xE0 DUP6 ADD DUP3 PUSH2 0x2546 JUMP JUMPDEST POP POP POP POP JUMP JUMPDEST PUSH1 0x0 PUSH2 0x100 DUP3 ADD SWAP1 POP PUSH2 0x260D PUSH1 0x0 DUP4 ADD DUP5 PUSH2 0x2555 JUMP JUMPDEST SWAP3 SWAP2 POP POP JUMP JUMPDEST PUSH1 0x0 PUSH1 0x80 DUP3 ADD SWAP1 POP PUSH2 0x2628 PUSH1 0x0 DUP4 ADD DUP8 PUSH2 0x2060 JUMP JUMPDEST PUSH2 0x2635 PUSH1 0x20 DUP4 ADD DUP7 PUSH2 0x2369 JUMP JUMPDEST PUSH2 0x2642 PUSH1 0x40 DUP4 ADD DUP6 PUSH2 0x2060 JUMP JUMPDEST PUSH2 0x264F PUSH1 0x60 DUP4 ADD DUP5 PUSH2 0x1932 JUMP JUMPDEST SWAP6 SWAP5 POP POP POP POP POP JUMP JUMPDEST PUSH1 0x0 PUSH1 0xA0 DUP3 ADD SWAP1 POP PUSH2 0x266D PUSH1 0x0 DUP4 ADD DUP9 PUSH2 0x2060 JUMP JUMPDEST PUSH2 0x267A PUSH1 0x20 DUP4 ADD DUP8 PUSH2 0x2060 JUMP JUMPDEST PUSH2 0x2687 PUSH1 0x40 DUP4 ADD DUP7 PUSH2 0x2369 JUMP JUMPDEST PUSH2 0x2694 PUSH1 0x60 DUP4 ADD DUP6 PUSH2 0x2060 JUMP JUMPDEST PUSH2 0x26A1 PUSH1 0x80 DUP4 ADD DUP5 PUSH2 0x2060 JUMP JUMPDEST SWAP7 SWAP6 POP POP POP POP POP POP JUMP JUMPDEST PUSH1 0x0 DUP2 SWAP1 POP SWAP2 SWAP1 POP JUMP JUMPDEST PUSH1 0x0 PUSH2 0x26D0 PUSH2 0x26CB PUSH2 0x26C6 DUP5 PUSH2 0x26AB JUMP JUMPDEST PUSH2 0x197C JUMP JUMPDEST PUSH2 0x1924 JUMP JUMPDEST SWAP1 POP SWAP2 SWAP1 POP JUMP JUMPDEST PUSH2 0x26E0 DUP2 PUSH2 0x26B5 JUMP JUMPDEST DUP3 MSTORE POP POP JUMP JUMPDEST PUSH1 0x0 PUSH1 0xA0 DUP3 ADD SWAP1 POP PUSH2 0x26FB PUSH1 0x0 DUP4 ADD DUP9 PUSH2 0x2060 JUMP JUMPDEST PUSH2 0x2708 PUSH1 0x20 DUP4 ADD DUP8 PUSH2 0x2369 JUMP JUMPDEST PUSH2 0x2715 PUSH1 0x40 DUP4 ADD DUP7 PUSH2 0x2369 JUMP JUMPDEST PUSH2 0x2722 PUSH1 0x60 DUP4 ADD DUP6 PUSH2 0x26D7 JUMP JUMPDEST PUSH2 0x272F PUSH1 0x80 DUP4 ADD DUP5 PUSH2 0x2060 JUMP JUMPDEST SWAP7 SWAP6 POP POP POP POP POP POP JUMP JUMPDEST PUSH1 0x0 PUSH1 0xC0 DUP3 ADD SWAP1 POP PUSH2 0x274E PUSH1 0x0 DUP4 ADD DUP10 PUSH2 0x2060 JUMP JUMPDEST PUSH2 0x275B PUSH1 0x20 DUP4 ADD DUP9 PUSH2 0x2060 JUMP JUMPDEST PUSH2 0x2768 PUSH1 0x40 DUP4 ADD DUP8 PUSH2 0x2369 JUMP JUMPDEST PUSH2 0x2775 PUSH1 0x60 DUP4 ADD DUP7 PUSH2 0x2369 JUMP JUMPDEST PUSH2 0x2782 PUSH1 0x80 DUP4 ADD DUP6 PUSH2 0x2060 JUMP JUMPDEST PUSH2 0x278F PUSH1 0xA0 DUP4 ADD DUP5 PUSH2 0x2060 JUMP JUMPDEST SWAP8 SWAP7 POP POP POP POP POP POP POP JUMP JUMPDEST PUSH32 0x5361666545524332303A204552433230206F7065726174696F6E20646964206E PUSH1 0x0 DUP3 ADD MSTORE PUSH32 0x6F74207375636365656400000000000000000000000000000000000000000000 PUSH1 0x20 DUP3 ADD MSTORE POP JUMP JUMPDEST PUSH1 0x0 PUSH2 0x27F6 PUSH1 0x2A DUP4 PUSH2 0x2214 JUMP JUMPDEST SWAP2 POP PUSH2 0x2801 DUP3 PUSH2 0x279A JUMP JUMPDEST PUSH1 0x40 DUP3 ADD SWAP1 POP SWAP2 SWAP1 POP JUMP JUMPDEST PUSH1 0x0 PUSH1 0x20 DUP3 ADD SWAP1 POP DUP2 DUP2 SUB PUSH1 0x0 DUP4 ADD MSTORE PUSH2 0x2825 DUP2 PUSH2 0x27E9 JUMP JUMPDEST SWAP1 POP SWAP2 SWAP1 POP JUMP JUMPDEST PUSH1 0x0 PUSH1 0x40 DUP3 ADD SWAP1 POP PUSH2 0x2841 PUSH1 0x0 DUP4 ADD DUP6 PUSH2 0x2060 JUMP JUMPDEST PUSH2 0x284E PUSH1 0x20 DUP4 ADD DUP5 PUSH2 0x2060 JUMP JUMPDEST SWAP4 SWAP3 POP POP POP JUMP JUMPDEST PUSH1 0x0 PUSH2 0x2870 PUSH2 0x286B PUSH2 0x2866 DUP5 PUSH2 0x26AB JUMP JUMPDEST PUSH2 0x197C JUMP JUMPDEST PUSH2 0x19F6 JUMP JUMPDEST SWAP1 POP SWAP2 SWAP1 POP JUMP JUMPDEST PUSH2 0x2880 DUP2 PUSH2 0x2855 JUMP JUMPDEST DUP3 MSTORE POP POP JUMP JUMPDEST PUSH1 0x0 PUSH1 0x40 DUP3 ADD SWAP1 POP PUSH2 0x289B PUSH1 0x0 DUP4 ADD DUP6 PUSH2 0x2060 JUMP JUMPDEST PUSH2 0x28A8 PUSH1 0x20 DUP4 ADD DUP5 PUSH2 0x2877 JUMP JUMPDEST SWAP4 SWAP3 POP POP POP JUMP JUMPDEST PUSH1 0x0 DUP2 MLOAD SWAP1 POP SWAP2 SWAP1 POP JUMP JUMPDEST PUSH1 0x0 DUP2 SWAP1 POP SWAP3 SWAP2 POP POP JUMP JUMPDEST PUSH1 0x0 JUMPDEST DUP4 DUP2 LT ISZERO PUSH2 0x28E3 JUMPI DUP1 DUP3 ADD MLOAD DUP2 DUP5 ADD MSTORE PUSH1 0x20 DUP2 ADD SWAP1 POP PUSH2 0x28C8 JUMP JUMPDEST PUSH1 0x0 DUP5 DUP5 ADD MSTORE POP POP POP POP JUMP JUMPDEST PUSH1 0x0 PUSH2 0x28FA DUP3 PUSH2 0x28AF JUMP JUMPDEST PUSH2 0x2904 DUP2 DUP6 PUSH2 0x28BA JUMP JUMPDEST SWAP4 POP PUSH2 0x2914 DUP2 DUP6 PUSH1 0x20 DUP7 ADD PUSH2 0x28C5 JUMP JUMPDEST DUP1 DUP5 ADD SWAP2 POP POP SWAP3 SWAP2 POP POP JUMP JUMPDEST PUSH1 0x0 PUSH2 0x292C DUP3 DUP5 PUSH2 0x28EF JUMP JUMPDEST SWAP2 POP DUP2 SWAP1 POP SWAP3 SWAP2 POP POP JUMP JUMPDEST PUSH1 0x0 DUP2 MLOAD SWAP1 POP SWAP2 SWAP1 POP JUMP JUMPDEST PUSH1 0x0 PUSH2 0x294D DUP3 PUSH2 0x2937 JUMP JUMPDEST PUSH2 0x2957 DUP2 DUP6 PUSH2 0x2214 JUMP JUMPDEST SWAP4 POP PUSH2 0x2967 DUP2 DUP6 PUSH1 0x20 DUP7 ADD PUSH2 0x28C5 JUMP JUMPDEST PUSH2 0x2970 DUP2 PUSH2 0x1AEC JUMP JUMPDEST DUP5 ADD SWAP2 POP POP SWAP3 SWAP2 POP POP JUMP JUMPDEST PUSH1 0x0 PUSH1 0x20 DUP3 ADD SWAP1 POP DUP2 DUP2 SUB PUSH1 0x0 DUP4 ADD MSTORE PUSH2 0x2995 DUP2 DUP5 PUSH2 0x2942 JUMP JUMPDEST SWAP1 POP SWAP3 SWAP2 POP POP JUMP INVALID LOG2 PUSH5 0x6970667358 0x22 SLT KECCAK256 KECCAK256 DUP1 0xAF PUSH16 0x24BCF69CA1FFDF7F6CC4943AC29DFB28 0xCE SAR 0xF6 BALANCE PUSH25 0x9A6B409B534A1564736F6C6343000818003300000000000000 "},"methodIdentifiers":{"AAVE_REFERRAL_CODE()":"05a363de","NO_PARAM_MAPPING()":"2fa13cb8","RETURN_MAX_INDEX_VALUE()":"9864dcdd","RETURN_MIN_INDEX_VALUE()":"8bcb6216","SUB_MAX_INDEX_VALUE()":"d3c2e7ed","SUB_MIN_INDEX_VALUE()":"0f2eee42","actionType()":"247492f8","adminData()":"06d2ae8e","executeAction(bytes,bytes32[],uint8[],bytes32[])":"8df50f74","executeActionDirect(bytes)":"389f87ff","isDSProxy(address)":"1c451ceb","kill()":"41c0e1b5","logger()":"f24ccbfe","registry()":"7b103999","withdrawStuckFunds(address,address,uint256)":"c579d490"}}}}}