{
  "_format": "hh-sol-artifact-1",
  "contractName": "TestImplementationV2",
  "sourceName": "contracts/tests/testImplementation.sol",
  "abi": [
    {
      "anonymous": false,
      "inputs": [
        {
          "indexed": false,
          "internalType": "uint256",
          "name": "newValue",
          "type": "uint256"
        }
      ],
      "name": "ValueChanged",
      "type": "event"
    },
    {
      "inputs": [],
      "name": "getAdditionalData",
      "outputs": [
        {
          "internalType": "string",
          "name": "",
          "type": "string"
        }
      ],
      "stateMutability": "view",
      "type": "function"
    },
    {
      "inputs": [],
      "name": "getImplementationAddress",
      "outputs": [
        {
          "internalType": "address",
          "name": "",
          "type": "address"
        }
      ],
      "stateMutability": "view",
      "type": "function"
    },
    {
      "inputs": [],
      "name": "getValue",
      "outputs": [
        {
          "internalType": "uint256",
          "name": "",
          "type": "uint256"
        }
      ],
      "stateMutability": "view",
      "type": "function"
    },
    {
      "inputs": [],
      "name": "getVersion",
      "outputs": [
        {
          "internalType": "string",
          "name": "",
          "type": "string"
        }
      ],
      "stateMutability": "pure",
      "type": "function"
    },
    {
      "inputs": [
        {
          "internalType": "string",
          "name": "initialVersion",
          "type": "string"
        }
      ],
      "name": "initialize",
      "outputs": [],
      "stateMutability": "nonpayable",
      "type": "function"
    },
    {
      "inputs": [
        {
          "internalType": "string",
          "name": "data",
          "type": "string"
        }
      ],
      "name": "setAdditionalData",
      "outputs": [],
      "stateMutability": "nonpayable",
      "type": "function"
    },
    {
      "inputs": [
        {
          "internalType": "uint256",
          "name": "newValue",
          "type": "uint256"
        }
      ],
      "name": "setValue",
      "outputs": [],
      "stateMutability": "nonpayable",
      "type": "function"
    }
  ],
  "bytecode": "0x6080604052348015600f57600080fd5b5061099a8061001f6000396000f3fe608060405234801561001057600080fd5b506004361061007d5760003560e01c8063552410771161005b57806355241077146100dc578063da0a116c146100f8578063f62d188814610114578063fc1727a8146101305761007d565b80630cbcae70146100825780630d8e6e2c146100a057806320965255146100be575b600080fd5b61008a61014e565b604051610097919061032e565b60405180910390f35b6100a8610156565b6040516100b591906103d9565b60405180910390f35b6100c6610193565b6040516100d39190610414565b60405180910390f35b6100f660048036038101906100f1919061046f565b61019c565b005b610112600480360381019061010d91906105d1565b6101dd565b005b61012e600480360381019061012991906105d1565b6101f0565b005b61013861025b565b60405161014591906103d9565b60405180910390f35b600030905090565b60606040518060400160405280600281526020017f5632000000000000000000000000000000000000000000000000000000000000815250905090565b60008054905090565b806000819055507f93fe6d397c74fdf1402a8b72e47b68512f0510d7b98a4bc4cbdf6ac7108b3c59816040516101d29190610414565b60405180910390a150565b80600290816101ec9190610826565b5050565b6000600180546101ff90610649565b905014610241576040517f08c379a000000000000000000000000000000000000000000000000000000000815260040161023890610944565b60405180910390fd5b80600190816102509190610826565b506000808190555050565b60606002805461026a90610649565b80601f016020809104026020016040519081016040528092919081815260200182805461029690610649565b80156102e35780601f106102b8576101008083540402835291602001916102e3565b820191906000526020600020905b8154815290600101906020018083116102c657829003601f168201915b5050505050905090565b600073ffffffffffffffffffffffffffffffffffffffff82169050919050565b6000610318826102ed565b9050919050565b6103288161030d565b82525050565b6000602082019050610343600083018461031f565b92915050565b600081519050919050565b600082825260208201905092915050565b60005b83811015610383578082015181840152602081019050610368565b60008484015250505050565b6000601f19601f8301169050919050565b60006103ab82610349565b6103b58185610354565b93506103c5818560208601610365565b6103ce8161038f565b840191505092915050565b600060208201905081810360008301526103f381846103a0565b905092915050565b6000819050919050565b61040e816103fb565b82525050565b60006020820190506104296000830184610405565b92915050565b6000604051905090565b600080fd5b600080fd5b61044c816103fb565b811461045757600080fd5b50565b60008135905061046981610443565b92915050565b60006020828403121561048557610484610439565b5b60006104938482850161045a565b91505092915050565b600080fd5b600080fd5b7f4e487b7100000000000000000000000000000000000000000000000000000000600052604160045260246000fd5b6104de8261038f565b810181811067ffffffffffffffff821117156104fd576104fc6104a6565b5b80604052505050565b600061051061042f565b905061051c82826104d5565b919050565b600067ffffffffffffffff82111561053c5761053b6104a6565b5b6105458261038f565b9050602081019050919050565b82818337600083830152505050565b600061057461056f84610521565b610506565b9050828152602081018484840111156105905761058f6104a1565b5b61059b848285610552565b509392505050565b600082601f8301126105b8576105b761049c565b5b81356105c8848260208601610561565b91505092915050565b6000602082840312156105e7576105e6610439565b5b600082013567ffffffffffffffff8111156106055761060461043e565b5b610611848285016105a3565b91505092915050565b7f4e487b7100000000000000000000000000000000000000000000000000000000600052602260045260246000fd5b6000600282049050600182168061066157607f821691505b6020821081036106745761067361061a565b5b50919050565b60008190508160005260206000209050919050565b60006020601f8301049050919050565b600082821b905092915050565b6000600883026106dc7fffffffffffffffffffffffffffffffffffffffffffffffffffffffffffffffff8261069f565b6106e6868361069f565b95508019841693508086168417925050509392505050565b6000819050919050565b600061072361071e610719846103fb565b6106fe565b6103fb565b9050919050565b6000819050919050565b61073d83610708565b6107516107498261072a565b8484546106ac565b825550505050565b600090565b610766610759565b610771818484610734565b505050565b5b818110156107955761078a60008261075e565b600181019050610777565b5050565b601f8211156107da576107ab8161067a565b6107b48461068f565b810160208510156107c3578190505b6107d76107cf8561068f565b830182610776565b50505b505050565b600082821c905092915050565b60006107fd600019846008026107df565b1980831691505092915050565b600061081683836107ec565b9150826002028217905092915050565b61082f82610349565b67ffffffffffffffff811115610848576108476104a6565b5b6108528254610649565b61085d828285610799565b600060209050601f831160018114610890576000841561087e578287015190505b610888858261080a565b8655506108f0565b601f19841661089e8661067a565b60005b828110156108c6578489015182556001820191506020850194506020810190506108a1565b868310156108e357848901516108df601f8916826107ec565b8355505b6001600288020188555050505b505050505050565b7f416c726561647920696e697469616c697a656400000000000000000000000000600082015250565b600061092e601383610354565b9150610939826108f8565b602082019050919050565b6000602082019050818103600083015261095d81610921565b905091905056fea2646970667358221220ec874a630ddaca61246063ea7682f3be2f40f70e0d7e91ff0a248a7ca28f465364736f6c634300081c0033",
  "linkReferences": {},
  "deployedLinkReferences": {}
}