{
  "_format": "hh-sol-artifact-1",
  "contractName": "DSProxyCache",
  "sourceName": "contracts/DSProxy/proxy/proxy.sol",
  "abi": [
    {
      "inputs": [
        {
          "internalType": "bytes32",
          "name": "",
          "type": "bytes32"
        }
      ],
      "name": "cache",
      "outputs": [
        {
          "internalType": "address",
          "name": "",
          "type": "address"
        }
      ],
      "stateMutability": "view",
      "type": "function"
    },
    {
      "inputs": [
        {
          "internalType": "bytes",
          "name": "_code",
          "type": "bytes"
        }
      ],
      "name": "read",
      "outputs": [
        {
          "internalType": "address",
          "name": "",
          "type": "address"
        }
      ],
      "stateMutability": "view",
      "type": "function"
    },
    {
      "inputs": [
        {
          "internalType": "bytes",
          "name": "_code",
          "type": "bytes"
        }
      ],
      "name": "write",
      "outputs": [
        {
          "internalType": "address",
          "name": "target",
          "type": "address"
        }
      ],
      "stateMutability": "nonpayable",
      "type": "function"
    }
  ],
  "bytecode": "0x608060405234801561001057600080fd5b50610464806100206000396000f3fe608060405234801561001057600080fd5b50600436106100415760003560e01c80637ed0c3b2146100465780638bf4515c1461007657806399eb59b9146100a6575b600080fd5b610060600480360381019061005b9190610326565b6100d6565b60405161006d91906103b0565b60405180910390f35b610090600480360381019061008b9190610326565b610151565b60405161009d91906103b0565b60405180910390f35b6100c060048036038101906100bb9190610401565b610199565b6040516100cd91906103b0565b60405180910390f35b60008151602083016000f09050803b6100ee57600080fd5b6000828051906020012090508160008083815260200190815260200160002060006101000a81548173ffffffffffffffffffffffffffffffffffffffff021916908373ffffffffffffffffffffffffffffffffffffffff16021790555050919050565b6000808280519060200120905060008082815260200190815260200160002060009054906101000a900473ffffffffffffffffffffffffffffffffffffffff16915050919050565b60006020528060005260406000206000915054906101000a900473ffffffffffffffffffffffffffffffffffffffff1681565b6000604051905090565b600080fd5b600080fd5b600080fd5b600080fd5b6000601f19601f8301169050919050565b7f4e487b7100000000000000000000000000000000000000000000000000000000600052604160045260246000fd5b610233826101ea565b810181811067ffffffffffffffff82111715610252576102516101fb565b5b80604052505050565b60006102656101cc565b9050610271828261022a565b919050565b600067ffffffffffffffff821115610291576102906101fb565b5b61029a826101ea565b9050602081019050919050565b82818337600083830152505050565b60006102c96102c484610276565b61025b565b9050828152602081018484840111156102e5576102e46101e5565b5b6102f08482856102a7565b509392505050565b600082601f83011261030d5761030c6101e0565b5b813561031d8482602086016102b6565b91505092915050565b60006020828403121561033c5761033b6101d6565b5b600082013567ffffffffffffffff81111561035a576103596101db565b5b610366848285016102f8565b91505092915050565b600073ffffffffffffffffffffffffffffffffffffffff82169050919050565b600061039a8261036f565b9050919050565b6103aa8161038f565b82525050565b60006020820190506103c560008301846103a1565b92915050565b6000819050919050565b6103de816103cb565b81146103e957600080fd5b50565b6000813590506103fb816103d5565b92915050565b600060208284031215610417576104166101d6565b5b6000610425848285016103ec565b9150509291505056fea26469706673582212200cfdb8216689af00bbaf6a65f57f80e936de368fa3dab55b51969466d0fad97a64736f6c63430008180033",
  "linkReferences": {},
  "deployedLinkReferences": {}
}