{
  "_format": "hh-sol-artifact-1",
  "contractName": "DSProxy",
  "sourceName": "contracts/DSProxy/proxy/proxy.sol",
  "abi": [
    {
      "inputs": [
        {
          "internalType": "address",
          "name": "_cacheAddr",
          "type": "address"
        }
      ],
      "stateMutability": "nonpayable",
      "type": "constructor"
    },
    {
      "anonymous": true,
      "inputs": [
        {
          "indexed": true,
          "internalType": "bytes4",
          "name": "sig",
          "type": "bytes4"
        },
        {
          "indexed": true,
          "internalType": "address",
          "name": "guy",
          "type": "address"
        },
        {
          "indexed": true,
          "internalType": "bytes32",
          "name": "foo",
          "type": "bytes32"
        },
        {
          "indexed": true,
          "internalType": "bytes32",
          "name": "bar",
          "type": "bytes32"
        },
        {
          "indexed": false,
          "internalType": "uint256",
          "name": "wad",
          "type": "uint256"
        },
        {
          "indexed": false,
          "internalType": "bytes",
          "name": "fax",
          "type": "bytes"
        }
      ],
      "name": "LogNote",
      "type": "event"
    },
    {
      "anonymous": false,
      "inputs": [
        {
          "indexed": true,
          "internalType": "address",
          "name": "authority",
          "type": "address"
        }
      ],
      "name": "LogSetAuthority",
      "type": "event"
    },
    {
      "anonymous": false,
      "inputs": [
        {
          "indexed": true,
          "internalType": "address",
          "name": "owner",
          "type": "address"
        }
      ],
      "name": "LogSetOwner",
      "type": "event"
    },
    {
      "inputs": [],
      "name": "authority",
      "outputs": [
        {
          "internalType": "contract DSAuthority",
          "name": "",
          "type": "address"
        }
      ],
      "stateMutability": "view",
      "type": "function"
    },
    {
      "inputs": [],
      "name": "cache",
      "outputs": [
        {
          "internalType": "contract DSProxyCache",
          "name": "",
          "type": "address"
        }
      ],
      "stateMutability": "view",
      "type": "function"
    },
    {
      "inputs": [
        {
          "internalType": "address",
          "name": "_target",
          "type": "address"
        },
        {
          "internalType": "bytes",
          "name": "_data",
          "type": "bytes"
        }
      ],
      "name": "execute",
      "outputs": [
        {
          "internalType": "bytes32",
          "name": "response",
          "type": "bytes32"
        }
      ],
      "stateMutability": "payable",
      "type": "function"
    },
    {
      "inputs": [],
      "name": "owner",
      "outputs": [
        {
          "internalType": "address",
          "name": "",
          "type": "address"
        }
      ],
      "stateMutability": "view",
      "type": "function"
    },
    {
      "inputs": [
        {
          "internalType": "contract DSAuthority",
          "name": "authority_",
          "type": "address"
        }
      ],
      "name": "setAuthority",
      "outputs": [],
      "stateMutability": "nonpayable",
      "type": "function"
    },
    {
      "inputs": [
        {
          "internalType": "address",
          "name": "owner_",
          "type": "address"
        }
      ],
      "name": "setOwner",
      "outputs": [],
      "stateMutability": "nonpayable",
      "type": "function"
    },
    {
      "inputs": [],
      "name": "withdrawETH",
      "outputs": [],
      "stateMutability": "nonpayable",
      "type": "function"
    },
    {
      "inputs": [
        {
          "internalType": "address",
          "name": "token",
          "type": "address"
        }
      ],
      "name": "withdrawToken",
      "outputs": [],
      "stateMutability": "nonpayable",
      "type": "function"
    },
    {
      "stateMutability": "payable",
      "type": "receive"
    }
  ],
  "bytecode": "0x60806040523480156200001157600080fd5b5060405162001ca338038062001ca38339818101604052810190620000379190620004a8565b33600160006101000a81548173ffffffffffffffffffffffffffffffffffffffff021916908373ffffffffffffffffffffffffffffffffffffffff1602179055503373ffffffffffffffffffffffffffffffffffffffff167fce241d7ca1f669fee44b6fc00b8eba2df3bb514eed0f6f668f8f89096e81ed9460405160405180910390a2620000cc81620000d460201b60201c565b5050620007a4565b60006200010c336000357fffffffff00000000000000000000000000000000000000000000000000000000166200029360201b60201c565b6200014e576040517f08c379a000000000000000000000000000000000000000000000000000000000815260040162000145906200053b565b60405180910390fd5b6000806004359150602435905080823373ffffffffffffffffffffffffffffffffffffffff166000357fffffffff00000000000000000000000000000000000000000000000000000000167bffffffffffffffffffffffffffffffffffffffffffffffffffffffff191634600036604051620001cd93929190620005dc565b60405180910390a4600073ffffffffffffffffffffffffffffffffffffffff168473ffffffffffffffffffffffffffffffffffffffff160362000247576040517f08c379a00000000000000000000000000000000000000000000000000000000081526004016200023e9062000688565b60405180910390fd5b83600260006101000a81548173ffffffffffffffffffffffffffffffffffffffff021916908373ffffffffffffffffffffffffffffffffffffffff160217905550600192505050919050565b60003073ffffffffffffffffffffffffffffffffffffffff168373ffffffffffffffffffffffffffffffffffffffff1603620002d3576001905062000438565b600160009054906101000a900473ffffffffffffffffffffffffffffffffffffffff1673ffffffffffffffffffffffffffffffffffffffff168373ffffffffffffffffffffffffffffffffffffffff160362000333576001905062000438565b600073ffffffffffffffffffffffffffffffffffffffff1660008054906101000a900473ffffffffffffffffffffffffffffffffffffffff1673ffffffffffffffffffffffffffffffffffffffff160362000392576000905062000438565b60008054906101000a900473ffffffffffffffffffffffffffffffffffffffff1673ffffffffffffffffffffffffffffffffffffffff1663b70096138430856040518463ffffffff1660e01b8152600401620003f193929190620006f8565b602060405180830381865afa1580156200040f573d6000803e3d6000fd5b505050506040513d601f19601f8201168201806040525081019062000435919062000772565b90505b92915050565b600080fd5b600073ffffffffffffffffffffffffffffffffffffffff82169050919050565b6000620004708262000443565b9050919050565b620004828162000463565b81146200048e57600080fd5b50565b600081519050620004a28162000477565b92915050565b600060208284031215620004c157620004c06200043e565b5b6000620004d18482850162000491565b91505092915050565b600082825260208201905092915050565b7f4e6f7420617574686f72697a6564000000000000000000000000000000000000600082015250565b600062000523600e83620004da565b91506200053082620004eb565b602082019050919050565b60006020820190508181036000830152620005568162000514565b9050919050565b6000819050919050565b62000572816200055d565b82525050565b600082825260208201905092915050565b82818337600083830152505050565b6000601f19601f8301169050919050565b6000620005b7838562000578565b9350620005c683858462000589565b620005d18362000598565b840190509392505050565b6000604082019050620005f3600083018662000567565b818103602083015262000608818486620005a9565b9050949350505050565b7f445350726f78793a20636163686520616464726573732069732072657175697260008201527f6564000000000000000000000000000000000000000000000000000000000000602082015250565b600062000670602283620004da565b91506200067d8262000612565b604082019050919050565b60006020820190508181036000830152620006a38162000661565b9050919050565b620006b58162000463565b82525050565b60007fffffffff0000000000000000000000000000000000000000000000000000000082169050919050565b620006f281620006bb565b82525050565b60006060820190506200070f6000830186620006aa565b6200071e6020830185620006aa565b6200072d6040830184620006e7565b949350505050565b60008115159050919050565b6200074c8162000735565b81146200075857600080fd5b50565b6000815190506200076c8162000741565b92915050565b6000602082840312156200078b576200078a6200043e565b5b60006200079b848285016200075b565b91505092915050565b6114ef80620007b46000396000f3fe60806040526004361061007f5760003560e01c8063894760691161004e57806389476069146101385780638da5cb5b14610161578063bf7e214f1461018c578063e086e5ec146101b757610086565b806313af40351461008b5780631cff79cd146100b457806360c7d295146100e45780637a9e5e4b1461010f57610086565b3661008657005b600080fd5b34801561009757600080fd5b506100b260048036038101906100ad9190610c18565b6101ce565b005b6100ce60048036038101906100c99190610d8b565b6102e4565b6040516100db9190610e00565b60405180910390f35b3480156100f057600080fd5b506100f9610476565b6040516101069190610e7a565b60405180910390f35b34801561011b57600080fd5b5061013660048036038101906101319190610ed3565b61049c565b005b34801561014457600080fd5b5061015f600480360381019061015a9190610c18565b6105af565b005b34801561016d57600080fd5b50610176610835565b6040516101839190610f0f565b60405180910390f35b34801561019857600080fd5b506101a161085b565b6040516101ae9190610f4b565b60405180910390f35b3480156101c357600080fd5b506101cc61087f565b005b6101fc336000357fffffffff0000000000000000000000000000000000000000000000000000000016610a06565b61023b576040517f08c379a000000000000000000000000000000000000000000000000000000000815260040161023290610fc3565b60405180910390fd5b80600160006101000a81548173ffffffffffffffffffffffffffffffffffffffff021916908373ffffffffffffffffffffffffffffffffffffffff160217905550600160009054906101000a900473ffffffffffffffffffffffffffffffffffffffff1673ffffffffffffffffffffffffffffffffffffffff167fce241d7ca1f669fee44b6fc00b8eba2df3bb514eed0f6f668f8f89096e81ed9460405160405180910390a250565b6000610314336000357fffffffff0000000000000000000000000000000000000000000000000000000016610a06565b610353576040517f08c379a000000000000000000000000000000000000000000000000000000000815260040161034a90610fc3565b60405180910390fd5b6000806004359150602435905080823373ffffffffffffffffffffffffffffffffffffffff166000357fffffffff00000000000000000000000000000000000000000000000000000000167bffffffffffffffffffffffffffffffffffffffffffffffffffffffff1916346000366040516103d09392919061103a565b60405180910390a4600073ffffffffffffffffffffffffffffffffffffffff168573ffffffffffffffffffffffffffffffffffffffff1603610447576040517f08c379a000000000000000000000000000000000000000000000000000000000815260040161043e906110b8565b60405180910390fd5b60206000855160208701886113885a03f4600051935080156001810361046c57600080fd5b5050505092915050565b600260009054906101000a900473ffffffffffffffffffffffffffffffffffffffff1681565b6104ca336000357fffffffff0000000000000000000000000000000000000000000000000000000016610a06565b610509576040517f08c379a000000000000000000000000000000000000000000000000000000000815260040161050090610fc3565b60405180910390fd5b806000806101000a81548173ffffffffffffffffffffffffffffffffffffffff021916908373ffffffffffffffffffffffffffffffffffffffff16021790555060008054906101000a900473ffffffffffffffffffffffffffffffffffffffff1673ffffffffffffffffffffffffffffffffffffffff167f1abebea81bfa2637f28358c371278fb15ede7ea8dd28d2e03b112ff6d936ada460405160405180910390a250565b6105dd336000357fffffffff0000000000000000000000000000000000000000000000000000000016610a06565b61061c576040517f08c379a000000000000000000000000000000000000000000000000000000000815260040161061390610fc3565b60405180910390fd5b600073ffffffffffffffffffffffffffffffffffffffff168173ffffffffffffffffffffffffffffffffffffffff160361068b576040517f08c379a00000000000000000000000000000000000000000000000000000000081526004016106829061114a565b60405180910390fd5b600081905060008173ffffffffffffffffffffffffffffffffffffffff166370a08231306040518263ffffffff1660e01b81526004016106cb9190610f0f565b602060405180830381865afa1580156106e8573d6000803e3d6000fd5b505050506040513d601f19601f8201168201806040525081019061070c9190611196565b905060008111610751576040517f08c379a00000000000000000000000000000000000000000000000000000000081526004016107489061120f565b60405180910390fd5b8173ffffffffffffffffffffffffffffffffffffffff1663a9059cbb600160009054906101000a900473ffffffffffffffffffffffffffffffffffffffff16836040518363ffffffff1660e01b81526004016107ae92919061122f565b6020604051808303816000875af11580156107cd573d6000803e3d6000fd5b505050506040513d601f19601f820116820180604052508101906107f19190611290565b610830576040517f08c379a000000000000000000000000000000000000000000000000000000000815260040161082790611309565b60405180910390fd5b505050565b600160009054906101000a900473ffffffffffffffffffffffffffffffffffffffff1681565b60008054906101000a900473ffffffffffffffffffffffffffffffffffffffff1681565b6108ad336000357fffffffff0000000000000000000000000000000000000000000000000000000016610a06565b6108ec576040517f08c379a00000000000000000000000000000000000000000000000000000000081526004016108e390610fc3565b60405180910390fd5b600047905060008111610934576040517f08c379a000000000000000000000000000000000000000000000000000000000815260040161092b90611375565b60405180910390fd5b6000600160009054906101000a900473ffffffffffffffffffffffffffffffffffffffff1673ffffffffffffffffffffffffffffffffffffffff168260405161097c906113c6565b60006040518083038185875af1925050503d80600081146109b9576040519150601f19603f3d011682016040523d82523d6000602084013e6109be565b606091505b5050905080610a02576040517f08c379a00000000000000000000000000000000000000000000000000000000081526004016109f990611427565b60405180910390fd5b5050565b60003073ffffffffffffffffffffffffffffffffffffffff168373ffffffffffffffffffffffffffffffffffffffff1603610a445760019050610ba0565b600160009054906101000a900473ffffffffffffffffffffffffffffffffffffffff1673ffffffffffffffffffffffffffffffffffffffff168373ffffffffffffffffffffffffffffffffffffffff1603610aa25760019050610ba0565b600073ffffffffffffffffffffffffffffffffffffffff1660008054906101000a900473ffffffffffffffffffffffffffffffffffffffff1673ffffffffffffffffffffffffffffffffffffffff1603610aff5760009050610ba0565b60008054906101000a900473ffffffffffffffffffffffffffffffffffffffff1673ffffffffffffffffffffffffffffffffffffffff1663b70096138430856040518463ffffffff1660e01b8152600401610b5c93929190611482565b602060405180830381865afa158015610b79573d6000803e3d6000fd5b505050506040513d601f19601f82011682018060405250810190610b9d9190611290565b90505b92915050565b6000604051905090565b600080fd5b600080fd5b600073ffffffffffffffffffffffffffffffffffffffff82169050919050565b6000610be582610bba565b9050919050565b610bf581610bda565b8114610c0057600080fd5b50565b600081359050610c1281610bec565b92915050565b600060208284031215610c2e57610c2d610bb0565b5b6000610c3c84828501610c03565b91505092915050565b600080fd5b600080fd5b6000601f19601f8301169050919050565b7f4e487b7100000000000000000000000000000000000000000000000000000000600052604160045260246000fd5b610c9882610c4f565b810181811067ffffffffffffffff82111715610cb757610cb6610c60565b5b80604052505050565b6000610cca610ba6565b9050610cd68282610c8f565b919050565b600067ffffffffffffffff821115610cf657610cf5610c60565b5b610cff82610c4f565b9050602081019050919050565b82818337600083830152505050565b6000610d2e610d2984610cdb565b610cc0565b905082815260208101848484011115610d4a57610d49610c4a565b5b610d55848285610d0c565b509392505050565b600082601f830112610d7257610d71610c45565b5b8135610d82848260208601610d1b565b91505092915050565b60008060408385031215610da257610da1610bb0565b5b6000610db085828601610c03565b925050602083013567ffffffffffffffff811115610dd157610dd0610bb5565b5b610ddd85828601610d5d565b9150509250929050565b6000819050919050565b610dfa81610de7565b82525050565b6000602082019050610e156000830184610df1565b92915050565b6000819050919050565b6000610e40610e3b610e3684610bba565b610e1b565b610bba565b9050919050565b6000610e5282610e25565b9050919050565b6000610e6482610e47565b9050919050565b610e7481610e59565b82525050565b6000602082019050610e8f6000830184610e6b565b92915050565b6000610ea082610bda565b9050919050565b610eb081610e95565b8114610ebb57600080fd5b50565b600081359050610ecd81610ea7565b92915050565b600060208284031215610ee957610ee8610bb0565b5b6000610ef784828501610ebe565b91505092915050565b610f0981610bda565b82525050565b6000602082019050610f246000830184610f00565b92915050565b6000610f3582610e47565b9050919050565b610f4581610f2a565b82525050565b6000602082019050610f606000830184610f3c565b92915050565b600082825260208201905092915050565b7f4e6f7420617574686f72697a6564000000000000000000000000000000000000600082015250565b6000610fad600e83610f66565b9150610fb882610f77565b602082019050919050565b60006020820190508181036000830152610fdc81610fa0565b9050919050565b6000819050919050565b610ff681610fe3565b82525050565b600082825260208201905092915050565b60006110198385610ffc565b9350611026838584610d0c565b61102f83610c4f565b840190509392505050565b600060408201905061104f6000830186610fed565b818103602083015261106281848661100d565b9050949350505050565b7f64732d70726f78792d7461726765742d616464726573732d7265717569726564600082015250565b60006110a2602083610f66565b91506110ad8261106c565b602082019050919050565b600060208201905081810360008301526110d181611095565b9050919050565b7f445350726f78793a20746f6b656e20616464726573732069732072657175697260008201527f6564000000000000000000000000000000000000000000000000000000000000602082015250565b6000611134602283610f66565b915061113f826110d8565b604082019050919050565b6000602082019050818103600083015261116381611127565b9050919050565b61117381610fe3565b811461117e57600080fd5b50565b6000815190506111908161116a565b92915050565b6000602082840312156111ac576111ab610bb0565b5b60006111ba84828501611181565b91505092915050565b7f445350726f78793a206e6f20746f6b656e2062616c616e636500000000000000600082015250565b60006111f9601983610f66565b9150611204826111c3565b602082019050919050565b60006020820190508181036000830152611228816111ec565b9050919050565b60006040820190506112446000830185610f00565b6112516020830184610fed565b9392505050565b60008115159050919050565b61126d81611258565b811461127857600080fd5b50565b60008151905061128a81611264565b92915050565b6000602082840312156112a6576112a5610bb0565b5b60006112b48482850161127b565b91505092915050565b7f445350726f78793a20746f6b656e207472616e73666572206661696c65640000600082015250565b60006112f3601e83610f66565b91506112fe826112bd565b602082019050919050565b60006020820190508181036000830152611322816112e6565b9050919050565b7f445350726f78793a206e6f204554482062616c616e6365000000000000000000600082015250565b600061135f601783610f66565b915061136a82611329565b602082019050919050565b6000602082019050818103600083015261138e81611352565b9050919050565b600081905092915050565b50565b60006113b0600083611395565b91506113bb826113a0565b600082019050919050565b60006113d1826113a3565b9150819050919050565b7f445350726f78793a20455448207472616e73666572206661696c656400000000600082015250565b6000611411601c83610f66565b915061141c826113db565b602082019050919050565b6000602082019050818103600083015261144081611404565b9050919050565b60007fffffffff0000000000000000000000000000000000000000000000000000000082169050919050565b61147c81611447565b82525050565b60006060820190506114976000830186610f00565b6114a46020830185610f00565b6114b16040830184611473565b94935050505056fea26469706673582212206e70d5f039b3224673e7f5962683571ff88ac32347e64fcf0eb0aa953c50b69b64736f6c63430008180033",
  "linkReferences": {},
  "deployedLinkReferences": {}
}