{
  "_format": "hh-sol-artifact-1",
  "contractName": "AaveClosePosition",
  "sourceName": "contracts/AAVE/AAVEProtocol/AaveClosePosition.sol",
  "abi": [
    {
      "inputs": [],
      "name": "NonContractCall",
      "type": "error"
    },
    {
      "inputs": [],
      "name": "ReturnIndexValueError",
      "type": "error"
    },
    {
      "inputs": [],
      "name": "SenderNotAdmin",
      "type": "error"
    },
    {
      "inputs": [],
      "name": "SenderNotOwner",
      "type": "error"
    },
    {
      "inputs": [],
      "name": "SubIndexValueError",
      "type": "error"
    },
    {
      "anonymous": false,
      "inputs": [
        {
          "indexed": true,
          "internalType": "string",
          "name": "logName",
          "type": "string"
        },
        {
          "indexed": false,
          "internalType": "bytes",
          "name": "data",
          "type": "bytes"
        }
      ],
      "name": "ActionEvent",
      "type": "event"
    },
    {
      "inputs": [],
      "name": "AAVE_REFERRAL_CODE",
      "outputs": [
        {
          "internalType": "uint16",
          "name": "",
          "type": "uint16"
        }
      ],
      "stateMutability": "view",
      "type": "function"
    },
    {
      "inputs": [],
      "name": "NO_PARAM_MAPPING",
      "outputs": [
        {
          "internalType": "uint8",
          "name": "",
          "type": "uint8"
        }
      ],
      "stateMutability": "view",
      "type": "function"
    },
    {
      "inputs": [],
      "name": "RETURN_MAX_INDEX_VALUE",
      "outputs": [
        {
          "internalType": "uint8",
          "name": "",
          "type": "uint8"
        }
      ],
      "stateMutability": "view",
      "type": "function"
    },
    {
      "inputs": [],
      "name": "RETURN_MIN_INDEX_VALUE",
      "outputs": [
        {
          "internalType": "uint8",
          "name": "",
          "type": "uint8"
        }
      ],
      "stateMutability": "view",
      "type": "function"
    },
    {
      "inputs": [],
      "name": "SUB_MAX_INDEX_VALUE",
      "outputs": [
        {
          "internalType": "uint8",
          "name": "",
          "type": "uint8"
        }
      ],
      "stateMutability": "view",
      "type": "function"
    },
    {
      "inputs": [],
      "name": "SUB_MIN_INDEX_VALUE",
      "outputs": [
        {
          "internalType": "uint8",
          "name": "",
          "type": "uint8"
        }
      ],
      "stateMutability": "view",
      "type": "function"
    },
    {
      "inputs": [],
      "name": "actionType",
      "outputs": [
        {
          "internalType": "uint8",
          "name": "",
          "type": "uint8"
        }
      ],
      "stateMutability": "pure",
      "type": "function"
    },
    {
      "inputs": [],
      "name": "adminData",
      "outputs": [
        {
          "internalType": "contract AdminData",
          "name": "",
          "type": "address"
        }
      ],
      "stateMutability": "view",
      "type": "function"
    },
    {
      "inputs": [
        {
          "internalType": "uint256",
          "name": "totalCollateral",
          "type": "uint256"
        },
        {
          "internalType": "uint256",
          "name": "totalDebt",
          "type": "uint256"
        },
        {
          "internalType": "uint256",
          "name": "liquidationThreshold",
          "type": "uint256"
        }
      ],
      "name": "calculateSafeWithdrawAmount",
      "outputs": [
        {
          "internalType": "uint256",
          "name": "withdrawAmount",
          "type": "uint256"
        }
      ],
      "stateMutability": "view",
      "type": "function"
    },
    {
      "inputs": [
        {
          "internalType": "bytes",
          "name": "_callData",
          "type": "bytes"
        },
        {
          "internalType": "bytes32[]",
          "name": "_subdata",
          "type": "bytes32[]"
        },
        {
          "internalType": "uint8[]",
          "name": "_paramMapping",
          "type": "uint8[]"
        },
        {
          "internalType": "bytes32[]",
          "name": "_returnValues",
          "type": "bytes32[]"
        }
      ],
      "name": "executeAction",
      "outputs": [
        {
          "internalType": "bytes32",
          "name": "",
          "type": "bytes32"
        }
      ],
      "stateMutability": "payable",
      "type": "function"
    },
    {
      "inputs": [
        {
          "internalType": "bytes",
          "name": "_callData",
          "type": "bytes"
        }
      ],
      "name": "executeActionDirect",
      "outputs": [],
      "stateMutability": "payable",
      "type": "function"
    },
    {
      "inputs": [
        {
          "internalType": "address",
          "name": "_proxy",
          "type": "address"
        }
      ],
      "name": "isDSProxy",
      "outputs": [
        {
          "internalType": "bool",
          "name": "",
          "type": "bool"
        }
      ],
      "stateMutability": "view",
      "type": "function"
    },
    {
      "inputs": [],
      "name": "kill",
      "outputs": [],
      "stateMutability": "nonpayable",
      "type": "function"
    },
    {
      "inputs": [],
      "name": "logger",
      "outputs": [
        {
          "internalType": "contract DefisaverLogger",
          "name": "",
          "type": "address"
        }
      ],
      "stateMutability": "view",
      "type": "function"
    },
    {
      "inputs": [],
      "name": "registry",
      "outputs": [
        {
          "internalType": "contract DFSRegistry",
          "name": "",
          "type": "address"
        }
      ],
      "stateMutability": "view",
      "type": "function"
    },
    {
      "inputs": [
        {
          "internalType": "address",
          "name": "_token",
          "type": "address"
        },
        {
          "internalType": "address",
          "name": "_receiver",
          "type": "address"
        },
        {
          "internalType": "uint256",
          "name": "_amount",
          "type": "uint256"
        }
      ],
      "name": "withdrawStuckFunds",
      "outputs": [],
      "stateMutability": "nonpayable",
      "type": "function"
    }
  ],
  "bytecode": "0x608060405234801561001057600080fd5b506130a0806100206000396000f3fe6080604052600436106100f35760003560e01c80637b1039991161008a5780639864dcdd116100595780639864dcdd14610302578063c579d4901461032d578063d3c2e7ed14610356578063f24ccbfe14610381576100f3565b80637b1039991461023f5780638bcb62161461026a5780638df50f74146102955780638ebb7a77146102c5576100f3565b8063247492f8116100c6578063247492f8146101b65780632fa13cb8146101e1578063389f87ff1461020c57806341c0e1b514610228576100f3565b806305a363de146100f857806306d2ae8e146101235780630f2eee421461014e5780631c451ceb14610179575b600080fd5b34801561010457600080fd5b5061010d6103ac565b60405161011a9190611ccf565b60405180910390f35b34801561012f57600080fd5b506101386103b1565b6040516101459190611d69565b60405180910390f35b34801561015a57600080fd5b506101636103c9565b6040516101709190611da0565b60405180910390f35b34801561018557600080fd5b506101a0600480360381019061019b9190611e0d565b6103ce565b6040516101ad9190611e55565b60405180910390f35b3480156101c257600080fd5b506101cb610465565b6040516101d89190611da0565b60405180910390f35b3480156101ed57600080fd5b506101f6610480565b6040516102039190611da0565b60405180910390f35b61022660048036038101906102219190611fb6565b610485565b005b34801561023457600080fd5b5061023d6106d0565b005b34801561024b57600080fd5b506102546107d0565b6040516102619190612020565b60405180910390f35b34801561027657600080fd5b5061027f6107e8565b60405161028c9190611da0565b60405180910390f35b6102af60048036038101906102aa9190612228565b6107ed565b6040516102bc919061230e565b60405180910390f35b3480156102d157600080fd5b506102ec60048036038101906102e7919061235f565b610805565b6040516102f991906123c1565b60405180910390f35b34801561030e57600080fd5b50610317610961565b6040516103249190611da0565b60405180910390f35b34801561033957600080fd5b50610354600480360381019061034f91906123dc565b610966565b005b34801561036257600080fd5b5061036b610b11565b6040516103789190611da0565b60405180910390f35b34801561038d57600080fd5b50610396610b16565b6040516103a39190612450565b60405180910390f35b604081565b73d47d8d97cad12a866900eec6cde1962529f2535181565b608081565b6000735a15566417e6c1c9546523066500bddbc53f88c773ffffffffffffffffffffffffffffffffffffffff166329710388836040518263ffffffff1660e01b815260040161041d919061247a565b602060405180830381865afa15801561043a573d6000803e3d6000fd5b505050506040513d601f19601f8201168201806040525081019061045e91906124c1565b9050919050565b60006001600481111561047b5761047a6124ee565b5b905090565b600081565b61048d610b2e565b7382af49447d8a07e3bd95bd0d56f35241523fbab173ffffffffffffffffffffffffffffffffffffffff1663a9059cbb337382af49447d8a07e3bd95bd0d56f35241523fbab173ffffffffffffffffffffffffffffffffffffffff166370a08231306040518263ffffffff1660e01b815260040161050b919061247a565b602060405180830381865afa158015610528573d6000803e3d6000fd5b505050506040513d601f19601f8201168201806040525081019061054c9190612532565b6040518363ffffffff1660e01b815260040161056992919061255f565b6020604051808303816000875af1158015610588573d6000803e3d6000fd5b505050506040513d601f19601f820116820180604052508101906105ac91906124c1565b5073da10009cbd5d07dd0cecc66161fc93d7c9000da173ffffffffffffffffffffffffffffffffffffffff1663a9059cbb3373da10009cbd5d07dd0cecc66161fc93d7c9000da173ffffffffffffffffffffffffffffffffffffffff166370a08231306040518263ffffffff1660e01b815260040161062b919061247a565b602060405180830381865afa158015610648573d6000803e3d6000fd5b505050506040513d601f19601f8201168201806040525081019061066c9190612532565b6040518363ffffffff1660e01b815260040161068992919061255f565b6020604051808303816000875af11580156106a8573d6000803e3d6000fd5b505050506040513d601f19601f820116820180604052508101906106cc91906124c1565b5050565b3373ffffffffffffffffffffffffffffffffffffffff1673d47d8d97cad12a866900eec6cde1962529f2535173ffffffffffffffffffffffffffffffffffffffff1663f851a4406040518163ffffffff1660e01b8152600401602060405180830381865afa158015610746573d6000803e3d6000fd5b505050506040513d601f19601f8201168201806040525081019061076a919061259d565b73ffffffffffffffffffffffffffffffffffffffff16146107b7576040517fa6c827a900000000000000000000000000000000000000000000000000000000815260040160405180910390fd5b3373ffffffffffffffffffffffffffffffffffffffff16ff5b73bf1cac12db60819bfa71a328282ecbc1d40443aa81565b600181565b60006107f7610b2e565b6000801b9050949350505050565b60008073639fe6ab55c921f74e7fac1ee960c0b6293ba61273ffffffffffffffffffffffffffffffffffffffff1663feaf968c6040518163ffffffff1660e01b815260040160a060405180830381865afa158015610867573d6000803e3d6000fd5b505050506040513d601f19601f8201168201806040525081019061088b9190612642565b505050915050600081136108d4576040517f08c379a00000000000000000000000000000000000000000000000000000000081526004016108cb9061271a565b60405180910390fd5b60006012600a6108e4919061289c565b846004600a6108f3919061289c565b87670e92596fd629000061090791906128e7565b61091191906128e7565b61091b9190612958565b6109259190612958565b866109309190612989565b90506000610952827382af49447d8a07e3bd95bd0d56f35241523fbab1610d96565b90508093505050509392505050565b607f81565b3373ffffffffffffffffffffffffffffffffffffffff1673d47d8d97cad12a866900eec6cde1962529f2535173ffffffffffffffffffffffffffffffffffffffff16638da5cb5b6040518163ffffffff1660e01b8152600401602060405180830381865afa1580156109dc573d6000803e3d6000fd5b505050506040513d601f19601f82011682018060405250810190610a00919061259d565b73ffffffffffffffffffffffffffffffffffffffff1614610a4d576040517f19494c8a00000000000000000000000000000000000000000000000000000000815260040160405180910390fd5b73eeeeeeeeeeeeeeeeeeeeeeeeeeeeeeeeeeeeeeee73ffffffffffffffffffffffffffffffffffffffff168373ffffffffffffffffffffffffffffffffffffffff1603610ae0578173ffffffffffffffffffffffffffffffffffffffff166108fc829081150290604051600060405180830381858888f19350505050158015610ada573d6000803e3d6000fd5b50610b0c565b610b0b82828573ffffffffffffffffffffffffffffffffffffffff16610f149092919063ffffffff16565b5b505050565b60ff81565b73e6f9a5c850dbcd12bc64f40d692f537250adec3881565b600030905060005b600760ff168160ff161015610d9157600080600080610b6873a97684ead0e402dc232d5a977953df7ecbab3cdb610f9a565b73ffffffffffffffffffffffffffffffffffffffff1663bf92857c876040518263ffffffff1660e01b8152600401610ba0919061247a565b60c060405180830381865afa158015610bbd573d6000803e3d6000fd5b505050506040513d601f19601f82011682018060405250810190610be191906129bd565b9550509450509350935060008403610bfe57505050505050610d94565b670e92596fd6290000811015610c49576040517f08c379a0000000000000000000000000000000000000000000000000000000008152600401610c4090612a96565b60405180910390fd5b60008303610caa576000841115610c9f57610c9c73a97684ead0e402dc232d5a977953df7ecbab3cdb7fffffffffffffffffffffffffffffffffffffffffffffffffffffffffffffffff8860048a611012565b50505b505050505050610d94565b6000610cb7858585610805565b905060008111610cfc576040517f08c379a0000000000000000000000000000000000000000000000000000000008152600401610cf390612b28565b60405180910390fd5b610d1e73a97684ead0e402dc232d5a977953df7ecbab3cdb828960048b611012565b50506000610d5682897382af49447d8a07e3bd95bd0d56f35241523fbab173da10009cbd5d07dd0cecc66161fc93d7c9000da161115f565b9050610d7c73a97684ead0e402dc232d5a977953df7ecbab3cdb828a600060028d61133b565b50505050505050508080600101915050610b36565b50505b565b60008073639fe6ab55c921f74e7fac1ee960c0b6293ba61273ffffffffffffffffffffffffffffffffffffffff1663feaf968c6040518163ffffffff1660e01b815260040160a060405180830381865afa158015610df8573d6000803e3d6000fd5b505050506040513d601f19601f82011682018060405250810190610e1c9190612642565b50505091505060008113610e65576040517f08c379a0000000000000000000000000000000000000000000000000000000008152600401610e5c9061271a565b60405180910390fd5b60008373ffffffffffffffffffffffffffffffffffffffff1663313ce5676040518163ffffffff1660e01b8152600401602060405180830381865afa158015610eb2573d6000803e3d6000fd5b505050506040513d601f19601f82011682018060405250810190610ed69190612b5d565b60ff1690506000829050600082600a610eef9190612b8a565b87610efa91906128e7565b90508181610f089190612958565b94505050505092915050565b610f958363a9059cbb60e01b8484604051602401610f3392919061255f565b604051602081830303815290604052907bffffffffffffffffffffffffffffffffffffffffffffffffffffffff19166020820180517bffffffffffffffffffffffffffffffffffffffffffffffffffffffff83818316178352505050506114e4565b505050565b60008173ffffffffffffffffffffffffffffffffffffffff1663026b1d5f6040518163ffffffff1660e01b8152600401602060405180830381865afa158015610fe7573d6000803e3d6000fd5b505050506040513d601f19601f8201168201806040525081019061100b919061259d565b9050919050565b60006060600061102188610f9a565b905060008173ffffffffffffffffffffffffffffffffffffffff166352751797876040518263ffffffff1660e01b815260040161105e9190611ccf565b602060405180830381865afa15801561107b573d6000803e3d6000fd5b505050506040513d601f19601f8201168201806040525081019061109f919061259d565b90508173ffffffffffffffffffffffffffffffffffffffff166369328dec828a8a6040518463ffffffff1660e01b81526004016110de93929190612bd5565b6020604051808303816000875af11580156110fd573d6000803e3d6000fd5b505050506040513d601f19601f820116820180604052508101906111219190612532565b50600089828a8a60405160200161113b9493929190612c0c565b60405160208183030381529060405290508881945094505050509550959350505050565b60008273ffffffffffffffffffffffffffffffffffffffff1663095ea7b373e592427a0aece92de3edee1f18e0157c05861564876040518363ffffffff1660e01b81526004016111b092919061255f565b6020604051808303816000875af11580156111cf573d6000803e3d6000fd5b505050506040513d601f19601f820116820180604052508101906111f391906124c1565b5060006040518061010001604052808573ffffffffffffffffffffffffffffffffffffffff1681526020018473ffffffffffffffffffffffffffffffffffffffff1681526020016101f462ffffff1681526020018673ffffffffffffffffffffffffffffffffffffffff16815260200161012c426112719190612c51565b815260200187815260200160008152602001600073ffffffffffffffffffffffffffffffffffffffff16815250905073e592427a0aece92de3edee1f18e0157c0586156473ffffffffffffffffffffffffffffffffffffffff1663414bf389826040518263ffffffff1660e01b81526004016112ed9190612d72565b6020604051808303816000875af115801561130c573d6000803e3d6000fd5b505050506040513d601f19601f820116820180604052508101906113309190612532565b915050949350505050565b60006060600061134a89610f9a565b905060008173ffffffffffffffffffffffffffffffffffffffff166352751797886040518263ffffffff1660e01b81526004016113879190611ccf565b602060405180830381865afa1580156113a4573d6000803e3d6000fd5b505050506040513d601f19601f820116820180604052508101906113c8919061259d565b90506113f5888a8373ffffffffffffffffffffffffffffffffffffffff166115ac9092919063ffffffff16565b50611421828a8373ffffffffffffffffffffffffffffffffffffffff166116e19092919063ffffffff16565b8173ffffffffffffffffffffffffffffffffffffffff1663573ade81828b89896040518563ffffffff1660e01b81526004016114609493929190612d8e565b6020604051808303816000875af115801561147f573d6000803e3d6000fd5b505050506040513d601f19601f820116820180604052508101906114a39190612532565b5060008a828b89896040516020016114bf959493929190612dd3565b6040516020818303038152906040529050898194509450505050965096945050505050565b6000611546826040518060400160405280602081526020017f5361666545524332303a206c6f772d6c6576656c2063616c6c206661696c65648152508573ffffffffffffffffffffffffffffffffffffffff166117de9092919063ffffffff16565b905060008151148061156857508080602001905181019061156791906124c1565b5b6115a7576040517f08c379a000000000000000000000000000000000000000000000000000000000815260040161159e90612e98565b60405180910390fd5b505050565b60007fffffffffffffffffffffffffffffffffffffffffffffffffffffffffffffffff82036115e2576115df84846117f6565b91505b600073ffffffffffffffffffffffffffffffffffffffff168373ffffffffffffffffffffffffffffffffffffffff161415801561164b57503073ffffffffffffffffffffffffffffffffffffffff168373ffffffffffffffffffffffffffffffffffffffff1614155b8015611697575073eeeeeeeeeeeeeeeeeeeeeeeeeeeeeeeeeeeeeeee73ffffffffffffffffffffffffffffffffffffffff168473ffffffffffffffffffffffffffffffffffffffff1614155b80156116a4575060008214155b156116d7576116d68330848773ffffffffffffffffffffffffffffffffffffffff166118e1909392919063ffffffff16565b5b8190509392505050565b73eeeeeeeeeeeeeeeeeeeeeeeeeeeeeeeeeeeeeeee73ffffffffffffffffffffffffffffffffffffffff168373ffffffffffffffffffffffffffffffffffffffff1603156117d957808373ffffffffffffffffffffffffffffffffffffffff1663dd62ed3e30856040518363ffffffff1660e01b8152600401611765929190612eb8565b602060405180830381865afa158015611782573d6000803e3d6000fd5b505050506040513d601f19601f820116820180604052508101906117a69190612532565b10156117d8576117d782828573ffffffffffffffffffffffffffffffffffffffff1661196a9092919063ffffffff16565b5b5b505050565b60606117ed8484600085611a87565b90509392505050565b600073eeeeeeeeeeeeeeeeeeeeeeeeeeeeeeeeeeeeeeee73ffffffffffffffffffffffffffffffffffffffff168373ffffffffffffffffffffffffffffffffffffffff160361185e578173ffffffffffffffffffffffffffffffffffffffff163190506118db565b8273ffffffffffffffffffffffffffffffffffffffff166370a08231836040518263ffffffff1660e01b8152600401611897919061247a565b602060405180830381865afa1580156118b4573d6000803e3d6000fd5b505050506040513d601f19601f820116820180604052508101906118d89190612532565b90505b92915050565b611964846323b872dd60e01b85858560405160240161190293929190612ee1565b604051602081830303815290604052907bffffffffffffffffffffffffffffffffffffffffffffffffffffffff19166020820180517bffffffffffffffffffffffffffffffffffffffffffffffffffffffff83818316178352505050506114e4565b50505050565b600063095ea7b360e01b838360405160240161198792919061255f565b604051602081830303815290604052907bffffffffffffffffffffffffffffffffffffffffffffffffffffffff19166020820180517bffffffffffffffffffffffffffffffffffffffffffffffffffffffff838183161783525050505090506119f08482611ba0565b611a8157611a768463095ea7b360e01b856000604051602401611a14929190612f53565b604051602081830303815290604052907bffffffffffffffffffffffffffffffffffffffffffffffffffffffff19166020820180517bffffffffffffffffffffffffffffffffffffffffffffffffffffffff83818316178352505050506114e4565b611a8084826114e4565b5b50505050565b6060611a9285611c67565b611ac8576040517f304619b500000000000000000000000000000000000000000000000000000000815260040160405180910390fd5b6000808673ffffffffffffffffffffffffffffffffffffffff168587604051611af19190612fed565b60006040518083038185875af1925050503d8060008114611b2e576040519150601f19603f3d011682016040523d82523d6000602084013e611b33565b606091505b50915091508115611b48578092505050611b98565b600081511115611b5b5780518082602001fd5b836040517f08c379a0000000000000000000000000000000000000000000000000000000008152600401611b8f9190613048565b60405180910390fd5b949350505050565b60008060008473ffffffffffffffffffffffffffffffffffffffff1684604051611bca9190612fed565b6000604051808303816000865af19150503d8060008114611c07576040519150601f19603f3d011682016040523d82523d6000602084013e611c0c565b606091505b5091509150818015611c3a5750600081511480611c39575080806020019051810190611c3891906124c1565b5b5b8015611c5d575060008573ffffffffffffffffffffffffffffffffffffffff163b115b9250505092915050565b60008060007fc5d2460186f7233c927e7db2dcc703c0e500b653ca82273b7bfad8045d85a47060001b9050833f9150808214158015611ca957506000801b8214155b92505050919050565b600061ffff82169050919050565b611cc981611cb2565b82525050565b6000602082019050611ce46000830184611cc0565b92915050565b600073ffffffffffffffffffffffffffffffffffffffff82169050919050565b6000819050919050565b6000611d2f611d2a611d2584611cea565b611d0a565b611cea565b9050919050565b6000611d4182611d14565b9050919050565b6000611d5382611d36565b9050919050565b611d6381611d48565b82525050565b6000602082019050611d7e6000830184611d5a565b92915050565b600060ff82169050919050565b611d9a81611d84565b82525050565b6000602082019050611db56000830184611d91565b92915050565b6000604051905090565b600080fd5b600080fd5b6000611dda82611cea565b9050919050565b611dea81611dcf565b8114611df557600080fd5b50565b600081359050611e0781611de1565b92915050565b600060208284031215611e2357611e22611dc5565b5b6000611e3184828501611df8565b91505092915050565b60008115159050919050565b611e4f81611e3a565b82525050565b6000602082019050611e6a6000830184611e46565b92915050565b600080fd5b600080fd5b6000601f19601f8301169050919050565b7f4e487b7100000000000000000000000000000000000000000000000000000000600052604160045260246000fd5b611ec382611e7a565b810181811067ffffffffffffffff82111715611ee257611ee1611e8b565b5b80604052505050565b6000611ef5611dbb565b9050611f018282611eba565b919050565b600067ffffffffffffffff821115611f2157611f20611e8b565b5b611f2a82611e7a565b9050602081019050919050565b82818337600083830152505050565b6000611f59611f5484611f06565b611eeb565b905082815260208101848484011115611f7557611f74611e75565b5b611f80848285611f37565b509392505050565b600082601f830112611f9d57611f9c611e70565b5b8135611fad848260208601611f46565b91505092915050565b600060208284031215611fcc57611fcb611dc5565b5b600082013567ffffffffffffffff811115611fea57611fe9611dca565b5b611ff684828501611f88565b91505092915050565b600061200a82611d36565b9050919050565b61201a81611fff565b82525050565b60006020820190506120356000830184612011565b92915050565b600067ffffffffffffffff82111561205657612055611e8b565b5b602082029050602081019050919050565b600080fd5b6000819050919050565b61207f8161206c565b811461208a57600080fd5b50565b60008135905061209c81612076565b92915050565b60006120b56120b08461203b565b611eeb565b905080838252602082019050602084028301858111156120d8576120d7612067565b5b835b8181101561210157806120ed888261208d565b8452602084019350506020810190506120da565b5050509392505050565b600082601f8301126121205761211f611e70565b5b81356121308482602086016120a2565b91505092915050565b600067ffffffffffffffff82111561215457612153611e8b565b5b602082029050602081019050919050565b61216e81611d84565b811461217957600080fd5b50565b60008135905061218b81612165565b92915050565b60006121a461219f84612139565b611eeb565b905080838252602082019050602084028301858111156121c7576121c6612067565b5b835b818110156121f057806121dc888261217c565b8452602084019350506020810190506121c9565b5050509392505050565b600082601f83011261220f5761220e611e70565b5b813561221f848260208601612191565b91505092915050565b6000806000806080858703121561224257612241611dc5565b5b600085013567ffffffffffffffff8111156122605761225f611dca565b5b61226c87828801611f88565b945050602085013567ffffffffffffffff81111561228d5761228c611dca565b5b6122998782880161210b565b935050604085013567ffffffffffffffff8111156122ba576122b9611dca565b5b6122c6878288016121fa565b925050606085013567ffffffffffffffff8111156122e7576122e6611dca565b5b6122f38782880161210b565b91505092959194509250565b6123088161206c565b82525050565b600060208201905061232360008301846122ff565b92915050565b6000819050919050565b61233c81612329565b811461234757600080fd5b50565b60008135905061235981612333565b92915050565b60008060006060848603121561237857612377611dc5565b5b60006123868682870161234a565b93505060206123978682870161234a565b92505060406123a88682870161234a565b9150509250925092565b6123bb81612329565b82525050565b60006020820190506123d660008301846123b2565b92915050565b6000806000606084860312156123f5576123f4611dc5565b5b600061240386828701611df8565b935050602061241486828701611df8565b92505060406124258682870161234a565b9150509250925092565b600061243a82611d36565b9050919050565b61244a8161242f565b82525050565b60006020820190506124656000830184612441565b92915050565b61247481611dcf565b82525050565b600060208201905061248f600083018461246b565b92915050565b61249e81611e3a565b81146124a957600080fd5b50565b6000815190506124bb81612495565b92915050565b6000602082840312156124d7576124d6611dc5565b5b60006124e5848285016124ac565b91505092915050565b7f4e487b7100000000000000000000000000000000000000000000000000000000600052602160045260246000fd5b60008151905061252c81612333565b92915050565b60006020828403121561254857612547611dc5565b5b60006125568482850161251d565b91505092915050565b6000604082019050612574600083018561246b565b61258160208301846123b2565b9392505050565b60008151905061259781611de1565b92915050565b6000602082840312156125b3576125b2611dc5565b5b60006125c184828501612588565b91505092915050565b600069ffffffffffffffffffff82169050919050565b6125e9816125ca565b81146125f457600080fd5b50565b600081519050612606816125e0565b92915050565b6000819050919050565b61261f8161260c565b811461262a57600080fd5b50565b60008151905061263c81612616565b92915050565b600080600080600060a0868803121561265e5761265d611dc5565b5b600061266c888289016125f7565b955050602061267d8882890161262d565b945050604061268e8882890161251d565b935050606061269f8882890161251d565b92505060806126b0888289016125f7565b9150509295509295909350565b600082825260208201905092915050565b7f496e76616c696420455448207072696365000000000000000000000000000000600082015250565b60006127046011836126bd565b915061270f826126ce565b602082019050919050565b60006020820190508181036000830152612733816126f7565b9050919050565b7f4e487b7100000000000000000000000000000000000000000000000000000000600052601160045260246000fd5b60008160011c9050919050565b6000808291508390505b60018511156127c05780860481111561279c5761279b61273a565b5b60018516156127ab5780820291505b80810290506127b985612769565b9450612780565b94509492505050565b6000826127d95760019050612895565b816127e75760009050612895565b81600181146127fd576002811461280757612836565b6001915050612895565b60ff8411156128195761281861273a565b5b8360020a9150848211156128305761282f61273a565b5b50612895565b5060208310610133831016604e8410600b841016171561286b5782820a9050838111156128665761286561273a565b5b612895565b6128788484846001612776565b9250905081840481111561288f5761288e61273a565b5b81810290505b9392505050565b60006128a782612329565b91506128b283611d84565b92506128df7fffffffffffffffffffffffffffffffffffffffffffffffffffffffffffffffff84846127c9565b905092915050565b60006128f282612329565b91506128fd83612329565b925082820261290b81612329565b915082820484148315176129225761292161273a565b5b5092915050565b7f4e487b7100000000000000000000000000000000000000000000000000000000600052601260045260246000fd5b600061296382612329565b915061296e83612329565b92508261297e5761297d612929565b5b828204905092915050565b600061299482612329565b915061299f83612329565b92508282039050818111156129b7576129b661273a565b5b92915050565b60008060008060008060c087890312156129da576129d9611dc5565b5b60006129e889828a0161251d565b96505060206129f989828a0161251d565b9550506040612a0a89828a0161251d565b9450506060612a1b89828a0161251d565b9350506080612a2c89828a0161251d565b92505060a0612a3d89828a0161251d565b9150509295509295509295565b7f4865616c746820666163746f7220746f6f206c6f770000000000000000000000600082015250565b6000612a806015836126bd565b9150612a8b82612a4a565b602082019050919050565b60006020820190508181036000830152612aaf81612a73565b9050919050565b7f43616e6e6f7420736166656c7920776974686472617720636f6c6c617465726160008201527f6c00000000000000000000000000000000000000000000000000000000000000602082015250565b6000612b126021836126bd565b9150612b1d82612ab6565b604082019050919050565b60006020820190508181036000830152612b4181612b05565b9050919050565b600081519050612b5781612165565b92915050565b600060208284031215612b7357612b72611dc5565b5b6000612b8184828501612b48565b91505092915050565b6000612b9582612329565b9150612ba083612329565b9250612bcd7fffffffffffffffffffffffffffffffffffffffffffffffffffffffffffffffff84846127c9565b905092915050565b6000606082019050612bea600083018661246b565b612bf760208301856123b2565b612c04604083018461246b565b949350505050565b6000608082019050612c21600083018761246b565b612c2e602083018661246b565b612c3b60408301856123b2565b612c48606083018461246b565b95945050505050565b6000612c5c82612329565b9150612c6783612329565b9250828201905080821115612c7f57612c7e61273a565b5b92915050565b612c8e81611dcf565b82525050565b600062ffffff82169050919050565b612cac81612c94565b82525050565b612cbb81612329565b82525050565b612cca81611cea565b82525050565b61010082016000820151612ce76000850182612c85565b506020820151612cfa6020850182612c85565b506040820151612d0d6040850182612ca3565b506060820151612d206060850182612c85565b506080820151612d336080850182612cb2565b5060a0820151612d4660a0850182612cb2565b5060c0820151612d5960c0850182612cb2565b5060e0820151612d6c60e0850182612cc1565b50505050565b600061010082019050612d886000830184612cd0565b92915050565b6000608082019050612da3600083018761246b565b612db060208301866123b2565b612dbd60408301856123b2565b612dca606083018461246b565b95945050505050565b600060a082019050612de8600083018861246b565b612df5602083018761246b565b612e0260408301866123b2565b612e0f60608301856123b2565b612e1c608083018461246b565b9695505050505050565b7f5361666545524332303a204552433230206f7065726174696f6e20646964206e60008201527f6f74207375636365656400000000000000000000000000000000000000000000602082015250565b6000612e82602a836126bd565b9150612e8d82612e26565b604082019050919050565b60006020820190508181036000830152612eb181612e75565b9050919050565b6000604082019050612ecd600083018561246b565b612eda602083018461246b565b9392505050565b6000606082019050612ef6600083018661246b565b612f03602083018561246b565b612f1060408301846123b2565b949350505050565b6000819050919050565b6000612f3d612f38612f3384612f18565b611d0a565b611d84565b9050919050565b612f4d81612f22565b82525050565b6000604082019050612f68600083018561246b565b612f756020830184612f44565b9392505050565b600081519050919050565b600081905092915050565b60005b83811015612fb0578082015181840152602081019050612f95565b60008484015250505050565b6000612fc782612f7c565b612fd18185612f87565b9350612fe1818560208601612f92565b80840191505092915050565b6000612ff98284612fbc565b915081905092915050565b600081519050919050565b600061301a82613004565b61302481856126bd565b9350613034818560208601612f92565b61303d81611e7a565b840191505092915050565b60006020820190508181036000830152613062818461300f565b90509291505056fea26469706673582212202d16ceb76ff74246a49d53f9a70a3d131f60dd124c54d8ba449fb9ce44c96b9d64736f6c63430008180033",
  "linkReferences": {},
  "deployedLinkReferences": {}
}