{
  "_format": "hh-sol-artifact-1",
  "contractName": "AavePayback",
  "sourceName": "contracts/AAVE/AAVEProtocol/AavePayback.sol",
  "abi": [
    {
      "inputs": [],
      "name": "NonContractCall",
      "type": "error"
    },
    {
      "inputs": [],
      "name": "ReturnIndexValueError",
      "type": "error"
    },
    {
      "inputs": [],
      "name": "SenderNotAdmin",
      "type": "error"
    },
    {
      "inputs": [],
      "name": "SenderNotOwner",
      "type": "error"
    },
    {
      "inputs": [],
      "name": "SubIndexValueError",
      "type": "error"
    },
    {
      "anonymous": false,
      "inputs": [
        {
          "indexed": true,
          "internalType": "string",
          "name": "logName",
          "type": "string"
        },
        {
          "indexed": false,
          "internalType": "bytes",
          "name": "data",
          "type": "bytes"
        }
      ],
      "name": "ActionEvent",
      "type": "event"
    },
    {
      "inputs": [],
      "name": "AAVE_REFERRAL_CODE",
      "outputs": [
        {
          "internalType": "uint16",
          "name": "",
          "type": "uint16"
        }
      ],
      "stateMutability": "view",
      "type": "function"
    },
    {
      "inputs": [],
      "name": "NO_PARAM_MAPPING",
      "outputs": [
        {
          "internalType": "uint8",
          "name": "",
          "type": "uint8"
        }
      ],
      "stateMutability": "view",
      "type": "function"
    },
    {
      "inputs": [],
      "name": "RETURN_MAX_INDEX_VALUE",
      "outputs": [
        {
          "internalType": "uint8",
          "name": "",
          "type": "uint8"
        }
      ],
      "stateMutability": "view",
      "type": "function"
    },
    {
      "inputs": [],
      "name": "RETURN_MIN_INDEX_VALUE",
      "outputs": [
        {
          "internalType": "uint8",
          "name": "",
          "type": "uint8"
        }
      ],
      "stateMutability": "view",
      "type": "function"
    },
    {
      "inputs": [],
      "name": "SUB_MAX_INDEX_VALUE",
      "outputs": [
        {
          "internalType": "uint8",
          "name": "",
          "type": "uint8"
        }
      ],
      "stateMutability": "view",
      "type": "function"
    },
    {
      "inputs": [],
      "name": "SUB_MIN_INDEX_VALUE",
      "outputs": [
        {
          "internalType": "uint8",
          "name": "",
          "type": "uint8"
        }
      ],
      "stateMutability": "view",
      "type": "function"
    },
    {
      "inputs": [],
      "name": "actionType",
      "outputs": [
        {
          "internalType": "uint8",
          "name": "",
          "type": "uint8"
        }
      ],
      "stateMutability": "pure",
      "type": "function"
    },
    {
      "inputs": [],
      "name": "adminData",
      "outputs": [
        {
          "internalType": "contract AdminData",
          "name": "",
          "type": "address"
        }
      ],
      "stateMutability": "view",
      "type": "function"
    },
    {
      "inputs": [
        {
          "internalType": "bytes",
          "name": "_encodedInput",
          "type": "bytes"
        }
      ],
      "name": "decodeInputs",
      "outputs": [
        {
          "components": [
            {
              "internalType": "uint256",
              "name": "amount",
              "type": "uint256"
            },
            {
              "internalType": "address",
              "name": "from",
              "type": "address"
            },
            {
              "internalType": "uint8",
              "name": "rateMode",
              "type": "uint8"
            },
            {
              "internalType": "uint16",
              "name": "assetId",
              "type": "uint16"
            },
            {
              "internalType": "bool",
              "name": "useDefaultMarket",
              "type": "bool"
            },
            {
              "internalType": "bool",
              "name": "useOnBehalf",
              "type": "bool"
            },
            {
              "internalType": "address",
              "name": "market",
              "type": "address"
            },
            {
              "internalType": "address",
              "name": "onBehalf",
              "type": "address"
            }
          ],
          "internalType": "struct AavePayback.Params",
          "name": "params",
          "type": "tuple"
        }
      ],
      "stateMutability": "pure",
      "type": "function"
    },
    {
      "inputs": [
        {
          "components": [
            {
              "internalType": "uint256",
              "name": "amount",
              "type": "uint256"
            },
            {
              "internalType": "address",
              "name": "from",
              "type": "address"
            },
            {
              "internalType": "uint8",
              "name": "rateMode",
              "type": "uint8"
            },
            {
              "internalType": "uint16",
              "name": "assetId",
              "type": "uint16"
            },
            {
              "internalType": "bool",
              "name": "useDefaultMarket",
              "type": "bool"
            },
            {
              "internalType": "bool",
              "name": "useOnBehalf",
              "type": "bool"
            },
            {
              "internalType": "address",
              "name": "market",
              "type": "address"
            },
            {
              "internalType": "address",
              "name": "onBehalf",
              "type": "address"
            }
          ],
          "internalType": "struct AavePayback.Params",
          "name": "_params",
          "type": "tuple"
        }
      ],
      "name": "encodeInputs",
      "outputs": [
        {
          "internalType": "bytes",
          "name": "encodedInput",
          "type": "bytes"
        }
      ],
      "stateMutability": "pure",
      "type": "function"
    },
    {
      "inputs": [
        {
          "internalType": "bytes",
          "name": "_callData",
          "type": "bytes"
        },
        {
          "internalType": "bytes32[]",
          "name": "_subData",
          "type": "bytes32[]"
        },
        {
          "internalType": "uint8[]",
          "name": "_paramMapping",
          "type": "uint8[]"
        },
        {
          "internalType": "bytes32[]",
          "name": "_returnValues",
          "type": "bytes32[]"
        }
      ],
      "name": "executeAction",
      "outputs": [
        {
          "internalType": "bytes32",
          "name": "",
          "type": "bytes32"
        }
      ],
      "stateMutability": "payable",
      "type": "function"
    },
    {
      "inputs": [
        {
          "internalType": "bytes",
          "name": "_callData",
          "type": "bytes"
        }
      ],
      "name": "executeActionDirect",
      "outputs": [],
      "stateMutability": "payable",
      "type": "function"
    },
    {
      "inputs": [],
      "name": "executeActionDirectL2",
      "outputs": [],
      "stateMutability": "payable",
      "type": "function"
    },
    {
      "inputs": [
        {
          "internalType": "address",
          "name": "_proxy",
          "type": "address"
        }
      ],
      "name": "isDSProxy",
      "outputs": [
        {
          "internalType": "bool",
          "name": "",
          "type": "bool"
        }
      ],
      "stateMutability": "view",
      "type": "function"
    },
    {
      "inputs": [],
      "name": "kill",
      "outputs": [],
      "stateMutability": "nonpayable",
      "type": "function"
    },
    {
      "inputs": [],
      "name": "logger",
      "outputs": [
        {
          "internalType": "contract DefisaverLogger",
          "name": "",
          "type": "address"
        }
      ],
      "stateMutability": "view",
      "type": "function"
    },
    {
      "inputs": [
        {
          "internalType": "bytes",
          "name": "_callData",
          "type": "bytes"
        }
      ],
      "name": "parseInputs",
      "outputs": [
        {
          "components": [
            {
              "internalType": "uint256",
              "name": "amount",
              "type": "uint256"
            },
            {
              "internalType": "address",
              "name": "from",
              "type": "address"
            },
            {
              "internalType": "uint8",
              "name": "rateMode",
              "type": "uint8"
            },
            {
              "internalType": "uint16",
              "name": "assetId",
              "type": "uint16"
            },
            {
              "internalType": "bool",
              "name": "useDefaultMarket",
              "type": "bool"
            },
            {
              "internalType": "bool",
              "name": "useOnBehalf",
              "type": "bool"
            },
            {
              "internalType": "address",
              "name": "market",
              "type": "address"
            },
            {
              "internalType": "address",
              "name": "onBehalf",
              "type": "address"
            }
          ],
          "internalType": "struct AavePayback.Params",
          "name": "params",
          "type": "tuple"
        }
      ],
      "stateMutability": "pure",
      "type": "function"
    },
    {
      "inputs": [],
      "name": "registry",
      "outputs": [
        {
          "internalType": "contract DFSRegistry",
          "name": "",
          "type": "address"
        }
      ],
      "stateMutability": "view",
      "type": "function"
    },
    {
      "inputs": [
        {
          "internalType": "address",
          "name": "_token",
          "type": "address"
        },
        {
          "internalType": "address",
          "name": "_receiver",
          "type": "address"
        },
        {
          "internalType": "uint256",
          "name": "_amount",
          "type": "uint256"
        }
      ],
      "name": "withdrawStuckFunds",
      "outputs": [],
      "stateMutability": "nonpayable",
      "type": "function"
    }
  ],
  "bytecode": "0x608060405234801561001057600080fd5b50613ae5806100206000396000f3fe6080604052600436106101145760003560e01c80637b103999116100a05780639864dcdd116100645780639864dcdd1461036a578063c579d49014610395578063d3c2e7ed146103be578063e197b16c146103e9578063f24ccbfe1461042657610114565b80637b1039991461026a5780638b835979146102955780638bcb6216146102d25780638df50f74146102fd5780639093410d1461032d57610114565b8063247492f8116100e7578063247492f8146101d75780632895f3aa146102025780632fa13cb81461020c578063389f87ff1461023757806341c0e1b51461025357610114565b806305a363de1461011957806306d2ae8e146101445780630f2eee421461016f5780631c451ceb1461019a575b600080fd5b34801561012557600080fd5b5061012e610451565b60405161013b91906122ef565b60405180910390f35b34801561015057600080fd5b50610159610456565b6040516101669190612389565b60405180910390f35b34801561017b57600080fd5b5061018461046e565b60405161019191906123c0565b60405180910390f35b3480156101a657600080fd5b506101c160048036038101906101bc919061242d565b610473565b6040516101ce9190612475565b60405180910390f35b3480156101e357600080fd5b506101ec61050a565b6040516101f991906123c0565b60405180910390f35b61020a610525565b005b34801561021857600080fd5b506102216105f6565b60405161022e91906123c0565b60405180910390f35b610251600480360381019061024c91906125d6565b6105fb565b005b34801561025f57600080fd5b506102686106ba565b005b34801561027657600080fd5b5061027f6107ba565b60405161028c9190612640565b60405180910390f35b3480156102a157600080fd5b506102bc60048036038101906102b791906126bb565b6107d2565b6040516102c991906127ff565b60405180910390f35b3480156102de57600080fd5b506102e7610ab9565b6040516102f491906123c0565b60405180910390f35b61031760048036038101906103129190612a03565b610abe565b6040516103249190612ae9565b60405180910390f35b34801561033957600080fd5b50610354600480360381019061034f91906125d6565b610dcf565b60405161036191906127ff565b60405180910390f35b34801561037657600080fd5b5061037f610e8c565b60405161038c91906123c0565b60405180910390f35b3480156103a157600080fd5b506103bc60048036038101906103b79190612b30565b610e91565b005b3480156103ca57600080fd5b506103d361103c565b6040516103e091906123c0565b60405180910390f35b3480156103f557600080fd5b50610410600480360381019061040b9190612caa565b611041565b60405161041d9190612d57565b60405180910390f35b34801561043257600080fd5b5061043b6111e8565b6040516104489190612d9a565b60405180910390f35b604081565b73d47d8d97cad12a866900eec6cde1962529f2535181565b608081565b6000735a15566417e6c1c9546523066500bddbc53f88c773ffffffffffffffffffffffffffffffffffffffff166329710388836040518263ffffffff1660e01b81526004016104c29190612dc4565b602060405180830381865afa1580156104df573d6000803e3d6000fd5b505050506040513d601f19601f820116820180604052508101906105039190612df4565b9050919050565b6000600160048111156105205761051f612e21565b5b905090565b6000610543600036600490809261053e93929190612e5a565b6107d2565b905060006105708260c0015183606001518460000151856040015160ff1686602001518760e00151611200565b91505073e6f9a5c850dbcd12bc64f40d692f537250adec3873ffffffffffffffffffffffffffffffffffffffff1663f4b24b55826040518263ffffffff1660e01b81526004016105c09190612ef2565b600060405180830381600087803b1580156105da57600080fd5b505af11580156105ee573d6000803e3d6000fd5b505050505050565b600081565b600061060682610dcf565b905060006106338260c0015183606001518460000151856040015160ff1686602001518760e00151611200565b91505073e6f9a5c850dbcd12bc64f40d692f537250adec3873ffffffffffffffffffffffffffffffffffffffff1663f4b24b55826040518263ffffffff1660e01b81526004016106839190612ef2565b600060405180830381600087803b15801561069d57600080fd5b505af11580156106b1573d6000803e3d6000fd5b50505050505050565b3373ffffffffffffffffffffffffffffffffffffffff1673d47d8d97cad12a866900eec6cde1962529f2535173ffffffffffffffffffffffffffffffffffffffff1663f851a4406040518163ffffffff1660e01b8152600401602060405180830381865afa158015610730573d6000803e3d6000fd5b505050506040513d601f19601f820116820180604052508101906107549190612f3c565b73ffffffffffffffffffffffffffffffffffffffff16146107a1576040517fa6c827a900000000000000000000000000000000000000000000000000000000815260040160405180910390fd5b3373ffffffffffffffffffffffffffffffffffffffff16ff5b73bf1cac12db60819bfa71a328282ecbc1d40443aa81565b6107da612240565b82826000906020926107ee93929190612e5a565b906107f99190612f81565b60001c816000018181525050828260209060349261081993929190612e5a565b90610824919061300c565b60601c816020019073ffffffffffffffffffffffffffffffffffffffff16908173ffffffffffffffffffffffffffffffffffffffff1681525050828260349060359261087293929190612e5a565b9061087d9190613097565b60f81c816040019060ff16908160ff168152505082826035906037926108a593929190612e5a565b906108b09190613122565b60f01c816060019061ffff16908161ffff16815250506108ed83836037906038926108dd93929190612e5a565b906108e89190613097565b61146c565b816080019015159081151581525050610923838360389060399261091393929190612e5a565b9061091e9190613097565b61146c565b8160a00190151590811515815250506000603990508160800151156109935773a97684ead0e402dc232d5a977953df7ecbab3cdb8260c0019073ffffffffffffffffffffffffffffffffffffffff16908173ffffffffffffffffffffffffffffffffffffffff1681525050610a06565b838382906014846109a491906131b0565b926109b193929190612e5a565b906109bc919061300c565b60601c8260c0019073ffffffffffffffffffffffffffffffffffffffff16908173ffffffffffffffffffffffffffffffffffffffff1681525050601481610a0391906131b0565b90505b8160a0015115610a785783838290601484610a2191906131b0565b92610a2e93929190612e5a565b90610a39919061300c565b60601c8260e0019073ffffffffffffffffffffffffffffffffffffffff16908173ffffffffffffffffffffffffffffffffffffffff1681525050610ab2565b60008260e0019073ffffffffffffffffffffffffffffffffffffffff16908173ffffffffffffffffffffffffffffffffffffffff16815250505b5092915050565b600181565b600080610aca86610dcf565b9050610af7816000015185600081518110610ae857610ae76131e4565b5b602002602001015187866114c0565b816000018181525050610b2b816020015185600181518110610b1c57610b1b6131e4565b5b60200260200101518786611546565b816020019073ffffffffffffffffffffffffffffffffffffffff16908173ffffffffffffffffffffffffffffffffffffffff1681525050610b90816040015160ff1685600281518110610b8157610b806131e4565b5b602002602001015187866114c0565b816040019060ff16908160ff1681525050610bd0816060015161ffff1685600381518110610bc157610bc06131e4565b5b602002602001015187866114c0565b816060019061ffff16908161ffff16815250506001610c218260800151610bf8576000610bfb565b60015b60ff1686600481518110610c1257610c116131e4565b5b602002602001015188876114c0565b148160800190151590811515815250506001610c6f8260a00151610c46576000610c49565b60015b60ff1686600581518110610c6057610c5f6131e4565b5b602002602001015188876114c0565b148160a0019015159081151581525050610caa8160c0015185600681518110610c9b57610c9a6131e4565b5b60200260200101518786611546565b8160c0019073ffffffffffffffffffffffffffffffffffffffff16908173ffffffffffffffffffffffffffffffffffffffff1681525050610d0c8160e0015185600781518110610cfd57610cfc6131e4565b5b60200260200101518786611546565b8160e0019073ffffffffffffffffffffffffffffffffffffffff16908173ffffffffffffffffffffffffffffffffffffffff1681525050600080610d6f8360c0015184606001518560000151866040015160ff1687602001518860e00151611200565b91509150604051610d7f90613241565b60405180910390207f2b6d22f419271bcc89bbac8deec947c664365d6e24d06fef0ca7c325c704dce382604051610db69190612d57565b60405180910390a28160001b9350505050949350505050565b610dd7612240565b81806020019051810190610deb919061335f565b9050806080015115610e445773a97684ead0e402dc232d5a977953df7ecbab3cdb8160c0019073ffffffffffffffffffffffffffffffffffffffff16908173ffffffffffffffffffffffffffffffffffffffff16815250505b8060a00151610e875760008160e0019073ffffffffffffffffffffffffffffffffffffffff16908173ffffffffffffffffffffffffffffffffffffffff16815250505b919050565b607f81565b3373ffffffffffffffffffffffffffffffffffffffff1673d47d8d97cad12a866900eec6cde1962529f2535173ffffffffffffffffffffffffffffffffffffffff16638da5cb5b6040518163ffffffff1660e01b8152600401602060405180830381865afa158015610f07573d6000803e3d6000fd5b505050506040513d601f19601f82011682018060405250810190610f2b9190612f3c565b73ffffffffffffffffffffffffffffffffffffffff1614610f78576040517f19494c8a00000000000000000000000000000000000000000000000000000000815260040160405180910390fd5b73eeeeeeeeeeeeeeeeeeeeeeeeeeeeeeeeeeeeeeee73ffffffffffffffffffffffffffffffffffffffff168373ffffffffffffffffffffffffffffffffffffffff160361100b578173ffffffffffffffffffffffffffffffffffffffff166108fc829081150290604051600060405180830381858888f19350505050158015611005573d6000803e3d6000fd5b50611037565b61103682828573ffffffffffffffffffffffffffffffffffffffff166115fa9092919063ffffffff16565b5b505050565b60ff81565b6060632895f3aa60e01b60405160200161105b91906133da565b604051602081830303815290604052905080826000015160001b604051602001611086929190613452565b604051602081830303815290604052905080826020015160601b6040516020016110b192919061349b565b604051602081830303815290604052905080826040015160f81b6040516020016110dc9291906134e4565b604051602081830303815290604052905080826060015160f01b60405160200161110792919061352d565b6040516020818303038152906040529050806111268360800151611680565b6040516020016111379291906134e4565b6040516020818303038152906040529050806111568360a00151611680565b6040516020016111679291906134e4565b604051602081830303815290604052905081608001516111ad57808260c0015160601b60405160200161119b92919061349b565b60405160208183030381529060405290505b8160a00151156111e357808260e0015160601b6040516020016111d192919061349b565b60405160208183030381529060405290505b919050565b73e6f9a5c850dbcd12bc64f40d692f537250adec3881565b60006060600073ffffffffffffffffffffffffffffffffffffffff168373ffffffffffffffffffffffffffffffffffffffff160361123c573092505b60006112478961169e565b905060008173ffffffffffffffffffffffffffffffffffffffff1663527517978a6040518263ffffffff1660e01b815260040161128491906122ef565b602060405180830381865afa1580156112a1573d6000803e3d6000fd5b505050506040513d601f19601f820116820180604052508101906112c59190612f3c565b905060006112d58b838a89611716565b90508089116112e457886112e6565b805b9850611313878a8473ffffffffffffffffffffffffffffffffffffffff166117e39092919063ffffffff16565b5061133f838a8473ffffffffffffffffffffffffffffffffffffffff166119189092919063ffffffff16565b600061136a308473ffffffffffffffffffffffffffffffffffffffff16611a1590919063ffffffff16565b90508373ffffffffffffffffffffffffffffffffffffffff1663573ade81848c8c8b6040518563ffffffff1660e01b81526004016113ab9493929190613564565b6020604051808303816000875af11580156113ca573d6000803e3d6000fd5b505050506040513d601f19601f820116820180604052508101906113ee91906135a9565b50600061141a308573ffffffffffffffffffffffffffffffffffffffff16611a1590919063ffffffff16565b905060008d858d8d8d8d604051602001611439969594939291906135d6565b604051602081830303815290604052905081836114569190613637565b8197509750505050505050965096945050505050565b60008060f81b7effffffffffffffffffffffffffffffffffffffffffffffffffffffffffffff1916827effffffffffffffffffffffffffffffffffffffffffffffffffffffffffffff191614159050919050565b60006114cb84611b00565b1561153b576114d984611b13565b1561150e57816114e885611b3a565b60ff16815181106114fc576114fb6131e4565b5b602002602001015160001c945061153a565b8261151885611b8f565b60ff168151811061152c5761152b6131e4565b5b602002602001015160001c94505b5b849050949350505050565b600061155184611b00565b156115ee5761155f84611b13565b15611594578161156e85611b3a565b60ff1681518110611582576115816131e4565b5b602002602001015160601c94506115ed565b60fe8460ff16036115a7573090506115f2565b60ff8460ff16036115c1576115ba611be6565b90506115f2565b826115cb85611b8f565b60ff16815181106115df576115de6131e4565b5b602002602001015160001c94505b5b8490505b949350505050565b61167b8363a9059cbb60e01b848460405160240161161992919061366b565b604051602081830303815290604052907bffffffffffffffffffffffffffffffffffffffffffffffffffffffff19166020820180517bffffffffffffffffffffffffffffffffffffffffffffffffffffffff8381831617835250505050611d17565b505050565b60008161169157600060f81b611697565b600160f81b5b9050919050565b60008173ffffffffffffffffffffffffffffffffffffffff1663026b1d5f6040518163ffffffff1660e01b8152600401602060405180830381865afa1580156116eb573d6000803e3d6000fd5b505050506040513d601f19601f8201168201806040525081019061170f9190612f3c565b9050919050565b60008060019050600060029050600061172e88611ddf565b90506000808273ffffffffffffffffffffffffffffffffffffffff166328dd2d018a896040518363ffffffff1660e01b815260040161176e929190613694565b61012060405180830381865afa15801561178c573d6000803e3d6000fd5b505050506040513d601f19601f820116820180604052508101906117b091906136fa565b50505050505092509250508488036117ca578195506117d6565b8388036117d5578095505b5b5050505050949350505050565b60007fffffffffffffffffffffffffffffffffffffffffffffffffffffffffffffffff8203611819576118168484611a15565b91505b600073ffffffffffffffffffffffffffffffffffffffff168373ffffffffffffffffffffffffffffffffffffffff161415801561188257503073ffffffffffffffffffffffffffffffffffffffff168373ffffffffffffffffffffffffffffffffffffffff1614155b80156118ce575073eeeeeeeeeeeeeeeeeeeeeeeeeeeeeeeeeeeeeeee73ffffffffffffffffffffffffffffffffffffffff168473ffffffffffffffffffffffffffffffffffffffff1614155b80156118db575060008214155b1561190e5761190d8330848773ffffffffffffffffffffffffffffffffffffffff16611e57909392919063ffffffff16565b5b8190509392505050565b73eeeeeeeeeeeeeeeeeeeeeeeeeeeeeeeeeeeeeeee73ffffffffffffffffffffffffffffffffffffffff168373ffffffffffffffffffffffffffffffffffffffff160315611a1057808373ffffffffffffffffffffffffffffffffffffffff1663dd62ed3e30856040518363ffffffff1660e01b815260040161199c929190613694565b602060405180830381865afa1580156119b9573d6000803e3d6000fd5b505050506040513d601f19601f820116820180604052508101906119dd91906135a9565b1015611a0f57611a0e82828573ffffffffffffffffffffffffffffffffffffffff16611ee09092919063ffffffff16565b5b5b505050565b600073eeeeeeeeeeeeeeeeeeeeeeeeeeeeeeeeeeeeeeee73ffffffffffffffffffffffffffffffffffffffff168373ffffffffffffffffffffffffffffffffffffffff1603611a7d578173ffffffffffffffffffffffffffffffffffffffff16319050611afa565b8273ffffffffffffffffffffffffffffffffffffffff166370a08231836040518263ffffffff1660e01b8152600401611ab69190612dc4565b602060405180830381865afa158015611ad3573d6000803e3d6000fd5b505050506040513d601f19601f82011682018060405250810190611af791906135a9565b90505b92915050565b60008060ff168260ff1614159050919050565b6000600160ff168260ff1610158015611b335750607f60ff168260ff1611155b9050919050565b6000611b4582611b13565b611b7b576040517fdcc95a3900000000000000000000000000000000000000000000000000000000815260040160405180910390fd5b600182611b8891906137c4565b9050919050565b6000608060ff168260ff161015611bd2576040517f866f6e8700000000000000000000000000000000000000000000000000000000815260040160405180910390fd5b608082611bdf91906137c4565b9050919050565b6000611bf130610473565b15611c6c573073ffffffffffffffffffffffffffffffffffffffff16638da5cb5b6040518163ffffffff1660e01b8152600401602060405180830381865afa158015611c41573d6000803e3d6000fd5b505050506040513d601f19601f82011682018060405250810190611c659190612f3c565b9050611d14565b60003073ffffffffffffffffffffffffffffffffffffffff1663a0e67e2b6040518163ffffffff1660e01b8152600401600060405180830381865afa158015611cb9573d6000803e3d6000fd5b505050506040513d6000823e3d601f19601f82011682018060405250810190611ce291906138bc565b90506001815114611cf35730611d10565b80600081518110611d0757611d066131e4565b5b60200260200101515b9150505b90565b6000611d79826040518060400160405280602081526020017f5361666545524332303a206c6f772d6c6576656c2063616c6c206661696c65648152508573ffffffffffffffffffffffffffffffffffffffff16611ffd9092919063ffffffff16565b9050600081511480611d9b575080806020019051810190611d9a9190612df4565b5b611dda576040517f08c379a0000000000000000000000000000000000000000000000000000000008152600401611dd190613977565b60405180910390fd5b505050565b60008173ffffffffffffffffffffffffffffffffffffffff1663e860accb6040518163ffffffff1660e01b8152600401602060405180830381865afa158015611e2c573d6000803e3d6000fd5b505050506040513d601f19601f82011682018060405250810190611e509190612f3c565b9050919050565b611eda846323b872dd60e01b858585604051602401611e7893929190613997565b604051602081830303815290604052907bffffffffffffffffffffffffffffffffffffffffffffffffffffffff19166020820180517bffffffffffffffffffffffffffffffffffffffffffffffffffffffff8381831617835250505050611d17565b50505050565b600063095ea7b360e01b8383604051602401611efd92919061366b565b604051602081830303815290604052907bffffffffffffffffffffffffffffffffffffffffffffffffffffffff19166020820180517bffffffffffffffffffffffffffffffffffffffffffffffffffffffff83818316178352505050509050611f668482612015565b611ff757611fec8463095ea7b360e01b856000604051602401611f8a929190613a09565b604051602081830303815290604052907bffffffffffffffffffffffffffffffffffffffffffffffffffffffff19166020820180517bffffffffffffffffffffffffffffffffffffffffffffffffffffffff8381831617835250505050611d17565b611ff68482611d17565b5b50505050565b606061200c84846000856120dc565b90509392505050565b60008060008473ffffffffffffffffffffffffffffffffffffffff168460405161203f9190613a32565b6000604051808303816000865af19150503d806000811461207c576040519150601f19603f3d011682016040523d82523d6000602084013e612081565b606091505b50915091508180156120af57506000815114806120ae5750808060200190518101906120ad9190612df4565b5b5b80156120d2575060008573ffffffffffffffffffffffffffffffffffffffff163b115b9250505092915050565b60606120e7856121f5565b61211d576040517f304619b500000000000000000000000000000000000000000000000000000000815260040160405180910390fd5b6000808673ffffffffffffffffffffffffffffffffffffffff1685876040516121469190613a32565b60006040518083038185875af1925050503d8060008114612183576040519150601f19603f3d011682016040523d82523d6000602084013e612188565b606091505b5091509150811561219d5780925050506121ed565b6000815111156121b05780518082602001fd5b836040517f08c379a00000000000000000000000000000000000000000000000000000000081526004016121e49190613a8d565b60405180910390fd5b949350505050565b60008060007fc5d2460186f7233c927e7db2dcc703c0e500b653ca82273b7bfad8045d85a47060001b9050833f915080821415801561223757506000801b8214155b92505050919050565b60405180610100016040528060008152602001600073ffffffffffffffffffffffffffffffffffffffff168152602001600060ff168152602001600061ffff168152602001600015158152602001600015158152602001600073ffffffffffffffffffffffffffffffffffffffff168152602001600073ffffffffffffffffffffffffffffffffffffffff1681525090565b600061ffff82169050919050565b6122e9816122d2565b82525050565b600060208201905061230460008301846122e0565b92915050565b600073ffffffffffffffffffffffffffffffffffffffff82169050919050565b6000819050919050565b600061234f61234a6123458461230a565b61232a565b61230a565b9050919050565b600061236182612334565b9050919050565b600061237382612356565b9050919050565b61238381612368565b82525050565b600060208201905061239e600083018461237a565b92915050565b600060ff82169050919050565b6123ba816123a4565b82525050565b60006020820190506123d560008301846123b1565b92915050565b6000604051905090565b600080fd5b600080fd5b60006123fa8261230a565b9050919050565b61240a816123ef565b811461241557600080fd5b50565b60008135905061242781612401565b92915050565b600060208284031215612443576124426123e5565b5b600061245184828501612418565b91505092915050565b60008115159050919050565b61246f8161245a565b82525050565b600060208201905061248a6000830184612466565b92915050565b600080fd5b600080fd5b6000601f19601f8301169050919050565b7f4e487b7100000000000000000000000000000000000000000000000000000000600052604160045260246000fd5b6124e38261249a565b810181811067ffffffffffffffff82111715612502576125016124ab565b5b80604052505050565b60006125156123db565b905061252182826124da565b919050565b600067ffffffffffffffff821115612541576125406124ab565b5b61254a8261249a565b9050602081019050919050565b82818337600083830152505050565b600061257961257484612526565b61250b565b90508281526020810184848401111561259557612594612495565b5b6125a0848285612557565b509392505050565b600082601f8301126125bd576125bc612490565b5b81356125cd848260208601612566565b91505092915050565b6000602082840312156125ec576125eb6123e5565b5b600082013567ffffffffffffffff81111561260a576126096123ea565b5b612616848285016125a8565b91505092915050565b600061262a82612356565b9050919050565b61263a8161261f565b82525050565b60006020820190506126556000830184612631565b92915050565b600080fd5b600080fd5b60008083601f84011261267b5761267a612490565b5b8235905067ffffffffffffffff8111156126985761269761265b565b5b6020830191508360018202830111156126b4576126b3612660565b5b9250929050565b600080602083850312156126d2576126d16123e5565b5b600083013567ffffffffffffffff8111156126f0576126ef6123ea565b5b6126fc85828601612665565b92509250509250929050565b6000819050919050565b61271b81612708565b82525050565b61272a816123ef565b82525050565b612739816123a4565b82525050565b612748816122d2565b82525050565b6127578161245a565b82525050565b610100820160008201516127746000850182612712565b5060208201516127876020850182612721565b50604082015161279a6040850182612730565b5060608201516127ad606085018261273f565b5060808201516127c0608085018261274e565b5060a08201516127d360a085018261274e565b5060c08201516127e660c0850182612721565b5060e08201516127f960e0850182612721565b50505050565b600061010082019050612815600083018461275d565b92915050565b600067ffffffffffffffff821115612836576128356124ab565b5b602082029050602081019050919050565b6000819050919050565b61285a81612847565b811461286557600080fd5b50565b60008135905061287781612851565b92915050565b600061289061288b8461281b565b61250b565b905080838252602082019050602084028301858111156128b3576128b2612660565b5b835b818110156128dc57806128c88882612868565b8452602084019350506020810190506128b5565b5050509392505050565b600082601f8301126128fb576128fa612490565b5b813561290b84826020860161287d565b91505092915050565b600067ffffffffffffffff82111561292f5761292e6124ab565b5b602082029050602081019050919050565b612949816123a4565b811461295457600080fd5b50565b60008135905061296681612940565b92915050565b600061297f61297a84612914565b61250b565b905080838252602082019050602084028301858111156129a2576129a1612660565b5b835b818110156129cb57806129b78882612957565b8452602084019350506020810190506129a4565b5050509392505050565b600082601f8301126129ea576129e9612490565b5b81356129fa84826020860161296c565b91505092915050565b60008060008060808587031215612a1d57612a1c6123e5565b5b600085013567ffffffffffffffff811115612a3b57612a3a6123ea565b5b612a47878288016125a8565b945050602085013567ffffffffffffffff811115612a6857612a676123ea565b5b612a74878288016128e6565b935050604085013567ffffffffffffffff811115612a9557612a946123ea565b5b612aa1878288016129d5565b925050606085013567ffffffffffffffff811115612ac257612ac16123ea565b5b612ace878288016128e6565b91505092959194509250565b612ae381612847565b82525050565b6000602082019050612afe6000830184612ada565b92915050565b612b0d81612708565b8114612b1857600080fd5b50565b600081359050612b2a81612b04565b92915050565b600080600060608486031215612b4957612b486123e5565b5b6000612b5786828701612418565b9350506020612b6886828701612418565b9250506040612b7986828701612b1b565b9150509250925092565b600080fd5b612b91816122d2565b8114612b9c57600080fd5b50565b600081359050612bae81612b88565b92915050565b612bbd8161245a565b8114612bc857600080fd5b50565b600081359050612bda81612bb4565b92915050565b60006101008284031215612bf757612bf6612b83565b5b612c0261010061250b565b90506000612c1284828501612b1b565b6000830152506020612c2684828501612418565b6020830152506040612c3a84828501612957565b6040830152506060612c4e84828501612b9f565b6060830152506080612c6284828501612bcb565b60808301525060a0612c7684828501612bcb565b60a08301525060c0612c8a84828501612418565b60c08301525060e0612c9e84828501612418565b60e08301525092915050565b60006101008284031215612cc157612cc06123e5565b5b6000612ccf84828501612be0565b91505092915050565b600081519050919050565b600082825260208201905092915050565b60005b83811015612d12578082015181840152602081019050612cf7565b60008484015250505050565b6000612d2982612cd8565b612d338185612ce3565b9350612d43818560208601612cf4565b612d4c8161249a565b840191505092915050565b60006020820190508181036000830152612d718184612d1e565b905092915050565b6000612d8482612356565b9050919050565b612d9481612d79565b82525050565b6000602082019050612daf6000830184612d8b565b92915050565b612dbe816123ef565b82525050565b6000602082019050612dd96000830184612db5565b92915050565b600081519050612dee81612bb4565b92915050565b600060208284031215612e0a57612e096123e5565b5b6000612e1884828501612ddf565b91505092915050565b7f4e487b7100000000000000000000000000000000000000000000000000000000600052602160045260246000fd5b600080fd5b600080fd5b60008085851115612e6e57612e6d612e50565b5b83861115612e7f57612e7e612e55565b5b6001850283019150848603905094509492505050565b600082825260208201905092915050565b7f416176655061796261636b000000000000000000000000000000000000000000600082015250565b6000612edc600b83612e95565b9150612ee782612ea6565b602082019050919050565b60006040820190508181036000830152612f0b81612ecf565b90508181036020830152612f1f8184612d1e565b905092915050565b600081519050612f3681612401565b92915050565b600060208284031215612f5257612f516123e5565b5b6000612f6084828501612f27565b91505092915050565b600082905092915050565b600082821b905092915050565b6000612f8d8383612f69565b82612f988135612847565b92506020821015612fd857612fd37fffffffffffffffffffffffffffffffffffffffffffffffffffffffffffffffff83602003600802612f74565b831692505b505092915050565b60007fffffffffffffffffffffffffffffffffffffffff00000000000000000000000082169050919050565b60006130188383612f69565b826130238135612fe0565b925060148210156130635761305e7fffffffffffffffffffffffffffffffffffffffff00000000000000000000000083601403600802612f74565b831692505b505092915050565b60007fff0000000000000000000000000000000000000000000000000000000000000082169050919050565b60006130a38383612f69565b826130ae813561306b565b925060018210156130ee576130e97fff0000000000000000000000000000000000000000000000000000000000000083600103600802612f74565b831692505b505092915050565b60007fffff00000000000000000000000000000000000000000000000000000000000082169050919050565b600061312e8383612f69565b8261313981356130f6565b92506002821015613179576131747fffff00000000000000000000000000000000000000000000000000000000000083600203600802612f74565b831692505b505092915050565b7f4e487b7100000000000000000000000000000000000000000000000000000000600052601160045260246000fd5b60006131bb82612708565b91506131c683612708565b92508282019050808211156131de576131dd613181565b5b92915050565b7f4e487b7100000000000000000000000000000000000000000000000000000000600052603260045260246000fd5b600081905092915050565b600061322b600b83613213565b915061323682612ea6565b600b82019050919050565b600061324c8261321e565b9150819050919050565b60008151905061326581612b04565b92915050565b60008151905061327a81612940565b92915050565b60008151905061328f81612b88565b92915050565b600061010082840312156132ac576132ab612b83565b5b6132b761010061250b565b905060006132c784828501613256565b60008301525060206132db84828501612f27565b60208301525060406132ef8482850161326b565b604083015250606061330384828501613280565b606083015250608061331784828501612ddf565b60808301525060a061332b84828501612ddf565b60a08301525060c061333f84828501612f27565b60c08301525060e061335384828501612f27565b60e08301525092915050565b60006101008284031215613376576133756123e5565b5b600061338484828501613295565b91505092915050565b60007fffffffff0000000000000000000000000000000000000000000000000000000082169050919050565b6000819050919050565b6133d46133cf8261338d565b6133b9565b82525050565b60006133e682846133c3565b60048201915081905092915050565b600081905092915050565b600061340b82612cd8565b61341581856133f5565b9350613425818560208601612cf4565b80840191505092915050565b6000819050919050565b61344c61344782612847565b613431565b82525050565b600061345e8285613400565b915061346a828461343b565b6020820191508190509392505050565b6000819050919050565b61349561349082612fe0565b61347a565b82525050565b60006134a78285613400565b91506134b38284613484565b6014820191508190509392505050565b6000819050919050565b6134de6134d98261306b565b6134c3565b82525050565b60006134f08285613400565b91506134fc82846134cd565b6001820191508190509392505050565b6000819050919050565b613527613522826130f6565b61350c565b82525050565b60006135398285613400565b91506135458284613516565b6002820191508190509392505050565b61355e81612708565b82525050565b60006080820190506135796000830187612db5565b6135866020830186613555565b6135936040830185613555565b6135a06060830184612db5565b95945050505050565b6000602082840312156135bf576135be6123e5565b5b60006135cd84828501613256565b91505092915050565b600060c0820190506135eb6000830189612db5565b6135f86020830188612db5565b6136056040830187613555565b6136126060830186613555565b61361f6080830185612db5565b61362c60a0830184612db5565b979650505050505050565b600061364282612708565b915061364d83612708565b925082820390508181111561366557613664613181565b5b92915050565b60006040820190506136806000830185612db5565b61368d6020830184613555565b9392505050565b60006040820190506136a96000830185612db5565b6136b66020830184612db5565b9392505050565b600064ffffffffff82169050919050565b6136d7816136bd565b81146136e257600080fd5b50565b6000815190506136f4816136ce565b92915050565b60008060008060008060008060006101208a8c03121561371d5761371c6123e5565b5b600061372b8c828d01613256565b995050602061373c8c828d01613256565b985050604061374d8c828d01613256565b975050606061375e8c828d01613256565b965050608061376f8c828d01613256565b95505060a06137808c828d01613256565b94505060c06137918c828d01613256565b93505060e06137a28c828d016136e5565b9250506101006137b48c828d01612ddf565b9150509295985092959850929598565b60006137cf826123a4565b91506137da836123a4565b9250828203905060ff8111156137f3576137f2613181565b5b92915050565b600067ffffffffffffffff821115613814576138136124ab565b5b602082029050602081019050919050565b6000613838613833846137f9565b61250b565b9050808382526020820190506020840283018581111561385b5761385a612660565b5b835b8181101561388457806138708882612f27565b84526020840193505060208101905061385d565b5050509392505050565b600082601f8301126138a3576138a2612490565b5b81516138b3848260208601613825565b91505092915050565b6000602082840312156138d2576138d16123e5565b5b600082015167ffffffffffffffff8111156138f0576138ef6123ea565b5b6138fc8482850161388e565b91505092915050565b7f5361666545524332303a204552433230206f7065726174696f6e20646964206e60008201527f6f74207375636365656400000000000000000000000000000000000000000000602082015250565b6000613961602a83612e95565b915061396c82613905565b604082019050919050565b6000602082019050818103600083015261399081613954565b9050919050565b60006060820190506139ac6000830186612db5565b6139b96020830185612db5565b6139c66040830184613555565b949350505050565b6000819050919050565b60006139f36139ee6139e9846139ce565b61232a565b6123a4565b9050919050565b613a03816139d8565b82525050565b6000604082019050613a1e6000830185612db5565b613a2b60208301846139fa565b9392505050565b6000613a3e8284613400565b915081905092915050565b600081519050919050565b6000613a5f82613a49565b613a698185612e95565b9350613a79818560208601612cf4565b613a828161249a565b840191505092915050565b60006020820190508181036000830152613aa78184613a54565b90509291505056fea2646970667358221220858dce268ae8577730423edc38cc68ddb365e452cada7b4a89f6da4199ab54be64736f6c63430008180033",
  "linkReferences": {},
  "deployedLinkReferences": {}
}