{
  "_format": "hh-sol-artifact-1",
  "contractName": "UniswapSwap",
  "sourceName": "contracts/AAVE/AAVEProtocol/UniswapSwap.sol",
  "abi": [
    {
      "inputs": [],
      "name": "NonContractCall",
      "type": "error"
    },
    {
      "inputs": [],
      "name": "ReturnIndexValueError",
      "type": "error"
    },
    {
      "inputs": [],
      "name": "SenderNotAdmin",
      "type": "error"
    },
    {
      "inputs": [],
      "name": "SenderNotOwner",
      "type": "error"
    },
    {
      "inputs": [],
      "name": "SubIndexValueError",
      "type": "error"
    },
    {
      "anonymous": false,
      "inputs": [
        {
          "indexed": true,
          "internalType": "string",
          "name": "logName",
          "type": "string"
        },
        {
          "indexed": false,
          "internalType": "bytes",
          "name": "data",
          "type": "bytes"
        }
      ],
      "name": "ActionEvent",
      "type": "event"
    },
    {
      "inputs": [],
      "name": "AAVE_REFERRAL_CODE",
      "outputs": [
        {
          "internalType": "uint16",
          "name": "",
          "type": "uint16"
        }
      ],
      "stateMutability": "view",
      "type": "function"
    },
    {
      "inputs": [],
      "name": "NO_PARAM_MAPPING",
      "outputs": [
        {
          "internalType": "uint8",
          "name": "",
          "type": "uint8"
        }
      ],
      "stateMutability": "view",
      "type": "function"
    },
    {
      "inputs": [],
      "name": "RETURN_MAX_INDEX_VALUE",
      "outputs": [
        {
          "internalType": "uint8",
          "name": "",
          "type": "uint8"
        }
      ],
      "stateMutability": "view",
      "type": "function"
    },
    {
      "inputs": [],
      "name": "RETURN_MIN_INDEX_VALUE",
      "outputs": [
        {
          "internalType": "uint8",
          "name": "",
          "type": "uint8"
        }
      ],
      "stateMutability": "view",
      "type": "function"
    },
    {
      "inputs": [],
      "name": "SUB_MAX_INDEX_VALUE",
      "outputs": [
        {
          "internalType": "uint8",
          "name": "",
          "type": "uint8"
        }
      ],
      "stateMutability": "view",
      "type": "function"
    },
    {
      "inputs": [],
      "name": "SUB_MIN_INDEX_VALUE",
      "outputs": [
        {
          "internalType": "uint8",
          "name": "",
          "type": "uint8"
        }
      ],
      "stateMutability": "view",
      "type": "function"
    },
    {
      "inputs": [],
      "name": "actionType",
      "outputs": [
        {
          "internalType": "uint8",
          "name": "",
          "type": "uint8"
        }
      ],
      "stateMutability": "pure",
      "type": "function"
    },
    {
      "inputs": [],
      "name": "adminData",
      "outputs": [
        {
          "internalType": "contract AdminData",
          "name": "",
          "type": "address"
        }
      ],
      "stateMutability": "view",
      "type": "function"
    },
    {
      "inputs": [
        {
          "internalType": "bytes",
          "name": "_callData",
          "type": "bytes"
        },
        {
          "internalType": "bytes32[]",
          "name": "_subData",
          "type": "bytes32[]"
        },
        {
          "internalType": "uint8[]",
          "name": "_paramMapping",
          "type": "uint8[]"
        },
        {
          "internalType": "bytes32[]",
          "name": "_returnValues",
          "type": "bytes32[]"
        }
      ],
      "name": "executeAction",
      "outputs": [
        {
          "internalType": "bytes32",
          "name": "",
          "type": "bytes32"
        }
      ],
      "stateMutability": "payable",
      "type": "function"
    },
    {
      "inputs": [
        {
          "internalType": "bytes",
          "name": "_callData",
          "type": "bytes"
        }
      ],
      "name": "executeActionDirect",
      "outputs": [],
      "stateMutability": "payable",
      "type": "function"
    },
    {
      "inputs": [
        {
          "internalType": "address",
          "name": "_proxy",
          "type": "address"
        }
      ],
      "name": "isDSProxy",
      "outputs": [
        {
          "internalType": "bool",
          "name": "",
          "type": "bool"
        }
      ],
      "stateMutability": "view",
      "type": "function"
    },
    {
      "inputs": [],
      "name": "kill",
      "outputs": [],
      "stateMutability": "nonpayable",
      "type": "function"
    },
    {
      "inputs": [],
      "name": "logger",
      "outputs": [
        {
          "internalType": "contract DefisaverLogger",
          "name": "",
          "type": "address"
        }
      ],
      "stateMutability": "view",
      "type": "function"
    },
    {
      "inputs": [
        {
          "internalType": "bytes",
          "name": "_callData",
          "type": "bytes"
        }
      ],
      "name": "parseInputs",
      "outputs": [
        {
          "components": [
            {
              "internalType": "address",
              "name": "tokenIn",
              "type": "address"
            },
            {
              "internalType": "address",
              "name": "tokenOut",
              "type": "address"
            },
            {
              "internalType": "uint24",
              "name": "fee",
              "type": "uint24"
            },
            {
              "internalType": "address",
              "name": "recipient",
              "type": "address"
            },
            {
              "internalType": "uint256",
              "name": "amountIn",
              "type": "uint256"
            },
            {
              "internalType": "uint256",
              "name": "amountOutMinimum",
              "type": "uint256"
            },
            {
              "internalType": "uint160",
              "name": "sqrtPriceLimitX96",
              "type": "uint160"
            },
            {
              "internalType": "bool",
              "name": "pullTokens",
              "type": "bool"
            }
          ],
          "internalType": "struct UniswapSwap.Params",
          "name": "params",
          "type": "tuple"
        }
      ],
      "stateMutability": "pure",
      "type": "function"
    },
    {
      "inputs": [],
      "name": "registry",
      "outputs": [
        {
          "internalType": "contract DFSRegistry",
          "name": "",
          "type": "address"
        }
      ],
      "stateMutability": "view",
      "type": "function"
    },
    {
      "inputs": [
        {
          "internalType": "address",
          "name": "_token",
          "type": "address"
        },
        {
          "internalType": "address",
          "name": "_receiver",
          "type": "address"
        },
        {
          "internalType": "uint256",
          "name": "_amount",
          "type": "uint256"
        }
      ],
      "name": "withdrawStuckFunds",
      "outputs": [],
      "stateMutability": "nonpayable",
      "type": "function"
    }
  ],
  "bytecode": "0x608060405234801561001057600080fd5b506122ba806100206000396000f3fe6080604052600436106100f35760003560e01c80637b1039991161008a5780639864dcdd116100595780639864dcdd14610302578063c579d4901461032d578063d3c2e7ed14610356578063f24ccbfe14610381576100f3565b80637b1039991461023f5780638bcb62161461026a5780638df50f74146102955780639093410d146102c5576100f3565b8063247492f8116100c6578063247492f8146101b65780632fa13cb8146101e1578063389f87ff1461020c57806341c0e1b514610228576100f3565b806305a363de146100f857806306d2ae8e146101235780630f2eee421461014e5780631c451ceb14610179575b600080fd5b34801561010457600080fd5b5061010d6103ac565b60405161011a9190611326565b60405180910390f35b34801561012f57600080fd5b506101386103b1565b60405161014591906113c0565b60405180910390f35b34801561015a57600080fd5b506101636103c9565b60405161017091906113f7565b60405180910390f35b34801561018557600080fd5b506101a0600480360381019061019b9190611464565b6103ce565b6040516101ad91906114ac565b60405180910390f35b3480156101c257600080fd5b506101cb610465565b6040516101d891906113f7565b60405180910390f35b3480156101ed57600080fd5b506101f661046e565b60405161020391906113f7565b60405180910390f35b6102266004803603810190610221919061160d565b610473565b005b34801561023457600080fd5b5061023d61048d565b005b34801561024b57600080fd5b5061025461058d565b6040516102619190611677565b60405180910390f35b34801561027657600080fd5b5061027f6105a5565b60405161028c91906113f7565b60405180910390f35b6102af60048036038101906102aa919061187f565b6105aa565b6040516102bc9190611965565b60405180910390f35b3480156102d157600080fd5b506102ec60048036038101906102e7919061160d565b6105d0565b6040516102f99190611a86565b60405180910390f35b34801561030e57600080fd5b506103176105f3565b60405161032491906113f7565b60405180910390f35b34801561033957600080fd5b50610354600480360381019061034f9190611ace565b6105f8565b005b34801561036257600080fd5b5061036b6107a3565b60405161037891906113f7565b60405180910390f35b34801561038d57600080fd5b506103966107a8565b6040516103a39190611b42565b60405180910390f35b604081565b73d47d8d97cad12a866900eec6cde1962529f2535181565b608081565b6000735a15566417e6c1c9546523066500bddbc53f88c773ffffffffffffffffffffffffffffffffffffffff166329710388836040518263ffffffff1660e01b815260040161041d9190611b6c565b602060405180830381865afa15801561043a573d6000803e3d6000fd5b505050506040513d601f19601f8201168201806040525081019061045e9190611bb3565b9050919050565b60006001905090565b600081565b600061047e826105d0565b9050610489816107c0565b5050565b3373ffffffffffffffffffffffffffffffffffffffff1673d47d8d97cad12a866900eec6cde1962529f2535173ffffffffffffffffffffffffffffffffffffffff1663f851a4406040518163ffffffff1660e01b8152600401602060405180830381865afa158015610503573d6000803e3d6000fd5b505050506040513d601f19601f820116820180604052508101906105279190611bf5565b73ffffffffffffffffffffffffffffffffffffffff1614610574576040517fa6c827a900000000000000000000000000000000000000000000000000000000815260040160405180910390fd5b3373ffffffffffffffffffffffffffffffffffffffff16ff5b73bf1cac12db60819bfa71a328282ecbc1d40443aa81565b600181565b6000806105b6866105d0565b90506105c1816107c0565b6000801b915050949350505050565b6105d8611265565b818060200190518101906105ec9190611d5e565b9050919050565b607f81565b3373ffffffffffffffffffffffffffffffffffffffff1673d47d8d97cad12a866900eec6cde1962529f2535173ffffffffffffffffffffffffffffffffffffffff16638da5cb5b6040518163ffffffff1660e01b8152600401602060405180830381865afa15801561066e573d6000803e3d6000fd5b505050506040513d601f19601f820116820180604052508101906106929190611bf5565b73ffffffffffffffffffffffffffffffffffffffff16146106df576040517f19494c8a00000000000000000000000000000000000000000000000000000000815260040160405180910390fd5b73eeeeeeeeeeeeeeeeeeeeeeeeeeeeeeeeeeeeeeee73ffffffffffffffffffffffffffffffffffffffff168373ffffffffffffffffffffffffffffffffffffffff1603610772578173ffffffffffffffffffffffffffffffffffffffff166108fc829081150290604051600060405180830381858888f1935050505015801561076c573d6000803e3d6000fd5b5061079e565b61079d82828573ffffffffffffffffffffffffffffffffffffffff16610a119092919063ffffffff16565b5b505050565b60ff81565b73e6f9a5c850dbcd12bc64f40d692f537250adec3881565b8060e00151156107ff576107fd338260800151836000015173ffffffffffffffffffffffffffffffffffffffff16610a979092919063ffffffff16565b505b600073e592427a0aece92de3edee1f18e0157c05861564905061084b818360800151846000015173ffffffffffffffffffffffffffffffffffffffff16610bcc9092919063ffffffff16565b6000604051806101000160405280846000015173ffffffffffffffffffffffffffffffffffffffff168152602001846020015173ffffffffffffffffffffffffffffffffffffffff168152602001846040015162ffffff168152602001846060015173ffffffffffffffffffffffffffffffffffffffff16815260200161012c426108d69190611dbb565b8152602001846080015181526020018460a0015181526020018460c0015173ffffffffffffffffffffffffffffffffffffffff16815250905060008273ffffffffffffffffffffffffffffffffffffffff1663414bf389836040518263ffffffff1660e01b815260040161094a9190611e91565b6020604051808303816000875af1158015610969573d6000803e3d6000fd5b505050506040513d601f19601f8201168201806040525081019061098d9190611ead565b905060405161099b90611f31565b60405180910390207f2b6d22f419271bcc89bbac8deec947c664365d6e24d06fef0ca7c325c704dce3856000015186602001518760800151856040516020016109e79493929190611f55565b604051602081830303815290604052604051610a039190612019565b60405180910390a250505050565b610a928363a9059cbb60e01b8484604051602401610a3092919061203b565b604051602081830303815290604052907bffffffffffffffffffffffffffffffffffffffffffffffffffffffff19166020820180517bffffffffffffffffffffffffffffffffffffffffffffffffffffffff8381831617835250505050610cc9565b505050565b60007fffffffffffffffffffffffffffffffffffffffffffffffffffffffffffffffff8203610acd57610aca8484610d91565b91505b600073ffffffffffffffffffffffffffffffffffffffff168373ffffffffffffffffffffffffffffffffffffffff1614158015610b3657503073ffffffffffffffffffffffffffffffffffffffff168373ffffffffffffffffffffffffffffffffffffffff1614155b8015610b82575073eeeeeeeeeeeeeeeeeeeeeeeeeeeeeeeeeeeeeeee73ffffffffffffffffffffffffffffffffffffffff168473ffffffffffffffffffffffffffffffffffffffff1614155b8015610b8f575060008214155b15610bc257610bc18330848773ffffffffffffffffffffffffffffffffffffffff16610e7c909392919063ffffffff16565b5b8190509392505050565b73eeeeeeeeeeeeeeeeeeeeeeeeeeeeeeeeeeeeeeee73ffffffffffffffffffffffffffffffffffffffff168373ffffffffffffffffffffffffffffffffffffffff160315610cc457808373ffffffffffffffffffffffffffffffffffffffff1663dd62ed3e30856040518363ffffffff1660e01b8152600401610c50929190612064565b602060405180830381865afa158015610c6d573d6000803e3d6000fd5b505050506040513d601f19601f82011682018060405250810190610c919190611ead565b1015610cc357610cc282828573ffffffffffffffffffffffffffffffffffffffff16610f059092919063ffffffff16565b5b5b505050565b6000610d2b826040518060400160405280602081526020017f5361666545524332303a206c6f772d6c6576656c2063616c6c206661696c65648152508573ffffffffffffffffffffffffffffffffffffffff166110229092919063ffffffff16565b9050600081511480610d4d575080806020019051810190610d4c9190611bb3565b5b610d8c576040517f08c379a0000000000000000000000000000000000000000000000000000000008152600401610d8390612110565b60405180910390fd5b505050565b600073eeeeeeeeeeeeeeeeeeeeeeeeeeeeeeeeeeeeeeee73ffffffffffffffffffffffffffffffffffffffff168373ffffffffffffffffffffffffffffffffffffffff1603610df9578173ffffffffffffffffffffffffffffffffffffffff16319050610e76565b8273ffffffffffffffffffffffffffffffffffffffff166370a08231836040518263ffffffff1660e01b8152600401610e329190611b6c565b602060405180830381865afa158015610e4f573d6000803e3d6000fd5b505050506040513d601f19601f82011682018060405250810190610e739190611ead565b90505b92915050565b610eff846323b872dd60e01b858585604051602401610e9d93929190612130565b604051602081830303815290604052907bffffffffffffffffffffffffffffffffffffffffffffffffffffffff19166020820180517bffffffffffffffffffffffffffffffffffffffffffffffffffffffff8381831617835250505050610cc9565b50505050565b600063095ea7b360e01b8383604051602401610f2292919061203b565b604051602081830303815290604052907bffffffffffffffffffffffffffffffffffffffffffffffffffffffff19166020820180517bffffffffffffffffffffffffffffffffffffffffffffffffffffffff83818316178352505050509050610f8b848261103a565b61101c576110118463095ea7b360e01b856000604051602401610faf9291906121a2565b604051602081830303815290604052907bffffffffffffffffffffffffffffffffffffffffffffffffffffffff19166020820180517bffffffffffffffffffffffffffffffffffffffffffffffffffffffff8381831617835250505050610cc9565b61101b8482610cc9565b5b50505050565b60606110318484600085611101565b90509392505050565b60008060008473ffffffffffffffffffffffffffffffffffffffff16846040516110649190612207565b6000604051808303816000865af19150503d80600081146110a1576040519150601f19603f3d011682016040523d82523d6000602084013e6110a6565b606091505b50915091508180156110d457506000815114806110d35750808060200190518101906110d29190611bb3565b5b5b80156110f7575060008573ffffffffffffffffffffffffffffffffffffffff163b115b9250505092915050565b606061110c8561121a565b611142576040517f304619b500000000000000000000000000000000000000000000000000000000815260040160405180910390fd5b6000808673ffffffffffffffffffffffffffffffffffffffff16858760405161116b9190612207565b60006040518083038185875af1925050503d80600081146111a8576040519150601f19603f3d011682016040523d82523d6000602084013e6111ad565b606091505b509150915081156111c2578092505050611212565b6000815111156111d55780518082602001fd5b836040517f08c379a00000000000000000000000000000000000000000000000000000000081526004016112099190612262565b60405180910390fd5b949350505050565b60008060007fc5d2460186f7233c927e7db2dcc703c0e500b653ca82273b7bfad8045d85a47060001b9050833f915080821415801561125c57506000801b8214155b92505050919050565b604051806101000160405280600073ffffffffffffffffffffffffffffffffffffffff168152602001600073ffffffffffffffffffffffffffffffffffffffff168152602001600062ffffff168152602001600073ffffffffffffffffffffffffffffffffffffffff1681526020016000815260200160008152602001600073ffffffffffffffffffffffffffffffffffffffff1681526020016000151581525090565b600061ffff82169050919050565b61132081611309565b82525050565b600060208201905061133b6000830184611317565b92915050565b600073ffffffffffffffffffffffffffffffffffffffff82169050919050565b6000819050919050565b600061138661138161137c84611341565b611361565b611341565b9050919050565b60006113988261136b565b9050919050565b60006113aa8261138d565b9050919050565b6113ba8161139f565b82525050565b60006020820190506113d560008301846113b1565b92915050565b600060ff82169050919050565b6113f1816113db565b82525050565b600060208201905061140c60008301846113e8565b92915050565b6000604051905090565b600080fd5b600080fd5b600061143182611341565b9050919050565b61144181611426565b811461144c57600080fd5b50565b60008135905061145e81611438565b92915050565b60006020828403121561147a5761147961141c565b5b60006114888482850161144f565b91505092915050565b60008115159050919050565b6114a681611491565b82525050565b60006020820190506114c1600083018461149d565b92915050565b600080fd5b600080fd5b6000601f19601f8301169050919050565b7f4e487b7100000000000000000000000000000000000000000000000000000000600052604160045260246000fd5b61151a826114d1565b810181811067ffffffffffffffff82111715611539576115386114e2565b5b80604052505050565b600061154c611412565b90506115588282611511565b919050565b600067ffffffffffffffff821115611578576115776114e2565b5b611581826114d1565b9050602081019050919050565b82818337600083830152505050565b60006115b06115ab8461155d565b611542565b9050828152602081018484840111156115cc576115cb6114cc565b5b6115d784828561158e565b509392505050565b600082601f8301126115f4576115f36114c7565b5b813561160484826020860161159d565b91505092915050565b6000602082840312156116235761162261141c565b5b600082013567ffffffffffffffff81111561164157611640611421565b5b61164d848285016115df565b91505092915050565b60006116618261138d565b9050919050565b61167181611656565b82525050565b600060208201905061168c6000830184611668565b92915050565b600067ffffffffffffffff8211156116ad576116ac6114e2565b5b602082029050602081019050919050565b600080fd5b6000819050919050565b6116d6816116c3565b81146116e157600080fd5b50565b6000813590506116f3816116cd565b92915050565b600061170c61170784611692565b611542565b9050808382526020820190506020840283018581111561172f5761172e6116be565b5b835b81811015611758578061174488826116e4565b845260208401935050602081019050611731565b5050509392505050565b600082601f830112611777576117766114c7565b5b81356117878482602086016116f9565b91505092915050565b600067ffffffffffffffff8211156117ab576117aa6114e2565b5b602082029050602081019050919050565b6117c5816113db565b81146117d057600080fd5b50565b6000813590506117e2816117bc565b92915050565b60006117fb6117f684611790565b611542565b9050808382526020820190506020840283018581111561181e5761181d6116be565b5b835b81811015611847578061183388826117d3565b845260208401935050602081019050611820565b5050509392505050565b600082601f830112611866576118656114c7565b5b81356118768482602086016117e8565b91505092915050565b600080600080608085870312156118995761189861141c565b5b600085013567ffffffffffffffff8111156118b7576118b6611421565b5b6118c3878288016115df565b945050602085013567ffffffffffffffff8111156118e4576118e3611421565b5b6118f087828801611762565b935050604085013567ffffffffffffffff81111561191157611910611421565b5b61191d87828801611851565b925050606085013567ffffffffffffffff81111561193e5761193d611421565b5b61194a87828801611762565b91505092959194509250565b61195f816116c3565b82525050565b600060208201905061197a6000830184611956565b92915050565b61198981611426565b82525050565b600062ffffff82169050919050565b6119a78161198f565b82525050565b6000819050919050565b6119c0816119ad565b82525050565b6119cf81611341565b82525050565b6119de81611491565b82525050565b610100820160008201516119fb6000850182611980565b506020820151611a0e6020850182611980565b506040820151611a21604085018261199e565b506060820151611a346060850182611980565b506080820151611a4760808501826119b7565b5060a0820151611a5a60a08501826119b7565b5060c0820151611a6d60c08501826119c6565b5060e0820151611a8060e08501826119d5565b50505050565b600061010082019050611a9c60008301846119e4565b92915050565b611aab816119ad565b8114611ab657600080fd5b50565b600081359050611ac881611aa2565b92915050565b600080600060608486031215611ae757611ae661141c565b5b6000611af58682870161144f565b9350506020611b068682870161144f565b9250506040611b1786828701611ab9565b9150509250925092565b6000611b2c8261138d565b9050919050565b611b3c81611b21565b82525050565b6000602082019050611b576000830184611b33565b92915050565b611b6681611426565b82525050565b6000602082019050611b816000830184611b5d565b92915050565b611b9081611491565b8114611b9b57600080fd5b50565b600081519050611bad81611b87565b92915050565b600060208284031215611bc957611bc861141c565b5b6000611bd784828501611b9e565b91505092915050565b600081519050611bef81611438565b92915050565b600060208284031215611c0b57611c0a61141c565b5b6000611c1984828501611be0565b91505092915050565b600080fd5b611c308161198f565b8114611c3b57600080fd5b50565b600081519050611c4d81611c27565b92915050565b600081519050611c6281611aa2565b92915050565b611c7181611341565b8114611c7c57600080fd5b50565b600081519050611c8e81611c68565b92915050565b60006101008284031215611cab57611caa611c22565b5b611cb6610100611542565b90506000611cc684828501611be0565b6000830152506020611cda84828501611be0565b6020830152506040611cee84828501611c3e565b6040830152506060611d0284828501611be0565b6060830152506080611d1684828501611c53565b60808301525060a0611d2a84828501611c53565b60a08301525060c0611d3e84828501611c7f565b60c08301525060e0611d5284828501611b9e565b60e08301525092915050565b60006101008284031215611d7557611d7461141c565b5b6000611d8384828501611c94565b91505092915050565b7f4e487b7100000000000000000000000000000000000000000000000000000000600052601160045260246000fd5b6000611dc6826119ad565b9150611dd1836119ad565b9250828201905080821115611de957611de8611d8c565b5b92915050565b61010082016000820151611e066000850182611980565b506020820151611e196020850182611980565b506040820151611e2c604085018261199e565b506060820151611e3f6060850182611980565b506080820151611e5260808501826119b7565b5060a0820151611e6560a08501826119b7565b5060c0820151611e7860c08501826119b7565b5060e0820151611e8b60e08501826119c6565b50505050565b600061010082019050611ea76000830184611def565b92915050565b600060208284031215611ec357611ec261141c565b5b6000611ed184828501611c53565b91505092915050565b600081905092915050565b7f556e697377617053776170000000000000000000000000000000000000000000600082015250565b6000611f1b600b83611eda565b9150611f2682611ee5565b600b82019050919050565b6000611f3c82611f0e565b9150819050919050565b611f4f816119ad565b82525050565b6000608082019050611f6a6000830187611b5d565b611f776020830186611b5d565b611f846040830185611f46565b611f916060830184611f46565b95945050505050565b600081519050919050565b600082825260208201905092915050565b60005b83811015611fd4578082015181840152602081019050611fb9565b60008484015250505050565b6000611feb82611f9a565b611ff58185611fa5565b9350612005818560208601611fb6565b61200e816114d1565b840191505092915050565b600060208201905081810360008301526120338184611fe0565b905092915050565b60006040820190506120506000830185611b5d565b61205d6020830184611f46565b9392505050565b60006040820190506120796000830185611b5d565b6120866020830184611b5d565b9392505050565b600082825260208201905092915050565b7f5361666545524332303a204552433230206f7065726174696f6e20646964206e60008201527f6f74207375636365656400000000000000000000000000000000000000000000602082015250565b60006120fa602a8361208d565b91506121058261209e565b604082019050919050565b60006020820190508181036000830152612129816120ed565b9050919050565b60006060820190506121456000830186611b5d565b6121526020830185611b5d565b61215f6040830184611f46565b949350505050565b6000819050919050565b600061218c61218761218284612167565b611361565b6113db565b9050919050565b61219c81612171565b82525050565b60006040820190506121b76000830185611b5d565b6121c46020830184612193565b9392505050565b600081905092915050565b60006121e182611f9a565b6121eb81856121cb565b93506121fb818560208601611fb6565b80840191505092915050565b600061221382846121d6565b915081905092915050565b600081519050919050565b60006122348261221e565b61223e818561208d565b935061224e818560208601611fb6565b612257816114d1565b840191505092915050565b6000602082019050818103600083015261227c8184612229565b90509291505056fea2646970667358221220e4d15e5d42000b71b90eae4b1f48e6c1dbf33f359506ba01f3407a502030881f64736f6c63430008180033",
  "linkReferences": {},
  "deployedLinkReferences": {}
}