{
  "_format": "hh-sol-artifact-1",
  "contractName": "MockReader",
  "sourceName": "contracts/GMX/GMXShort/Mock/MockReader.sol",
  "abi": [
    {
      "inputs": [
        {
          "internalType": "address",
          "name": "_marketAddress",
          "type": "address"
        }
      ],
      "stateMutability": "nonpayable",
      "type": "constructor"
    },
    {
      "inputs": [
        {
          "internalType": "address",
          "name": "",
          "type": "address"
        },
        {
          "internalType": "address",
          "name": "account",
          "type": "address"
        },
        {
          "internalType": "uint256",
          "name": "",
          "type": "uint256"
        },
        {
          "internalType": "uint256",
          "name": "",
          "type": "uint256"
        }
      ],
      "name": "getAccountPositions",
      "outputs": [
        {
          "components": [
            {
              "components": [
                {
                  "internalType": "address",
                  "name": "account",
                  "type": "address"
                },
                {
                  "internalType": "address",
                  "name": "market",
                  "type": "address"
                },
                {
                  "internalType": "address",
                  "name": "collateralToken",
                  "type": "address"
                }
              ],
              "internalType": "struct Addresses",
              "name": "addresses",
              "type": "tuple"
            },
            {
              "components": [
                {
                  "internalType": "uint256",
                  "name": "sizeInUsd",
                  "type": "uint256"
                },
                {
                  "internalType": "uint256",
                  "name": "sizeInTokens",
                  "type": "uint256"
                },
                {
                  "internalType": "uint256",
                  "name": "collateralAmount",
                  "type": "uint256"
                },
                {
                  "internalType": "uint256",
                  "name": "borrowingFactor",
                  "type": "uint256"
                },
                {
                  "internalType": "uint256",
                  "name": "fundingFeeAmountPerSize",
                  "type": "uint256"
                },
                {
                  "internalType": "uint256",
                  "name": "longTokenClaimableFundingAmountPerSize",
                  "type": "uint256"
                },
                {
                  "internalType": "uint256",
                  "name": "shortTokenClaimableFundingAmountPerSize",
                  "type": "uint256"
                },
                {
                  "internalType": "uint256",
                  "name": "increasedAtTime",
                  "type": "uint256"
                },
                {
                  "internalType": "uint256",
                  "name": "decreasedAtTime",
                  "type": "uint256"
                }
              ],
              "internalType": "struct Numbers",
              "name": "numbers",
              "type": "tuple"
            },
            {
              "components": [
                {
                  "internalType": "bool",
                  "name": "isLong",
                  "type": "bool"
                }
              ],
              "internalType": "struct Flags",
              "name": "flags",
              "type": "tuple"
            }
          ],
          "internalType": "struct PositionProps[]",
          "name": "",
          "type": "tuple[]"
        }
      ],
      "stateMutability": "view",
      "type": "function"
    },
    {
      "inputs": [],
      "name": "marketAddress",
      "outputs": [
        {
          "internalType": "address",
          "name": "",
          "type": "address"
        }
      ],
      "stateMutability": "view",
      "type": "function"
    }
  ],
  "bytecode": "0x608060405234801561001057600080fd5b5060405161086b38038061086b833981810160405281019061003291906100db565b806000806101000a81548173ffffffffffffffffffffffffffffffffffffffff021916908373ffffffffffffffffffffffffffffffffffffffff16021790555050610108565b600080fd5b600073ffffffffffffffffffffffffffffffffffffffff82169050919050565b60006100a88261007d565b9050919050565b6100b88161009d565b81146100c357600080fd5b50565b6000815190506100d5816100af565b92915050565b6000602082840312156100f1576100f0610078565b5b60006100ff848285016100c6565b91505092915050565b610754806101176000396000f3fe608060405234801561001057600080fd5b50600436106100365760003560e01c806377cfb1621461003b578063956236411461006b575b600080fd5b610055600480360381019061005091906103cb565b610089565b6040516100629190610674565b60405180910390f35b610073610217565b60405161008091906106a5565b60405180910390f35b60606000600167ffffffffffffffff8111156100a8576100a76106c0565b5b6040519080825280602002602001820160405280156100e157816020015b6100ce61023b565b8152602001906001900390816100c65790505b509050604051806060016040528060405180606001604052808873ffffffffffffffffffffffffffffffffffffffff16815260200160008054906101000a900473ffffffffffffffffffffffffffffffffffffffff1673ffffffffffffffffffffffffffffffffffffffff168152602001600073ffffffffffffffffffffffffffffffffffffffff168152508152602001604051806101200160405280683635c9adc5dea00000815260200168056bc75e2d63100000815260200168056bc75e2d631000008152602001600081526020016000815260200160008152602001600081526020014281526020016000815250815260200160405180602001604052806000151581525081525081600081518110610200576101ff6106ef565b5b602002602001018190525080915050949350505050565b60008054906101000a900473ffffffffffffffffffffffffffffffffffffffff1681565b604051806060016040528061024e61026e565b815260200161025b6102d1565b815260200161026861031d565b81525090565b6040518060600160405280600073ffffffffffffffffffffffffffffffffffffffff168152602001600073ffffffffffffffffffffffffffffffffffffffff168152602001600073ffffffffffffffffffffffffffffffffffffffff1681525090565b6040518061012001604052806000815260200160008152602001600081526020016000815260200160008152602001600081526020016000815260200160008152602001600081525090565b60405180602001604052806000151581525090565b600080fd5b600073ffffffffffffffffffffffffffffffffffffffff82169050919050565b600061036282610337565b9050919050565b61037281610357565b811461037d57600080fd5b50565b60008135905061038f81610369565b92915050565b6000819050919050565b6103a881610395565b81146103b357600080fd5b50565b6000813590506103c58161039f565b92915050565b600080600080608085870312156103e5576103e4610332565b5b60006103f387828801610380565b945050602061040487828801610380565b9350506040610415878288016103b6565b9250506060610426878288016103b6565b91505092959194509250565b600081519050919050565b600082825260208201905092915050565b6000819050602082019050919050565b61046781610357565b82525050565b606082016000820151610483600085018261045e565b506020820151610496602085018261045e565b5060408201516104a9604085018261045e565b50505050565b6104b881610395565b82525050565b610120820160008201516104d560008501826104af565b5060208201516104e860208501826104af565b5060408201516104fb60408501826104af565b50606082015161050e60608501826104af565b50608082015161052160808501826104af565b5060a082015161053460a08501826104af565b5060c082015161054760c08501826104af565b5060e082015161055a60e08501826104af565b5061010082015161056f6101008501826104af565b50505050565b60008115159050919050565b61058a81610575565b82525050565b6020820160008201516105a66000850182610581565b50505050565b6101a0820160008201516105c3600085018261046d565b5060208201516105d660608501826104be565b5060408201516105ea610180850182610590565b50505050565b60006105fc83836105ac565b6101a08301905092915050565b6000602082019050919050565b600061062182610432565b61062b818561043d565b93506106368361044e565b8060005b8381101561066757815161064e88826105f0565b975061065983610609565b92505060018101905061063a565b5085935050505092915050565b6000602082019050818103600083015261068e8184610616565b905092915050565b61069f81610357565b82525050565b60006020820190506106ba6000830184610696565b92915050565b7f4e487b7100000000000000000000000000000000000000000000000000000000600052604160045260246000fd5b7f4e487b7100000000000000000000000000000000000000000000000000000000600052603260045260246000fdfea264697066735822122053f8c2a2b95b87eba3c107a6f6af56658c570f7d1e79d4fafc7dcccdd07ccf6164736f6c63430008180033",
  "linkReferences": {},
  "deployedLinkReferences": {}
}