{
  "_format": "hh-sol-artifact-1",
  "contractName": "AaveHelper",
  "sourceName": "contracts/AAVE/AAVEProtocol/helpers/AaveHelper.sol",
  "abi": [
    {
      "inputs": [],
      "name": "AAVE_REFERRAL_CODE",
      "outputs": [
        {
          "internalType": "uint16",
          "name": "",
          "type": "uint16"
        }
      ],
      "stateMutability": "view",
      "type": "function"
    }
  ],
  "bytecode": "0x608060405234801561001057600080fd5b5060b68061001f6000396000f3fe6080604052348015600f57600080fd5b506004361060285760003560e01c806305a363de14602d575b600080fd5b60336047565b604051603e91906067565b60405180910390f35b604081565b600061ffff82169050919050565b606181604c565b82525050565b6000602082019050607a6000830184605a565b9291505056fea26469706673582212201b9b7b74dec5ed857f5f316bc485e6dcceaf875a1c4c3a191f09fa09d33ac6f964736f6c63430008180033",
  "linkReferences": {},
  "deployedLinkReferences": {}
}