{
  "_format": "hh-sol-artifact-1",
  "contractName": "AaveBorrow",
  "sourceName": "contracts/AAVE/AAVEProtocol/AaveBorrow.sol",
  "abi": [
    {
      "inputs": [],
      "name": "NonContractCall",
      "type": "error"
    },
    {
      "inputs": [],
      "name": "ReturnIndexValueError",
      "type": "error"
    },
    {
      "inputs": [],
      "name": "SenderNotAdmin",
      "type": "error"
    },
    {
      "inputs": [],
      "name": "SenderNotOwner",
      "type": "error"
    },
    {
      "inputs": [],
      "name": "SubIndexValueError",
      "type": "error"
    },
    {
      "anonymous": false,
      "inputs": [
        {
          "indexed": true,
          "internalType": "string",
          "name": "logName",
          "type": "string"
        },
        {
          "indexed": false,
          "internalType": "bytes",
          "name": "data",
          "type": "bytes"
        }
      ],
      "name": "ActionEvent",
      "type": "event"
    },
    {
      "inputs": [],
      "name": "AAVE_REFERRAL_CODE",
      "outputs": [
        {
          "internalType": "uint16",
          "name": "",
          "type": "uint16"
        }
      ],
      "stateMutability": "view",
      "type": "function"
    },
    {
      "inputs": [],
      "name": "NO_PARAM_MAPPING",
      "outputs": [
        {
          "internalType": "uint8",
          "name": "",
          "type": "uint8"
        }
      ],
      "stateMutability": "view",
      "type": "function"
    },
    {
      "inputs": [],
      "name": "RETURN_MAX_INDEX_VALUE",
      "outputs": [
        {
          "internalType": "uint8",
          "name": "",
          "type": "uint8"
        }
      ],
      "stateMutability": "view",
      "type": "function"
    },
    {
      "inputs": [],
      "name": "RETURN_MIN_INDEX_VALUE",
      "outputs": [
        {
          "internalType": "uint8",
          "name": "",
          "type": "uint8"
        }
      ],
      "stateMutability": "view",
      "type": "function"
    },
    {
      "inputs": [],
      "name": "SUB_MAX_INDEX_VALUE",
      "outputs": [
        {
          "internalType": "uint8",
          "name": "",
          "type": "uint8"
        }
      ],
      "stateMutability": "view",
      "type": "function"
    },
    {
      "inputs": [],
      "name": "SUB_MIN_INDEX_VALUE",
      "outputs": [
        {
          "internalType": "uint8",
          "name": "",
          "type": "uint8"
        }
      ],
      "stateMutability": "view",
      "type": "function"
    },
    {
      "inputs": [],
      "name": "actionType",
      "outputs": [
        {
          "internalType": "uint8",
          "name": "",
          "type": "uint8"
        }
      ],
      "stateMutability": "pure",
      "type": "function"
    },
    {
      "inputs": [],
      "name": "adminData",
      "outputs": [
        {
          "internalType": "contract AdminData",
          "name": "",
          "type": "address"
        }
      ],
      "stateMutability": "view",
      "type": "function"
    },
    {
      "inputs": [
        {
          "internalType": "bytes",
          "name": "_encodedInput",
          "type": "bytes"
        }
      ],
      "name": "decodeInputs",
      "outputs": [
        {
          "components": [
            {
              "internalType": "uint256",
              "name": "amount",
              "type": "uint256"
            },
            {
              "internalType": "address",
              "name": "to",
              "type": "address"
            },
            {
              "internalType": "uint8",
              "name": "rateMode",
              "type": "uint8"
            },
            {
              "internalType": "uint16",
              "name": "assetId",
              "type": "uint16"
            },
            {
              "internalType": "bool",
              "name": "useDefaultMarket",
              "type": "bool"
            },
            {
              "internalType": "bool",
              "name": "useOnBehalf",
              "type": "bool"
            },
            {
              "internalType": "address",
              "name": "market",
              "type": "address"
            },
            {
              "internalType": "address",
              "name": "onBehalf",
              "type": "address"
            }
          ],
          "internalType": "struct AaveBorrow.Params",
          "name": "params",
          "type": "tuple"
        }
      ],
      "stateMutability": "pure",
      "type": "function"
    },
    {
      "inputs": [
        {
          "components": [
            {
              "internalType": "uint256",
              "name": "amount",
              "type": "uint256"
            },
            {
              "internalType": "address",
              "name": "to",
              "type": "address"
            },
            {
              "internalType": "uint8",
              "name": "rateMode",
              "type": "uint8"
            },
            {
              "internalType": "uint16",
              "name": "assetId",
              "type": "uint16"
            },
            {
              "internalType": "bool",
              "name": "useDefaultMarket",
              "type": "bool"
            },
            {
              "internalType": "bool",
              "name": "useOnBehalf",
              "type": "bool"
            },
            {
              "internalType": "address",
              "name": "market",
              "type": "address"
            },
            {
              "internalType": "address",
              "name": "onBehalf",
              "type": "address"
            }
          ],
          "internalType": "struct AaveBorrow.Params",
          "name": "_params",
          "type": "tuple"
        }
      ],
      "name": "encodeInputs",
      "outputs": [
        {
          "internalType": "bytes",
          "name": "encodedInput",
          "type": "bytes"
        }
      ],
      "stateMutability": "pure",
      "type": "function"
    },
    {
      "inputs": [
        {
          "internalType": "bytes",
          "name": "_callData",
          "type": "bytes"
        },
        {
          "internalType": "bytes32[]",
          "name": "_subData",
          "type": "bytes32[]"
        },
        {
          "internalType": "uint8[]",
          "name": "_paramMapping",
          "type": "uint8[]"
        },
        {
          "internalType": "bytes32[]",
          "name": "_returnValues",
          "type": "bytes32[]"
        }
      ],
      "name": "executeAction",
      "outputs": [
        {
          "internalType": "bytes32",
          "name": "",
          "type": "bytes32"
        }
      ],
      "stateMutability": "payable",
      "type": "function"
    },
    {
      "inputs": [
        {
          "internalType": "bytes",
          "name": "_callData",
          "type": "bytes"
        }
      ],
      "name": "executeActionDirect",
      "outputs": [],
      "stateMutability": "payable",
      "type": "function"
    },
    {
      "inputs": [],
      "name": "executeActionDirectL2",
      "outputs": [],
      "stateMutability": "payable",
      "type": "function"
    },
    {
      "inputs": [
        {
          "internalType": "address",
          "name": "_proxy",
          "type": "address"
        }
      ],
      "name": "isDSProxy",
      "outputs": [
        {
          "internalType": "bool",
          "name": "",
          "type": "bool"
        }
      ],
      "stateMutability": "view",
      "type": "function"
    },
    {
      "inputs": [],
      "name": "kill",
      "outputs": [],
      "stateMutability": "nonpayable",
      "type": "function"
    },
    {
      "inputs": [],
      "name": "logger",
      "outputs": [
        {
          "internalType": "contract DefisaverLogger",
          "name": "",
          "type": "address"
        }
      ],
      "stateMutability": "view",
      "type": "function"
    },
    {
      "inputs": [
        {
          "internalType": "bytes",
          "name": "_callData",
          "type": "bytes"
        }
      ],
      "name": "parseInputs",
      "outputs": [
        {
          "components": [
            {
              "internalType": "uint256",
              "name": "amount",
              "type": "uint256"
            },
            {
              "internalType": "address",
              "name": "to",
              "type": "address"
            },
            {
              "internalType": "uint8",
              "name": "rateMode",
              "type": "uint8"
            },
            {
              "internalType": "uint16",
              "name": "assetId",
              "type": "uint16"
            },
            {
              "internalType": "bool",
              "name": "useDefaultMarket",
              "type": "bool"
            },
            {
              "internalType": "bool",
              "name": "useOnBehalf",
              "type": "bool"
            },
            {
              "internalType": "address",
              "name": "market",
              "type": "address"
            },
            {
              "internalType": "address",
              "name": "onBehalf",
              "type": "address"
            }
          ],
          "internalType": "struct AaveBorrow.Params",
          "name": "params",
          "type": "tuple"
        }
      ],
      "stateMutability": "pure",
      "type": "function"
    },
    {
      "inputs": [],
      "name": "registry",
      "outputs": [
        {
          "internalType": "contract DFSRegistry",
          "name": "",
          "type": "address"
        }
      ],
      "stateMutability": "view",
      "type": "function"
    },
    {
      "inputs": [
        {
          "internalType": "address",
          "name": "_token",
          "type": "address"
        },
        {
          "internalType": "address",
          "name": "_receiver",
          "type": "address"
        },
        {
          "internalType": "uint256",
          "name": "_amount",
          "type": "uint256"
        }
      ],
      "name": "withdrawStuckFunds",
      "outputs": [],
      "stateMutability": "nonpayable",
      "type": "function"
    }
  ],
  "bytecode": "0x608060405234801561001057600080fd5b50613599806100206000396000f3fe6080604052600436106101145760003560e01c80637b103999116100a05780639864dcdd116100645780639864dcdd1461036a578063c579d49014610395578063d3c2e7ed146103be578063e197b16c146103e9578063f24ccbfe1461042657610114565b80637b1039991461026a5780638b835979146102955780638bcb6216146102d25780638df50f74146102fd5780639093410d1461032d57610114565b8063247492f8116100e7578063247492f8146101d75780632895f3aa146102025780632fa13cb81461020c578063389f87ff1461023757806341c0e1b51461025357610114565b806305a363de1461011957806306d2ae8e146101445780630f2eee421461016f5780631c451ceb1461019a575b600080fd5b34801561012557600080fd5b5061012e610451565b60405161013b9190611ec4565b60405180910390f35b34801561015057600080fd5b50610159610456565b6040516101669190611f5e565b60405180910390f35b34801561017b57600080fd5b5061018461046e565b6040516101919190611f95565b60405180910390f35b3480156101a657600080fd5b506101c160048036038101906101bc9190612002565b610473565b6040516101ce919061204a565b60405180910390f35b3480156101e357600080fd5b506101ec61050a565b6040516101f99190611f95565b60405180910390f35b61020a610525565b005b34801561021857600080fd5b506102216105f6565b60405161022e9190611f95565b60405180910390f35b610251600480360381019061024c91906121ab565b6105fb565b005b34801561025f57600080fd5b50610268610754565b005b34801561027657600080fd5b5061027f610854565b60405161028c9190612215565b60405180910390f35b3480156102a157600080fd5b506102bc60048036038101906102b79190612290565b61086c565b6040516102c991906123d4565b60405180910390f35b3480156102de57600080fd5b506102e7610b53565b6040516102f49190611f95565b60405180910390f35b610317600480360381019061031291906125d8565b610b58565b60405161032491906126be565b60405180910390f35b34801561033957600080fd5b50610354600480360381019061034f91906121ab565b610e69565b60405161036191906123d4565b60405180910390f35b34801561037657600080fd5b5061037f610f26565b60405161038c9190611f95565b60405180910390f35b3480156103a157600080fd5b506103bc60048036038101906103b79190612705565b610f2b565b005b3480156103ca57600080fd5b506103d36110d6565b6040516103e09190611f95565b60405180910390f35b3480156103f557600080fd5b50610410600480360381019061040b919061287f565b6110db565b60405161041d919061292c565b60405180910390f35b34801561043257600080fd5b5061043b611282565b604051610448919061296f565b60405180910390f35b604081565b73d47d8d97cad12a866900eec6cde1962529f2535181565b608081565b6000735a15566417e6c1c9546523066500bddbc53f88c773ffffffffffffffffffffffffffffffffffffffff166329710388836040518263ffffffff1660e01b81526004016104c29190612999565b602060405180830381865afa1580156104df573d6000803e3d6000fd5b505050506040513d601f19601f8201168201806040525081019061050391906129c9565b9050919050565b6000600160048111156105205761051f6129f6565b5b905090565b6000610543600036600490809261053e93929190612a2f565b61086c565b905060006105708260c0015183606001518460000151856040015160ff1686602001518760e0015161129a565b91505073e6f9a5c850dbcd12bc64f40d692f537250adec3873ffffffffffffffffffffffffffffffffffffffff1663f4b24b55826040518263ffffffff1660e01b81526004016105c09190612ac7565b600060405180830381600087803b1580156105da57600080fd5b505af11580156105ee573d6000803e3d6000fd5b505050505050565b600081565b600061060682610e69565b905080608001511561065f5773a97684ead0e402dc232d5a977953df7ecbab3cdb8160c0019073ffffffffffffffffffffffffffffffffffffffff16908173ffffffffffffffffffffffffffffffffffffffff16815250505b8060a001516106a25760008160e0019073ffffffffffffffffffffffffffffffffffffffff16908173ffffffffffffffffffffffffffffffffffffffff16815250505b60006106cd8260c0015183606001518460000151856040015160ff1686602001518760e0015161129a565b91505073e6f9a5c850dbcd12bc64f40d692f537250adec3873ffffffffffffffffffffffffffffffffffffffff1663f4b24b55826040518263ffffffff1660e01b815260040161071d9190612ac7565b600060405180830381600087803b15801561073757600080fd5b505af115801561074b573d6000803e3d6000fd5b50505050505050565b3373ffffffffffffffffffffffffffffffffffffffff1673d47d8d97cad12a866900eec6cde1962529f2535173ffffffffffffffffffffffffffffffffffffffff1663f851a4406040518163ffffffff1660e01b8152600401602060405180830381865afa1580156107ca573d6000803e3d6000fd5b505050506040513d601f19601f820116820180604052508101906107ee9190612b11565b73ffffffffffffffffffffffffffffffffffffffff161461083b576040517fa6c827a900000000000000000000000000000000000000000000000000000000815260040160405180910390fd5b3373ffffffffffffffffffffffffffffffffffffffff16ff5b73bf1cac12db60819bfa71a328282ecbc1d40443aa81565b610874611e15565b828260009060209261088893929190612a2f565b906108939190612b56565b60001c81600001818152505082826020906034926108b393929190612a2f565b906108be9190612be1565b60601c816020019073ffffffffffffffffffffffffffffffffffffffff16908173ffffffffffffffffffffffffffffffffffffffff1681525050828260349060359261090c93929190612a2f565b906109179190612c6c565b60f81c816040019060ff16908160ff1681525050828260359060379261093f93929190612a2f565b9061094a9190612cf7565b60f01c816060019061ffff16908161ffff1681525050610987838360379060389261097793929190612a2f565b906109829190612c6c565b611444565b8160800190151590811515815250506109bd83836038906039926109ad93929190612a2f565b906109b89190612c6c565b611444565b8160a0019015159081151581525050600060399050816080015115610a2d5773a97684ead0e402dc232d5a977953df7ecbab3cdb8260c0019073ffffffffffffffffffffffffffffffffffffffff16908173ffffffffffffffffffffffffffffffffffffffff1681525050610aa0565b83838290601484610a3e9190612d85565b92610a4b93929190612a2f565b90610a569190612be1565b60601c8260c0019073ffffffffffffffffffffffffffffffffffffffff16908173ffffffffffffffffffffffffffffffffffffffff1681525050601481610a9d9190612d85565b90505b8160a0015115610b125783838290601484610abb9190612d85565b92610ac893929190612a2f565b90610ad39190612be1565b60601c8260e0019073ffffffffffffffffffffffffffffffffffffffff16908173ffffffffffffffffffffffffffffffffffffffff1681525050610b4c565b60008260e0019073ffffffffffffffffffffffffffffffffffffffff16908173ffffffffffffffffffffffffffffffffffffffff16815250505b5092915050565b600181565b600080610b6486610e69565b9050610b91816000015185600081518110610b8257610b81612db9565b5b60200260200101518786611498565b816000018181525050610bc5816020015185600181518110610bb657610bb5612db9565b5b6020026020010151878661151e565b816020019073ffffffffffffffffffffffffffffffffffffffff16908173ffffffffffffffffffffffffffffffffffffffff1681525050610c2a816040015160ff1685600281518110610c1b57610c1a612db9565b5b60200260200101518786611498565b816040019060ff16908160ff1681525050610c6a816060015161ffff1685600381518110610c5b57610c5a612db9565b5b60200260200101518786611498565b816060019061ffff16908161ffff16815250506001610cbb8260800151610c92576000610c95565b60015b60ff1686600481518110610cac57610cab612db9565b5b60200260200101518887611498565b148160800190151590811515815250506001610d098260a00151610ce0576000610ce3565b60015b60ff1686600581518110610cfa57610cf9612db9565b5b60200260200101518887611498565b148160a0019015159081151581525050610d448160c0015185600681518110610d3557610d34612db9565b5b6020026020010151878661151e565b8160c0019073ffffffffffffffffffffffffffffffffffffffff16908173ffffffffffffffffffffffffffffffffffffffff1681525050610da68160e0015185600781518110610d9757610d96612db9565b5b6020026020010151878661151e565b8160e0019073ffffffffffffffffffffffffffffffffffffffff16908173ffffffffffffffffffffffffffffffffffffffff1681525050600080610e098360c0015184606001518560000151866040015160ff1687602001518860e0015161129a565b91509150604051610e1990612e3f565b60405180910390207f2b6d22f419271bcc89bbac8deec947c664365d6e24d06fef0ca7c325c704dce382604051610e50919061292c565b60405180910390a28160001b9350505050949350505050565b610e71611e15565b81806020019051810190610e859190612f5d565b9050806080015115610ede5773a97684ead0e402dc232d5a977953df7ecbab3cdb8160c0019073ffffffffffffffffffffffffffffffffffffffff16908173ffffffffffffffffffffffffffffffffffffffff16815250505b8060a00151610f215760008160e0019073ffffffffffffffffffffffffffffffffffffffff16908173ffffffffffffffffffffffffffffffffffffffff16815250505b919050565b607f81565b3373ffffffffffffffffffffffffffffffffffffffff1673d47d8d97cad12a866900eec6cde1962529f2535173ffffffffffffffffffffffffffffffffffffffff16638da5cb5b6040518163ffffffff1660e01b8152600401602060405180830381865afa158015610fa1573d6000803e3d6000fd5b505050506040513d601f19601f82011682018060405250810190610fc59190612b11565b73ffffffffffffffffffffffffffffffffffffffff1614611012576040517f19494c8a00000000000000000000000000000000000000000000000000000000815260040160405180910390fd5b73eeeeeeeeeeeeeeeeeeeeeeeeeeeeeeeeeeeeeeee73ffffffffffffffffffffffffffffffffffffffff168373ffffffffffffffffffffffffffffffffffffffff16036110a5578173ffffffffffffffffffffffffffffffffffffffff166108fc829081150290604051600060405180830381858888f1935050505015801561109f573d6000803e3d6000fd5b506110d1565b6110d082828573ffffffffffffffffffffffffffffffffffffffff166115d29092919063ffffffff16565b5b505050565b60ff81565b6060632895f3aa60e01b6040516020016110f59190612fd8565b604051602081830303815290604052905080826000015160001b604051602001611120929190613050565b604051602081830303815290604052905080826020015160601b60405160200161114b929190613099565b604051602081830303815290604052905080826040015160f81b6040516020016111769291906130e2565b604051602081830303815290604052905080826060015160f01b6040516020016111a192919061312b565b6040516020818303038152906040529050806111c08360800151611658565b6040516020016111d19291906130e2565b6040516020818303038152906040529050806111f08360a00151611658565b6040516020016112019291906130e2565b6040516020818303038152906040529050816080015161124757808260c0015160601b604051602001611235929190613099565b60405160208183030381529060405290505b8160a001511561127d57808260e0015160601b60405160200161126b929190613099565b60405160208183030381529060405290505b919050565b73e6f9a5c850dbcd12bc64f40d692f537250adec3881565b6000606060006112a989611676565b905060008173ffffffffffffffffffffffffffffffffffffffff1663527517978a6040518263ffffffff1660e01b81526004016112e69190611ec4565b602060405180830381865afa158015611303573d6000803e3d6000fd5b505050506040513d601f19601f820116820180604052508101906113279190612b11565b9050600073ffffffffffffffffffffffffffffffffffffffff168573ffffffffffffffffffffffffffffffffffffffff1603611361573094505b8173ffffffffffffffffffffffffffffffffffffffff1663a415bcad828a8a60408a6040518663ffffffff1660e01b81526004016113a3959493929190613162565b600060405180830381600087803b1580156113bd57600080fd5b505af11580156113d1573d6000803e3d6000fd5b5050505061140086898373ffffffffffffffffffffffffffffffffffffffff166116ee9092919063ffffffff16565b975060008a828a8a8a8a60405160200161141f969594939291906131b5565b6040516020818303038152906040529050888194509450505050965096945050505050565b60008060f81b7effffffffffffffffffffffffffffffffffffffffffffffffffffffffffffff1916827effffffffffffffffffffffffffffffffffffffffffffffffffffffffffffff191614159050919050565b60006114a3846118cf565b15611513576114b1846118e2565b156114e657816114c085611909565b60ff16815181106114d4576114d3612db9565b5b602002602001015160001c9450611512565b826114f08561195e565b60ff168151811061150457611503612db9565b5b602002602001015160001c94505b5b849050949350505050565b6000611529846118cf565b156115c657611537846118e2565b1561156c578161154685611909565b60ff168151811061155a57611559612db9565b5b602002602001015160601c94506115c5565b60fe8460ff160361157f573090506115ca565b60ff8460ff1603611599576115926119b5565b90506115ca565b826115a38561195e565b60ff16815181106115b7576115b6612db9565b5b602002602001015160001c94505b5b8490505b949350505050565b6116538363a9059cbb60e01b84846040516024016115f1929190613216565b604051602081830303815290604052907bffffffffffffffffffffffffffffffffffffffffffffffffffffffff19166020820180517bffffffffffffffffffffffffffffffffffffffffffffffffffffffff8381831617835250505050611ae6565b505050565b60008161166957600060f81b61166f565b600160f81b5b9050919050565b60008173ffffffffffffffffffffffffffffffffffffffff1663026b1d5f6040518163ffffffff1660e01b8152600401602060405180830381865afa1580156116c3573d6000803e3d6000fd5b505050506040513d601f19601f820116820180604052508101906116e79190612b11565b9050919050565b60007fffffffffffffffffffffffffffffffffffffffffffffffffffffffffffffffff8203611724576117218430611bae565b91505b600073ffffffffffffffffffffffffffffffffffffffff168373ffffffffffffffffffffffffffffffffffffffff161415801561178d57503073ffffffffffffffffffffffffffffffffffffffff168373ffffffffffffffffffffffffffffffffffffffff1614155b801561179a575060008214155b156118c55773eeeeeeeeeeeeeeeeeeeeeeeeeeeeeeeeeeeeeeee73ffffffffffffffffffffffffffffffffffffffff168473ffffffffffffffffffffffffffffffffffffffff16146118165761181183838673ffffffffffffffffffffffffffffffffffffffff166115d29092919063ffffffff16565b6118c4565b60008373ffffffffffffffffffffffffffffffffffffffff168360405161183c90613265565b60006040518083038185875af1925050503d8060008114611879576040519150601f19603f3d011682016040523d82523d6000602084013e61187e565b606091505b50509050806118c2576040517f08c379a00000000000000000000000000000000000000000000000000000000081526004016118b9906132c6565b60405180910390fd5b505b5b8190509392505050565b60008060ff168260ff1614159050919050565b6000600160ff168260ff16101580156119025750607f60ff168260ff1611155b9050919050565b6000611914826118e2565b61194a576040517fdcc95a3900000000000000000000000000000000000000000000000000000000815260040160405180910390fd5b60018261195791906132e6565b9050919050565b6000608060ff168260ff1610156119a1576040517f866f6e8700000000000000000000000000000000000000000000000000000000815260040160405180910390fd5b6080826119ae91906132e6565b9050919050565b60006119c030610473565b15611a3b573073ffffffffffffffffffffffffffffffffffffffff16638da5cb5b6040518163ffffffff1660e01b8152600401602060405180830381865afa158015611a10573d6000803e3d6000fd5b505050506040513d601f19601f82011682018060405250810190611a349190612b11565b9050611ae3565b60003073ffffffffffffffffffffffffffffffffffffffff1663a0e67e2b6040518163ffffffff1660e01b8152600401600060405180830381865afa158015611a88573d6000803e3d6000fd5b505050506040513d6000823e3d601f19601f82011682018060405250810190611ab191906133de565b90506001815114611ac25730611adf565b80600081518110611ad657611ad5612db9565b5b60200260200101515b9150505b90565b6000611b48826040518060400160405280602081526020017f5361666545524332303a206c6f772d6c6576656c2063616c6c206661696c65648152508573ffffffffffffffffffffffffffffffffffffffff16611c999092919063ffffffff16565b9050600081511480611b6a575080806020019051810190611b6991906129c9565b5b611ba9576040517f08c379a0000000000000000000000000000000000000000000000000000000008152600401611ba090613499565b60405180910390fd5b505050565b600073eeeeeeeeeeeeeeeeeeeeeeeeeeeeeeeeeeeeeeee73ffffffffffffffffffffffffffffffffffffffff168373ffffffffffffffffffffffffffffffffffffffff1603611c16578173ffffffffffffffffffffffffffffffffffffffff16319050611c93565b8273ffffffffffffffffffffffffffffffffffffffff166370a08231836040518263ffffffff1660e01b8152600401611c4f9190612999565b602060405180830381865afa158015611c6c573d6000803e3d6000fd5b505050506040513d601f19601f82011682018060405250810190611c9091906134b9565b90505b92915050565b6060611ca88484600085611cb1565b90509392505050565b6060611cbc85611dca565b611cf2576040517f304619b500000000000000000000000000000000000000000000000000000000815260040160405180910390fd5b6000808673ffffffffffffffffffffffffffffffffffffffff168587604051611d1b91906134e6565b60006040518083038185875af1925050503d8060008114611d58576040519150601f19603f3d011682016040523d82523d6000602084013e611d5d565b606091505b50915091508115611d72578092505050611dc2565b600081511115611d855780518082602001fd5b836040517f08c379a0000000000000000000000000000000000000000000000000000000008152600401611db99190613541565b60405180910390fd5b949350505050565b60008060007fc5d2460186f7233c927e7db2dcc703c0e500b653ca82273b7bfad8045d85a47060001b9050833f9150808214158015611e0c57506000801b8214155b92505050919050565b60405180610100016040528060008152602001600073ffffffffffffffffffffffffffffffffffffffff168152602001600060ff168152602001600061ffff168152602001600015158152602001600015158152602001600073ffffffffffffffffffffffffffffffffffffffff168152602001600073ffffffffffffffffffffffffffffffffffffffff1681525090565b600061ffff82169050919050565b611ebe81611ea7565b82525050565b6000602082019050611ed96000830184611eb5565b92915050565b600073ffffffffffffffffffffffffffffffffffffffff82169050919050565b6000819050919050565b6000611f24611f1f611f1a84611edf565b611eff565b611edf565b9050919050565b6000611f3682611f09565b9050919050565b6000611f4882611f2b565b9050919050565b611f5881611f3d565b82525050565b6000602082019050611f736000830184611f4f565b92915050565b600060ff82169050919050565b611f8f81611f79565b82525050565b6000602082019050611faa6000830184611f86565b92915050565b6000604051905090565b600080fd5b600080fd5b6000611fcf82611edf565b9050919050565b611fdf81611fc4565b8114611fea57600080fd5b50565b600081359050611ffc81611fd6565b92915050565b60006020828403121561201857612017611fba565b5b600061202684828501611fed565b91505092915050565b60008115159050919050565b6120448161202f565b82525050565b600060208201905061205f600083018461203b565b92915050565b600080fd5b600080fd5b6000601f19601f8301169050919050565b7f4e487b7100000000000000000000000000000000000000000000000000000000600052604160045260246000fd5b6120b88261206f565b810181811067ffffffffffffffff821117156120d7576120d6612080565b5b80604052505050565b60006120ea611fb0565b90506120f682826120af565b919050565b600067ffffffffffffffff82111561211657612115612080565b5b61211f8261206f565b9050602081019050919050565b82818337600083830152505050565b600061214e612149846120fb565b6120e0565b90508281526020810184848401111561216a5761216961206a565b5b61217584828561212c565b509392505050565b600082601f83011261219257612191612065565b5b81356121a284826020860161213b565b91505092915050565b6000602082840312156121c1576121c0611fba565b5b600082013567ffffffffffffffff8111156121df576121de611fbf565b5b6121eb8482850161217d565b91505092915050565b60006121ff82611f2b565b9050919050565b61220f816121f4565b82525050565b600060208201905061222a6000830184612206565b92915050565b600080fd5b600080fd5b60008083601f8401126122505761224f612065565b5b8235905067ffffffffffffffff81111561226d5761226c612230565b5b60208301915083600182028301111561228957612288612235565b5b9250929050565b600080602083850312156122a7576122a6611fba565b5b600083013567ffffffffffffffff8111156122c5576122c4611fbf565b5b6122d18582860161223a565b92509250509250929050565b6000819050919050565b6122f0816122dd565b82525050565b6122ff81611fc4565b82525050565b61230e81611f79565b82525050565b61231d81611ea7565b82525050565b61232c8161202f565b82525050565b6101008201600082015161234960008501826122e7565b50602082015161235c60208501826122f6565b50604082015161236f6040850182612305565b5060608201516123826060850182612314565b5060808201516123956080850182612323565b5060a08201516123a860a0850182612323565b5060c08201516123bb60c08501826122f6565b5060e08201516123ce60e08501826122f6565b50505050565b6000610100820190506123ea6000830184612332565b92915050565b600067ffffffffffffffff82111561240b5761240a612080565b5b602082029050602081019050919050565b6000819050919050565b61242f8161241c565b811461243a57600080fd5b50565b60008135905061244c81612426565b92915050565b6000612465612460846123f0565b6120e0565b9050808382526020820190506020840283018581111561248857612487612235565b5b835b818110156124b1578061249d888261243d565b84526020840193505060208101905061248a565b5050509392505050565b600082601f8301126124d0576124cf612065565b5b81356124e0848260208601612452565b91505092915050565b600067ffffffffffffffff82111561250457612503612080565b5b602082029050602081019050919050565b61251e81611f79565b811461252957600080fd5b50565b60008135905061253b81612515565b92915050565b600061255461254f846124e9565b6120e0565b9050808382526020820190506020840283018581111561257757612576612235565b5b835b818110156125a0578061258c888261252c565b845260208401935050602081019050612579565b5050509392505050565b600082601f8301126125bf576125be612065565b5b81356125cf848260208601612541565b91505092915050565b600080600080608085870312156125f2576125f1611fba565b5b600085013567ffffffffffffffff8111156126105761260f611fbf565b5b61261c8782880161217d565b945050602085013567ffffffffffffffff81111561263d5761263c611fbf565b5b612649878288016124bb565b935050604085013567ffffffffffffffff81111561266a57612669611fbf565b5b612676878288016125aa565b925050606085013567ffffffffffffffff81111561269757612696611fbf565b5b6126a3878288016124bb565b91505092959194509250565b6126b88161241c565b82525050565b60006020820190506126d360008301846126af565b92915050565b6126e2816122dd565b81146126ed57600080fd5b50565b6000813590506126ff816126d9565b92915050565b60008060006060848603121561271e5761271d611fba565b5b600061272c86828701611fed565b935050602061273d86828701611fed565b925050604061274e868287016126f0565b9150509250925092565b600080fd5b61276681611ea7565b811461277157600080fd5b50565b6000813590506127838161275d565b92915050565b6127928161202f565b811461279d57600080fd5b50565b6000813590506127af81612789565b92915050565b600061010082840312156127cc576127cb612758565b5b6127d76101006120e0565b905060006127e7848285016126f0565b60008301525060206127fb84828501611fed565b602083015250604061280f8482850161252c565b604083015250606061282384828501612774565b6060830152506080612837848285016127a0565b60808301525060a061284b848285016127a0565b60a08301525060c061285f84828501611fed565b60c08301525060e061287384828501611fed565b60e08301525092915050565b6000610100828403121561289657612895611fba565b5b60006128a4848285016127b5565b91505092915050565b600081519050919050565b600082825260208201905092915050565b60005b838110156128e75780820151818401526020810190506128cc565b60008484015250505050565b60006128fe826128ad565b61290881856128b8565b93506129188185602086016128c9565b6129218161206f565b840191505092915050565b6000602082019050818103600083015261294681846128f3565b905092915050565b600061295982611f2b565b9050919050565b6129698161294e565b82525050565b60006020820190506129846000830184612960565b92915050565b61299381611fc4565b82525050565b60006020820190506129ae600083018461298a565b92915050565b6000815190506129c381612789565b92915050565b6000602082840312156129df576129de611fba565b5b60006129ed848285016129b4565b91505092915050565b7f4e487b7100000000000000000000000000000000000000000000000000000000600052602160045260246000fd5b600080fd5b600080fd5b60008085851115612a4357612a42612a25565b5b83861115612a5457612a53612a2a565b5b6001850283019150848603905094509492505050565b600082825260208201905092915050565b7f416176655633426f72726f770000000000000000000000000000000000000000600082015250565b6000612ab1600c83612a6a565b9150612abc82612a7b565b602082019050919050565b60006040820190508181036000830152612ae081612aa4565b90508181036020830152612af481846128f3565b905092915050565b600081519050612b0b81611fd6565b92915050565b600060208284031215612b2757612b26611fba565b5b6000612b3584828501612afc565b91505092915050565b600082905092915050565b600082821b905092915050565b6000612b628383612b3e565b82612b6d813561241c565b92506020821015612bad57612ba87fffffffffffffffffffffffffffffffffffffffffffffffffffffffffffffffff83602003600802612b49565b831692505b505092915050565b60007fffffffffffffffffffffffffffffffffffffffff00000000000000000000000082169050919050565b6000612bed8383612b3e565b82612bf88135612bb5565b92506014821015612c3857612c337fffffffffffffffffffffffffffffffffffffffff00000000000000000000000083601403600802612b49565b831692505b505092915050565b60007fff0000000000000000000000000000000000000000000000000000000000000082169050919050565b6000612c788383612b3e565b82612c838135612c40565b92506001821015612cc357612cbe7fff0000000000000000000000000000000000000000000000000000000000000083600103600802612b49565b831692505b505092915050565b60007fffff00000000000000000000000000000000000000000000000000000000000082169050919050565b6000612d038383612b3e565b82612d0e8135612ccb565b92506002821015612d4e57612d497fffff00000000000000000000000000000000000000000000000000000000000083600203600802612b49565b831692505b505092915050565b7f4e487b7100000000000000000000000000000000000000000000000000000000600052601160045260246000fd5b6000612d90826122dd565b9150612d9b836122dd565b9250828201905080821115612db357612db2612d56565b5b92915050565b7f4e487b7100000000000000000000000000000000000000000000000000000000600052603260045260246000fd5b600081905092915050565b7f41617665426f72726f7700000000000000000000000000000000000000000000600082015250565b6000612e29600a83612de8565b9150612e3482612df3565b600a82019050919050565b6000612e4a82612e1c565b9150819050919050565b600081519050612e63816126d9565b92915050565b600081519050612e7881612515565b92915050565b600081519050612e8d8161275d565b92915050565b60006101008284031215612eaa57612ea9612758565b5b612eb56101006120e0565b90506000612ec584828501612e54565b6000830152506020612ed984828501612afc565b6020830152506040612eed84828501612e69565b6040830152506060612f0184828501612e7e565b6060830152506080612f15848285016129b4565b60808301525060a0612f29848285016129b4565b60a08301525060c0612f3d84828501612afc565b60c08301525060e0612f5184828501612afc565b60e08301525092915050565b60006101008284031215612f7457612f73611fba565b5b6000612f8284828501612e93565b91505092915050565b60007fffffffff0000000000000000000000000000000000000000000000000000000082169050919050565b6000819050919050565b612fd2612fcd82612f8b565b612fb7565b82525050565b6000612fe48284612fc1565b60048201915081905092915050565b600081905092915050565b6000613009826128ad565b6130138185612ff3565b93506130238185602086016128c9565b80840191505092915050565b6000819050919050565b61304a6130458261241c565b61302f565b82525050565b600061305c8285612ffe565b91506130688284613039565b6020820191508190509392505050565b6000819050919050565b61309361308e82612bb5565b613078565b82525050565b60006130a58285612ffe565b91506130b18284613082565b6014820191508190509392505050565b6000819050919050565b6130dc6130d782612c40565b6130c1565b82525050565b60006130ee8285612ffe565b91506130fa82846130cb565b6001820191508190509392505050565b6000819050919050565b61312561312082612ccb565b61310a565b82525050565b60006131378285612ffe565b91506131438284613114565b6002820191508190509392505050565b61315c816122dd565b82525050565b600060a082019050613177600083018861298a565b6131846020830187613153565b6131916040830186613153565b61319e6060830185611eb5565b6131ab608083018461298a565b9695505050505050565b600060c0820190506131ca600083018961298a565b6131d7602083018861298a565b6131e46040830187613153565b6131f16060830186613153565b6131fe608083018561298a565b61320b60a083018461298a565b979650505050505050565b600060408201905061322b600083018561298a565b6132386020830184613153565b9392505050565b50565b600061324f600083612ff3565b915061325a8261323f565b600082019050919050565b600061327082613242565b9150819050919050565b7f4574682073656e64206661696c00000000000000000000000000000000000000600082015250565b60006132b0600d83612a6a565b91506132bb8261327a565b602082019050919050565b600060208201905081810360008301526132df816132a3565b9050919050565b60006132f182611f79565b91506132fc83611f79565b9250828203905060ff81111561331557613314612d56565b5b92915050565b600067ffffffffffffffff82111561333657613335612080565b5b602082029050602081019050919050565b600061335a6133558461331b565b6120e0565b9050808382526020820190506020840283018581111561337d5761337c612235565b5b835b818110156133a657806133928882612afc565b84526020840193505060208101905061337f565b5050509392505050565b600082601f8301126133c5576133c4612065565b5b81516133d5848260208601613347565b91505092915050565b6000602082840312156133f4576133f3611fba565b5b600082015167ffffffffffffffff81111561341257613411611fbf565b5b61341e848285016133b0565b91505092915050565b7f5361666545524332303a204552433230206f7065726174696f6e20646964206e60008201527f6f74207375636365656400000000000000000000000000000000000000000000602082015250565b6000613483602a83612a6a565b915061348e82613427565b604082019050919050565b600060208201905081810360008301526134b281613476565b9050919050565b6000602082840312156134cf576134ce611fba565b5b60006134dd84828501612e54565b91505092915050565b60006134f28284612ffe565b915081905092915050565b600081519050919050565b6000613513826134fd565b61351d8185612a6a565b935061352d8185602086016128c9565b6135368161206f565b840191505092915050565b6000602082019050818103600083015261355b8184613508565b90509291505056fea2646970667358221220079a438f83d4ed0e6b32203bba1c55eb5b2c15c0760da68aa311bb65253d809064736f6c63430008180033",
  "linkReferences": {},
  "deployedLinkReferences": {}
}