{
  "_format": "hh-sol-artifact-1",
  "contractName": "DSAuth",
  "sourceName": "contracts/DSProxy/authority/auth.sol",
  "abi": [
    {
      "inputs": [],
      "stateMutability": "nonpayable",
      "type": "constructor"
    },
    {
      "anonymous": false,
      "inputs": [
        {
          "indexed": true,
          "internalType": "address",
          "name": "authority",
          "type": "address"
        }
      ],
      "name": "LogSetAuthority",
      "type": "event"
    },
    {
      "anonymous": false,
      "inputs": [
        {
          "indexed": true,
          "internalType": "address",
          "name": "owner",
          "type": "address"
        }
      ],
      "name": "LogSetOwner",
      "type": "event"
    },
    {
      "inputs": [],
      "name": "authority",
      "outputs": [
        {
          "internalType": "contract DSAuthority",
          "name": "",
          "type": "address"
        }
      ],
      "stateMutability": "view",
      "type": "function"
    },
    {
      "inputs": [],
      "name": "owner",
      "outputs": [
        {
          "internalType": "address",
          "name": "",
          "type": "address"
        }
      ],
      "stateMutability": "view",
      "type": "function"
    },
    {
      "inputs": [
        {
          "internalType": "contract DSAuthority",
          "name": "authority_",
          "type": "address"
        }
      ],
      "name": "setAuthority",
      "outputs": [],
      "stateMutability": "nonpayable",
      "type": "function"
    },
    {
      "inputs": [
        {
          "internalType": "address",
          "name": "owner_",
          "type": "address"
        }
      ],
      "name": "setOwner",
      "outputs": [],
      "stateMutability": "nonpayable",
      "type": "function"
    }
  ],
  "bytecode": "0x608060405234801561001057600080fd5b5033600160006101000a81548173ffffffffffffffffffffffffffffffffffffffff021916908373ffffffffffffffffffffffffffffffffffffffff1602179055503373ffffffffffffffffffffffffffffffffffffffff167fce241d7ca1f669fee44b6fc00b8eba2df3bb514eed0f6f668f8f89096e81ed9460405160405180910390a26107e1806100a46000396000f3fe608060405234801561001057600080fd5b506004361061004c5760003560e01c806313af4035146100515780637a9e5e4b1461006d5780638da5cb5b14610089578063bf7e214f146100a7575b600080fd5b61006b6004803603810190610066919061051b565b6100c5565b005b61008760048036038101906100829190610586565b6101db565b005b6100916102ce565b60405161009e91906105c2565b60405180910390f35b6100af6102f4565b6040516100bc919061063c565b60405180910390f35b6100f3336000357fffffffff0000000000000000000000000000000000000000000000000000000016610318565b610132576040517f08c379a0000000000000000000000000000000000000000000000000000000008152600401610129906106b4565b60405180910390fd5b80600160006101000a81548173ffffffffffffffffffffffffffffffffffffffff021916908373ffffffffffffffffffffffffffffffffffffffff160217905550600160009054906101000a900473ffffffffffffffffffffffffffffffffffffffff1673ffffffffffffffffffffffffffffffffffffffff167fce241d7ca1f669fee44b6fc00b8eba2df3bb514eed0f6f668f8f89096e81ed9460405160405180910390a250565b610209336000357fffffffff0000000000000000000000000000000000000000000000000000000016610318565b610248576040517f08c379a000000000000000000000000000000000000000000000000000000000815260040161023f906106b4565b60405180910390fd5b806000806101000a81548173ffffffffffffffffffffffffffffffffffffffff021916908373ffffffffffffffffffffffffffffffffffffffff1602179055508073ffffffffffffffffffffffffffffffffffffffff167f1abebea81bfa2637f28358c371278fb15ede7ea8dd28d2e03b112ff6d936ada460405160405180910390a250565b600160009054906101000a900473ffffffffffffffffffffffffffffffffffffffff1681565b60008054906101000a900473ffffffffffffffffffffffffffffffffffffffff1681565b60003073ffffffffffffffffffffffffffffffffffffffff168373ffffffffffffffffffffffffffffffffffffffff160361035657600190506104b2565b600160009054906101000a900473ffffffffffffffffffffffffffffffffffffffff1673ffffffffffffffffffffffffffffffffffffffff168373ffffffffffffffffffffffffffffffffffffffff16036103b457600190506104b2565b600073ffffffffffffffffffffffffffffffffffffffff1660008054906101000a900473ffffffffffffffffffffffffffffffffffffffff1673ffffffffffffffffffffffffffffffffffffffff160361041157600090506104b2565b60008054906101000a900473ffffffffffffffffffffffffffffffffffffffff1673ffffffffffffffffffffffffffffffffffffffff1663b70096138430856040518463ffffffff1660e01b815260040161046e9392919061070f565b602060405180830381865afa15801561048b573d6000803e3d6000fd5b505050506040513d601f19601f820116820180604052508101906104af919061077e565b90505b92915050565b600080fd5b600073ffffffffffffffffffffffffffffffffffffffff82169050919050565b60006104e8826104bd565b9050919050565b6104f8816104dd565b811461050357600080fd5b50565b600081359050610515816104ef565b92915050565b600060208284031215610531576105306104b8565b5b600061053f84828501610506565b91505092915050565b6000610553826104dd565b9050919050565b61056381610548565b811461056e57600080fd5b50565b6000813590506105808161055a565b92915050565b60006020828403121561059c5761059b6104b8565b5b60006105aa84828501610571565b91505092915050565b6105bc816104dd565b82525050565b60006020820190506105d760008301846105b3565b92915050565b6000819050919050565b60006106026105fd6105f8846104bd565b6105dd565b6104bd565b9050919050565b6000610614826105e7565b9050919050565b600061062682610609565b9050919050565b6106368161061b565b82525050565b6000602082019050610651600083018461062d565b92915050565b600082825260208201905092915050565b7f64732d617574682d756e617574686f72697a6564000000000000000000000000600082015250565b600061069e601483610657565b91506106a982610668565b602082019050919050565b600060208201905081810360008301526106cd81610691565b9050919050565b60007fffffffff0000000000000000000000000000000000000000000000000000000082169050919050565b610709816106d4565b82525050565b600060608201905061072460008301866105b3565b61073160208301856105b3565b61073e6040830184610700565b949350505050565b60008115159050919050565b61075b81610746565b811461076657600080fd5b50565b60008151905061077881610752565b92915050565b600060208284031215610794576107936104b8565b5b60006107a284828501610769565b9150509291505056fea2646970667358221220f9adfa121ef47ea190a16eedf75c0de4826a391a4c06243d729741380fdef37964736f6c63430008180033",
  "linkReferences": {},
  "deployedLinkReferences": {}
}