{
  "_format": "hh-sol-artifact-1",
  "contractName": "AdminAuth",
  "sourceName": "contracts/permissions/auth/AdminAuth.sol",
  "abi": [
    {
      "inputs": [],
      "name": "NonContractCall",
      "type": "error"
    },
    {
      "inputs": [],
      "name": "SenderNotAdmin",
      "type": "error"
    },
    {
      "inputs": [],
      "name": "SenderNotOwner",
      "type": "error"
    },
    {
      "inputs": [],
      "name": "adminData",
      "outputs": [
        {
          "internalType": "contract AdminData",
          "name": "",
          "type": "address"
        }
      ],
      "stateMutability": "view",
      "type": "function"
    },
    {
      "inputs": [],
      "name": "kill",
      "outputs": [],
      "stateMutability": "nonpayable",
      "type": "function"
    },
    {
      "inputs": [
        {
          "internalType": "address",
          "name": "_token",
          "type": "address"
        },
        {
          "internalType": "address",
          "name": "_receiver",
          "type": "address"
        },
        {
          "internalType": "uint256",
          "name": "_amount",
          "type": "uint256"
        }
      ],
      "name": "withdrawStuckFunds",
      "outputs": [],
      "stateMutability": "nonpayable",
      "type": "function"
    }
  ],
  "bytecode": "0x608060405234801561001057600080fd5b50610a43806100206000396000f3fe608060405234801561001057600080fd5b50600436106100415760003560e01c806306d2ae8e1461004657806341c0e1b514610064578063c579d4901461006e575b600080fd5b61004e61008a565b60405161005b9190610696565b60405180910390f35b61006c6100a2565b005b6100886004803603810190610083919061072a565b6101a2565b005b73d47d8d97cad12a866900eec6cde1962529f2535181565b3373ffffffffffffffffffffffffffffffffffffffff1673d47d8d97cad12a866900eec6cde1962529f2535173ffffffffffffffffffffffffffffffffffffffff1663f851a4406040518163ffffffff1660e01b8152600401602060405180830381865afa158015610118573d6000803e3d6000fd5b505050506040513d601f19601f8201168201806040525081019061013c9190610792565b73ffffffffffffffffffffffffffffffffffffffff1614610189576040517fa6c827a900000000000000000000000000000000000000000000000000000000815260040160405180910390fd5b3373ffffffffffffffffffffffffffffffffffffffff16ff5b3373ffffffffffffffffffffffffffffffffffffffff1673d47d8d97cad12a866900eec6cde1962529f2535173ffffffffffffffffffffffffffffffffffffffff16638da5cb5b6040518163ffffffff1660e01b8152600401602060405180830381865afa158015610218573d6000803e3d6000fd5b505050506040513d601f19601f8201168201806040525081019061023c9190610792565b73ffffffffffffffffffffffffffffffffffffffff1614610289576040517f19494c8a00000000000000000000000000000000000000000000000000000000815260040160405180910390fd5b73eeeeeeeeeeeeeeeeeeeeeeeeeeeeeeeeeeeeeeee73ffffffffffffffffffffffffffffffffffffffff168373ffffffffffffffffffffffffffffffffffffffff160361031c578173ffffffffffffffffffffffffffffffffffffffff166108fc829081150290604051600060405180830381858888f19350505050158015610316573d6000803e3d6000fd5b50610348565b61034782828573ffffffffffffffffffffffffffffffffffffffff1661034d9092919063ffffffff16565b5b505050565b6103ce8363a9059cbb60e01b848460405160240161036c9291906107dd565b604051602081830303815290604052907bffffffffffffffffffffffffffffffffffffffffffffffffffffffff19166020820180517bffffffffffffffffffffffffffffffffffffffffffffffffffffffff83818316178352505050506103d3565b505050565b6000610435826040518060400160405280602081526020017f5361666545524332303a206c6f772d6c6576656c2063616c6c206661696c65648152508573ffffffffffffffffffffffffffffffffffffffff1661049b9092919063ffffffff16565b9050600081511480610457575080806020019051810190610456919061083e565b5b610496576040517f08c379a000000000000000000000000000000000000000000000000000000000815260040161048d906108ee565b60405180910390fd5b505050565b60606104aa84846000856104b3565b90509392505050565b60606104be856105cc565b6104f4576040517f304619b500000000000000000000000000000000000000000000000000000000815260040160405180910390fd5b6000808673ffffffffffffffffffffffffffffffffffffffff16858760405161051d919061097f565b60006040518083038185875af1925050503d806000811461055a576040519150601f19603f3d011682016040523d82523d6000602084013e61055f565b606091505b509150915081156105745780925050506105c4565b6000815111156105875780518082602001fd5b836040517f08c379a00000000000000000000000000000000000000000000000000000000081526004016105bb91906109eb565b60405180910390fd5b949350505050565b60008060007fc5d2460186f7233c927e7db2dcc703c0e500b653ca82273b7bfad8045d85a47060001b9050833f915080821415801561060e57506000801b8214155b92505050919050565b600073ffffffffffffffffffffffffffffffffffffffff82169050919050565b6000819050919050565b600061065c61065761065284610617565b610637565b610617565b9050919050565b600061066e82610641565b9050919050565b600061068082610663565b9050919050565b61069081610675565b82525050565b60006020820190506106ab6000830184610687565b92915050565b600080fd5b60006106c182610617565b9050919050565b6106d1816106b6565b81146106dc57600080fd5b50565b6000813590506106ee816106c8565b92915050565b6000819050919050565b610707816106f4565b811461071257600080fd5b50565b600081359050610724816106fe565b92915050565b600080600060608486031215610743576107426106b1565b5b6000610751868287016106df565b9350506020610762868287016106df565b925050604061077386828701610715565b9150509250925092565b60008151905061078c816106c8565b92915050565b6000602082840312156107a8576107a76106b1565b5b60006107b68482850161077d565b91505092915050565b6107c8816106b6565b82525050565b6107d7816106f4565b82525050565b60006040820190506107f260008301856107bf565b6107ff60208301846107ce565b9392505050565b60008115159050919050565b61081b81610806565b811461082657600080fd5b50565b60008151905061083881610812565b92915050565b600060208284031215610854576108536106b1565b5b600061086284828501610829565b91505092915050565b600082825260208201905092915050565b7f5361666545524332303a204552433230206f7065726174696f6e20646964206e60008201527f6f74207375636365656400000000000000000000000000000000000000000000602082015250565b60006108d8602a8361086b565b91506108e38261087c565b604082019050919050565b60006020820190508181036000830152610907816108cb565b9050919050565b600081519050919050565b600081905092915050565b60005b83811015610942578082015181840152602081019050610927565b60008484015250505050565b60006109598261090e565b6109638185610919565b9350610973818560208601610924565b80840191505092915050565b600061098b828461094e565b915081905092915050565b600081519050919050565b6000601f19601f8301169050919050565b60006109bd82610996565b6109c7818561086b565b93506109d7818560208601610924565b6109e0816109a1565b840191505092915050565b60006020820190508181036000830152610a0581846109b2565b90509291505056fea2646970667358221220eced982ab5b1c69000cd64eaf372f2f92c17078e896fcb138bb72d35f7120e4d64736f6c63430008180033",
  "linkReferences": {},
  "deployedLinkReferences": {}
}